{
  "_format": "hh-sol-artifact-1",
  "contractName": "DOG20",
  "sourceName": "contracts/token/PX/DOG20.sol",
  "abi": [
    {
      "inputs": [],
      "stateMutability": "nonpayable",
      "type": "constructor"
    },
    {
      "anonymous": false,
      "inputs": [
        {
          "indexed": true,
          "internalType": "address",
          "name": "owner",
          "type": "address"
        },
        {
          "indexed": true,
          "internalType": "address",
          "name": "spender",
          "type": "address"
        },
        {
          "indexed": false,
          "internalType": "uint256",
          "name": "value",
          "type": "uint256"
        }
      ],
      "name": "Approval",
      "type": "event"
    },
    {
      "anonymous": false,
      "inputs": [
        {
          "indexed": true,
          "internalType": "address",
          "name": "from",
          "type": "address"
        },
        {
          "indexed": true,
          "internalType": "address",
          "name": "to",
          "type": "address"
        },
        {
          "indexed": false,
          "internalType": "uint256",
          "name": "value",
          "type": "uint256"
        }
      ],
      "name": "Transfer",
      "type": "event"
    },
    {
      "inputs": [
        {
          "internalType": "address",
          "name": "owner",
          "type": "address"
        },
        {
          "internalType": "address",
          "name": "spender",
          "type": "address"
        }
      ],
      "name": "allowance",
      "outputs": [
        {
          "internalType": "uint256",
          "name": "",
          "type": "uint256"
        }
      ],
      "stateMutability": "view",
      "type": "function"
    },
    {
      "inputs": [
        {
          "internalType": "address",
          "name": "spender",
          "type": "address"
        },
        {
          "internalType": "uint256",
          "name": "amount",
          "type": "uint256"
        }
      ],
      "name": "approve",
      "outputs": [
        {
          "internalType": "bool",
          "name": "",
          "type": "bool"
        }
      ],
      "stateMutability": "nonpayable",
      "type": "function"
    },
    {
      "inputs": [
        {
          "internalType": "address",
          "name": "account",
          "type": "address"
        }
      ],
      "name": "balanceOf",
      "outputs": [
        {
          "internalType": "uint256",
          "name": "",
          "type": "uint256"
        }
      ],
      "stateMutability": "view",
      "type": "function"
    },
    {
      "inputs": [],
      "name": "decimals",
      "outputs": [
        {
          "internalType": "uint8",
          "name": "",
          "type": "uint8"
        }
      ],
      "stateMutability": "view",
      "type": "function"
    },
    {
      "inputs": [
        {
          "internalType": "address",
          "name": "spender",
          "type": "address"
        },
        {
          "internalType": "uint256",
          "name": "subtractedValue",
          "type": "uint256"
        }
      ],
      "name": "decreaseAllowance",
      "outputs": [
        {
          "internalType": "bool",
          "name": "",
          "type": "bool"
        }
      ],
      "stateMutability": "nonpayable",
      "type": "function"
    },
    {
      "inputs": [
        {
          "internalType": "address",
          "name": "spender",
          "type": "address"
        },
        {
          "internalType": "uint256",
          "name": "addedValue",
          "type": "uint256"
        }
      ],
      "name": "increaseAllowance",
      "outputs": [
        {
          "internalType": "bool",
          "name": "",
          "type": "bool"
        }
      ],
      "stateMutability": "nonpayable",
      "type": "function"
    },
    {
      "inputs": [
        {
          "internalType": "address[]",
          "name": "holders",
          "type": "address[]"
        }
      ],
      "name": "initMock",
      "outputs": [],
      "stateMutability": "nonpayable",
      "type": "function"
    },
    {
      "inputs": [],
      "name": "name",
      "outputs": [
        {
          "internalType": "string",
          "name": "",
          "type": "string"
        }
      ],
      "stateMutability": "view",
      "type": "function"
    },
    {
      "inputs": [],
      "name": "symbol",
      "outputs": [
        {
          "internalType": "string",
          "name": "",
          "type": "string"
        }
      ],
      "stateMutability": "view",
      "type": "function"
    },
    {
      "inputs": [],
      "name": "totalSupply",
      "outputs": [
        {
          "internalType": "uint256",
          "name": "",
          "type": "uint256"
        }
      ],
      "stateMutability": "view",
      "type": "function"
    },
    {
      "inputs": [
        {
          "internalType": "address",
          "name": "recipient",
          "type": "address"
        },
        {
          "internalType": "uint256",
          "name": "amount",
          "type": "uint256"
        }
      ],
      "name": "transfer",
      "outputs": [
        {
          "internalType": "bool",
          "name": "",
          "type": "bool"
        }
      ],
      "stateMutability": "nonpayable",
      "type": "function"
    },
    {
      "inputs": [
        {
          "internalType": "address",
          "name": "sender",
          "type": "address"
        },
        {
          "internalType": "address",
          "name": "recipient",
          "type": "address"
        },
        {
          "internalType": "uint256",
          "name": "amount",
          "type": "uint256"
        }
      ],
      "name": "transferFrom",
      "outputs": [
        {
          "internalType": "bool",
          "name": "",
          "type": "bool"
        }
      ],
      "stateMutability": "nonpayable",
      "type": "function"
    }
  ],
  "bytecode": "0x60806040523480156200001157600080fd5b506040518060400160405280600581526020017f444f4732300000000000000000000000000000000000000000000000000000008152506040518060400160405280600381526020017f4432300000000000000000000000000000000000000000000000000000000000815250816003908051906020019062000096929190620000b8565b508060049080519060200190620000af929190620000b8565b505050620001cd565b828054620000c69062000168565b90600052602060002090601f016020900481019282620000ea576000855562000136565b82601f106200010557805160ff191683800117855562000136565b8280016001018555821562000136579182015b828111156200013557825182559160200191906001019062000118565b5b50905062000145919062000149565b5090565b5b80821115620001645760008160009055506001016200014a565b5090565b600060028204905060018216806200018157607f821691505b602082108114156200019857620001976200019e565b5b50919050565b7f4e487b7100000000000000000000000000000000000000000000000000000000600052602260045260246000fd5b6117d680620001dd6000396000f3fe608060405234801561001057600080fd5b50600436106100b45760003560e01c80633950935111610071578063395093511461018f57806370a08231146101bf57806395d89b41146101ef578063a457c2d71461020d578063a9059cbb1461023d578063dd62ed3e1461026d576100b4565b806306fdde03146100b9578063095ea7b3146100d75780630b4a66e11461010757806318160ddd1461012357806323b872dd14610141578063313ce56714610171575b600080fd5b6100c161029d565b6040516100ce9190611133565b60405180910390f35b6100f160048036038101906100ec9190610f1d565b61032f565b6040516100fe9190611118565b60405180910390f35b610121600480360381019061011c9190610f59565b61034d565b005b61012b6103ca565b6040516101389190611255565b60405180910390f35b61015b60048036038101906101569190610ece565b6103d4565b6040516101689190611118565b60405180910390f35b6101796104cc565b6040516101869190611270565b60405180910390f35b6101a960048036038101906101a49190610f1d565b6104d5565b6040516101b69190611118565b60405180910390f35b6101d960048036038101906101d49190610e69565b610581565b6040516101e69190611255565b60405180910390f35b6101f76105c9565b6040516102049190611133565b60405180910390f35b61022760048036038101906102229190610f1d565b61065b565b6040516102349190611118565b60405180910390f35b61025760048036038101906102529190610f1d565b610746565b6040516102649190611118565b60405180910390f35b61028760048036038101906102829190610e92565b610764565b6040516102949190611255565b60405180910390f35b6060600380546102ac906113d6565b80601f01602080910402602001604051908101604052809291908181526020018280546102d8906113d6565b80156103255780601f106102fa57610100808354040283529160200191610325565b820191906000526020600020905b81548152906001019060200180831161030857829003601f168201915b5050505050905090565b600061034361033c6107eb565b84846107f3565b6001905092915050565b60005b81518110156103b9576103a6828281518110610395577f4e487b7100000000000000000000000000000000000000000000000000000000600052603260045260246000fd5b6020026020010151620186a06109be565b80806103b190611439565b915050610350565b506103c730620186a06109be565b50565b6000600254905090565b60006103e1848484610b1e565b6000600160008673ffffffffffffffffffffffffffffffffffffffff1673ffffffffffffffffffffffffffffffffffffffff168152602001908152602001600020600061042c6107eb565b73ffffffffffffffffffffffffffffffffffffffff1673ffffffffffffffffffffffffffffffffffffffff168152602001908152602001600020549050828110156104ac576040517f08c379a00000000000000000000000000000000000000000000000000000000081526004016104a3906111b5565b60405180910390fd5b6104c0856104b86107eb565b8584036107f3565b60019150509392505050565b60006012905090565b60006105776104e26107eb565b8484600160006104f06107eb565b73ffffffffffffffffffffffffffffffffffffffff1673ffffffffffffffffffffffffffffffffffffffff16815260200190815260200160002060008873ffffffffffffffffffffffffffffffffffffffff1673ffffffffffffffffffffffffffffffffffffffff1681526020019081526020016000205461057291906112f8565b6107f3565b6001905092915050565b60008060008373ffffffffffffffffffffffffffffffffffffffff1673ffffffffffffffffffffffffffffffffffffffff168152602001908152602001600020549050919050565b6060600480546105d8906113d6565b80601f0160208091040260200160405190810160405280929190818152602001828054610604906113d6565b80156106515780601f1061062657610100808354040283529160200191610651565b820191906000526020600020905b81548152906001019060200180831161063457829003601f168201915b5050505050905090565b6000806001600061066a6107eb565b73ffffffffffffffffffffffffffffffffffffffff1673ffffffffffffffffffffffffffffffffffffffff16815260200190815260200160002060008573ffffffffffffffffffffffffffffffffffffffff1673ffffffffffffffffffffffffffffffffffffffff16815260200190815260200160002054905082811015610727576040517f08c379a000000000000000000000000000000000000000000000000000000000815260040161071e90611215565b60405180910390fd5b61073b6107326107eb565b858584036107f3565b600191505092915050565b600061075a6107536107eb565b8484610b1e565b6001905092915050565b6000600160008473ffffffffffffffffffffffffffffffffffffffff1673ffffffffffffffffffffffffffffffffffffffff16815260200190815260200160002060008373ffffffffffffffffffffffffffffffffffffffff1673ffffffffffffffffffffffffffffffffffffffff16815260200190815260200160002054905092915050565b600033905090565b600073ffffffffffffffffffffffffffffffffffffffff168373ffffffffffffffffffffffffffffffffffffffff161415610863576040517f08c379a000000000000000000000000000000000000000000000000000000000815260040161085a906111f5565b60405180910390fd5b600073ffffffffffffffffffffffffffffffffffffffff168273ffffffffffffffffffffffffffffffffffffffff1614156108d3576040517f08c379a00000000000000000000000000000000000000000000000000000000081526004016108ca90611175565b60405180910390fd5b80600160008573ffffffffffffffffffffffffffffffffffffffff1673ffffffffffffffffffffffffffffffffffffffff16815260200190815260200160002060008473ffffffffffffffffffffffffffffffffffffffff1673ffffffffffffffffffffffffffffffffffffffff168152602001908152602001600020819055508173ffffffffffffffffffffffffffffffffffffffff168373ffffffffffffffffffffffffffffffffffffffff167f8c5be1e5ebec7d5bd14f71427d1e84f3dd0314c0f7b2291e5b200ac8c7c3b925836040516109b19190611255565b60405180910390a3505050565b600073ffffffffffffffffffffffffffffffffffffffff168273ffffffffffffffffffffffffffffffffffffffff161415610a2e576040517f08c379a0000000000000000000000000000000000000000000000000000000008152600401610a2590611235565b60405180910390fd5b610a3a60008383610d9f565b8060026000828254610a4c91906112f8565b92505081905550806000808473ffffffffffffffffffffffffffffffffffffffff1673ffffffffffffffffffffffffffffffffffffffff1681526020019081526020016000206000828254610aa191906112f8565b925050819055508173ffffffffffffffffffffffffffffffffffffffff16600073ffffffffffffffffffffffffffffffffffffffff167fddf252ad1be2c89b69c2b068fc378daa952ba7f163c4a11628f55a4df523b3ef83604051610b069190611255565b60405180910390a3610b1a60008383610da4565b5050565b600073ffffffffffffffffffffffffffffffffffffffff168373ffffffffffffffffffffffffffffffffffffffff161415610b8e576040517f08c379a0000000000000000000000000000000000000000000000000000000008152600401610b85906111d5565b60405180910390fd5b600073ffffffffffffffffffffffffffffffffffffffff168273ffffffffffffffffffffffffffffffffffffffff161415610bfe576040517f08c379a0000000000000000000000000000000000000000000000000000000008152600401610bf590611155565b60405180910390fd5b610c09838383610d9f565b60008060008573ffffffffffffffffffffffffffffffffffffffff1673ffffffffffffffffffffffffffffffffffffffff16815260200190815260200160002054905081811015610c8f576040517f08c379a0000000000000000000000000000000000000000000000000000000008152600401610c8690611195565b60405180910390fd5b8181036000808673ffffffffffffffffffffffffffffffffffffffff1673ffffffffffffffffffffffffffffffffffffffff16815260200190815260200160002081905550816000808573ffffffffffffffffffffffffffffffffffffffff1673ffffffffffffffffffffffffffffffffffffffff1681526020019081526020016000206000828254610d2291906112f8565b925050819055508273ffffffffffffffffffffffffffffffffffffffff168473ffffffffffffffffffffffffffffffffffffffff167fddf252ad1be2c89b69c2b068fc378daa952ba7f163c4a11628f55a4df523b3ef84604051610d869190611255565b60405180910390a3610d99848484610da4565b50505050565b505050565b505050565b6000610dbc610db7846112b0565b61128b565b90508083825260208201905082856020860282011115610ddb57600080fd5b60005b85811015610e0b5781610df18882610e15565b845260208401935060208301925050600181019050610dde565b5050509392505050565b600081359050610e2481611772565b92915050565b600082601f830112610e3b57600080fd5b8135610e4b848260208601610da9565b91505092915050565b600081359050610e6381611789565b92915050565b600060208284031215610e7b57600080fd5b6000610e8984828501610e15565b91505092915050565b60008060408385031215610ea557600080fd5b6000610eb385828601610e15565b9250506020610ec485828601610e15565b9150509250929050565b600080600060608486031215610ee357600080fd5b6000610ef186828701610e15565b9350506020610f0286828701610e15565b9250506040610f1386828701610e54565b9150509250925092565b60008060408385031215610f3057600080fd5b6000610f3e85828601610e15565b9250506020610f4f85828601610e54565b9150509250929050565b600060208284031215610f6b57600080fd5b600082013567ffffffffffffffff811115610f8557600080fd5b610f9184828501610e2a565b91505092915050565b610fa381611360565b82525050565b6000610fb4826112dc565b610fbe81856112e7565b9350610fce8185602086016113a3565b610fd78161150f565b840191505092915050565b6000610fef6023836112e7565b9150610ffa82611520565b604082019050919050565b60006110126022836112e7565b915061101d8261156f565b604082019050919050565b60006110356026836112e7565b9150611040826115be565b604082019050919050565b60006110586028836112e7565b91506110638261160d565b604082019050919050565b600061107b6025836112e7565b91506110868261165c565b604082019050919050565b600061109e6024836112e7565b91506110a9826116ab565b604082019050919050565b60006110c16025836112e7565b91506110cc826116fa565b604082019050919050565b60006110e4601f836112e7565b91506110ef82611749565b602082019050919050565b6111038161138c565b82525050565b61111281611396565b82525050565b600060208201905061112d6000830184610f9a565b92915050565b6000602082019050818103600083015261114d8184610fa9565b905092915050565b6000602082019050818103600083015261116e81610fe2565b9050919050565b6000602082019050818103600083015261118e81611005565b9050919050565b600060208201905081810360008301526111ae81611028565b9050919050565b600060208201905081810360008301526111ce8161104b565b9050919050565b600060208201905081810360008301526111ee8161106e565b9050919050565b6000602082019050818103600083015261120e81611091565b9050919050565b6000602082019050818103600083015261122e816110b4565b9050919050565b6000602082019050818103600083015261124e816110d7565b9050919050565b600060208201905061126a60008301846110fa565b92915050565b60006020820190506112856000830184611109565b92915050565b60006112956112a6565b90506112a18282611408565b919050565b6000604051905090565b600067ffffffffffffffff8211156112cb576112ca6114e0565b5b602082029050602081019050919050565b600081519050919050565b600082825260208201905092915050565b60006113038261138c565b915061130e8361138c565b9250827fffffffffffffffffffffffffffffffffffffffffffffffffffffffffffffffff0382111561134357611342611482565b5b828201905092915050565b60006113598261136c565b9050919050565b60008115159050919050565b600073ffffffffffffffffffffffffffffffffffffffff82169050919050565b6000819050919050565b600060ff82169050919050565b60005b838110156113c15780820151818401526020810190506113a6565b838111156113d0576000848401525b50505050565b600060028204905060018216806113ee57607f821691505b60208210811415611402576114016114b1565b5b50919050565b6114118261150f565b810181811067ffffffffffffffff821117156114305761142f6114e0565b5b80604052505050565b60006114448261138c565b91507fffffffffffffffffffffffffffffffffffffffffffffffffffffffffffffffff82141561147757611476611482565b5b600182019050919050565b7f4e487b7100000000000000000000000000000000000000000000000000000000600052601160045260246000fd5b7f4e487b7100000000000000000000000000000000000000000000000000000000600052602260045260246000fd5b7f4e487b7100000000000000000000000000000000000000000000000000000000600052604160045260246000fd5b6000601f19601f8301169050919050565b7f45524332303a207472616e7366657220746f20746865207a65726f206164647260008201527f6573730000000000000000000000000000000000000000000000000000000000602082015250565b7f45524332303a20617070726f766520746f20746865207a65726f20616464726560008201527f7373000000000000000000000000000000000000000000000000000000000000602082015250565b7f45524332303a207472616e7366657220616d6f756e742065786365656473206260008201527f616c616e63650000000000000000000000000000000000000000000000000000602082015250565b7f45524332303a207472616e7366657220616d6f756e742065786365656473206160008201527f6c6c6f77616e6365000000000000000000000000000000000000000000000000602082015250565b7f45524332303a207472616e736665722066726f6d20746865207a65726f20616460008201527f6472657373000000000000000000000000000000000000000000000000000000602082015250565b7f45524332303a20617070726f76652066726f6d20746865207a65726f2061646460008201527f7265737300000000000000000000000000000000000000000000000000000000602082015250565b7f45524332303a2064656372656173656420616c6c6f77616e63652062656c6f7760008201527f207a65726f000000000000000000000000000000000000000000000000000000602082015250565b7f45524332303a206d696e7420746f20746865207a65726f206164647265737300600082015250565b61177b8161134e565b811461178657600080fd5b50565b6117928161138c565b811461179d57600080fd5b5056fea26469706673582212208ab1ecf79590b03ead9c6626fb048d602da9108c8d26c55af78e1052608f234864736f6c63430008030033",
  "linkReferences": {},
  "deployedLinkReferences": {}
}