{
  "_format": "hh-sol-artifact-1",
  "contractName": "MathMock",
  "sourceName": "contracts/mocks/MathMock.sol",
  "abi": [
    {
      "inputs": [
        {
          "internalType": "uint256",
          "name": "a",
          "type": "uint256"
        },
        {
          "internalType": "uint256",
          "name": "b",
          "type": "uint256"
        }
      ],
      "name": "average",
      "outputs": [
        {
          "internalType": "uint256",
          "name": "",
          "type": "uint256"
        }
      ],
      "stateMutability": "pure",
      "type": "function"
    },
    {
      "inputs": [
        {
          "internalType": "uint256",
          "name": "a",
          "type": "uint256"
        },
        {
          "internalType": "uint256",
          "name": "b",
          "type": "uint256"
        }
      ],
      "name": "ceilDiv",
      "outputs": [
        {
          "internalType": "uint256",
          "name": "",
          "type": "uint256"
        }
      ],
      "stateMutability": "pure",
      "type": "function"
    },
    {
      "inputs": [
        {
          "internalType": "uint256",
          "name": "a",
          "type": "uint256"
        },
        {
          "internalType": "uint256",
          "name": "b",
          "type": "uint256"
        }
      ],
      "name": "max",
      "outputs": [
        {
          "internalType": "uint256",
          "name": "",
          "type": "uint256"
        }
      ],
      "stateMutability": "pure",
      "type": "function"
    },
    {
      "inputs": [
        {
          "internalType": "uint256",
          "name": "a",
          "type": "uint256"
        },
        {
          "internalType": "uint256",
          "name": "b",
          "type": "uint256"
        }
      ],
      "name": "min",
      "outputs": [
        {
          "internalType": "uint256",
          "name": "",
          "type": "uint256"
        }
      ],
      "stateMutability": "pure",
      "type": "function"
    }
  ],
  "bytecode": "0x608060405234801561001057600080fd5b506103e1806100206000396000f3fe608060405234801561001057600080fd5b506004361061004c5760003560e01c80632b7423ab146100515780636d5433e6146100815780637ae2b5c7146100b15780639cb35327146100e1575b600080fd5b61006b6004803603810190610066919061020e565b610111565b6040516100789190610259565b60405180910390f35b61009b6004803603810190610096919061020e565b610125565b6040516100a89190610259565b60405180910390f35b6100cb60048036038101906100c6919061020e565b610139565b6040516100d89190610259565b60405180910390f35b6100fb60048036038101906100f6919061020e565b61014d565b6040516101089190610259565b60405180910390f35b600061011d8383610161565b905092915050565b60006101318383610187565b905092915050565b600061014583836101a1565b905092915050565b600061015983836101ba565b905092915050565b6000600282841861017291906102ca565b82841661017f9190610274565b905092915050565b6000818310156101975781610199565b825b905092915050565b60008183106101b057816101b2565b825b905092915050565b60008082846101c99190610305565b146101d55760016101d8565b60005b60ff1682846101e791906102ca565b6101f19190610274565b905092915050565b60008135905061020881610394565b92915050565b6000806040838503121561022157600080fd5b600061022f858286016101f9565b9250506020610240858286016101f9565b9150509250929050565b610253816102fb565b82525050565b600060208201905061026e600083018461024a565b92915050565b600061027f826102fb565b915061028a836102fb565b9250827fffffffffffffffffffffffffffffffffffffffffffffffffffffffffffffffff038211156102bf576102be610336565b5b828201905092915050565b60006102d5826102fb565b91506102e0836102fb565b9250826102f0576102ef610365565b5b828204905092915050565b6000819050919050565b6000610310826102fb565b915061031b836102fb565b92508261032b5761032a610365565b5b828206905092915050565b7f4e487b7100000000000000000000000000000000000000000000000000000000600052601160045260246000fd5b7f4e487b7100000000000000000000000000000000000000000000000000000000600052601260045260246000fd5b61039d816102fb565b81146103a857600080fd5b5056fea2646970667358221220f958c1bd2e7760d52d9171ca117593e548b55a4aaac90023dde93217d79c23ce64736f6c63430008030033",
  "linkReferences": {},
  "deployedLinkReferences": {}
}