{
  "_format": "hh-sol-artifact-1",
  "contractName": "GovernorTimelockControlMock",
  "sourceName": "contracts/mocks/GovernorTimelockControlMock.sol",
  "abi": [
    {
      "inputs": [
        {
          "internalType": "string",
          "name": "name_",
          "type": "string"
        },
        {
          "internalType": "contract ERC20Votes",
          "name": "token_",
          "type": "address"
        },
        {
          "internalType": "uint256",
          "name": "votingDelay_",
          "type": "uint256"
        },
        {
          "internalType": "uint256",
          "name": "votingPeriod_",
          "type": "uint256"
        },
        {
          "internalType": "contract TimelockController",
          "name": "timelock_",
          "type": "address"
        },
        {
          "internalType": "uint256",
          "name": "quorumNumerator_",
          "type": "uint256"
        }
      ],
      "stateMutability": "nonpayable",
      "type": "constructor"
    },
    {
      "anonymous": false,
      "inputs": [
        {
          "indexed": false,
          "internalType": "uint256",
          "name": "proposalId",
          "type": "uint256"
        }
      ],
      "name": "ProposalCanceled",
      "type": "event"
    },
    {
      "anonymous": false,
      "inputs": [
        {
          "indexed": false,
          "internalType": "uint256",
          "name": "proposalId",
          "type": "uint256"
        },
        {
          "indexed": false,
          "internalType": "address",
          "name": "proposer",
          "type": "address"
        },
        {
          "indexed": false,
          "internalType": "address[]",
          "name": "targets",
          "type": "address[]"
        },
        {
          "indexed": false,
          "internalType": "uint256[]",
          "name": "values",
          "type": "uint256[]"
        },
        {
          "indexed": false,
          "internalType": "string[]",
          "name": "signatures",
          "type": "string[]"
        },
        {
          "indexed": false,
          "internalType": "bytes[]",
          "name": "calldatas",
          "type": "bytes[]"
        },
        {
          "indexed": false,
          "internalType": "uint256",
          "name": "startBlock",
          "type": "uint256"
        },
        {
          "indexed": false,
          "internalType": "uint256",
          "name": "endBlock",
          "type": "uint256"
        },
        {
          "indexed": false,
          "internalType": "string",
          "name": "description",
          "type": "string"
        }
      ],
      "name": "ProposalCreated",
      "type": "event"
    },
    {
      "anonymous": false,
      "inputs": [
        {
          "indexed": false,
          "internalType": "uint256",
          "name": "proposalId",
          "type": "uint256"
        }
      ],
      "name": "ProposalExecuted",
      "type": "event"
    },
    {
      "anonymous": false,
      "inputs": [
        {
          "indexed": false,
          "internalType": "uint256",
          "name": "proposalId",
          "type": "uint256"
        },
        {
          "indexed": false,
          "internalType": "uint256",
          "name": "eta",
          "type": "uint256"
        }
      ],
      "name": "ProposalQueued",
      "type": "event"
    },
    {
      "anonymous": false,
      "inputs": [
        {
          "indexed": false,
          "internalType": "uint256",
          "name": "oldProposalThreshold",
          "type": "uint256"
        },
        {
          "indexed": false,
          "internalType": "uint256",
          "name": "newProposalThreshold",
          "type": "uint256"
        }
      ],
      "name": "ProposalThresholdSet",
      "type": "event"
    },
    {
      "anonymous": false,
      "inputs": [
        {
          "indexed": false,
          "internalType": "uint256",
          "name": "oldQuorumNumerator",
          "type": "uint256"
        },
        {
          "indexed": false,
          "internalType": "uint256",
          "name": "newQuorumNumerator",
          "type": "uint256"
        }
      ],
      "name": "QuorumNumeratorUpdated",
      "type": "event"
    },
    {
      "anonymous": false,
      "inputs": [
        {
          "indexed": false,
          "internalType": "address",
          "name": "oldTimelock",
          "type": "address"
        },
        {
          "indexed": false,
          "internalType": "address",
          "name": "newTimelock",
          "type": "address"
        }
      ],
      "name": "TimelockChange",
      "type": "event"
    },
    {
      "anonymous": false,
      "inputs": [
        {
          "indexed": true,
          "internalType": "address",
          "name": "voter",
          "type": "address"
        },
        {
          "indexed": false,
          "internalType": "uint256",
          "name": "proposalId",
          "type": "uint256"
        },
        {
          "indexed": false,
          "internalType": "uint8",
          "name": "support",
          "type": "uint8"
        },
        {
          "indexed": false,
          "internalType": "uint256",
          "name": "weight",
          "type": "uint256"
        },
        {
          "indexed": false,
          "internalType": "string",
          "name": "reason",
          "type": "string"
        }
      ],
      "name": "VoteCast",
      "type": "event"
    },
    {
      "anonymous": false,
      "inputs": [
        {
          "indexed": false,
          "internalType": "uint256",
          "name": "oldVotingDelay",
          "type": "uint256"
        },
        {
          "indexed": false,
          "internalType": "uint256",
          "name": "newVotingDelay",
          "type": "uint256"
        }
      ],
      "name": "VotingDelaySet",
      "type": "event"
    },
    {
      "anonymous": false,
      "inputs": [
        {
          "indexed": false,
          "internalType": "uint256",
          "name": "oldVotingPeriod",
          "type": "uint256"
        },
        {
          "indexed": false,
          "internalType": "uint256",
          "name": "newVotingPeriod",
          "type": "uint256"
        }
      ],
      "name": "VotingPeriodSet",
      "type": "event"
    },
    {
      "inputs": [],
      "name": "BALLOT_TYPEHASH",
      "outputs": [
        {
          "internalType": "bytes32",
          "name": "",
          "type": "bytes32"
        }
      ],
      "stateMutability": "view",
      "type": "function"
    },
    {
      "inputs": [],
      "name": "COUNTING_MODE",
      "outputs": [
        {
          "internalType": "string",
          "name": "",
          "type": "string"
        }
      ],
      "stateMutability": "pure",
      "type": "function"
    },
    {
      "inputs": [
        {
          "internalType": "address[]",
          "name": "targets",
          "type": "address[]"
        },
        {
          "internalType": "uint256[]",
          "name": "values",
          "type": "uint256[]"
        },
        {
          "internalType": "bytes[]",
          "name": "calldatas",
          "type": "bytes[]"
        },
        {
          "internalType": "bytes32",
          "name": "descriptionHash",
          "type": "bytes32"
        }
      ],
      "name": "cancel",
      "outputs": [
        {
          "internalType": "uint256",
          "name": "proposalId",
          "type": "uint256"
        }
      ],
      "stateMutability": "nonpayable",
      "type": "function"
    },
    {
      "inputs": [
        {
          "internalType": "uint256",
          "name": "proposalId",
          "type": "uint256"
        },
        {
          "internalType": "uint8",
          "name": "support",
          "type": "uint8"
        }
      ],
      "name": "castVote",
      "outputs": [
        {
          "internalType": "uint256",
          "name": "",
          "type": "uint256"
        }
      ],
      "stateMutability": "nonpayable",
      "type": "function"
    },
    {
      "inputs": [
        {
          "internalType": "uint256",
          "name": "proposalId",
          "type": "uint256"
        },
        {
          "internalType": "uint8",
          "name": "support",
          "type": "uint8"
        },
        {
          "internalType": "uint8",
          "name": "v",
          "type": "uint8"
        },
        {
          "internalType": "bytes32",
          "name": "r",
          "type": "bytes32"
        },
        {
          "internalType": "bytes32",
          "name": "s",
          "type": "bytes32"
        }
      ],
      "name": "castVoteBySig",
      "outputs": [
        {
          "internalType": "uint256",
          "name": "",
          "type": "uint256"
        }
      ],
      "stateMutability": "nonpayable",
      "type": "function"
    },
    {
      "inputs": [
        {
          "internalType": "uint256",
          "name": "proposalId",
          "type": "uint256"
        },
        {
          "internalType": "uint8",
          "name": "support",
          "type": "uint8"
        },
        {
          "internalType": "string",
          "name": "reason",
          "type": "string"
        }
      ],
      "name": "castVoteWithReason",
      "outputs": [
        {
          "internalType": "uint256",
          "name": "",
          "type": "uint256"
        }
      ],
      "stateMutability": "nonpayable",
      "type": "function"
    },
    {
      "inputs": [
        {
          "internalType": "address[]",
          "name": "targets",
          "type": "address[]"
        },
        {
          "internalType": "uint256[]",
          "name": "values",
          "type": "uint256[]"
        },
        {
          "internalType": "bytes[]",
          "name": "calldatas",
          "type": "bytes[]"
        },
        {
          "internalType": "bytes32",
          "name": "descriptionHash",
          "type": "bytes32"
        }
      ],
      "name": "execute",
      "outputs": [
        {
          "internalType": "uint256",
          "name": "",
          "type": "uint256"
        }
      ],
      "stateMutability": "payable",
      "type": "function"
    },
    {
      "inputs": [
        {
          "internalType": "address",
          "name": "account",
          "type": "address"
        },
        {
          "internalType": "uint256",
          "name": "blockNumber",
          "type": "uint256"
        }
      ],
      "name": "getVotes",
      "outputs": [
        {
          "internalType": "uint256",
          "name": "",
          "type": "uint256"
        }
      ],
      "stateMutability": "view",
      "type": "function"
    },
    {
      "inputs": [
        {
          "internalType": "uint256",
          "name": "proposalId",
          "type": "uint256"
        },
        {
          "internalType": "address",
          "name": "account",
          "type": "address"
        }
      ],
      "name": "hasVoted",
      "outputs": [
        {
          "internalType": "bool",
          "name": "",
          "type": "bool"
        }
      ],
      "stateMutability": "view",
      "type": "function"
    },
    {
      "inputs": [
        {
          "internalType": "address[]",
          "name": "targets",
          "type": "address[]"
        },
        {
          "internalType": "uint256[]",
          "name": "values",
          "type": "uint256[]"
        },
        {
          "internalType": "bytes[]",
          "name": "calldatas",
          "type": "bytes[]"
        },
        {
          "internalType": "bytes32",
          "name": "descriptionHash",
          "type": "bytes32"
        }
      ],
      "name": "hashProposal",
      "outputs": [
        {
          "internalType": "uint256",
          "name": "",
          "type": "uint256"
        }
      ],
      "stateMutability": "pure",
      "type": "function"
    },
    {
      "inputs": [],
      "name": "name",
      "outputs": [
        {
          "internalType": "string",
          "name": "",
          "type": "string"
        }
      ],
      "stateMutability": "view",
      "type": "function"
    },
    {
      "inputs": [
        {
          "internalType": "uint256",
          "name": "proposalId",
          "type": "uint256"
        }
      ],
      "name": "proposalDeadline",
      "outputs": [
        {
          "internalType": "uint256",
          "name": "",
          "type": "uint256"
        }
      ],
      "stateMutability": "view",
      "type": "function"
    },
    {
      "inputs": [
        {
          "internalType": "uint256",
          "name": "proposalId",
          "type": "uint256"
        }
      ],
      "name": "proposalEta",
      "outputs": [
        {
          "internalType": "uint256",
          "name": "",
          "type": "uint256"
        }
      ],
      "stateMutability": "view",
      "type": "function"
    },
    {
      "inputs": [
        {
          "internalType": "uint256",
          "name": "proposalId",
          "type": "uint256"
        }
      ],
      "name": "proposalSnapshot",
      "outputs": [
        {
          "internalType": "uint256",
          "name": "",
          "type": "uint256"
        }
      ],
      "stateMutability": "view",
      "type": "function"
    },
    {
      "inputs": [],
      "name": "proposalThreshold",
      "outputs": [
        {
          "internalType": "uint256",
          "name": "",
          "type": "uint256"
        }
      ],
      "stateMutability": "view",
      "type": "function"
    },
    {
      "inputs": [
        {
          "internalType": "uint256",
          "name": "proposalId",
          "type": "uint256"
        }
      ],
      "name": "proposalVotes",
      "outputs": [
        {
          "internalType": "uint256",
          "name": "againstVotes",
          "type": "uint256"
        },
        {
          "internalType": "uint256",
          "name": "forVotes",
          "type": "uint256"
        },
        {
          "internalType": "uint256",
          "name": "abstainVotes",
          "type": "uint256"
        }
      ],
      "stateMutability": "view",
      "type": "function"
    },
    {
      "inputs": [
        {
          "internalType": "address[]",
          "name": "targets",
          "type": "address[]"
        },
        {
          "internalType": "uint256[]",
          "name": "values",
          "type": "uint256[]"
        },
        {
          "internalType": "bytes[]",
          "name": "calldatas",
          "type": "bytes[]"
        },
        {
          "internalType": "string",
          "name": "description",
          "type": "string"
        }
      ],
      "name": "propose",
      "outputs": [
        {
          "internalType": "uint256",
          "name": "",
          "type": "uint256"
        }
      ],
      "stateMutability": "nonpayable",
      "type": "function"
    },
    {
      "inputs": [
        {
          "internalType": "address[]",
          "name": "targets",
          "type": "address[]"
        },
        {
          "internalType": "uint256[]",
          "name": "values",
          "type": "uint256[]"
        },
        {
          "internalType": "bytes[]",
          "name": "calldatas",
          "type": "bytes[]"
        },
        {
          "internalType": "bytes32",
          "name": "descriptionHash",
          "type": "bytes32"
        }
      ],
      "name": "queue",
      "outputs": [
        {
          "internalType": "uint256",
          "name": "",
          "type": "uint256"
        }
      ],
      "stateMutability": "nonpayable",
      "type": "function"
    },
    {
      "inputs": [
        {
          "internalType": "uint256",
          "name": "blockNumber",
          "type": "uint256"
        }
      ],
      "name": "quorum",
      "outputs": [
        {
          "internalType": "uint256",
          "name": "",
          "type": "uint256"
        }
      ],
      "stateMutability": "view",
      "type": "function"
    },
    {
      "inputs": [],
      "name": "quorumDenominator",
      "outputs": [
        {
          "internalType": "uint256",
          "name": "",
          "type": "uint256"
        }
      ],
      "stateMutability": "view",
      "type": "function"
    },
    {
      "inputs": [],
      "name": "quorumNumerator",
      "outputs": [
        {
          "internalType": "uint256",
          "name": "",
          "type": "uint256"
        }
      ],
      "stateMutability": "view",
      "type": "function"
    },
    {
      "inputs": [
        {
          "internalType": "uint256",
          "name": "newProposalThreshold",
          "type": "uint256"
        }
      ],
      "name": "setProposalThreshold",
      "outputs": [],
      "stateMutability": "nonpayable",
      "type": "function"
    },
    {
      "inputs": [
        {
          "internalType": "uint256",
          "name": "newVotingDelay",
          "type": "uint256"
        }
      ],
      "name": "setVotingDelay",
      "outputs": [],
      "stateMutability": "nonpayable",
      "type": "function"
    },
    {
      "inputs": [
        {
          "internalType": "uint256",
          "name": "newVotingPeriod",
          "type": "uint256"
        }
      ],
      "name": "setVotingPeriod",
      "outputs": [],
      "stateMutability": "nonpayable",
      "type": "function"
    },
    {
      "inputs": [
        {
          "internalType": "uint256",
          "name": "proposalId",
          "type": "uint256"
        }
      ],
      "name": "state",
      "outputs": [
        {
          "internalType": "enum IGovernor.ProposalState",
          "name": "",
          "type": "uint8"
        }
      ],
      "stateMutability": "view",
      "type": "function"
    },
    {
      "inputs": [
        {
          "internalType": "bytes4",
          "name": "interfaceId",
          "type": "bytes4"
        }
      ],
      "name": "supportsInterface",
      "outputs": [
        {
          "internalType": "bool",
          "name": "",
          "type": "bool"
        }
      ],
      "stateMutability": "view",
      "type": "function"
    },
    {
      "inputs": [],
      "name": "timelock",
      "outputs": [
        {
          "internalType": "address",
          "name": "",
          "type": "address"
        }
      ],
      "stateMutability": "view",
      "type": "function"
    },
    {
      "inputs": [],
      "name": "token",
      "outputs": [
        {
          "internalType": "contract ERC20Votes",
          "name": "",
          "type": "address"
        }
      ],
      "stateMutability": "view",
      "type": "function"
    },
    {
      "inputs": [
        {
          "internalType": "uint256",
          "name": "newQuorumNumerator",
          "type": "uint256"
        }
      ],
      "name": "updateQuorumNumerator",
      "outputs": [],
      "stateMutability": "nonpayable",
      "type": "function"
    },
    {
      "inputs": [
        {
          "internalType": "contract TimelockController",
          "name": "newTimelock",
          "type": "address"
        }
      ],
      "name": "updateTimelock",
      "outputs": [],
      "stateMutability": "nonpayable",
      "type": "function"
    },
    {
      "inputs": [],
      "name": "version",
      "outputs": [
        {
          "internalType": "string",
          "name": "",
          "type": "string"
        }
      ],
      "stateMutability": "view",
      "type": "function"
    },
    {
      "inputs": [],
      "name": "votingDelay",
      "outputs": [
        {
          "internalType": "uint256",
          "name": "",
          "type": "uint256"
        }
      ],
      "stateMutability": "view",
      "type": "function"
    },
    {
      "inputs": [],
      "name": "votingPeriod",
      "outputs": [
        {
          "internalType": "uint256",
          "name": "",
          "type": "uint256"
        }
      ],
      "stateMutability": "view",
      "type": "function"
    },
    {
      "stateMutability": "payable",
      "type": "receive"
    }
  ],
  "bytecode": "0x6101606040523480156200001257600080fd5b5060405162005eb138038062005eb1833981810160405281019062000038919062000606565b808583868660008b8062000051620001bf60201b60201c565b60008280519060200120905060008280519060200120905060007f8b73c3c69bb8fe3d512ecc4cf759cc79239f7b179b0ffacaa9a75d522b39400f90508260e081815250508161010081815250504660a08181525050620000ba818484620001fc60201b60201c565b608081815250503073ffffffffffffffffffffffffffffffffffffffff1660c08173ffffffffffffffffffffffffffffffffffffffff1660601b81525050806101208181525050505050505080600090805190602001906200011e9291906200049f565b505062000131836200023860201b60201c565b62000142826200027f60201b60201c565b62000153816200030c60201b60201c565b50505062000167816200035360201b60201c565b508073ffffffffffffffffffffffffffffffffffffffff166101408173ffffffffffffffffffffffffffffffffffffffff1660601b8152505050620001b281620003f460201b60201c565b5050505050505062000b48565b60606040518060400160405280600181526020017f3100000000000000000000000000000000000000000000000000000000000000815250905090565b600083838346306040516020016200021995949392919062000763565b6040516020818303038152906040528051906020012090509392505050565b7fc565b045403dc03c2eea82b81a0465edad9e2e7fc4d97e11421c209da93d7a93600254826040516200026d92919062000804565b60405180910390a18060028190555050565b60008111620002c5576040517f08c379a0000000000000000000000000000000000000000000000000000000008152600401620002bc90620007e2565b60405180910390fd5b7f7e3f7f0708a84de9203036abaa450dccc85ad5ff52f78c170f3edb55cf5e882860035482604051620002fa92919062000804565b60405180910390a18060038190555050565b7fccb45da8d5717e6c4544694297c4ba5cf151d455c9bb0ed4fc7a38411bc05461600454826040516200034192919062000804565b60405180910390a18060048190555050565b7f08f74ea46ef7894f65eabfb5e6e695de773a000b47c529ab559178069b226401600560009054906101000a900473ffffffffffffffffffffffffffffffffffffffff1682604051620003a892919062000736565b60405180910390a180600560006101000a81548173ffffffffffffffffffffffffffffffffffffffff021916908373ffffffffffffffffffffffffffffffffffffffff16021790555050565b620004046200049660201b60201c565b81111562000449576040517f08c379a00000000000000000000000000000000000000000000000000000000081526004016200044090620007c0565b60405180910390fd5b60006007549050816007819055507f0553476bf02ef2726e8ce5ced78d63e26e602e4a2257b1f559418e24b463399781836040516200048a92919062000804565b60405180910390a15050565b60006064905090565b828054620004ad906200095b565b90600052602060002090601f016020900481019282620004d157600085556200051d565b82601f10620004ec57805160ff19168380011785556200051d565b828001600101855582156200051d579182015b828111156200051c578251825591602001919060010190620004ff565b5b5090506200052c919062000530565b5090565b5b808211156200054b57600081600090555060010162000531565b5090565b60006200056662000560846200085a565b62000831565b9050828152602081018484840111156200057f57600080fd5b6200058c84828562000925565b509392505050565b600081519050620005a58162000afa565b92915050565b600081519050620005bc8162000b14565b92915050565b600082601f830112620005d457600080fd5b8151620005e68482602086016200054f565b91505092915050565b600081519050620006008162000b2e565b92915050565b60008060008060008060c087890312156200062057600080fd5b600087015167ffffffffffffffff8111156200063b57600080fd5b6200064989828a01620005c2565b96505060206200065c89828a0162000594565b95505060406200066f89828a01620005ef565b94505060606200068289828a01620005ef565b93505060806200069589828a01620005ab565b92505060a0620006a889828a01620005ef565b9150509295509295509295565b620006c081620008a1565b82525050565b620006d181620008c9565b82525050565b6000620006e660438362000890565b9150620006f38262000a36565b606082019050919050565b60006200070d60278362000890565b91506200071a8262000aab565b604082019050919050565b62000730816200091b565b82525050565b60006040820190506200074d6000830185620006b5565b6200075c6020830184620006b5565b9392505050565b600060a0820190506200077a6000830188620006c6565b620007896020830187620006c6565b620007986040830186620006c6565b620007a7606083018562000725565b620007b66080830184620006b5565b9695505050505050565b60006020820190508181036000830152620007db81620006d7565b9050919050565b60006020820190508181036000830152620007fd81620006fe565b9050919050565b60006040820190506200081b600083018562000725565b6200082a602083018462000725565b9392505050565b60006200083d62000850565b90506200084b828262000991565b919050565b6000604051905090565b600067ffffffffffffffff821115620008785762000877620009f6565b5b620008838262000a25565b9050602081019050919050565b600082825260208201905092915050565b6000620008ae82620008fb565b9050919050565b6000620008c282620008fb565b9050919050565b6000819050919050565b6000620008e082620008a1565b9050919050565b6000620008f482620008b5565b9050919050565b600073ffffffffffffffffffffffffffffffffffffffff82169050919050565b6000819050919050565b60005b838110156200094557808201518184015260208101905062000928565b8381111562000955576000848401525b50505050565b600060028204905060018216806200097457607f821691505b602082108114156200098b576200098a620009c7565b5b50919050565b6200099c8262000a25565b810181811067ffffffffffffffff82111715620009be57620009bd620009f6565b5b80604052505050565b7f4e487b7100000000000000000000000000000000000000000000000000000000600052602260045260246000fd5b7f4e487b7100000000000000000000000000000000000000000000000000000000600052604160045260246000fd5b6000601f19601f8301169050919050565b7f476f7665726e6f72566f74657351756f72756d4672616374696f6e3a2071756f60008201527f72756d4e756d657261746f72206f7665722071756f72756d44656e6f6d696e6160208201527f746f720000000000000000000000000000000000000000000000000000000000604082015250565b7f476f7665726e6f7253657474696e67733a20766f74696e6720706572696f642060008201527f746f6f206c6f7700000000000000000000000000000000000000000000000000602082015250565b62000b0581620008d3565b811462000b1157600080fd5b50565b62000b1f81620008e7565b811462000b2b57600080fd5b50565b62000b39816200091b565b811462000b4557600080fd5b50565b60805160a05160c05160601c60e05161010051610120516101405160601c6152fa62000bb76000396000818161195f0152818161207e015261218801526000612410015260006124520152600061243101526000612366015260006123bc015260006123e501526152fa6000f3fe6080604052600436106101f25760003560e01c80637b3c71d31161010d578063c59057e4116100a0578063ea0217cf1161006f578063ea0217cf146107ee578063eb9019d414610817578063ece40cc114610854578063f8ce560a1461087d578063fc0c546a146108ba57610238565b8063c59057e414610730578063d33219b41461076d578063dd4e2ba514610798578063deaaa7cc146107c357610238565b8063a890c910116100dc578063a890c91014610662578063ab58fb8e1461068b578063b58131b0146106c8578063c01f9e37146106f357610238565b80637b3c71d3146105925780637d5e81e2146105cf57806397c3d3341461060c578063a7713a701461063757610238565b80633bccf4fd11610185578063544ffc9c11610154578063544ffc9c146104c257806354fd4d5014610501578063567813881461052c57806370b0f6601461056957610238565b80633bccf4fd146103ce5780633e4f49e61461040b5780634385963214610448578063452115d61461048557610238565b8063160cbed7116101c1578063160cbed7146102f95780632656227d146103365780632d63f693146103665780633932abb1146103a357610238565b806301ffc9a71461023d57806302a251a31461027a57806306f3f9e6146102a557806306fdde03146102ce57610238565b36610238573073ffffffffffffffffffffffffffffffffffffffff166102166108e5565b73ffffffffffffffffffffffffffffffffffffffff161461023657600080fd5b005b600080fd5b34801561024957600080fd5b50610264600480360381019061025f9190613773565b6108f4565b604051610271919061414c565b60405180910390f35b34801561028657600080fd5b5061028f610906565b60405161029c91906144e9565b60405180910390f35b3480156102b157600080fd5b506102cc60048036038101906102c791906137c5565b610910565b005b3480156102da57600080fd5b506102e3610998565b6040516102f09190614287565b60405180910390f35b34801561030557600080fd5b50610320600480360381019061031b91906135b3565b610a2a565b60405161032d91906144e9565b60405180910390f35b610350600480360381019061034b91906135b3565b610d4e565b60405161035d91906144e9565b60405180910390f35b34801561037257600080fd5b5061038d600480360381019061038891906137c5565b610f19565b60405161039a91906144e9565b60405180910390f35b3480156103af57600080fd5b506103b8610f87565b6040516103c591906144e9565b60405180910390f35b3480156103da57600080fd5b506103f560048036038101906103f091906138fb565b610f91565b60405161040291906144e9565b60405180910390f35b34801561041757600080fd5b50610432600480360381019061042d91906137c5565b61101b565b60405161043f919061426c565b60405180910390f35b34801561045457600080fd5b5061046f600480360381019061046a9190613817565b61102d565b60405161047c919061414c565b60405180910390f35b34801561049157600080fd5b506104ac60048036038101906104a791906135b3565b611098565b6040516104b991906144e9565b60405180910390f35b3480156104ce57600080fd5b506104e960048036038101906104e491906137c5565b6110b0565b6040516104f8939291906145dd565b60405180910390f35b34801561050d57600080fd5b506105166110e8565b6040516105239190614287565b60405180910390f35b34801561053857600080fd5b50610553600480360381019061054e9190613853565b611125565b60405161056091906144e9565b60405180910390f35b34801561057557600080fd5b50610590600480360381019061058b91906137c5565b611156565b005b34801561059e57600080fd5b506105b960048036038101906105b4919061388f565b6111de565b6040516105c691906144e9565b60405180910390f35b3480156105db57600080fd5b506105f660048036038101906105f1919061365e565b611246565b60405161060391906144e9565b60405180910390f35b34801561061857600080fd5b5061062161156c565b60405161062e91906144e9565b60405180910390f35b34801561064357600080fd5b5061064c611575565b60405161065991906144e9565b60405180910390f35b34801561066e57600080fd5b506106896004803603810190610684919061379c565b61157f565b005b34801561069757600080fd5b506106b260048036038101906106ad91906137c5565b611607565b6040516106bf91906144e9565b60405180910390f35b3480156106d457600080fd5b506106dd6116e3565b6040516106ea91906144e9565b60405180910390f35b3480156106ff57600080fd5b5061071a600480360381019061071591906137c5565b6116f2565b60405161072791906144e9565b60405180910390f35b34801561073c57600080fd5b50610757600480360381019061075291906135b3565b611760565b60405161076491906144e9565b60405180910390f35b34801561077957600080fd5b5061078261179c565b60405161078f9190613fa7565b60405180910390f35b3480156107a457600080fd5b506107ad6117c6565b6040516107ba9190614287565b60405180910390f35b3480156107cf57600080fd5b506107d8611803565b6040516107e59190614167565b60405180910390f35b3480156107fa57600080fd5b50610815600480360381019061081091906137c5565b611827565b005b34801561082357600080fd5b5061083e60048036038101906108399190613577565b6118af565b60405161084b91906144e9565b60405180910390f35b34801561086057600080fd5b5061087b600480360381019061087691906137c5565b6118c3565b005b34801561088957600080fd5b506108a4600480360381019061089f91906137c5565b61194b565b6040516108b191906144e9565b60405180910390f35b3480156108c657600080fd5b506108cf61195d565b6040516108dc9190614251565b60405180910390f35b60006108ef611981565b905090565b60006108ff826119ab565b9050919050565b6000600354905090565b6109186108e5565b73ffffffffffffffffffffffffffffffffffffffff16610936611a25565b73ffffffffffffffffffffffffffffffffffffffff161461098c576040517f08c379a0000000000000000000000000000000000000000000000000000000008152600401610983906142c9565b60405180910390fd5b61099581611a2d565b50565b6060600080546109a790614b7a565b80601f01602080910402602001604051908101604052809291908181526020018280546109d390614b7a565b8015610a205780601f106109f557610100808354040283529160200191610a20565b820191906000526020600020905b815481529060010190602001808311610a0357829003601f168201915b5050505050905090565b600080610a3986868686611760565b905060046007811115610a75577f4e487b7100000000000000000000000000000000000000000000000000000000600052602160045260246000fd5b610a7e8261101b565b6007811115610ab6577f4e487b7100000000000000000000000000000000000000000000000000000000600052602160045260246000fd5b14610af6576040517f08c379a0000000000000000000000000000000000000000000000000000000008152600401610aed90614469565b60405180910390fd5b6000600560009054906101000a900473ffffffffffffffffffffffffffffffffffffffff1673ffffffffffffffffffffffffffffffffffffffff1663f27a0c926040518163ffffffff1660e01b815260040160206040518083038186803b158015610b6057600080fd5b505afa158015610b74573d6000803e3d6000fd5b505050506040513d601f19601f82011682018060405250810190610b9891906137ee565b9050600560009054906101000a900473ffffffffffffffffffffffffffffffffffffffff1673ffffffffffffffffffffffffffffffffffffffff1663b1c5f4278888886000896040518663ffffffff1660e01b8152600401610bfe95949392919061406e565b60206040518083038186803b158015610c1657600080fd5b505afa158015610c2a573d6000803e3d6000fd5b505050506040513d601f19601f82011682018060405250810190610c4e919061374a565b6006600084815260200190815260200160002081905550600560009054906101000a900473ffffffffffffffffffffffffffffffffffffffff1673ffffffffffffffffffffffffffffffffffffffff16638f2a0bb0888888600089876040518763ffffffff1660e01b8152600401610ccb969594939291906140d6565b600060405180830381600087803b158015610ce557600080fd5b505af1158015610cf9573d6000803e3d6000fd5b505050507f9a2e42fd6722813d69113e7d0079d3d940171428df7373df9c7f7617cfda2892828242610d2b91906148a3565b604051610d399291906145b4565b60405180910390a18192505050949350505050565b600080610d5d86868686611760565b90506000610d6a8261101b565b905060046007811115610da6577f4e487b7100000000000000000000000000000000000000000000000000000000600052602160045260246000fd5b816007811115610ddf577f4e487b7100000000000000000000000000000000000000000000000000000000600052602160045260246000fd5b1480610e5b575060056007811115610e20577f4e487b7100000000000000000000000000000000000000000000000000000000600052602160045260246000fd5b816007811115610e59577f4e487b7100000000000000000000000000000000000000000000000000000000600052602160045260246000fd5b145b610e9a576040517f08c379a0000000000000000000000000000000000000000000000000000000008152600401610e9190614469565b60405180910390fd5b600180600084815260200190815260200160002060020160006101000a81548160ff0219169083151502179055507f712ae1383f79ac853f8d882153778e0260ef8f03b504e2866e0593e04d2b291f82604051610ef791906144e9565b60405180910390a1610f0c8288888888611ac2565b8192505050949350505050565b6000610f76600160008481526020019081526020016000206000016040518060200160405290816000820160009054906101000a900467ffffffffffffffff1667ffffffffffffffff1667ffffffffffffffff1681525050611ad6565b67ffffffffffffffff169050919050565b6000600254905090565b600080610ff2610fea7f150214d74d59b7d1e90c73fc22ef3d991dd0a76b046543d4d80ab92d2a50328f8989604051602001610fcf939291906141d5565b60405160208183030381529060405280519060200120611ae4565b868686611afe565b905061100f87828860405180602001604052806000815250611b29565b91505095945050505050565b600061102682611cc9565b9050919050565b60006008600084815260200190815260200160002060030160008373ffffffffffffffffffffffffffffffffffffffff1673ffffffffffffffffffffffffffffffffffffffff16815260200190815260200160002060009054906101000a900460ff16905092915050565b60006110a685858585611e4c565b9050949350505050565b600080600080600860008681526020019081526020016000209050806000015481600101548260020154935093509350509193909250565b60606040518060400160405280600181526020017f3100000000000000000000000000000000000000000000000000000000000000815250905090565b600080611130611a25565b905061114d84828560405180602001604052806000815250611b29565b91505092915050565b61115e6108e5565b73ffffffffffffffffffffffffffffffffffffffff1661117c611a25565b73ffffffffffffffffffffffffffffffffffffffff16146111d2576040517f08c379a00000000000000000000000000000000000000000000000000000000081526004016111c9906142c9565b60405180910390fd5b6111db81611e64565b50565b6000806111e9611a25565b905061123b86828787878080601f016020809104026020016040519081016040528093929190818152602001838380828437600081840152601f19601f82011690508083019250505050505050611b29565b915050949350505050565b60006112506116e3565b6112663360014361126191906149c2565b6118af565b10156112a7576040517f08c379a000000000000000000000000000000000000000000000000000000000815260040161129e90614309565b60405180910390fd5b60006112bc8686868680519060200120611760565b90508451865114611302576040517f08c379a00000000000000000000000000000000000000000000000000000000081526004016112f990614349565b60405180910390fd5b8351865114611346576040517f08c379a000000000000000000000000000000000000000000000000000000000815260040161133d90614349565b60405180910390fd5b600086511161138a576040517f08c379a0000000000000000000000000000000000000000000000000000000008152600401611381906143e9565b60405180910390fd5b60006001600083815260200190815260200160002090506113ea816000016040518060200160405290816000820160009054906101000a900467ffffffffffffffff1667ffffffffffffffff1667ffffffffffffffff1681525050611ea9565b611429576040517f08c379a0000000000000000000000000000000000000000000000000000000008152600401611420906144c9565b60405180910390fd5b600061143b611436610f87565b611ec3565b61144443611ec3565b61144e91906148f9565b9050600061146261145d610906565b611ec3565b8261146d91906148f9565b90506114858284600001611f1a90919063ffffffff16565b61149b8184600101611f1a90919063ffffffff16565b7f7d84a6263ae0d98d3329bd7b46bb4e8d6f98cd35a7adb45c274c8b7fd5ebd5e0846114c5611a25565b8b8b8d5167ffffffffffffffff811115611508577f4e487b7100000000000000000000000000000000000000000000000000000000600052604160045260246000fd5b60405190808252806020026020018201604052801561153b57816020015b60608152602001906001900390816115265790505b508c88888e60405161155599989796959493929190614504565b60405180910390a183945050505050949350505050565b60006064905090565b6000600754905090565b6115876108e5565b73ffffffffffffffffffffffffffffffffffffffff166115a5611a25565b73ffffffffffffffffffffffffffffffffffffffff16146115fb576040517f08c379a00000000000000000000000000000000000000000000000000000000081526004016115f2906142c9565b60405180910390fd5b61160481611f49565b50565b600080600560009054906101000a900473ffffffffffffffffffffffffffffffffffffffff1673ffffffffffffffffffffffffffffffffffffffff1663d45c443560066000868152602001908152602001600020546040518263ffffffff1660e01b81526004016116789190614167565b60206040518083038186803b15801561169057600080fd5b505afa1580156116a4573d6000803e3d6000fd5b505050506040513d601f19601f820116820180604052508101906116c891906137ee565b9050600181146116d857806116db565b60005b915050919050565b60006116ed611fe8565b905090565b600061174f600160008481526020019081526020016000206001016040518060200160405290816000820160009054906101000a900467ffffffffffffffff1667ffffffffffffffff1667ffffffffffffffff1681525050611ad6565b67ffffffffffffffff169050919050565b6000848484846040516020016117799493929190614014565b6040516020818303038152906040528051906020012060001c9050949350505050565b6000600560009054906101000a900473ffffffffffffffffffffffffffffffffffffffff16905090565b60606040518060400160405280602081526020017f737570706f72743d627261766f2671756f72756d3d666f722c6162737461696e815250905090565b7f150214d74d59b7d1e90c73fc22ef3d991dd0a76b046543d4d80ab92d2a50328f81565b61182f6108e5565b73ffffffffffffffffffffffffffffffffffffffff1661184d611a25565b73ffffffffffffffffffffffffffffffffffffffff16146118a3576040517f08c379a000000000000000000000000000000000000000000000000000000000815260040161189a906142c9565b60405180910390fd5b6118ac81611ff2565b50565b60006118bb838361207a565b905092915050565b6118cb6108e5565b73ffffffffffffffffffffffffffffffffffffffff166118e9611a25565b73ffffffffffffffffffffffffffffffffffffffff161461193f576040517f08c379a0000000000000000000000000000000000000000000000000000000008152600401611936906142c9565b60405180910390fd5b6119488161212f565b50565b600061195682612174565b9050919050565b7f000000000000000000000000000000000000000000000000000000000000000081565b6000600560009054906101000a900473ffffffffffffffffffffffffffffffffffffffff16905090565b60007f6e665ced000000000000000000000000000000000000000000000000000000007bffffffffffffffffffffffffffffffffffffffffffffffffffffffff1916827bffffffffffffffffffffffffffffffffffffffffffffffffffffffff19161480611a1e5750611a1d8261224a565b5b9050919050565b600033905090565b611a3561156c565b811115611a77576040517f08c379a0000000000000000000000000000000000000000000000000000000008152600401611a6e906142e9565b60405180910390fd5b60006007549050816007819055507f0553476bf02ef2726e8ce5ced78d63e26e602e4a2257b1f559418e24b46339978183604051611ab69291906145b4565b60405180910390a15050565b611acf85858585856122c4565b5050505050565b600081600001519050919050565b6000611af7611af1612362565b8361247c565b9050919050565b6000806000611b0f878787876124af565b91509150611b1c816125bc565b8192505050949350505050565b60008060016000878152602001908152602001600020905060016007811115611b7b577f4e487b7100000000000000000000000000000000000000000000000000000000600052602160045260246000fd5b611b848761101b565b6007811115611bbc577f4e487b7100000000000000000000000000000000000000000000000000000000600052602160045260246000fd5b14611bfc576040517f08c379a0000000000000000000000000000000000000000000000000000000008152600401611bf3906143c9565b60405180910390fd5b6000611c5a86611c4b846000016040518060200160405290816000820160009054906101000a900467ffffffffffffffff1667ffffffffffffffff1667ffffffffffffffff1681525050611ad6565b67ffffffffffffffff166118af565b9050611c688787878461290d565b8573ffffffffffffffffffffffffffffffffffffffff167fb8e138887d0aa13bab447e82de9d5c1777041ecd21ca36ba824ff1e6c07ddda488878488604051611cb49493929190614614565b60405180910390a28092505050949350505050565b600080611cd583612b85565b905060046007811115611d11577f4e487b7100000000000000000000000000000000000000000000000000000000600052602160045260246000fd5b816007811115611d4a577f4e487b7100000000000000000000000000000000000000000000000000000000600052602160045260246000fd5b14611d585780915050611e47565b6000600660008581526020019081526020016000205490506000801b811415611d85578192505050611e47565b600560009054906101000a900473ffffffffffffffffffffffffffffffffffffffff1673ffffffffffffffffffffffffffffffffffffffff16632ab0f529826040518263ffffffff1660e01b8152600401611de09190614167565b60206040518083038186803b158015611df857600080fd5b505afa158015611e0c573d6000803e3d6000fd5b505050506040513d601f19601f82011682018060405250810190611e309190613721565b15611e4057600792505050611e47565b6005925050505b919050565b6000611e5a85858585612d62565b9050949350505050565b7fc565b045403dc03c2eea82b81a0465edad9e2e7fc4d97e11421c209da93d7a9360025482604051611e979291906145b4565b60405180910390a18060028190555050565b600080826000015167ffffffffffffffff16149050919050565b600067ffffffffffffffff8016821115611f12576040517f08c379a0000000000000000000000000000000000000000000000000000000008152600401611f0990614429565b60405180910390fd5b819050919050565b808260000160006101000a81548167ffffffffffffffff021916908367ffffffffffffffff1602179055505050565b7f08f74ea46ef7894f65eabfb5e6e695de773a000b47c529ab559178069b226401600560009054906101000a900473ffffffffffffffffffffffffffffffffffffffff1682604051611f9c929190613fc2565b60405180910390a180600560006101000a81548173ffffffffffffffffffffffffffffffffffffffff021916908373ffffffffffffffffffffffffffffffffffffffff16021790555050565b6000600454905090565b60008111612035576040517f08c379a000000000000000000000000000000000000000000000000000000000815260040161202c90614369565b60405180910390fd5b7f7e3f7f0708a84de9203036abaa450dccc85ad5ff52f78c170f3edb55cf5e8828600354826040516120689291906145b4565b60405180910390a18060038190555050565b60007f000000000000000000000000000000000000000000000000000000000000000073ffffffffffffffffffffffffffffffffffffffff16633a46b1a884846040518363ffffffff1660e01b81526004016120d7929190613feb565b60206040518083038186803b1580156120ef57600080fd5b505afa158015612103573d6000803e3d6000fd5b505050506040513d601f19601f8201168201806040525081019061212791906137ee565b905092915050565b7fccb45da8d5717e6c4544694297c4ba5cf151d455c9bb0ed4fc7a38411bc05461600454826040516121629291906145b4565b60405180910390a18060048190555050565b600061217e61156c565b612186611575565b7f000000000000000000000000000000000000000000000000000000000000000073ffffffffffffffffffffffffffffffffffffffff16638e539e8c856040518263ffffffff1660e01b81526004016121df91906144e9565b60206040518083038186803b1580156121f757600080fd5b505afa15801561220b573d6000803e3d6000fd5b505050506040513d601f19601f8201168201806040525081019061222f91906137ee565b6122399190614968565b6122439190614937565b9050919050565b60007fbf26d897000000000000000000000000000000000000000000000000000000007bffffffffffffffffffffffffffffffffffffffffffffffffffffffff1916827bffffffffffffffffffffffffffffffffffffffffffffffffffffffff191614806122bd57506122bc82612e54565b5b9050919050565b600560009054906101000a900473ffffffffffffffffffffffffffffffffffffffff1673ffffffffffffffffffffffffffffffffffffffff1663e38335e5348686866000876040518763ffffffff1660e01b815260040161232995949392919061406e565b6000604051808303818588803b15801561234257600080fd5b505af1158015612356573d6000803e3d6000fd5b50505050505050505050565b60007f000000000000000000000000000000000000000000000000000000000000000073ffffffffffffffffffffffffffffffffffffffff163073ffffffffffffffffffffffffffffffffffffffff161480156123de57507f000000000000000000000000000000000000000000000000000000000000000046145b1561240b577f00000000000000000000000000000000000000000000000000000000000000009050612479565b6124767f00000000000000000000000000000000000000000000000000000000000000007f00000000000000000000000000000000000000000000000000000000000000007f0000000000000000000000000000000000000000000000000000000000000000612ebe565b90505b90565b60008282604051602001612491929190613f70565b60405160208183030381529060405280519060200120905092915050565b6000807f7fffffffffffffffffffffffffffffff5d576e7357a4501ddfe92f46681b20a08360001c11156124ea5760006003915091506125b3565b601b8560ff16141580156125025750601c8560ff1614155b156125145760006004915091506125b3565b600060018787878760405160008152602001604052604051612539949392919061420c565b6020604051602081039080840390855afa15801561255b573d6000803e3d6000fd5b505050602060405103519050600073ffffffffffffffffffffffffffffffffffffffff168173ffffffffffffffffffffffffffffffffffffffff1614156125aa576000600192509250506125b3565b80600092509250505b94509492505050565b600060048111156125f6577f4e487b7100000000000000000000000000000000000000000000000000000000600052602160045260246000fd5b81600481111561262f577f4e487b7100000000000000000000000000000000000000000000000000000000600052602160045260246000fd5b141561263a5761290a565b60016004811115612674577f4e487b7100000000000000000000000000000000000000000000000000000000600052602160045260246000fd5b8160048111156126ad577f4e487b7100000000000000000000000000000000000000000000000000000000600052602160045260246000fd5b14156126ee576040517f08c379a00000000000000000000000000000000000000000000000000000000081526004016126e5906142a9565b60405180910390fd5b60026004811115612728577f4e487b7100000000000000000000000000000000000000000000000000000000600052602160045260246000fd5b816004811115612761577f4e487b7100000000000000000000000000000000000000000000000000000000600052602160045260246000fd5b14156127a2576040517f08c379a000000000000000000000000000000000000000000000000000000000815260040161279990614329565b60405180910390fd5b600360048111156127dc577f4e487b7100000000000000000000000000000000000000000000000000000000600052602160045260246000fd5b816004811115612815577f4e487b7100000000000000000000000000000000000000000000000000000000600052602160045260246000fd5b1415612856576040517f08c379a000000000000000000000000000000000000000000000000000000000815260040161284d90614389565b60405180910390fd5b60048081111561288f577f4e487b7100000000000000000000000000000000000000000000000000000000600052602160045260246000fd5b8160048111156128c8577f4e487b7100000000000000000000000000000000000000000000000000000000600052602160045260246000fd5b1415612909576040517f08c379a000000000000000000000000000000000000000000000000000000000815260040161290090614409565b60405180910390fd5b5b50565b60006008600086815260200190815260200160002090508060030160008573ffffffffffffffffffffffffffffffffffffffff1673ffffffffffffffffffffffffffffffffffffffff16815260200190815260200160002060009054906101000a900460ff16156129b3576040517f08c379a00000000000000000000000000000000000000000000000000000000081526004016129aa906143a9565b60405180910390fd5b60018160030160008673ffffffffffffffffffffffffffffffffffffffff1673ffffffffffffffffffffffffffffffffffffffff16815260200190815260200160002060006101000a81548160ff02191690831515021790555060006002811115612a47577f4e487b7100000000000000000000000000000000000000000000000000000000600052602160045260246000fd5b60ff168360ff161415612a745781816000016000828254612a6891906148a3565b92505081905550612b7e565b60016002811115612aae577f4e487b7100000000000000000000000000000000000000000000000000000000600052602160045260246000fd5b60ff168360ff161415612adb5781816001016000828254612acf91906148a3565b92505081905550612b7d565b600280811115612b14577f4e487b7100000000000000000000000000000000000000000000000000000000600052602160045260246000fd5b60ff168360ff161415612b415781816002016000828254612b3591906148a3565b92505081905550612b7c565b6040517f08c379a0000000000000000000000000000000000000000000000000000000008152600401612b73906144a9565b60405180910390fd5b5b5b5050505050565b60008060016000848152602001908152602001600020604051806080016040529081600082016040518060200160405290816000820160009054906101000a900467ffffffffffffffff1667ffffffffffffffff1667ffffffffffffffff16815250508152602001600182016040518060200160405290816000820160009054906101000a900467ffffffffffffffff1667ffffffffffffffff1667ffffffffffffffff168152505081526020016002820160009054906101000a900460ff161515151581526020016002820160019054906101000a900460ff1615151515815250509050806040015115612c7e576007915050612d5d565b806060015115612c92576002915050612d5d565b43612ca08260000151611ad6565b67ffffffffffffffff1610612cb9576000915050612d5d565b43612cc78260200151611ad6565b67ffffffffffffffff1610612ce0576001915050612d5d565b612ced8160200151612ef8565b15612d2257612cfb83612f24565b8015612d0c5750612d0b83612f6b565b5b612d17576003612d1a565b60045b915050612d5d565b6040517f08c379a0000000000000000000000000000000000000000000000000000000008152600401612d5490614489565b60405180910390fd5b919050565b600080612d7186868686612f96565b90506000801b600660008381526020019081526020016000205414612e4857600560009054906101000a900473ffffffffffffffffffffffffffffffffffffffff1673ffffffffffffffffffffffffffffffffffffffff1663c4d252f560066000848152602001908152602001600020546040518263ffffffff1660e01b8152600401612dfe9190614167565b600060405180830381600087803b158015612e1857600080fd5b505af1158015612e2c573d6000803e3d6000fd5b5050505060066000828152602001908152602001600020600090555b80915050949350505050565b60007f01ffc9a7000000000000000000000000000000000000000000000000000000007bffffffffffffffffffffffffffffffffffffffffffffffffffffffff1916827bffffffffffffffffffffffffffffffffffffffffffffffffffffffff1916149050919050565b60008383834630604051602001612ed9959493929190614182565b6040516020818303038152906040528051906020012090509392505050565b6000612f03826131d3565b8015612f1d575043826000015167ffffffffffffffff1611155b9050919050565b60008060086000848152602001908152602001600020905080600201548160010154612f5091906148a3565b612f61612f5c85610f19565b61194b565b1115915050919050565b6000806008600084815260200190815260200160002090508060000154816001015411915050919050565b600080612fa586868686611760565b90506000612fb28261101b565b905060026007811115612fee577f4e487b7100000000000000000000000000000000000000000000000000000000600052602160045260246000fd5b816007811115613027577f4e487b7100000000000000000000000000000000000000000000000000000000600052602160045260246000fd5b141580156130a657506006600781111561306a577f4e487b7100000000000000000000000000000000000000000000000000000000600052602160045260246000fd5b8160078111156130a3577f4e487b7100000000000000000000000000000000000000000000000000000000600052602160045260246000fd5b14155b801561312257506007808111156130e6577f4e487b7100000000000000000000000000000000000000000000000000000000600052602160045260246000fd5b81600781111561311f577f4e487b7100000000000000000000000000000000000000000000000000000000600052602160045260246000fd5b14155b613161576040517f08c379a000000000000000000000000000000000000000000000000000000000815260040161315890614449565b60405180910390fd5b600180600084815260200190815260200160002060020160016101000a81548160ff0219169083151502179055507f789cf55be980739dad1d0699b93b58e806b51c9d96619bfa8fe0a28abaa7b30c826040516131be91906144e9565b60405180910390a18192505050949350505050565b600080826000015167ffffffffffffffff16119050919050565b60006132006131fb84614685565b614660565b9050808382526020820190508285602086028201111561321f57600080fd5b60005b8581101561324f5781613235888261339e565b845260208401935060208301925050600181019050613222565b5050509392505050565b600061326c613267846146b1565b614660565b9050808382526020820190508260005b858110156132ac57813585016132928882613485565b84526020840193506020830192505060018101905061327c565b5050509392505050565b60006132c96132c4846146dd565b614660565b905080838252602082019050828560208602820111156132e857600080fd5b60005b8581101561331857816132fe8882613538565b8452602084019350602083019250506001810190506132eb565b5050509392505050565b600061333561333084614709565b614660565b90508281526020810184848401111561334d57600080fd5b613358848285614b38565b509392505050565b600061337361336e8461473a565b614660565b90508281526020810184848401111561338b57600080fd5b613396848285614b38565b509392505050565b6000813590506133ad81615223565b92915050565b600082601f8301126133c457600080fd5b81356133d48482602086016131ed565b91505092915050565b600082601f8301126133ee57600080fd5b81356133fe848260208601613259565b91505092915050565b600082601f83011261341857600080fd5b81356134288482602086016132b6565b91505092915050565b6000815190506134408161523a565b92915050565b60008135905061345581615251565b92915050565b60008151905061346a81615251565b92915050565b60008135905061347f81615268565b92915050565b600082601f83011261349657600080fd5b81356134a6848260208601613322565b91505092915050565b6000813590506134be8161527f565b92915050565b60008083601f8401126134d657600080fd5b8235905067ffffffffffffffff8111156134ef57600080fd5b60208301915083600182028301111561350757600080fd5b9250929050565b600082601f83011261351f57600080fd5b813561352f848260208601613360565b91505092915050565b60008135905061354781615296565b92915050565b60008151905061355c81615296565b92915050565b600081359050613571816152ad565b92915050565b6000806040838503121561358a57600080fd5b60006135988582860161339e565b92505060206135a985828601613538565b9150509250929050565b600080600080608085870312156135c957600080fd5b600085013567ffffffffffffffff8111156135e357600080fd5b6135ef878288016133b3565b945050602085013567ffffffffffffffff81111561360c57600080fd5b61361887828801613407565b935050604085013567ffffffffffffffff81111561363557600080fd5b613641878288016133dd565b925050606061365287828801613446565b91505092959194509250565b6000806000806080858703121561367457600080fd5b600085013567ffffffffffffffff81111561368e57600080fd5b61369a878288016133b3565b945050602085013567ffffffffffffffff8111156136b757600080fd5b6136c387828801613407565b935050604085013567ffffffffffffffff8111156136e057600080fd5b6136ec878288016133dd565b925050606085013567ffffffffffffffff81111561370957600080fd5b6137158782880161350e565b91505092959194509250565b60006020828403121561373357600080fd5b600061374184828501613431565b91505092915050565b60006020828403121561375c57600080fd5b600061376a8482850161345b565b91505092915050565b60006020828403121561378557600080fd5b600061379384828501613470565b91505092915050565b6000602082840312156137ae57600080fd5b60006137bc848285016134af565b91505092915050565b6000602082840312156137d757600080fd5b60006137e584828501613538565b91505092915050565b60006020828403121561380057600080fd5b600061380e8482850161354d565b91505092915050565b6000806040838503121561382a57600080fd5b600061383885828601613538565b92505060206138498582860161339e565b9150509250929050565b6000806040838503121561386657600080fd5b600061387485828601613538565b925050602061388585828601613562565b9150509250929050565b600080600080606085870312156138a557600080fd5b60006138b387828801613538565b94505060206138c487828801613562565b935050604085013567ffffffffffffffff8111156138e157600080fd5b6138ed878288016134c4565b925092505092959194509250565b600080600080600060a0868803121561391357600080fd5b600061392188828901613538565b955050602061393288828901613562565b945050604061394388828901613562565b935050606061395488828901613446565b925050608061396588828901613446565b9150509295509295909350565b600061397e83836139ca565b60208301905092915050565b60006139968383613bc3565b905092915050565b60006139aa8383613c29565b905092915050565b60006139be8383613f34565b60208301905092915050565b6139d3816149f6565b82525050565b6139e2816149f6565b82525050565b60006139f3826147ab565b6139fd8185614821565b9350613a088361476b565b8060005b83811015613a39578151613a208882613972565b9750613a2b836147ed565b925050600181019050613a0c565b5085935050505092915050565b6000613a51826147b6565b613a5b8185614832565b935083602082028501613a6d8561477b565b8060005b85811015613aa95784840389528151613a8a858261398a565b9450613a95836147fa565b925060208a01995050600181019050613a71565b50829750879550505050505092915050565b6000613ac6826147c1565b613ad08185614843565b935083602082028501613ae28561478b565b8060005b85811015613b1e5784840389528151613aff858261399e565b9450613b0a83614807565b925060208a01995050600181019050613ae6565b50829750879550505050505092915050565b6000613b3b826147cc565b613b458185614854565b9350613b508361479b565b8060005b83811015613b81578151613b6888826139b2565b9750613b7383614814565b925050600181019050613b54565b5085935050505092915050565b613b9781614a1a565b82525050565b613ba681614a26565b82525050565b613bbd613bb882614a26565b614bdd565b82525050565b6000613bce826147d7565b613bd88185614865565b9350613be8818560208601614b47565b613bf181614cd2565b840191505092915050565b613c0581614ad6565b82525050565b613c1481614afa565b82525050565b613c2381614b0c565b82525050565b6000613c34826147e2565b613c3e8185614876565b9350613c4e818560208601614b47565b613c5781614cd2565b840191505092915050565b6000613c6d826147e2565b613c778185614887565b9350613c87818560208601614b47565b613c9081614cd2565b840191505092915050565b6000613ca8601883614887565b9150613cb382614cf0565b602082019050919050565b6000613ccb601883614887565b9150613cd682614d19565b602082019050919050565b6000613cee604383614887565b9150613cf982614d42565b606082019050919050565b6000613d11604383614887565b9150613d1c82614db7565b606082019050919050565b6000613d34601f83614887565b9150613d3f82614e2c565b602082019050919050565b6000613d57600283614898565b9150613d6282614e55565b600282019050919050565b6000613d7a602183614887565b9150613d8582614e7e565b604082019050919050565b6000613d9d602783614887565b9150613da882614ecd565b604082019050919050565b6000613dc0602283614887565b9150613dcb82614f1c565b604082019050919050565b6000613de3602783614887565b9150613dee82614f6b565b604082019050919050565b6000613e06602383614887565b9150613e1182614fba565b604082019050919050565b6000613e29601883614887565b9150613e3482615009565b602082019050919050565b6000613e4c602283614887565b9150613e5782615032565b604082019050919050565b6000613e6f602683614887565b9150613e7a82615081565b604082019050919050565b6000613e92601d83614887565b9150613e9d826150d0565b602082019050919050565b6000613eb5602183614887565b9150613ec0826150f9565b604082019050919050565b6000613ed8601d83614887565b9150613ee382615148565b602082019050919050565b6000613efb603583614887565b9150613f0682615171565b604082019050919050565b6000613f1e602183614887565b9150613f29826151c0565b604082019050919050565b613f3d81614aab565b82525050565b613f4c81614aab565b82525050565b613f5b81614b26565b82525050565b613f6a81614ac9565b82525050565b6000613f7b82613d4a565b9150613f878285613bac565b602082019150613f978284613bac565b6020820191508190509392505050565b6000602082019050613fbc60008301846139d9565b92915050565b6000604082019050613fd760008301856139d9565b613fe460208301846139d9565b9392505050565b600060408201905061400060008301856139d9565b61400d6020830184613f43565b9392505050565b6000608082019050818103600083015261402e81876139e8565b905081810360208301526140428186613b30565b905081810360408301526140568185613a46565b90506140656060830184613b9d565b95945050505050565b600060a082019050818103600083015261408881886139e8565b9050818103602083015261409c8187613b30565b905081810360408301526140b08186613a46565b90506140bf6060830185613c1a565b6140cc6080830184613b9d565b9695505050505050565b600060c08201905081810360008301526140f081896139e8565b905081810360208301526141048188613b30565b905081810360408301526141188187613a46565b90506141276060830186613c1a565b6141346080830185613b9d565b61414160a0830184613f43565b979650505050505050565b60006020820190506141616000830184613b8e565b92915050565b600060208201905061417c6000830184613b9d565b92915050565b600060a0820190506141976000830188613b9d565b6141a46020830187613b9d565b6141b16040830186613b9d565b6141be6060830185613f43565b6141cb60808301846139d9565b9695505050505050565b60006060820190506141ea6000830186613b9d565b6141f76020830185613f43565b6142046040830184613f61565b949350505050565b60006080820190506142216000830187613b9d565b61422e6020830186613f61565b61423b6040830185613b9d565b6142486060830184613b9d565b95945050505050565b60006020820190506142666000830184613bfc565b92915050565b60006020820190506142816000830184613c0b565b92915050565b600060208201905081810360008301526142a18184613c62565b905092915050565b600060208201905081810360008301526142c281613c9b565b9050919050565b600060208201905081810360008301526142e281613cbe565b9050919050565b6000602082019050818103600083015261430281613ce1565b9050919050565b6000602082019050818103600083015261432281613d04565b9050919050565b6000602082019050818103600083015261434281613d27565b9050919050565b6000602082019050818103600083015261436281613d6d565b9050919050565b6000602082019050818103600083015261438281613d90565b9050919050565b600060208201905081810360008301526143a281613db3565b9050919050565b600060208201905081810360008301526143c281613dd6565b9050919050565b600060208201905081810360008301526143e281613df9565b9050919050565b6000602082019050818103600083015261440281613e1c565b9050919050565b6000602082019050818103600083015261442281613e3f565b9050919050565b6000602082019050818103600083015261444281613e62565b9050919050565b6000602082019050818103600083015261446281613e85565b9050919050565b6000602082019050818103600083015261448281613ea8565b9050919050565b600060208201905081810360008301526144a281613ecb565b9050919050565b600060208201905081810360008301526144c281613eee565b9050919050565b600060208201905081810360008301526144e281613f11565b9050919050565b60006020820190506144fe6000830184613f43565b92915050565b60006101208201905061451a600083018c613f43565b614527602083018b6139d9565b8181036040830152614539818a6139e8565b9050818103606083015261454d8189613b30565b905081810360808301526145618188613abb565b905081810360a08301526145758187613a46565b905061458460c0830186613f52565b61459160e0830185613f52565b8181036101008301526145a48184613c62565b90509a9950505050505050505050565b60006040820190506145c96000830185613f43565b6145d66020830184613f43565b9392505050565b60006060820190506145f26000830186613f43565b6145ff6020830185613f43565b61460c6040830184613f43565b949350505050565b60006080820190506146296000830187613f43565b6146366020830186613f61565b6146436040830185613f43565b81810360608301526146558184613c62565b905095945050505050565b600061466a61467b565b90506146768282614bac565b919050565b6000604051905090565b600067ffffffffffffffff8211156146a05761469f614ca3565b5b602082029050602081019050919050565b600067ffffffffffffffff8211156146cc576146cb614ca3565b5b602082029050602081019050919050565b600067ffffffffffffffff8211156146f8576146f7614ca3565b5b602082029050602081019050919050565b600067ffffffffffffffff82111561472457614723614ca3565b5b61472d82614cd2565b9050602081019050919050565b600067ffffffffffffffff82111561475557614754614ca3565b5b61475e82614cd2565b9050602081019050919050565b6000819050602082019050919050565b6000819050602082019050919050565b6000819050602082019050919050565b6000819050602082019050919050565b600081519050919050565b600081519050919050565b600081519050919050565b600081519050919050565b600081519050919050565b600081519050919050565b6000602082019050919050565b6000602082019050919050565b6000602082019050919050565b6000602082019050919050565b600082825260208201905092915050565b600082825260208201905092915050565b600082825260208201905092915050565b600082825260208201905092915050565b600082825260208201905092915050565b600082825260208201905092915050565b600082825260208201905092915050565b600081905092915050565b60006148ae82614aab565b91506148b983614aab565b9250827fffffffffffffffffffffffffffffffffffffffffffffffffffffffffffffffff038211156148ee576148ed614be7565b5b828201905092915050565b600061490482614ab5565b915061490f83614ab5565b92508267ffffffffffffffff0382111561492c5761492b614be7565b5b828201905092915050565b600061494282614aab565b915061494d83614aab565b92508261495d5761495c614c16565b5b828204905092915050565b600061497382614aab565b915061497e83614aab565b9250817fffffffffffffffffffffffffffffffffffffffffffffffffffffffffffffffff04831182151516156149b7576149b6614be7565b5b828202905092915050565b60006149cd82614aab565b91506149d883614aab565b9250828210156149eb576149ea614be7565b5b828203905092915050565b6000614a0182614a8b565b9050919050565b6000614a1382614a8b565b9050919050565b60008115159050919050565b6000819050919050565b60007fffffffff0000000000000000000000000000000000000000000000000000000082169050919050565b6000614a6782614a08565b9050919050565b6000819050614a7c8261520f565b919050565b6000819050919050565b600073ffffffffffffffffffffffffffffffffffffffff82169050919050565b6000819050919050565b600067ffffffffffffffff82169050919050565b600060ff82169050919050565b6000614ae182614ae8565b9050919050565b6000614af382614a8b565b9050919050565b6000614b0582614a6e565b9050919050565b6000614b1f614b1a83614a81565b614ce3565b9050919050565b6000614b3182614ab5565b9050919050565b82818337600083830152505050565b60005b83811015614b65578082015181840152602081019050614b4a565b83811115614b74576000848401525b50505050565b60006002820490506001821680614b9257607f821691505b60208210811415614ba657614ba5614c74565b5b50919050565b614bb582614cd2565b810181811067ffffffffffffffff82111715614bd457614bd3614ca3565b5b80604052505050565b6000819050919050565b7f4e487b7100000000000000000000000000000000000000000000000000000000600052601160045260246000fd5b7f4e487b7100000000000000000000000000000000000000000000000000000000600052601260045260246000fd5b7f4e487b7100000000000000000000000000000000000000000000000000000000600052602160045260246000fd5b7f4e487b7100000000000000000000000000000000000000000000000000000000600052602260045260246000fd5b7f4e487b7100000000000000000000000000000000000000000000000000000000600052604160045260246000fd5b6000601f19601f8301169050919050565b60008160001b9050919050565b7f45434453413a20696e76616c6964207369676e61747572650000000000000000600082015250565b7f476f7665726e6f723a206f6e6c79476f7665726e616e63650000000000000000600082015250565b7f476f7665726e6f72566f74657351756f72756d4672616374696f6e3a2071756f60008201527f72756d4e756d657261746f72206f7665722071756f72756d44656e6f6d696e6160208201527f746f720000000000000000000000000000000000000000000000000000000000604082015250565b7f476f7665726e6f72436f6d7061746962696c697479427261766f3a2070726f7060008201527f6f73657220766f7465732062656c6f772070726f706f73616c2074687265736860208201527f6f6c640000000000000000000000000000000000000000000000000000000000604082015250565b7f45434453413a20696e76616c6964207369676e6174757265206c656e67746800600082015250565b7f1901000000000000000000000000000000000000000000000000000000000000600082015250565b7f476f7665726e6f723a20696e76616c69642070726f706f73616c206c656e677460008201527f6800000000000000000000000000000000000000000000000000000000000000602082015250565b7f476f7665726e6f7253657474696e67733a20766f74696e6720706572696f642060008201527f746f6f206c6f7700000000000000000000000000000000000000000000000000602082015250565b7f45434453413a20696e76616c6964207369676e6174757265202773272076616c60008201527f7565000000000000000000000000000000000000000000000000000000000000602082015250565b7f476f7665726e6f72566f74696e6753696d706c653a20766f746520616c72656160008201527f6479206361737400000000000000000000000000000000000000000000000000602082015250565b7f476f7665726e6f723a20766f7465206e6f742063757272656e746c792061637460008201527f6976650000000000000000000000000000000000000000000000000000000000602082015250565b7f476f7665726e6f723a20656d7074792070726f706f73616c0000000000000000600082015250565b7f45434453413a20696e76616c6964207369676e6174757265202776272076616c60008201527f7565000000000000000000000000000000000000000000000000000000000000602082015250565b7f53616665436173743a2076616c756520646f65736e27742066697420696e203660008201527f3420626974730000000000000000000000000000000000000000000000000000602082015250565b7f476f7665726e6f723a2070726f706f73616c206e6f7420616374697665000000600082015250565b7f476f7665726e6f723a2070726f706f73616c206e6f742073756363657373667560008201527f6c00000000000000000000000000000000000000000000000000000000000000602082015250565b7f476f7665726e6f723a20756e6b6e6f776e2070726f706f73616c206964000000600082015250565b7f476f7665726e6f72566f74696e6753696d706c653a20696e76616c696420766160008201527f6c756520666f7220656e756d20566f7465547970650000000000000000000000602082015250565b7f476f7665726e6f723a2070726f706f73616c20616c726561647920657869737460008201527f7300000000000000000000000000000000000000000000000000000000000000602082015250565b600881106152205761521f614c45565b5b50565b61522c816149f6565b811461523757600080fd5b50565b61524381614a1a565b811461524e57600080fd5b50565b61525a81614a26565b811461526557600080fd5b50565b61527181614a30565b811461527c57600080fd5b50565b61528881614a5c565b811461529357600080fd5b50565b61529f81614aab565b81146152aa57600080fd5b50565b6152b681614ac9565b81146152c157600080fd5b5056fea264697066735822122046aad57bdcb1cd7e63a7f0437fe3c998462a013c50cd40317aabcc616ec573dd64736f6c63430008030033",
  "linkReferences": {},
  "deployedLinkReferences": {}
}