{
  "_format": "hh-sol-artifact-1",
  "contractName": "GovernorCompMock",
  "sourceName": "contracts/mocks/GovernorCompMock.sol",
  "abi": [
    {
      "inputs": [
        {
          "internalType": "string",
          "name": "name_",
          "type": "string"
        },
        {
          "internalType": "contract ERC20VotesComp",
          "name": "token_",
          "type": "address"
        }
      ],
      "stateMutability": "nonpayable",
      "type": "constructor"
    },
    {
      "anonymous": false,
      "inputs": [
        {
          "indexed": false,
          "internalType": "uint256",
          "name": "proposalId",
          "type": "uint256"
        }
      ],
      "name": "ProposalCanceled",
      "type": "event"
    },
    {
      "anonymous": false,
      "inputs": [
        {
          "indexed": false,
          "internalType": "uint256",
          "name": "proposalId",
          "type": "uint256"
        },
        {
          "indexed": false,
          "internalType": "address",
          "name": "proposer",
          "type": "address"
        },
        {
          "indexed": false,
          "internalType": "address[]",
          "name": "targets",
          "type": "address[]"
        },
        {
          "indexed": false,
          "internalType": "uint256[]",
          "name": "values",
          "type": "uint256[]"
        },
        {
          "indexed": false,
          "internalType": "string[]",
          "name": "signatures",
          "type": "string[]"
        },
        {
          "indexed": false,
          "internalType": "bytes[]",
          "name": "calldatas",
          "type": "bytes[]"
        },
        {
          "indexed": false,
          "internalType": "uint256",
          "name": "startBlock",
          "type": "uint256"
        },
        {
          "indexed": false,
          "internalType": "uint256",
          "name": "endBlock",
          "type": "uint256"
        },
        {
          "indexed": false,
          "internalType": "string",
          "name": "description",
          "type": "string"
        }
      ],
      "name": "ProposalCreated",
      "type": "event"
    },
    {
      "anonymous": false,
      "inputs": [
        {
          "indexed": false,
          "internalType": "uint256",
          "name": "proposalId",
          "type": "uint256"
        }
      ],
      "name": "ProposalExecuted",
      "type": "event"
    },
    {
      "anonymous": false,
      "inputs": [
        {
          "indexed": true,
          "internalType": "address",
          "name": "voter",
          "type": "address"
        },
        {
          "indexed": false,
          "internalType": "uint256",
          "name": "proposalId",
          "type": "uint256"
        },
        {
          "indexed": false,
          "internalType": "uint8",
          "name": "support",
          "type": "uint8"
        },
        {
          "indexed": false,
          "internalType": "uint256",
          "name": "weight",
          "type": "uint256"
        },
        {
          "indexed": false,
          "internalType": "string",
          "name": "reason",
          "type": "string"
        }
      ],
      "name": "VoteCast",
      "type": "event"
    },
    {
      "inputs": [],
      "name": "BALLOT_TYPEHASH",
      "outputs": [
        {
          "internalType": "bytes32",
          "name": "",
          "type": "bytes32"
        }
      ],
      "stateMutability": "view",
      "type": "function"
    },
    {
      "inputs": [],
      "name": "COUNTING_MODE",
      "outputs": [
        {
          "internalType": "string",
          "name": "",
          "type": "string"
        }
      ],
      "stateMutability": "pure",
      "type": "function"
    },
    {
      "inputs": [
        {
          "internalType": "address[]",
          "name": "targets",
          "type": "address[]"
        },
        {
          "internalType": "uint256[]",
          "name": "values",
          "type": "uint256[]"
        },
        {
          "internalType": "bytes[]",
          "name": "calldatas",
          "type": "bytes[]"
        },
        {
          "internalType": "bytes32",
          "name": "salt",
          "type": "bytes32"
        }
      ],
      "name": "cancel",
      "outputs": [
        {
          "internalType": "uint256",
          "name": "proposalId",
          "type": "uint256"
        }
      ],
      "stateMutability": "nonpayable",
      "type": "function"
    },
    {
      "inputs": [
        {
          "internalType": "uint256",
          "name": "proposalId",
          "type": "uint256"
        },
        {
          "internalType": "uint8",
          "name": "support",
          "type": "uint8"
        }
      ],
      "name": "castVote",
      "outputs": [
        {
          "internalType": "uint256",
          "name": "",
          "type": "uint256"
        }
      ],
      "stateMutability": "nonpayable",
      "type": "function"
    },
    {
      "inputs": [
        {
          "internalType": "uint256",
          "name": "proposalId",
          "type": "uint256"
        },
        {
          "internalType": "uint8",
          "name": "support",
          "type": "uint8"
        },
        {
          "internalType": "uint8",
          "name": "v",
          "type": "uint8"
        },
        {
          "internalType": "bytes32",
          "name": "r",
          "type": "bytes32"
        },
        {
          "internalType": "bytes32",
          "name": "s",
          "type": "bytes32"
        }
      ],
      "name": "castVoteBySig",
      "outputs": [
        {
          "internalType": "uint256",
          "name": "",
          "type": "uint256"
        }
      ],
      "stateMutability": "nonpayable",
      "type": "function"
    },
    {
      "inputs": [
        {
          "internalType": "uint256",
          "name": "proposalId",
          "type": "uint256"
        },
        {
          "internalType": "uint8",
          "name": "support",
          "type": "uint8"
        },
        {
          "internalType": "string",
          "name": "reason",
          "type": "string"
        }
      ],
      "name": "castVoteWithReason",
      "outputs": [
        {
          "internalType": "uint256",
          "name": "",
          "type": "uint256"
        }
      ],
      "stateMutability": "nonpayable",
      "type": "function"
    },
    {
      "inputs": [
        {
          "internalType": "address[]",
          "name": "targets",
          "type": "address[]"
        },
        {
          "internalType": "uint256[]",
          "name": "values",
          "type": "uint256[]"
        },
        {
          "internalType": "bytes[]",
          "name": "calldatas",
          "type": "bytes[]"
        },
        {
          "internalType": "bytes32",
          "name": "descriptionHash",
          "type": "bytes32"
        }
      ],
      "name": "execute",
      "outputs": [
        {
          "internalType": "uint256",
          "name": "",
          "type": "uint256"
        }
      ],
      "stateMutability": "payable",
      "type": "function"
    },
    {
      "inputs": [
        {
          "internalType": "address",
          "name": "account",
          "type": "address"
        },
        {
          "internalType": "uint256",
          "name": "blockNumber",
          "type": "uint256"
        }
      ],
      "name": "getVotes",
      "outputs": [
        {
          "internalType": "uint256",
          "name": "",
          "type": "uint256"
        }
      ],
      "stateMutability": "view",
      "type": "function"
    },
    {
      "inputs": [
        {
          "internalType": "uint256",
          "name": "proposalId",
          "type": "uint256"
        },
        {
          "internalType": "address",
          "name": "account",
          "type": "address"
        }
      ],
      "name": "hasVoted",
      "outputs": [
        {
          "internalType": "bool",
          "name": "",
          "type": "bool"
        }
      ],
      "stateMutability": "view",
      "type": "function"
    },
    {
      "inputs": [
        {
          "internalType": "address[]",
          "name": "targets",
          "type": "address[]"
        },
        {
          "internalType": "uint256[]",
          "name": "values",
          "type": "uint256[]"
        },
        {
          "internalType": "bytes[]",
          "name": "calldatas",
          "type": "bytes[]"
        },
        {
          "internalType": "bytes32",
          "name": "descriptionHash",
          "type": "bytes32"
        }
      ],
      "name": "hashProposal",
      "outputs": [
        {
          "internalType": "uint256",
          "name": "",
          "type": "uint256"
        }
      ],
      "stateMutability": "pure",
      "type": "function"
    },
    {
      "inputs": [],
      "name": "name",
      "outputs": [
        {
          "internalType": "string",
          "name": "",
          "type": "string"
        }
      ],
      "stateMutability": "view",
      "type": "function"
    },
    {
      "inputs": [
        {
          "internalType": "uint256",
          "name": "proposalId",
          "type": "uint256"
        }
      ],
      "name": "proposalDeadline",
      "outputs": [
        {
          "internalType": "uint256",
          "name": "",
          "type": "uint256"
        }
      ],
      "stateMutability": "view",
      "type": "function"
    },
    {
      "inputs": [
        {
          "internalType": "uint256",
          "name": "proposalId",
          "type": "uint256"
        }
      ],
      "name": "proposalSnapshot",
      "outputs": [
        {
          "internalType": "uint256",
          "name": "",
          "type": "uint256"
        }
      ],
      "stateMutability": "view",
      "type": "function"
    },
    {
      "inputs": [],
      "name": "proposalThreshold",
      "outputs": [
        {
          "internalType": "uint256",
          "name": "",
          "type": "uint256"
        }
      ],
      "stateMutability": "view",
      "type": "function"
    },
    {
      "inputs": [
        {
          "internalType": "uint256",
          "name": "proposalId",
          "type": "uint256"
        }
      ],
      "name": "proposalVotes",
      "outputs": [
        {
          "internalType": "uint256",
          "name": "againstVotes",
          "type": "uint256"
        },
        {
          "internalType": "uint256",
          "name": "forVotes",
          "type": "uint256"
        },
        {
          "internalType": "uint256",
          "name": "abstainVotes",
          "type": "uint256"
        }
      ],
      "stateMutability": "view",
      "type": "function"
    },
    {
      "inputs": [
        {
          "internalType": "address[]",
          "name": "targets",
          "type": "address[]"
        },
        {
          "internalType": "uint256[]",
          "name": "values",
          "type": "uint256[]"
        },
        {
          "internalType": "bytes[]",
          "name": "calldatas",
          "type": "bytes[]"
        },
        {
          "internalType": "string",
          "name": "description",
          "type": "string"
        }
      ],
      "name": "propose",
      "outputs": [
        {
          "internalType": "uint256",
          "name": "",
          "type": "uint256"
        }
      ],
      "stateMutability": "nonpayable",
      "type": "function"
    },
    {
      "inputs": [
        {
          "internalType": "uint256",
          "name": "",
          "type": "uint256"
        }
      ],
      "name": "quorum",
      "outputs": [
        {
          "internalType": "uint256",
          "name": "",
          "type": "uint256"
        }
      ],
      "stateMutability": "pure",
      "type": "function"
    },
    {
      "inputs": [
        {
          "internalType": "uint256",
          "name": "proposalId",
          "type": "uint256"
        }
      ],
      "name": "state",
      "outputs": [
        {
          "internalType": "enum IGovernor.ProposalState",
          "name": "",
          "type": "uint8"
        }
      ],
      "stateMutability": "view",
      "type": "function"
    },
    {
      "inputs": [
        {
          "internalType": "bytes4",
          "name": "interfaceId",
          "type": "bytes4"
        }
      ],
      "name": "supportsInterface",
      "outputs": [
        {
          "internalType": "bool",
          "name": "",
          "type": "bool"
        }
      ],
      "stateMutability": "view",
      "type": "function"
    },
    {
      "inputs": [],
      "name": "token",
      "outputs": [
        {
          "internalType": "contract ERC20VotesComp",
          "name": "",
          "type": "address"
        }
      ],
      "stateMutability": "view",
      "type": "function"
    },
    {
      "inputs": [],
      "name": "version",
      "outputs": [
        {
          "internalType": "string",
          "name": "",
          "type": "string"
        }
      ],
      "stateMutability": "view",
      "type": "function"
    },
    {
      "inputs": [],
      "name": "votingDelay",
      "outputs": [
        {
          "internalType": "uint256",
          "name": "",
          "type": "uint256"
        }
      ],
      "stateMutability": "pure",
      "type": "function"
    },
    {
      "inputs": [],
      "name": "votingPeriod",
      "outputs": [
        {
          "internalType": "uint256",
          "name": "",
          "type": "uint256"
        }
      ],
      "stateMutability": "pure",
      "type": "function"
    },
    {
      "stateMutability": "payable",
      "type": "receive"
    }
  ],
  "bytecode": "0x6101606040523480156200001257600080fd5b506040516200467a3803806200467a83398181016040528101906200003891906200030d565b8082806200004b6200015b60201b60201c565b60008280519060200120905060008280519060200120905060007f8b73c3c69bb8fe3d512ecc4cf759cc79239f7b179b0ffacaa9a75d522b39400f90508260e081815250508161010081815250504660a08181525050620000b48184846200019860201b60201c565b608081815250503073ffffffffffffffffffffffffffffffffffffffff1660c08173ffffffffffffffffffffffffffffffffffffffff1660601b815250508061012081815250505050505050806000908051906020019062000118929190620001d4565b50508073ffffffffffffffffffffffffffffffffffffffff166101408173ffffffffffffffffffffffffffffffffffffffff1660601b81525050505050620005dd565b60606040518060400160405280600181526020017f3100000000000000000000000000000000000000000000000000000000000000815250905090565b60008383834630604051602001620001b59594939291906200039a565b6040516020818303038152906040528051906020012090509392505050565b828054620001e290620004e8565b90600052602060002090601f01602090048101928262000206576000855562000252565b82601f106200022157805160ff191683800117855562000252565b8280016001018555821562000252579182015b828111156200025157825182559160200191906001019062000234565b5b50905062000261919062000265565b5090565b5b808211156200028057600081600090555060010162000266565b5090565b60006200029b620002958462000420565b620003f7565b905082815260208101848484011115620002b457600080fd5b620002c1848285620004b2565b509392505050565b600081519050620002da81620005c3565b92915050565b600082601f830112620002f257600080fd5b81516200030484826020860162000284565b91505092915050565b600080604083850312156200032157600080fd5b600083015167ffffffffffffffff8111156200033c57600080fd5b6200034a85828601620002e0565b92505060206200035d85828601620002c9565b9150509250929050565b620003728162000456565b82525050565b62000383816200046a565b82525050565b6200039481620004a8565b82525050565b600060a082019050620003b1600083018862000378565b620003c0602083018762000378565b620003cf604083018662000378565b620003de606083018562000389565b620003ed608083018462000367565b9695505050505050565b60006200040362000416565b90506200041182826200051e565b919050565b6000604051905090565b600067ffffffffffffffff8211156200043e576200043d62000583565b5b6200044982620005b2565b9050602081019050919050565b6000620004638262000488565b9050919050565b6000819050919050565b6000620004818262000456565b9050919050565b600073ffffffffffffffffffffffffffffffffffffffff82169050919050565b6000819050919050565b60005b83811015620004d2578082015181840152602081019050620004b5565b83811115620004e2576000848401525b50505050565b600060028204905060018216806200050157607f821691505b6020821081141562000518576200051762000554565b5b50919050565b6200052982620005b2565b810181811067ffffffffffffffff821117156200054b576200054a62000583565b5b80604052505050565b7f4e487b7100000000000000000000000000000000000000000000000000000000600052602260045260246000fd5b7f4e487b7100000000000000000000000000000000000000000000000000000000600052604160045260246000fd5b6000601f19601f8301169050919050565b620005ce8162000474565b8114620005da57600080fd5b50565b60805160a05160c05160601c60e05161010051610120516101405160601c614035620006456000396000818161121901526119a001526000611b7401526000611bb601526000611b9501526000611aca01526000611b2001526000611b4901526140356000f3fe6080604052600436106101445760003560e01c806354fd4d50116100b6578063c59057e41161006f578063c59057e414610537578063dd4e2ba514610574578063deaaa7cc1461059f578063eb9019d4146105ca578063f8ce560a14610607578063fc0c546a146106445761018a565b806354fd4d50146103ed57806356781388146104185780637b3c71d3146104555780637d5e81e214610492578063b58131b0146104cf578063c01f9e37146104fa5761018a565b80633932abb1116101085780633932abb11461028f5780633bccf4fd146102ba5780633e4f49e6146102f75780634385963214610334578063452115d614610371578063544ffc9c146103ae5761018a565b806301ffc9a71461018f57806302a251a3146101cc57806306fdde03146101f75780632656227d146102225780632d63f693146102525761018a565b3661018a573073ffffffffffffffffffffffffffffffffffffffff1661016861066f565b73ffffffffffffffffffffffffffffffffffffffff161461018857600080fd5b005b600080fd5b34801561019b57600080fd5b506101b660048036038101906101b19190612832565b610677565b6040516101c39190613090565b60405180910390f35b3480156101d857600080fd5b506101e16106f1565b6040516101ee91906133cd565b60405180910390f35b34801561020357600080fd5b5061020c6106fa565b60405161021991906131cb565b60405180910390f35b61023c600480360381019061023791906126c4565b61078c565b60405161024991906133cd565b60405180910390f35b34801561025e57600080fd5b506102796004803603810190610274919061285b565b610957565b60405161028691906133cd565b60405180910390f35b34801561029b57600080fd5b506102a46109c5565b6040516102b191906133cd565b60405180910390f35b3480156102c657600080fd5b506102e160048036038101906102dc9190612968565b6109ce565b6040516102ee91906133cd565b60405180910390f35b34801561030357600080fd5b5061031e6004803603810190610319919061285b565b610a58565b60405161032b91906131b0565b60405180910390f35b34801561034057600080fd5b5061035b60048036038101906103569190612884565b610c35565b6040516103689190613090565b60405180910390f35b34801561037d57600080fd5b50610398600480360381019061039391906126c4565b610ca0565b6040516103a591906133cd565b60405180910390f35b3480156103ba57600080fd5b506103d560048036038101906103d0919061285b565b610cb8565b6040516103e493929190613498565b60405180910390f35b3480156103f957600080fd5b50610402610cf0565b60405161040f91906131cb565b60405180910390f35b34801561042457600080fd5b5061043f600480360381019061043a91906128c0565b610d2d565b60405161044c91906133cd565b60405180910390f35b34801561046157600080fd5b5061047c600480360381019061047791906128fc565b610d5e565b60405161048991906133cd565b60405180910390f35b34801561049e57600080fd5b506104b960048036038101906104b4919061276f565b610dc6565b6040516104c691906133cd565b60405180910390f35b3480156104db57600080fd5b506104e46110ec565b6040516104f191906133cd565b60405180910390f35b34801561050657600080fd5b50610521600480360381019061051c919061285b565b6110f1565b60405161052e91906133cd565b60405180910390f35b34801561054357600080fd5b5061055e600480360381019061055991906126c4565b61115f565b60405161056b91906133cd565b60405180910390f35b34801561058057600080fd5b5061058961119b565b60405161059691906131cb565b60405180910390f35b3480156105ab57600080fd5b506105b46111d8565b6040516105c191906130ab565b60405180910390f35b3480156105d657600080fd5b506105f160048036038101906105ec9190612688565b6111fc565b6040516105fe91906133cd565b60405180910390f35b34801561061357600080fd5b5061062e6004803603810190610629919061285b565b611210565b60405161063b91906133cd565b60405180910390f35b34801561065057600080fd5b50610659611217565b6040516106669190613195565b60405180910390f35b600030905090565b60007fbf26d897000000000000000000000000000000000000000000000000000000007bffffffffffffffffffffffffffffffffffffffffffffffffffffffff1916827bffffffffffffffffffffffffffffffffffffffffffffffffffffffff191614806106ea57506106e98261123b565b5b9050919050565b60006010905090565b60606000805461070990613985565b80601f016020809104026020016040519081016040528092919081815260200182805461073590613985565b80156107825780601f1061075757610100808354040283529160200191610782565b820191906000526020600020905b81548152906001019060200180831161076557829003601f168201915b5050505050905090565b60008061079b8686868661115f565b905060006107a882610a58565b9050600460078111156107e4577f4e487b7100000000000000000000000000000000000000000000000000000000600052602160045260246000fd5b81600781111561081d577f4e487b7100000000000000000000000000000000000000000000000000000000600052602160045260246000fd5b148061089957506005600781111561085e577f4e487b7100000000000000000000000000000000000000000000000000000000600052602160045260246000fd5b816007811115610897577f4e487b7100000000000000000000000000000000000000000000000000000000600052602160045260246000fd5b145b6108d8576040517f08c379a00000000000000000000000000000000000000000000000000000000081526004016108cf9061334d565b60405180910390fd5b600180600084815260200190815260200160002060020160006101000a81548160ff0219169083151502179055507f712ae1383f79ac853f8d882153778e0260ef8f03b504e2866e0593e04d2b291f8260405161093591906133cd565b60405180910390a161094a82888888886112a5565b8192505050949350505050565b60006109b4600160008481526020019081526020016000206000016040518060200160405290816000820160009054906101000a900467ffffffffffffffff1667ffffffffffffffff1667ffffffffffffffff1681525050611426565b67ffffffffffffffff169050919050565b60006004905090565b600080610a2f610a277f150214d74d59b7d1e90c73fc22ef3d991dd0a76b046543d4d80ab92d2a50328f8989604051602001610a0c93929190613119565b60405160208183030381529060405280519060200120611434565b86868661144e565b9050610a4c87828860405180602001604052806000815250611479565b91505095945050505050565b60008060016000848152602001908152602001600020604051806080016040529081600082016040518060200160405290816000820160009054906101000a900467ffffffffffffffff1667ffffffffffffffff1667ffffffffffffffff16815250508152602001600182016040518060200160405290816000820160009054906101000a900467ffffffffffffffff1667ffffffffffffffff1667ffffffffffffffff168152505081526020016002820160009054906101000a900460ff161515151581526020016002820160019054906101000a900460ff1615151515815250509050806040015115610b51576007915050610c30565b806060015115610b65576002915050610c30565b43610b738260000151611426565b67ffffffffffffffff1610610b8c576000915050610c30565b43610b9a8260200151611426565b67ffffffffffffffff1610610bb3576001915050610c30565b610bc08160200151611619565b15610bf557610bce83611645565b8015610bdf5750610bde8361168c565b5b610bea576003610bed565b60045b915050610c30565b6040517f08c379a0000000000000000000000000000000000000000000000000000000008152600401610c279061336d565b60405180910390fd5b919050565b60006002600084815260200190815260200160002060030160008373ffffffffffffffffffffffffffffffffffffffff1673ffffffffffffffffffffffffffffffffffffffff16815260200190815260200160002060009054906101000a900460ff16905092915050565b6000610cae858585856116b7565b9050949350505050565b600080600080600260008681526020019081526020016000209050806000015481600101548260020154935093509350509193909250565b60606040518060400160405280600181526020017f3100000000000000000000000000000000000000000000000000000000000000815250905090565b600080610d386118f4565b9050610d5584828560405180602001604052806000815250611479565b91505092915050565b600080610d696118f4565b9050610dbb86828787878080601f016020809104026020016040519081016040528093929190818152602001838380828437600081840152601f19601f82011690508083019250505050505050611479565b915050949350505050565b6000610dd06110ec565b610de633600143610de191906137fd565b6111fc565b1015610e27576040517f08c379a0000000000000000000000000000000000000000000000000000000008152600401610e1e9061320d565b60405180910390fd5b6000610e3c868686868051906020012061115f565b90508451865114610e82576040517f08c379a0000000000000000000000000000000000000000000000000000000008152600401610e799061324d565b60405180910390fd5b8351865114610ec6576040517f08c379a0000000000000000000000000000000000000000000000000000000008152600401610ebd9061324d565b60405180910390fd5b6000865111610f0a576040517f08c379a0000000000000000000000000000000000000000000000000000000008152600401610f01906132cd565b60405180910390fd5b6000600160008381526020019081526020016000209050610f6a816000016040518060200160405290816000820160009054906101000a900467ffffffffffffffff1667ffffffffffffffff1667ffffffffffffffff16815250506118fc565b610fa9576040517f08c379a0000000000000000000000000000000000000000000000000000000008152600401610fa0906133ad565b60405180910390fd5b6000610fbb610fb66109c5565b611916565b610fc443611916565b610fce91906137bf565b90506000610fe2610fdd6106f1565b611916565b82610fed91906137bf565b9050611005828460000161196d90919063ffffffff16565b61101b818460010161196d90919063ffffffff16565b7f7d84a6263ae0d98d3329bd7b46bb4e8d6f98cd35a7adb45c274c8b7fd5ebd5e0846110456118f4565b8b8b8d5167ffffffffffffffff811115611088577f4e487b7100000000000000000000000000000000000000000000000000000000600052604160045260246000fd5b6040519080825280602002602001820160405280156110bb57816020015b60608152602001906001900390816110a65790505b508c88888e6040516110d5999897969594939291906133e8565b60405180910390a183945050505050949350505050565b600090565b600061114e600160008481526020019081526020016000206001016040518060200160405290816000820160009054906101000a900467ffffffffffffffff1667ffffffffffffffff1667ffffffffffffffff1681525050611426565b67ffffffffffffffff169050919050565b6000848484846040516020016111789493929190613036565b6040516020818303038152906040528051906020012060001c9050949350505050565b60606040518060400160405280602081526020017f737570706f72743d627261766f2671756f72756d3d666f722c6162737461696e815250905090565b7f150214d74d59b7d1e90c73fc22ef3d991dd0a76b046543d4d80ab92d2a50328f81565b6000611208838361199c565b905092915050565b6000919050565b7f000000000000000000000000000000000000000000000000000000000000000081565b60007f01ffc9a7000000000000000000000000000000000000000000000000000000007bffffffffffffffffffffffffffffffffffffffffffffffffffffffff1916827bffffffffffffffffffffffffffffffffffffffffffffffffffffffff1916149050919050565b6000604051806060016040528060278152602001613fd960279139905060005b855181101561141d5760008087838151811061130a577f4e487b7100000000000000000000000000000000000000000000000000000000600052603260045260246000fd5b602002602001015173ffffffffffffffffffffffffffffffffffffffff16878481518110611361577f4e487b7100000000000000000000000000000000000000000000000000000000600052603260045260246000fd5b60200260200101518785815181106113a2577f4e487b7100000000000000000000000000000000000000000000000000000000600052603260045260246000fd5b60200260200101516040516113b79190612fbf565b60006040518083038185875af1925050503d80600081146113f4576040519150601f19603f3d011682016040523d82523d6000602084013e6113f9565b606091505b5091509150611409828286611a5f565b50505080611416906139e8565b90506112c5565b50505050505050565b600081600001519050919050565b6000611447611441611ac6565b83611be0565b9050919050565b600080600061145f87878787611c13565b9150915061146c81611d20565b8192505050949350505050565b600080600160008781526020019081526020016000209050600160078111156114cb577f4e487b7100000000000000000000000000000000000000000000000000000000600052602160045260246000fd5b6114d487610a58565b600781111561150c577f4e487b7100000000000000000000000000000000000000000000000000000000600052602160045260246000fd5b1461154c576040517f08c379a0000000000000000000000000000000000000000000000000000000008152600401611543906132ad565b60405180910390fd5b60006115aa8661159b846000016040518060200160405290816000820160009054906101000a900467ffffffffffffffff1667ffffffffffffffff1667ffffffffffffffff1681525050611426565b67ffffffffffffffff166111fc565b90506115b887878784612071565b8573ffffffffffffffffffffffffffffffffffffffff167fb8e138887d0aa13bab447e82de9d5c1777041ecd21ca36ba824ff1e6c07ddda48887848860405161160494939291906134cf565b60405180910390a28092505050949350505050565b6000611624826122e9565b801561163e575043826000015167ffffffffffffffff1611155b9050919050565b600080600260008481526020019081526020016000209050806002015481600101546116719190613769565b61168261167d85610957565b611210565b1115915050919050565b6000806002600084815260200190815260200160002090508060000154816001015411915050919050565b6000806116c68686868661115f565b905060006116d382610a58565b90506002600781111561170f577f4e487b7100000000000000000000000000000000000000000000000000000000600052602160045260246000fd5b816007811115611748577f4e487b7100000000000000000000000000000000000000000000000000000000600052602160045260246000fd5b141580156117c757506006600781111561178b577f4e487b7100000000000000000000000000000000000000000000000000000000600052602160045260246000fd5b8160078111156117c4577f4e487b7100000000000000000000000000000000000000000000000000000000600052602160045260246000fd5b14155b80156118435750600780811115611807577f4e487b7100000000000000000000000000000000000000000000000000000000600052602160045260246000fd5b816007811115611840577f4e487b7100000000000000000000000000000000000000000000000000000000600052602160045260246000fd5b14155b611882576040517f08c379a00000000000000000000000000000000000000000000000000000000081526004016118799061332d565b60405180910390fd5b600180600084815260200190815260200160002060020160016101000a81548160ff0219169083151502179055507f789cf55be980739dad1d0699b93b58e806b51c9d96619bfa8fe0a28abaa7b30c826040516118df91906133cd565b60405180910390a18192505050949350505050565b600033905090565b600080826000015167ffffffffffffffff16149050919050565b600067ffffffffffffffff8016821115611965576040517f08c379a000000000000000000000000000000000000000000000000000000000815260040161195c9061330d565b60405180910390fd5b819050919050565b808260000160006101000a81548167ffffffffffffffff021916908367ffffffffffffffff1602179055505050565b60007f000000000000000000000000000000000000000000000000000000000000000073ffffffffffffffffffffffffffffffffffffffff1663782d6fe184846040518363ffffffff1660e01b81526004016119f992919061300d565b60206040518083038186803b158015611a1157600080fd5b505afa158015611a25573d6000803e3d6000fd5b505050506040513d601f19601f82011682018060405250810190611a4991906129df565b6bffffffffffffffffffffffff16905092915050565b60608315611a6f57829050611abf565b600083511115611a825782518084602001fd5b816040517f08c379a0000000000000000000000000000000000000000000000000000000008152600401611ab691906131cb565b60405180910390fd5b9392505050565b60007f000000000000000000000000000000000000000000000000000000000000000073ffffffffffffffffffffffffffffffffffffffff163073ffffffffffffffffffffffffffffffffffffffff16148015611b4257507f000000000000000000000000000000000000000000000000000000000000000046145b15611b6f577f00000000000000000000000000000000000000000000000000000000000000009050611bdd565b611bda7f00000000000000000000000000000000000000000000000000000000000000007f00000000000000000000000000000000000000000000000000000000000000007f0000000000000000000000000000000000000000000000000000000000000000612303565b90505b90565b60008282604051602001611bf5929190612fd6565b60405160208183030381529060405280519060200120905092915050565b6000807f7fffffffffffffffffffffffffffffff5d576e7357a4501ddfe92f46681b20a08360001c1115611c4e576000600391509150611d17565b601b8560ff1614158015611c665750601c8560ff1614155b15611c78576000600491509150611d17565b600060018787878760405160008152602001604052604051611c9d9493929190613150565b6020604051602081039080840390855afa158015611cbf573d6000803e3d6000fd5b505050602060405103519050600073ffffffffffffffffffffffffffffffffffffffff168173ffffffffffffffffffffffffffffffffffffffff161415611d0e57600060019250925050611d17565b80600092509250505b94509492505050565b60006004811115611d5a577f4e487b7100000000000000000000000000000000000000000000000000000000600052602160045260246000fd5b816004811115611d93577f4e487b7100000000000000000000000000000000000000000000000000000000600052602160045260246000fd5b1415611d9e5761206e565b60016004811115611dd8577f4e487b7100000000000000000000000000000000000000000000000000000000600052602160045260246000fd5b816004811115611e11577f4e487b7100000000000000000000000000000000000000000000000000000000600052602160045260246000fd5b1415611e52576040517f08c379a0000000000000000000000000000000000000000000000000000000008152600401611e49906131ed565b60405180910390fd5b60026004811115611e8c577f4e487b7100000000000000000000000000000000000000000000000000000000600052602160045260246000fd5b816004811115611ec5577f4e487b7100000000000000000000000000000000000000000000000000000000600052602160045260246000fd5b1415611f06576040517f08c379a0000000000000000000000000000000000000000000000000000000008152600401611efd9061322d565b60405180910390fd5b60036004811115611f40577f4e487b7100000000000000000000000000000000000000000000000000000000600052602160045260246000fd5b816004811115611f79577f4e487b7100000000000000000000000000000000000000000000000000000000600052602160045260246000fd5b1415611fba576040517f08c379a0000000000000000000000000000000000000000000000000000000008152600401611fb19061326d565b60405180910390fd5b600480811115611ff3577f4e487b7100000000000000000000000000000000000000000000000000000000600052602160045260246000fd5b81600481111561202c577f4e487b7100000000000000000000000000000000000000000000000000000000600052602160045260246000fd5b141561206d576040517f08c379a0000000000000000000000000000000000000000000000000000000008152600401612064906132ed565b60405180910390fd5b5b50565b60006002600086815260200190815260200160002090508060030160008573ffffffffffffffffffffffffffffffffffffffff1673ffffffffffffffffffffffffffffffffffffffff16815260200190815260200160002060009054906101000a900460ff1615612117576040517f08c379a000000000000000000000000000000000000000000000000000000000815260040161210e9061328d565b60405180910390fd5b60018160030160008673ffffffffffffffffffffffffffffffffffffffff1673ffffffffffffffffffffffffffffffffffffffff16815260200190815260200160002060006101000a81548160ff021916908315150217905550600060028111156121ab577f4e487b7100000000000000000000000000000000000000000000000000000000600052602160045260246000fd5b60ff168360ff1614156121d857818160000160008282546121cc9190613769565b925050819055506122e2565b60016002811115612212577f4e487b7100000000000000000000000000000000000000000000000000000000600052602160045260246000fd5b60ff168360ff16141561223f57818160010160008282546122339190613769565b925050819055506122e1565b600280811115612278577f4e487b7100000000000000000000000000000000000000000000000000000000600052602160045260246000fd5b60ff168360ff1614156122a557818160020160008282546122999190613769565b925050819055506122e0565b6040517f08c379a00000000000000000000000000000000000000000000000000000000081526004016122d79061338d565b60405180910390fd5b5b5b5050505050565b600080826000015167ffffffffffffffff16119050919050565b6000838383463060405160200161231e9594939291906130c6565b6040516020818303038152906040528051906020012090509392505050565b600061235061234b84613540565b61351b565b9050808382526020820190508285602086028201111561236f57600080fd5b60005b8581101561239f578161238588826124ee565b845260208401935060208301925050600181019050612372565b5050509392505050565b60006123bc6123b78461356c565b61351b565b9050808382526020820190508260005b858110156123fc57813585016123e288826125ab565b8452602084019350602083019250506001810190506123cc565b5050509392505050565b600061241961241484613598565b61351b565b9050808382526020820190508285602086028201111561243857600080fd5b60005b85811015612468578161244e8882612649565b84526020840193506020830192505060018101905061243b565b5050509392505050565b6000612485612480846135c4565b61351b565b90508281526020810184848401111561249d57600080fd5b6124a8848285613943565b509392505050565b60006124c36124be846135f5565b61351b565b9050828152602081018484840111156124db57600080fd5b6124e6848285613943565b509392505050565b6000813590506124fd81613f4e565b92915050565b600082601f83011261251457600080fd5b813561252484826020860161233d565b91505092915050565b600082601f83011261253e57600080fd5b813561254e8482602086016123a9565b91505092915050565b600082601f83011261256857600080fd5b8135612578848260208601612406565b91505092915050565b60008135905061259081613f65565b92915050565b6000813590506125a581613f7c565b92915050565b600082601f8301126125bc57600080fd5b81356125cc848260208601612472565b91505092915050565b60008083601f8401126125e757600080fd5b8235905067ffffffffffffffff81111561260057600080fd5b60208301915083600182028301111561261857600080fd5b9250929050565b600082601f83011261263057600080fd5b81356126408482602086016124b0565b91505092915050565b60008135905061265881613f93565b92915050565b60008135905061266d81613faa565b92915050565b60008151905061268281613fc1565b92915050565b6000806040838503121561269b57600080fd5b60006126a9858286016124ee565b92505060206126ba85828601612649565b9150509250929050565b600080600080608085870312156126da57600080fd5b600085013567ffffffffffffffff8111156126f457600080fd5b61270087828801612503565b945050602085013567ffffffffffffffff81111561271d57600080fd5b61272987828801612557565b935050604085013567ffffffffffffffff81111561274657600080fd5b6127528782880161252d565b925050606061276387828801612581565b91505092959194509250565b6000806000806080858703121561278557600080fd5b600085013567ffffffffffffffff81111561279f57600080fd5b6127ab87828801612503565b945050602085013567ffffffffffffffff8111156127c857600080fd5b6127d487828801612557565b935050604085013567ffffffffffffffff8111156127f157600080fd5b6127fd8782880161252d565b925050606085013567ffffffffffffffff81111561281a57600080fd5b6128268782880161261f565b91505092959194509250565b60006020828403121561284457600080fd5b600061285284828501612596565b91505092915050565b60006020828403121561286d57600080fd5b600061287b84828501612649565b91505092915050565b6000806040838503121561289757600080fd5b60006128a585828601612649565b92505060206128b6858286016124ee565b9150509250929050565b600080604083850312156128d357600080fd5b60006128e185828601612649565b92505060206128f28582860161265e565b9150509250929050565b6000806000806060858703121561291257600080fd5b600061292087828801612649565b94505060206129318782880161265e565b935050604085013567ffffffffffffffff81111561294e57600080fd5b61295a878288016125d5565b925092505092959194509250565b600080600080600060a0868803121561298057600080fd5b600061298e88828901612649565b955050602061299f8882890161265e565b94505060406129b08882890161265e565b93505060606129c188828901612581565b92505060806129d288828901612581565b9150509295509295909350565b6000602082840312156129f157600080fd5b60006129ff84828501612673565b91505092915050565b6000612a148383612a60565b60208301905092915050565b6000612a2c8383612c59565b905092915050565b6000612a408383612ce1565b905092915050565b6000612a548383612f83565b60208301905092915050565b612a6981613831565b82525050565b612a7881613831565b82525050565b6000612a8982613666565b612a9381856136dc565b9350612a9e83613626565b8060005b83811015612acf578151612ab68882612a08565b9750612ac1836136a8565b925050600181019050612aa2565b5085935050505092915050565b6000612ae782613671565b612af181856136ed565b935083602082028501612b0385613636565b8060005b85811015612b3f5784840389528151612b208582612a20565b9450612b2b836136b5565b925060208a01995050600181019050612b07565b50829750879550505050505092915050565b6000612b5c8261367c565b612b6681856136fe565b935083602082028501612b7885613646565b8060005b85811015612bb45784840389528151612b958582612a34565b9450612ba0836136c2565b925060208a01995050600181019050612b7c565b50829750879550505050505092915050565b6000612bd182613687565b612bdb818561370f565b9350612be683613656565b8060005b83811015612c17578151612bfe8882612a48565b9750612c09836136cf565b925050600181019050612bea565b5085935050505092915050565b612c2d81613843565b82525050565b612c3c8161384f565b82525050565b612c53612c4e8261384f565b613a31565b82525050565b6000612c6482613692565b612c6e8185613720565b9350612c7e818560208601613952565b612c8781613af7565b840191505092915050565b6000612c9d82613692565b612ca78185613731565b9350612cb7818560208601613952565b80840191505092915050565b612ccc816138fb565b82525050565b612cdb8161391f565b82525050565b6000612cec8261369d565b612cf6818561373c565b9350612d06818560208601613952565b612d0f81613af7565b840191505092915050565b6000612d258261369d565b612d2f818561374d565b9350612d3f818560208601613952565b612d4881613af7565b840191505092915050565b6000612d6060188361374d565b9150612d6b82613b08565b602082019050919050565b6000612d8360438361374d565b9150612d8e82613b31565b606082019050919050565b6000612da6601f8361374d565b9150612db182613ba6565b602082019050919050565b6000612dc960028361375e565b9150612dd482613bcf565b600282019050919050565b6000612dec60218361374d565b9150612df782613bf8565b604082019050919050565b6000612e0f60228361374d565b9150612e1a82613c47565b604082019050919050565b6000612e3260278361374d565b9150612e3d82613c96565b604082019050919050565b6000612e5560238361374d565b9150612e6082613ce5565b604082019050919050565b6000612e7860188361374d565b9150612e8382613d34565b602082019050919050565b6000612e9b60228361374d565b9150612ea682613d5d565b604082019050919050565b6000612ebe60268361374d565b9150612ec982613dac565b604082019050919050565b6000612ee1601d8361374d565b9150612eec82613dfb565b602082019050919050565b6000612f0460218361374d565b9150612f0f82613e24565b604082019050919050565b6000612f27601d8361374d565b9150612f3282613e73565b602082019050919050565b6000612f4a60358361374d565b9150612f5582613e9c565b604082019050919050565b6000612f6d60218361374d565b9150612f7882613eeb565b604082019050919050565b612f8c816138b8565b82525050565b612f9b816138b8565b82525050565b612faa81613931565b82525050565b612fb9816138d6565b82525050565b6000612fcb8284612c92565b915081905092915050565b6000612fe182612dbc565b9150612fed8285612c42565b602082019150612ffd8284612c42565b6020820191508190509392505050565b60006040820190506130226000830185612a6f565b61302f6020830184612f92565b9392505050565b600060808201905081810360008301526130508187612a7e565b905081810360208301526130648186612bc6565b905081810360408301526130788185612adc565b90506130876060830184612c33565b95945050505050565b60006020820190506130a56000830184612c24565b92915050565b60006020820190506130c06000830184612c33565b92915050565b600060a0820190506130db6000830188612c33565b6130e86020830187612c33565b6130f56040830186612c33565b6131026060830185612f92565b61310f6080830184612a6f565b9695505050505050565b600060608201905061312e6000830186612c33565b61313b6020830185612f92565b6131486040830184612fb0565b949350505050565b60006080820190506131656000830187612c33565b6131726020830186612fb0565b61317f6040830185612c33565b61318c6060830184612c33565b95945050505050565b60006020820190506131aa6000830184612cc3565b92915050565b60006020820190506131c56000830184612cd2565b92915050565b600060208201905081810360008301526131e58184612d1a565b905092915050565b6000602082019050818103600083015261320681612d53565b9050919050565b6000602082019050818103600083015261322681612d76565b9050919050565b6000602082019050818103600083015261324681612d99565b9050919050565b6000602082019050818103600083015261326681612ddf565b9050919050565b6000602082019050818103600083015261328681612e02565b9050919050565b600060208201905081810360008301526132a681612e25565b9050919050565b600060208201905081810360008301526132c681612e48565b9050919050565b600060208201905081810360008301526132e681612e6b565b9050919050565b6000602082019050818103600083015261330681612e8e565b9050919050565b6000602082019050818103600083015261332681612eb1565b9050919050565b6000602082019050818103600083015261334681612ed4565b9050919050565b6000602082019050818103600083015261336681612ef7565b9050919050565b6000602082019050818103600083015261338681612f1a565b9050919050565b600060208201905081810360008301526133a681612f3d565b9050919050565b600060208201905081810360008301526133c681612f60565b9050919050565b60006020820190506133e26000830184612f92565b92915050565b6000610120820190506133fe600083018c612f92565b61340b602083018b612a6f565b818103604083015261341d818a612a7e565b905081810360608301526134318189612bc6565b905081810360808301526134458188612b51565b905081810360a08301526134598187612adc565b905061346860c0830186612fa1565b61347560e0830185612fa1565b8181036101008301526134888184612d1a565b90509a9950505050505050505050565b60006060820190506134ad6000830186612f92565b6134ba6020830185612f92565b6134c76040830184612f92565b949350505050565b60006080820190506134e46000830187612f92565b6134f16020830186612fb0565b6134fe6040830185612f92565b81810360608301526135108184612d1a565b905095945050505050565b6000613525613536565b905061353182826139b7565b919050565b6000604051905090565b600067ffffffffffffffff82111561355b5761355a613ac8565b5b602082029050602081019050919050565b600067ffffffffffffffff82111561358757613586613ac8565b5b602082029050602081019050919050565b600067ffffffffffffffff8211156135b3576135b2613ac8565b5b602082029050602081019050919050565b600067ffffffffffffffff8211156135df576135de613ac8565b5b6135e882613af7565b9050602081019050919050565b600067ffffffffffffffff8211156136105761360f613ac8565b5b61361982613af7565b9050602081019050919050565b6000819050602082019050919050565b6000819050602082019050919050565b6000819050602082019050919050565b6000819050602082019050919050565b600081519050919050565b600081519050919050565b600081519050919050565b600081519050919050565b600081519050919050565b600081519050919050565b6000602082019050919050565b6000602082019050919050565b6000602082019050919050565b6000602082019050919050565b600082825260208201905092915050565b600082825260208201905092915050565b600082825260208201905092915050565b600082825260208201905092915050565b600082825260208201905092915050565b600081905092915050565b600082825260208201905092915050565b600082825260208201905092915050565b600081905092915050565b6000613774826138b8565b915061377f836138b8565b9250827fffffffffffffffffffffffffffffffffffffffffffffffffffffffffffffffff038211156137b4576137b3613a3b565b5b828201905092915050565b60006137ca826138c2565b91506137d5836138c2565b92508267ffffffffffffffff038211156137f2576137f1613a3b565b5b828201905092915050565b6000613808826138b8565b9150613813836138b8565b92508282101561382657613825613a3b565b5b828203905092915050565b600061383c82613898565b9050919050565b60008115159050919050565b6000819050919050565b60007fffffffff0000000000000000000000000000000000000000000000000000000082169050919050565b600081905061389382613f3a565b919050565b600073ffffffffffffffffffffffffffffffffffffffff82169050919050565b6000819050919050565b600067ffffffffffffffff82169050919050565b600060ff82169050919050565b60006bffffffffffffffffffffffff82169050919050565b60006139068261390d565b9050919050565b600061391882613898565b9050919050565b600061392a82613885565b9050919050565b600061393c826138c2565b9050919050565b82818337600083830152505050565b60005b83811015613970578082015181840152602081019050613955565b8381111561397f576000848401525b50505050565b6000600282049050600182168061399d57607f821691505b602082108114156139b1576139b0613a99565b5b50919050565b6139c082613af7565b810181811067ffffffffffffffff821117156139df576139de613ac8565b5b80604052505050565b60006139f3826138b8565b91507fffffffffffffffffffffffffffffffffffffffffffffffffffffffffffffffff821415613a2657613a25613a3b565b5b600182019050919050565b6000819050919050565b7f4e487b7100000000000000000000000000000000000000000000000000000000600052601160045260246000fd5b7f4e487b7100000000000000000000000000000000000000000000000000000000600052602160045260246000fd5b7f4e487b7100000000000000000000000000000000000000000000000000000000600052602260045260246000fd5b7f4e487b7100000000000000000000000000000000000000000000000000000000600052604160045260246000fd5b6000601f19601f8301169050919050565b7f45434453413a20696e76616c6964207369676e61747572650000000000000000600082015250565b7f476f7665726e6f72436f6d7061746962696c697479427261766f3a2070726f7060008201527f6f73657220766f7465732062656c6f772070726f706f73616c2074687265736860208201527f6f6c640000000000000000000000000000000000000000000000000000000000604082015250565b7f45434453413a20696e76616c6964207369676e6174757265206c656e67746800600082015250565b7f1901000000000000000000000000000000000000000000000000000000000000600082015250565b7f476f7665726e6f723a20696e76616c69642070726f706f73616c206c656e677460008201527f6800000000000000000000000000000000000000000000000000000000000000602082015250565b7f45434453413a20696e76616c6964207369676e6174757265202773272076616c60008201527f7565000000000000000000000000000000000000000000000000000000000000602082015250565b7f476f7665726e6f72566f74696e6753696d706c653a20766f746520616c72656160008201527f6479206361737400000000000000000000000000000000000000000000000000602082015250565b7f476f7665726e6f723a20766f7465206e6f742063757272656e746c792061637460008201527f6976650000000000000000000000000000000000000000000000000000000000602082015250565b7f476f7665726e6f723a20656d7074792070726f706f73616c0000000000000000600082015250565b7f45434453413a20696e76616c6964207369676e6174757265202776272076616c60008201527f7565000000000000000000000000000000000000000000000000000000000000602082015250565b7f53616665436173743a2076616c756520646f65736e27742066697420696e203660008201527f3420626974730000000000000000000000000000000000000000000000000000602082015250565b7f476f7665726e6f723a2070726f706f73616c206e6f7420616374697665000000600082015250565b7f476f7665726e6f723a2070726f706f73616c206e6f742073756363657373667560008201527f6c00000000000000000000000000000000000000000000000000000000000000602082015250565b7f476f7665726e6f723a20756e6b6e6f776e2070726f706f73616c206964000000600082015250565b7f476f7665726e6f72566f74696e6753696d706c653a20696e76616c696420766160008201527f6c756520666f7220656e756d20566f7465547970650000000000000000000000602082015250565b7f476f7665726e6f723a2070726f706f73616c20616c726561647920657869737460008201527f7300000000000000000000000000000000000000000000000000000000000000602082015250565b60088110613f4b57613f4a613a6a565b5b50565b613f5781613831565b8114613f6257600080fd5b50565b613f6e8161384f565b8114613f7957600080fd5b50565b613f8581613859565b8114613f9057600080fd5b50565b613f9c816138b8565b8114613fa757600080fd5b50565b613fb3816138d6565b8114613fbe57600080fd5b50565b613fca816138e3565b8114613fd557600080fd5b5056fe476f7665726e6f723a2063616c6c20726576657274656420776974686f7574206d657373616765a264697066735822122031929085769d2f3288e20b6021205de8a99638e5955f663a5379f9b4c224930c64736f6c63430008030033",
  "linkReferences": {},
  "deployedLinkReferences": {}
}