{
  "_format": "hh-sol-artifact-1",
  "contractName": "DOG721",
  "sourceName": "contracts/token/PX/DOG721.sol",
  "abi": [
    {
      "inputs": [],
      "stateMutability": "nonpayable",
      "type": "constructor"
    },
    {
      "anonymous": false,
      "inputs": [
        {
          "indexed": true,
          "internalType": "address",
          "name": "owner",
          "type": "address"
        },
        {
          "indexed": true,
          "internalType": "address",
          "name": "approved",
          "type": "address"
        },
        {
          "indexed": true,
          "internalType": "uint256",
          "name": "tokenId",
          "type": "uint256"
        }
      ],
      "name": "Approval",
      "type": "event"
    },
    {
      "anonymous": false,
      "inputs": [
        {
          "indexed": true,
          "internalType": "address",
          "name": "owner",
          "type": "address"
        },
        {
          "indexed": true,
          "internalType": "address",
          "name": "operator",
          "type": "address"
        },
        {
          "indexed": false,
          "internalType": "bool",
          "name": "approved",
          "type": "bool"
        }
      ],
      "name": "ApprovalForAll",
      "type": "event"
    },
    {
      "anonymous": false,
      "inputs": [
        {
          "indexed": true,
          "internalType": "address",
          "name": "from",
          "type": "address"
        },
        {
          "indexed": true,
          "internalType": "address",
          "name": "to",
          "type": "address"
        },
        {
          "indexed": true,
          "internalType": "uint256",
          "name": "tokenId",
          "type": "uint256"
        }
      ],
      "name": "Transfer",
      "type": "event"
    },
    {
      "inputs": [
        {
          "internalType": "address",
          "name": "to",
          "type": "address"
        },
        {
          "internalType": "uint256",
          "name": "tokenId",
          "type": "uint256"
        }
      ],
      "name": "approve",
      "outputs": [],
      "stateMutability": "nonpayable",
      "type": "function"
    },
    {
      "inputs": [
        {
          "internalType": "address",
          "name": "owner",
          "type": "address"
        }
      ],
      "name": "balanceOf",
      "outputs": [
        {
          "internalType": "uint256",
          "name": "",
          "type": "uint256"
        }
      ],
      "stateMutability": "view",
      "type": "function"
    },
    {
      "inputs": [
        {
          "internalType": "uint256",
          "name": "tokenId",
          "type": "uint256"
        }
      ],
      "name": "getApproved",
      "outputs": [
        {
          "internalType": "address",
          "name": "",
          "type": "address"
        }
      ],
      "stateMutability": "view",
      "type": "function"
    },
    {
      "inputs": [
        {
          "internalType": "address[]",
          "name": "holders",
          "type": "address[]"
        }
      ],
      "name": "initMock",
      "outputs": [],
      "stateMutability": "nonpayable",
      "type": "function"
    },
    {
      "inputs": [
        {
          "internalType": "address",
          "name": "owner",
          "type": "address"
        },
        {
          "internalType": "address",
          "name": "operator",
          "type": "address"
        }
      ],
      "name": "isApprovedForAll",
      "outputs": [
        {
          "internalType": "bool",
          "name": "",
          "type": "bool"
        }
      ],
      "stateMutability": "view",
      "type": "function"
    },
    {
      "inputs": [],
      "name": "name",
      "outputs": [
        {
          "internalType": "string",
          "name": "",
          "type": "string"
        }
      ],
      "stateMutability": "view",
      "type": "function"
    },
    {
      "inputs": [
        {
          "internalType": "uint256",
          "name": "tokenId",
          "type": "uint256"
        }
      ],
      "name": "ownerOf",
      "outputs": [
        {
          "internalType": "address",
          "name": "",
          "type": "address"
        }
      ],
      "stateMutability": "view",
      "type": "function"
    },
    {
      "inputs": [
        {
          "internalType": "address",
          "name": "from",
          "type": "address"
        },
        {
          "internalType": "address",
          "name": "to",
          "type": "address"
        },
        {
          "internalType": "uint256",
          "name": "tokenId",
          "type": "uint256"
        }
      ],
      "name": "safeTransferFrom",
      "outputs": [],
      "stateMutability": "nonpayable",
      "type": "function"
    },
    {
      "inputs": [
        {
          "internalType": "address",
          "name": "from",
          "type": "address"
        },
        {
          "internalType": "address",
          "name": "to",
          "type": "address"
        },
        {
          "internalType": "uint256",
          "name": "tokenId",
          "type": "uint256"
        },
        {
          "internalType": "bytes",
          "name": "_data",
          "type": "bytes"
        }
      ],
      "name": "safeTransferFrom",
      "outputs": [],
      "stateMutability": "nonpayable",
      "type": "function"
    },
    {
      "inputs": [
        {
          "internalType": "address",
          "name": "operator",
          "type": "address"
        },
        {
          "internalType": "bool",
          "name": "approved",
          "type": "bool"
        }
      ],
      "name": "setApprovalForAll",
      "outputs": [],
      "stateMutability": "nonpayable",
      "type": "function"
    },
    {
      "inputs": [
        {
          "internalType": "bytes4",
          "name": "interfaceId",
          "type": "bytes4"
        }
      ],
      "name": "supportsInterface",
      "outputs": [
        {
          "internalType": "bool",
          "name": "",
          "type": "bool"
        }
      ],
      "stateMutability": "view",
      "type": "function"
    },
    {
      "inputs": [],
      "name": "symbol",
      "outputs": [
        {
          "internalType": "string",
          "name": "",
          "type": "string"
        }
      ],
      "stateMutability": "view",
      "type": "function"
    },
    {
      "inputs": [
        {
          "internalType": "uint256",
          "name": "tokenId",
          "type": "uint256"
        }
      ],
      "name": "tokenURI",
      "outputs": [
        {
          "internalType": "string",
          "name": "",
          "type": "string"
        }
      ],
      "stateMutability": "view",
      "type": "function"
    },
    {
      "inputs": [
        {
          "internalType": "address",
          "name": "from",
          "type": "address"
        },
        {
          "internalType": "address",
          "name": "to",
          "type": "address"
        },
        {
          "internalType": "uint256",
          "name": "tokenId",
          "type": "uint256"
        }
      ],
      "name": "transferFrom",
      "outputs": [],
      "stateMutability": "nonpayable",
      "type": "function"
    }
  ],
  "bytecode": "0x608060405260006006553480156200001657600080fd5b506040518060400160405280600681526020017f444f4737323100000000000000000000000000000000000000000000000000008152506040518060400160405280600481526020017f443732310000000000000000000000000000000000000000000000000000000081525081600090805190602001906200009b929190620000bd565b508060019080519060200190620000b4929190620000bd565b505050620001d2565b828054620000cb906200016d565b90600052602060002090601f016020900481019282620000ef57600085556200013b565b82601f106200010a57805160ff19168380011785556200013b565b828001600101855582156200013b579182015b828111156200013a5782518255916020019190600101906200011d565b5b5090506200014a91906200014e565b5090565b5b80821115620001695760008160009055506001016200014f565b5090565b600060028204905060018216806200018657607f821691505b602082108114156200019d576200019c620001a3565b5b50919050565b7f4e487b7100000000000000000000000000000000000000000000000000000000600052602260045260246000fd5b61289d80620001e26000396000f3fe608060405234801561001057600080fd5b50600436106100ea5760003560e01c80636352211e1161008c578063a22cb46511610066578063a22cb4651461025b578063b88d4fde14610277578063c87b56dd14610293578063e985e9c5146102c3576100ea565b80636352211e146101dd57806370a082311461020d57806395d89b411461023d576100ea565b8063095ea7b3116100c8578063095ea7b31461016d5780630b4a66e11461018957806323b872dd146101a557806342842e0e146101c1576100ea565b806301ffc9a7146100ef57806306fdde031461011f578063081812fc1461013d575b600080fd5b61010960048036038101906101049190611a73565b6102f3565b6040516101169190611e33565b60405180910390f35b6101276103d5565b6040516101349190611e4e565b60405180910390f35b61015760048036038101906101529190611ac5565b610467565b6040516101649190611dcc565b60405180910390f35b610187600480360381019061018291906119f6565b6104ec565b005b6101a3600480360381019061019e9190611a32565b610604565b005b6101bf60048036038101906101ba91906118f0565b6106bf565b005b6101db60048036038101906101d691906118f0565b61071f565b005b6101f760048036038101906101f29190611ac5565b61073f565b6040516102049190611dcc565b60405180910390f35b6102276004803603810190610222919061188b565b6107f1565b6040516102349190612030565b60405180910390f35b6102456108a9565b6040516102529190611e4e565b60405180910390f35b610275600480360381019061027091906119ba565b61093b565b005b610291600480360381019061028c919061193f565b610951565b005b6102ad60048036038101906102a89190611ac5565b6109b3565b6040516102ba9190611e4e565b60405180910390f35b6102dd60048036038101906102d891906118b4565b610a5a565b6040516102ea9190611e33565b60405180910390f35b60007f80ac58cd000000000000000000000000000000000000000000000000000000007bffffffffffffffffffffffffffffffffffffffffffffffffffffffff1916827bffffffffffffffffffffffffffffffffffffffffffffffffffffffff191614806103be57507f5b5e139f000000000000000000000000000000000000000000000000000000007bffffffffffffffffffffffffffffffffffffffffffffffffffffffff1916827bffffffffffffffffffffffffffffffffffffffffffffffffffffffff1916145b806103ce57506103cd82610aee565b5b9050919050565b6060600080546103e490612281565b80601f016020809104026020016040519081016040528092919081815260200182805461041090612281565b801561045d5780601f106104325761010080835404028352916020019161045d565b820191906000526020600020905b81548152906001019060200180831161044057829003601f168201915b5050505050905090565b600061047282610b58565b6104b1576040517f08c379a00000000000000000000000000000000000000000000000000000000081526004016104a890611f90565b60405180910390fd5b6004600083815260200190815260200160002060009054906101000a900473ffffffffffffffffffffffffffffffffffffffff169050919050565b60006104f78261073f565b90508073ffffffffffffffffffffffffffffffffffffffff168373ffffffffffffffffffffffffffffffffffffffff161415610568576040517f08c379a000000000000000000000000000000000000000000000000000000000815260040161055f90611ff0565b60405180910390fd5b8073ffffffffffffffffffffffffffffffffffffffff16610587610bc4565b73ffffffffffffffffffffffffffffffffffffffff1614806105b657506105b5816105b0610bc4565b610a5a565b5b6105f5576040517f08c379a00000000000000000000000000000000000000000000000000000000081526004016105ec90611f10565b60405180910390fd5b6105ff8383610bcc565b505050565b60005b81518110156106bb5760066000815461061f906122e4565b919050819055506106a8828281518110610662577f4e487b7100000000000000000000000000000000000000000000000000000000600052603260045260246000fd5b60200260200101516006546040518060400160405280600481526020017f3078343200000000000000000000000000000000000000000000000000000000815250610c85565b80806106b3906122e4565b915050610607565b5050565b6106d06106ca610bc4565b82610ce0565b61070f576040517f08c379a000000000000000000000000000000000000000000000000000000000815260040161070690612010565b60405180910390fd5b61071a838383610dbe565b505050565b61073a83838360405180602001604052806000815250610951565b505050565b6000806002600084815260200190815260200160002060009054906101000a900473ffffffffffffffffffffffffffffffffffffffff169050600073ffffffffffffffffffffffffffffffffffffffff168173ffffffffffffffffffffffffffffffffffffffff1614156107e8576040517f08c379a00000000000000000000000000000000000000000000000000000000081526004016107df90611f50565b60405180910390fd5b80915050919050565b60008073ffffffffffffffffffffffffffffffffffffffff168273ffffffffffffffffffffffffffffffffffffffff161415610862576040517f08c379a000000000000000000000000000000000000000000000000000000000815260040161085990611f30565b60405180910390fd5b600360008373ffffffffffffffffffffffffffffffffffffffff1673ffffffffffffffffffffffffffffffffffffffff168152602001908152602001600020549050919050565b6060600180546108b890612281565b80601f01602080910402602001604051908101604052809291908181526020018280546108e490612281565b80156109315780601f1061090657610100808354040283529160200191610931565b820191906000526020600020905b81548152906001019060200180831161091457829003601f168201915b5050505050905090565b61094d610946610bc4565b838361101a565b5050565b61096261095c610bc4565b83610ce0565b6109a1576040517f08c379a000000000000000000000000000000000000000000000000000000000815260040161099890612010565b60405180910390fd5b6109ad84848484611187565b50505050565b60606109be82610b58565b6109fd576040517f08c379a00000000000000000000000000000000000000000000000000000000081526004016109f490611fd0565b60405180910390fd5b6000610a076111e3565b90506000815111610a275760405180602001604052806000815250610a52565b80610a31846111fa565b604051602001610a42929190611da8565b6040516020818303038152906040525b915050919050565b6000600560008473ffffffffffffffffffffffffffffffffffffffff1673ffffffffffffffffffffffffffffffffffffffff16815260200190815260200160002060008373ffffffffffffffffffffffffffffffffffffffff1673ffffffffffffffffffffffffffffffffffffffff16815260200190815260200160002060009054906101000a900460ff16905092915050565b60007f01ffc9a7000000000000000000000000000000000000000000000000000000007bffffffffffffffffffffffffffffffffffffffffffffffffffffffff1916827bffffffffffffffffffffffffffffffffffffffffffffffffffffffff1916149050919050565b60008073ffffffffffffffffffffffffffffffffffffffff166002600084815260200190815260200160002060009054906101000a900473ffffffffffffffffffffffffffffffffffffffff1673ffffffffffffffffffffffffffffffffffffffff1614159050919050565b600033905090565b816004600083815260200190815260200160002060006101000a81548173ffffffffffffffffffffffffffffffffffffffff021916908373ffffffffffffffffffffffffffffffffffffffff160217905550808273ffffffffffffffffffffffffffffffffffffffff16610c3f8361073f565b73ffffffffffffffffffffffffffffffffffffffff167f8c5be1e5ebec7d5bd14f71427d1e84f3dd0314c0f7b2291e5b200ac8c7c3b92560405160405180910390a45050565b610c8f83836113a7565b610c9c6000848484611575565b610cdb576040517f08c379a0000000000000000000000000000000000000000000000000000000008152600401610cd290611e70565b60405180910390fd5b505050565b6000610ceb82610b58565b610d2a576040517f08c379a0000000000000000000000000000000000000000000000000000000008152600401610d2190611ef0565b60405180910390fd5b6000610d358361073f565b90508073ffffffffffffffffffffffffffffffffffffffff168473ffffffffffffffffffffffffffffffffffffffff161480610da457508373ffffffffffffffffffffffffffffffffffffffff16610d8c84610467565b73ffffffffffffffffffffffffffffffffffffffff16145b80610db55750610db48185610a5a565b5b91505092915050565b8273ffffffffffffffffffffffffffffffffffffffff16610dde8261073f565b73ffffffffffffffffffffffffffffffffffffffff1614610e34576040517f08c379a0000000000000000000000000000000000000000000000000000000008152600401610e2b90611fb0565b60405180910390fd5b600073ffffffffffffffffffffffffffffffffffffffff168273ffffffffffffffffffffffffffffffffffffffff161415610ea4576040517f08c379a0000000000000000000000000000000000000000000000000000000008152600401610e9b90611eb0565b60405180910390fd5b610eaf83838361170c565b610eba600082610bcc565b6001600360008573ffffffffffffffffffffffffffffffffffffffff1673ffffffffffffffffffffffffffffffffffffffff1681526020019081526020016000206000828254610f0a9190612197565b925050819055506001600360008473ffffffffffffffffffffffffffffffffffffffff1673ffffffffffffffffffffffffffffffffffffffff1681526020019081526020016000206000828254610f619190612110565b92505081905550816002600083815260200190815260200160002060006101000a81548173ffffffffffffffffffffffffffffffffffffffff021916908373ffffffffffffffffffffffffffffffffffffffff160217905550808273ffffffffffffffffffffffffffffffffffffffff168473ffffffffffffffffffffffffffffffffffffffff167fddf252ad1be2c89b69c2b068fc378daa952ba7f163c4a11628f55a4df523b3ef60405160405180910390a4505050565b8173ffffffffffffffffffffffffffffffffffffffff168373ffffffffffffffffffffffffffffffffffffffff161415611089576040517f08c379a000000000000000000000000000000000000000000000000000000000815260040161108090611ed0565b60405180910390fd5b80600560008573ffffffffffffffffffffffffffffffffffffffff1673ffffffffffffffffffffffffffffffffffffffff16815260200190815260200160002060008473ffffffffffffffffffffffffffffffffffffffff1673ffffffffffffffffffffffffffffffffffffffff16815260200190815260200160002060006101000a81548160ff0219169083151502179055508173ffffffffffffffffffffffffffffffffffffffff168373ffffffffffffffffffffffffffffffffffffffff167f17307eab39ab6107e8899845ad3d59bd9653f200f220920489ca2b5937696c318360405161117a9190611e33565b60405180910390a3505050565b611192848484610dbe565b61119e84848484611575565b6111dd576040517f08c379a00000000000000000000000000000000000000000000000000000000081526004016111d490611e70565b60405180910390fd5b50505050565b606060405180602001604052806000815250905090565b60606000821415611242576040518060400160405280600181526020017f300000000000000000000000000000000000000000000000000000000000000081525090506113a2565b600082905060005b6000821461127457808061125d906122e4565b915050600a8261126d9190612166565b915061124a565b60008167ffffffffffffffff8111156112b6577f4e487b7100000000000000000000000000000000000000000000000000000000600052604160045260246000fd5b6040519080825280601f01601f1916602001820160405280156112e85781602001600182028036833780820191505090505b5090505b6000851461139b576001826113019190612197565b9150600a85611310919061232d565b603061131c9190612110565b60f81b818381518110611358577f4e487b7100000000000000000000000000000000000000000000000000000000600052603260045260246000fd5b60200101907effffffffffffffffffffffffffffffffffffffffffffffffffffffffffffff1916908160001a905350600a856113949190612166565b94506112ec565b8093505050505b919050565b600073ffffffffffffffffffffffffffffffffffffffff168273ffffffffffffffffffffffffffffffffffffffff161415611417576040517f08c379a000000000000000000000000000000000000000000000000000000000815260040161140e90611f70565b60405180910390fd5b61142081610b58565b15611460576040517f08c379a000000000000000000000000000000000000000000000000000000000815260040161145790611e90565b60405180910390fd5b61146c6000838361170c565b6001600360008473ffffffffffffffffffffffffffffffffffffffff1673ffffffffffffffffffffffffffffffffffffffff16815260200190815260200160002060008282546114bc9190612110565b92505081905550816002600083815260200190815260200160002060006101000a81548173ffffffffffffffffffffffffffffffffffffffff021916908373ffffffffffffffffffffffffffffffffffffffff160217905550808273ffffffffffffffffffffffffffffffffffffffff16600073ffffffffffffffffffffffffffffffffffffffff167fddf252ad1be2c89b69c2b068fc378daa952ba7f163c4a11628f55a4df523b3ef60405160405180910390a45050565b60006115968473ffffffffffffffffffffffffffffffffffffffff16611711565b156116ff578373ffffffffffffffffffffffffffffffffffffffff1663150b7a026115bf610bc4565b8786866040518563ffffffff1660e01b81526004016115e19493929190611de7565b602060405180830381600087803b1580156115fb57600080fd5b505af192505050801561162c57506040513d601f19601f820116820180604052508101906116299190611a9c565b60015b6116af573d806000811461165c576040519150601f19603f3d011682016040523d82523d6000602084013e611661565b606091505b506000815114156116a7576040517f08c379a000000000000000000000000000000000000000000000000000000000815260040161169e90611e70565b60405180910390fd5b805181602001fd5b63150b7a0260e01b7bffffffffffffffffffffffffffffffffffffffffffffffffffffffff1916817bffffffffffffffffffffffffffffffffffffffffffffffffffffffff191614915050611704565b600190505b949350505050565b505050565b600080823b905060008111915050919050565b600061173761173284612070565b61204b565b9050808382526020820190508285602086028201111561175657600080fd5b60005b85811015611786578161176c88826117ce565b845260208401935060208301925050600181019050611759565b5050509392505050565b60006117a361179e8461209c565b61204b565b9050828152602081018484840111156117bb57600080fd5b6117c684828561223f565b509392505050565b6000813590506117dd8161280b565b92915050565b600082601f8301126117f457600080fd5b8135611804848260208601611724565b91505092915050565b60008135905061181c81612822565b92915050565b60008135905061183181612839565b92915050565b60008151905061184681612839565b92915050565b600082601f83011261185d57600080fd5b813561186d848260208601611790565b91505092915050565b60008135905061188581612850565b92915050565b60006020828403121561189d57600080fd5b60006118ab848285016117ce565b91505092915050565b600080604083850312156118c757600080fd5b60006118d5858286016117ce565b92505060206118e6858286016117ce565b9150509250929050565b60008060006060848603121561190557600080fd5b6000611913868287016117ce565b9350506020611924868287016117ce565b925050604061193586828701611876565b9150509250925092565b6000806000806080858703121561195557600080fd5b6000611963878288016117ce565b9450506020611974878288016117ce565b935050604061198587828801611876565b925050606085013567ffffffffffffffff8111156119a257600080fd5b6119ae8782880161184c565b91505092959194509250565b600080604083850312156119cd57600080fd5b60006119db858286016117ce565b92505060206119ec8582860161180d565b9150509250929050565b60008060408385031215611a0957600080fd5b6000611a17858286016117ce565b9250506020611a2885828601611876565b9150509250929050565b600060208284031215611a4457600080fd5b600082013567ffffffffffffffff811115611a5e57600080fd5b611a6a848285016117e3565b91505092915050565b600060208284031215611a8557600080fd5b6000611a9384828501611822565b91505092915050565b600060208284031215611aae57600080fd5b6000611abc84828501611837565b91505092915050565b600060208284031215611ad757600080fd5b6000611ae584828501611876565b91505092915050565b611af7816121cb565b82525050565b611b06816121dd565b82525050565b6000611b17826120cd565b611b2181856120e3565b9350611b3181856020860161224e565b611b3a8161241a565b840191505092915050565b6000611b50826120d8565b611b5a81856120f4565b9350611b6a81856020860161224e565b611b738161241a565b840191505092915050565b6000611b89826120d8565b611b938185612105565b9350611ba381856020860161224e565b80840191505092915050565b6000611bbc6032836120f4565b9150611bc78261242b565b604082019050919050565b6000611bdf601c836120f4565b9150611bea8261247a565b602082019050919050565b6000611c026024836120f4565b9150611c0d826124a3565b604082019050919050565b6000611c256019836120f4565b9150611c30826124f2565b602082019050919050565b6000611c48602c836120f4565b9150611c538261251b565b604082019050919050565b6000611c6b6038836120f4565b9150611c768261256a565b604082019050919050565b6000611c8e602a836120f4565b9150611c99826125b9565b604082019050919050565b6000611cb16029836120f4565b9150611cbc82612608565b604082019050919050565b6000611cd46020836120f4565b9150611cdf82612657565b602082019050919050565b6000611cf7602c836120f4565b9150611d0282612680565b604082019050919050565b6000611d1a6029836120f4565b9150611d25826126cf565b604082019050919050565b6000611d3d602f836120f4565b9150611d488261271e565b604082019050919050565b6000611d606021836120f4565b9150611d6b8261276d565b604082019050919050565b6000611d836031836120f4565b9150611d8e826127bc565b604082019050919050565b611da281612235565b82525050565b6000611db48285611b7e565b9150611dc08284611b7e565b91508190509392505050565b6000602082019050611de16000830184611aee565b92915050565b6000608082019050611dfc6000830187611aee565b611e096020830186611aee565b611e166040830185611d99565b8181036060830152611e288184611b0c565b905095945050505050565b6000602082019050611e486000830184611afd565b92915050565b60006020820190508181036000830152611e688184611b45565b905092915050565b60006020820190508181036000830152611e8981611baf565b9050919050565b60006020820190508181036000830152611ea981611bd2565b9050919050565b60006020820190508181036000830152611ec981611bf5565b9050919050565b60006020820190508181036000830152611ee981611c18565b9050919050565b60006020820190508181036000830152611f0981611c3b565b9050919050565b60006020820190508181036000830152611f2981611c5e565b9050919050565b60006020820190508181036000830152611f4981611c81565b9050919050565b60006020820190508181036000830152611f6981611ca4565b9050919050565b60006020820190508181036000830152611f8981611cc7565b9050919050565b60006020820190508181036000830152611fa981611cea565b9050919050565b60006020820190508181036000830152611fc981611d0d565b9050919050565b60006020820190508181036000830152611fe981611d30565b9050919050565b6000602082019050818103600083015261200981611d53565b9050919050565b6000602082019050818103600083015261202981611d76565b9050919050565b60006020820190506120456000830184611d99565b92915050565b6000612055612066565b905061206182826122b3565b919050565b6000604051905090565b600067ffffffffffffffff82111561208b5761208a6123eb565b5b602082029050602081019050919050565b600067ffffffffffffffff8211156120b7576120b66123eb565b5b6120c08261241a565b9050602081019050919050565b600081519050919050565b600081519050919050565b600082825260208201905092915050565b600082825260208201905092915050565b600081905092915050565b600061211b82612235565b915061212683612235565b9250827fffffffffffffffffffffffffffffffffffffffffffffffffffffffffffffffff0382111561215b5761215a61235e565b5b828201905092915050565b600061217182612235565b915061217c83612235565b92508261218c5761218b61238d565b5b828204905092915050565b60006121a282612235565b91506121ad83612235565b9250828210156121c0576121bf61235e565b5b828203905092915050565b60006121d682612215565b9050919050565b60008115159050919050565b60007fffffffff0000000000000000000000000000000000000000000000000000000082169050919050565b600073ffffffffffffffffffffffffffffffffffffffff82169050919050565b6000819050919050565b82818337600083830152505050565b60005b8381101561226c578082015181840152602081019050612251565b8381111561227b576000848401525b50505050565b6000600282049050600182168061229957607f821691505b602082108114156122ad576122ac6123bc565b5b50919050565b6122bc8261241a565b810181811067ffffffffffffffff821117156122db576122da6123eb565b5b80604052505050565b60006122ef82612235565b91507fffffffffffffffffffffffffffffffffffffffffffffffffffffffffffffffff8214156123225761232161235e565b5b600182019050919050565b600061233882612235565b915061234383612235565b9250826123535761235261238d565b5b828206905092915050565b7f4e487b7100000000000000000000000000000000000000000000000000000000600052601160045260246000fd5b7f4e487b7100000000000000000000000000000000000000000000000000000000600052601260045260246000fd5b7f4e487b7100000000000000000000000000000000000000000000000000000000600052602260045260246000fd5b7f4e487b7100000000000000000000000000000000000000000000000000000000600052604160045260246000fd5b6000601f19601f8301169050919050565b7f4552433732313a207472616e7366657220746f206e6f6e20455243373231526560008201527f63656976657220696d706c656d656e7465720000000000000000000000000000602082015250565b7f4552433732313a20746f6b656e20616c7265616479206d696e74656400000000600082015250565b7f4552433732313a207472616e7366657220746f20746865207a65726f2061646460008201527f7265737300000000000000000000000000000000000000000000000000000000602082015250565b7f4552433732313a20617070726f766520746f2063616c6c657200000000000000600082015250565b7f4552433732313a206f70657261746f7220717565727920666f72206e6f6e657860008201527f697374656e7420746f6b656e0000000000000000000000000000000000000000602082015250565b7f4552433732313a20617070726f76652063616c6c6572206973206e6f74206f7760008201527f6e6572206e6f7220617070726f76656420666f7220616c6c0000000000000000602082015250565b7f4552433732313a2062616c616e636520717565727920666f7220746865207a6560008201527f726f206164647265737300000000000000000000000000000000000000000000602082015250565b7f4552433732313a206f776e657220717565727920666f72206e6f6e657869737460008201527f656e7420746f6b656e0000000000000000000000000000000000000000000000602082015250565b7f4552433732313a206d696e7420746f20746865207a65726f2061646472657373600082015250565b7f4552433732313a20617070726f76656420717565727920666f72206e6f6e657860008201527f697374656e7420746f6b656e0000000000000000000000000000000000000000602082015250565b7f4552433732313a207472616e73666572206f6620746f6b656e2074686174206960008201527f73206e6f74206f776e0000000000000000000000000000000000000000000000602082015250565b7f4552433732314d657461646174613a2055524920717565727920666f72206e6f60008201527f6e6578697374656e7420746f6b656e0000000000000000000000000000000000602082015250565b7f4552433732313a20617070726f76616c20746f2063757272656e74206f776e6560008201527f7200000000000000000000000000000000000000000000000000000000000000602082015250565b7f4552433732313a207472616e736665722063616c6c6572206973206e6f74206f60008201527f776e6572206e6f7220617070726f766564000000000000000000000000000000602082015250565b612814816121cb565b811461281f57600080fd5b50565b61282b816121dd565b811461283657600080fd5b50565b612842816121e9565b811461284d57600080fd5b50565b61285981612235565b811461286457600080fd5b5056fea264697066735822122053ceea785186dbc88bf39219fd5c1902ca1a541b3873803003351f2196f9c28164736f6c63430008030033",
  "linkReferences": {},
  "deployedLinkReferences": {}
}