{
  "_format": "hh-sol-artifact-1",
  "contractName": "GovernorCompatibilityBravoMock",
  "sourceName": "contracts/mocks/GovernorCompatibilityBravoMock.sol",
  "abi": [
    {
      "inputs": [
        {
          "internalType": "string",
          "name": "name_",
          "type": "string"
        },
        {
          "internalType": "contract ERC20VotesComp",
          "name": "token_",
          "type": "address"
        },
        {
          "internalType": "uint256",
          "name": "votingDelay_",
          "type": "uint256"
        },
        {
          "internalType": "uint256",
          "name": "votingPeriod_",
          "type": "uint256"
        },
        {
          "internalType": "uint256",
          "name": "proposalThreshold_",
          "type": "uint256"
        },
        {
          "internalType": "contract ICompoundTimelock",
          "name": "timelock_",
          "type": "address"
        }
      ],
      "stateMutability": "nonpayable",
      "type": "constructor"
    },
    {
      "anonymous": false,
      "inputs": [
        {
          "indexed": false,
          "internalType": "uint256",
          "name": "proposalId",
          "type": "uint256"
        }
      ],
      "name": "ProposalCanceled",
      "type": "event"
    },
    {
      "anonymous": false,
      "inputs": [
        {
          "indexed": false,
          "internalType": "uint256",
          "name": "proposalId",
          "type": "uint256"
        },
        {
          "indexed": false,
          "internalType": "address",
          "name": "proposer",
          "type": "address"
        },
        {
          "indexed": false,
          "internalType": "address[]",
          "name": "targets",
          "type": "address[]"
        },
        {
          "indexed": false,
          "internalType": "uint256[]",
          "name": "values",
          "type": "uint256[]"
        },
        {
          "indexed": false,
          "internalType": "string[]",
          "name": "signatures",
          "type": "string[]"
        },
        {
          "indexed": false,
          "internalType": "bytes[]",
          "name": "calldatas",
          "type": "bytes[]"
        },
        {
          "indexed": false,
          "internalType": "uint256",
          "name": "startBlock",
          "type": "uint256"
        },
        {
          "indexed": false,
          "internalType": "uint256",
          "name": "endBlock",
          "type": "uint256"
        },
        {
          "indexed": false,
          "internalType": "string",
          "name": "description",
          "type": "string"
        }
      ],
      "name": "ProposalCreated",
      "type": "event"
    },
    {
      "anonymous": false,
      "inputs": [
        {
          "indexed": false,
          "internalType": "uint256",
          "name": "proposalId",
          "type": "uint256"
        }
      ],
      "name": "ProposalExecuted",
      "type": "event"
    },
    {
      "anonymous": false,
      "inputs": [
        {
          "indexed": false,
          "internalType": "uint256",
          "name": "proposalId",
          "type": "uint256"
        },
        {
          "indexed": false,
          "internalType": "uint256",
          "name": "eta",
          "type": "uint256"
        }
      ],
      "name": "ProposalQueued",
      "type": "event"
    },
    {
      "anonymous": false,
      "inputs": [
        {
          "indexed": false,
          "internalType": "uint256",
          "name": "oldProposalThreshold",
          "type": "uint256"
        },
        {
          "indexed": false,
          "internalType": "uint256",
          "name": "newProposalThreshold",
          "type": "uint256"
        }
      ],
      "name": "ProposalThresholdSet",
      "type": "event"
    },
    {
      "anonymous": false,
      "inputs": [
        {
          "indexed": false,
          "internalType": "address",
          "name": "oldTimelock",
          "type": "address"
        },
        {
          "indexed": false,
          "internalType": "address",
          "name": "newTimelock",
          "type": "address"
        }
      ],
      "name": "TimelockChange",
      "type": "event"
    },
    {
      "anonymous": false,
      "inputs": [
        {
          "indexed": true,
          "internalType": "address",
          "name": "voter",
          "type": "address"
        },
        {
          "indexed": false,
          "internalType": "uint256",
          "name": "proposalId",
          "type": "uint256"
        },
        {
          "indexed": false,
          "internalType": "uint8",
          "name": "support",
          "type": "uint8"
        },
        {
          "indexed": false,
          "internalType": "uint256",
          "name": "weight",
          "type": "uint256"
        },
        {
          "indexed": false,
          "internalType": "string",
          "name": "reason",
          "type": "string"
        }
      ],
      "name": "VoteCast",
      "type": "event"
    },
    {
      "anonymous": false,
      "inputs": [
        {
          "indexed": false,
          "internalType": "uint256",
          "name": "oldVotingDelay",
          "type": "uint256"
        },
        {
          "indexed": false,
          "internalType": "uint256",
          "name": "newVotingDelay",
          "type": "uint256"
        }
      ],
      "name": "VotingDelaySet",
      "type": "event"
    },
    {
      "anonymous": false,
      "inputs": [
        {
          "indexed": false,
          "internalType": "uint256",
          "name": "oldVotingPeriod",
          "type": "uint256"
        },
        {
          "indexed": false,
          "internalType": "uint256",
          "name": "newVotingPeriod",
          "type": "uint256"
        }
      ],
      "name": "VotingPeriodSet",
      "type": "event"
    },
    {
      "inputs": [],
      "name": "BALLOT_TYPEHASH",
      "outputs": [
        {
          "internalType": "bytes32",
          "name": "",
          "type": "bytes32"
        }
      ],
      "stateMutability": "view",
      "type": "function"
    },
    {
      "inputs": [],
      "name": "COUNTING_MODE",
      "outputs": [
        {
          "internalType": "string",
          "name": "",
          "type": "string"
        }
      ],
      "stateMutability": "pure",
      "type": "function"
    },
    {
      "inputs": [],
      "name": "__acceptAdmin",
      "outputs": [],
      "stateMutability": "nonpayable",
      "type": "function"
    },
    {
      "inputs": [
        {
          "internalType": "uint256",
          "name": "proposalId",
          "type": "uint256"
        }
      ],
      "name": "cancel",
      "outputs": [],
      "stateMutability": "nonpayable",
      "type": "function"
    },
    {
      "inputs": [
        {
          "internalType": "address[]",
          "name": "targets",
          "type": "address[]"
        },
        {
          "internalType": "uint256[]",
          "name": "values",
          "type": "uint256[]"
        },
        {
          "internalType": "bytes[]",
          "name": "calldatas",
          "type": "bytes[]"
        },
        {
          "internalType": "bytes32",
          "name": "salt",
          "type": "bytes32"
        }
      ],
      "name": "cancel",
      "outputs": [
        {
          "internalType": "uint256",
          "name": "proposalId",
          "type": "uint256"
        }
      ],
      "stateMutability": "nonpayable",
      "type": "function"
    },
    {
      "inputs": [
        {
          "internalType": "uint256",
          "name": "proposalId",
          "type": "uint256"
        },
        {
          "internalType": "uint8",
          "name": "support",
          "type": "uint8"
        }
      ],
      "name": "castVote",
      "outputs": [
        {
          "internalType": "uint256",
          "name": "",
          "type": "uint256"
        }
      ],
      "stateMutability": "nonpayable",
      "type": "function"
    },
    {
      "inputs": [
        {
          "internalType": "uint256",
          "name": "proposalId",
          "type": "uint256"
        },
        {
          "internalType": "uint8",
          "name": "support",
          "type": "uint8"
        },
        {
          "internalType": "uint8",
          "name": "v",
          "type": "uint8"
        },
        {
          "internalType": "bytes32",
          "name": "r",
          "type": "bytes32"
        },
        {
          "internalType": "bytes32",
          "name": "s",
          "type": "bytes32"
        }
      ],
      "name": "castVoteBySig",
      "outputs": [
        {
          "internalType": "uint256",
          "name": "",
          "type": "uint256"
        }
      ],
      "stateMutability": "nonpayable",
      "type": "function"
    },
    {
      "inputs": [
        {
          "internalType": "uint256",
          "name": "proposalId",
          "type": "uint256"
        },
        {
          "internalType": "uint8",
          "name": "support",
          "type": "uint8"
        },
        {
          "internalType": "string",
          "name": "reason",
          "type": "string"
        }
      ],
      "name": "castVoteWithReason",
      "outputs": [
        {
          "internalType": "uint256",
          "name": "",
          "type": "uint256"
        }
      ],
      "stateMutability": "nonpayable",
      "type": "function"
    },
    {
      "inputs": [
        {
          "internalType": "address[]",
          "name": "targets",
          "type": "address[]"
        },
        {
          "internalType": "uint256[]",
          "name": "values",
          "type": "uint256[]"
        },
        {
          "internalType": "bytes[]",
          "name": "calldatas",
          "type": "bytes[]"
        },
        {
          "internalType": "bytes32",
          "name": "salt",
          "type": "bytes32"
        }
      ],
      "name": "execute",
      "outputs": [
        {
          "internalType": "uint256",
          "name": "",
          "type": "uint256"
        }
      ],
      "stateMutability": "payable",
      "type": "function"
    },
    {
      "inputs": [
        {
          "internalType": "uint256",
          "name": "proposalId",
          "type": "uint256"
        }
      ],
      "name": "execute",
      "outputs": [],
      "stateMutability": "payable",
      "type": "function"
    },
    {
      "inputs": [
        {
          "internalType": "uint256",
          "name": "proposalId",
          "type": "uint256"
        }
      ],
      "name": "getActions",
      "outputs": [
        {
          "internalType": "address[]",
          "name": "targets",
          "type": "address[]"
        },
        {
          "internalType": "uint256[]",
          "name": "values",
          "type": "uint256[]"
        },
        {
          "internalType": "string[]",
          "name": "signatures",
          "type": "string[]"
        },
        {
          "internalType": "bytes[]",
          "name": "calldatas",
          "type": "bytes[]"
        }
      ],
      "stateMutability": "view",
      "type": "function"
    },
    {
      "inputs": [
        {
          "internalType": "uint256",
          "name": "proposalId",
          "type": "uint256"
        },
        {
          "internalType": "address",
          "name": "voter",
          "type": "address"
        }
      ],
      "name": "getReceipt",
      "outputs": [
        {
          "components": [
            {
              "internalType": "bool",
              "name": "hasVoted",
              "type": "bool"
            },
            {
              "internalType": "uint8",
              "name": "support",
              "type": "uint8"
            },
            {
              "internalType": "uint96",
              "name": "votes",
              "type": "uint96"
            }
          ],
          "internalType": "struct IGovernorCompatibilityBravo.Receipt",
          "name": "",
          "type": "tuple"
        }
      ],
      "stateMutability": "view",
      "type": "function"
    },
    {
      "inputs": [
        {
          "internalType": "address",
          "name": "account",
          "type": "address"
        },
        {
          "internalType": "uint256",
          "name": "blockNumber",
          "type": "uint256"
        }
      ],
      "name": "getVotes",
      "outputs": [
        {
          "internalType": "uint256",
          "name": "",
          "type": "uint256"
        }
      ],
      "stateMutability": "view",
      "type": "function"
    },
    {
      "inputs": [
        {
          "internalType": "uint256",
          "name": "proposalId",
          "type": "uint256"
        },
        {
          "internalType": "address",
          "name": "account",
          "type": "address"
        }
      ],
      "name": "hasVoted",
      "outputs": [
        {
          "internalType": "bool",
          "name": "",
          "type": "bool"
        }
      ],
      "stateMutability": "view",
      "type": "function"
    },
    {
      "inputs": [
        {
          "internalType": "address[]",
          "name": "targets",
          "type": "address[]"
        },
        {
          "internalType": "uint256[]",
          "name": "values",
          "type": "uint256[]"
        },
        {
          "internalType": "bytes[]",
          "name": "calldatas",
          "type": "bytes[]"
        },
        {
          "internalType": "bytes32",
          "name": "descriptionHash",
          "type": "bytes32"
        }
      ],
      "name": "hashProposal",
      "outputs": [
        {
          "internalType": "uint256",
          "name": "",
          "type": "uint256"
        }
      ],
      "stateMutability": "pure",
      "type": "function"
    },
    {
      "inputs": [],
      "name": "name",
      "outputs": [
        {
          "internalType": "string",
          "name": "",
          "type": "string"
        }
      ],
      "stateMutability": "view",
      "type": "function"
    },
    {
      "inputs": [
        {
          "internalType": "uint256",
          "name": "proposalId",
          "type": "uint256"
        }
      ],
      "name": "proposalDeadline",
      "outputs": [
        {
          "internalType": "uint256",
          "name": "",
          "type": "uint256"
        }
      ],
      "stateMutability": "view",
      "type": "function"
    },
    {
      "inputs": [
        {
          "internalType": "uint256",
          "name": "proposalId",
          "type": "uint256"
        }
      ],
      "name": "proposalEta",
      "outputs": [
        {
          "internalType": "uint256",
          "name": "",
          "type": "uint256"
        }
      ],
      "stateMutability": "view",
      "type": "function"
    },
    {
      "inputs": [
        {
          "internalType": "uint256",
          "name": "proposalId",
          "type": "uint256"
        }
      ],
      "name": "proposalSnapshot",
      "outputs": [
        {
          "internalType": "uint256",
          "name": "",
          "type": "uint256"
        }
      ],
      "stateMutability": "view",
      "type": "function"
    },
    {
      "inputs": [],
      "name": "proposalThreshold",
      "outputs": [
        {
          "internalType": "uint256",
          "name": "",
          "type": "uint256"
        }
      ],
      "stateMutability": "view",
      "type": "function"
    },
    {
      "inputs": [
        {
          "internalType": "uint256",
          "name": "proposalId",
          "type": "uint256"
        }
      ],
      "name": "proposals",
      "outputs": [
        {
          "internalType": "uint256",
          "name": "id",
          "type": "uint256"
        },
        {
          "internalType": "address",
          "name": "proposer",
          "type": "address"
        },
        {
          "internalType": "uint256",
          "name": "eta",
          "type": "uint256"
        },
        {
          "internalType": "uint256",
          "name": "startBlock",
          "type": "uint256"
        },
        {
          "internalType": "uint256",
          "name": "endBlock",
          "type": "uint256"
        },
        {
          "internalType": "uint256",
          "name": "forVotes",
          "type": "uint256"
        },
        {
          "internalType": "uint256",
          "name": "againstVotes",
          "type": "uint256"
        },
        {
          "internalType": "uint256",
          "name": "abstainVotes",
          "type": "uint256"
        },
        {
          "internalType": "bool",
          "name": "canceled",
          "type": "bool"
        },
        {
          "internalType": "bool",
          "name": "executed",
          "type": "bool"
        }
      ],
      "stateMutability": "view",
      "type": "function"
    },
    {
      "inputs": [
        {
          "internalType": "address[]",
          "name": "targets",
          "type": "address[]"
        },
        {
          "internalType": "uint256[]",
          "name": "values",
          "type": "uint256[]"
        },
        {
          "internalType": "bytes[]",
          "name": "calldatas",
          "type": "bytes[]"
        },
        {
          "internalType": "string",
          "name": "description",
          "type": "string"
        }
      ],
      "name": "propose",
      "outputs": [
        {
          "internalType": "uint256",
          "name": "",
          "type": "uint256"
        }
      ],
      "stateMutability": "nonpayable",
      "type": "function"
    },
    {
      "inputs": [
        {
          "internalType": "address[]",
          "name": "targets",
          "type": "address[]"
        },
        {
          "internalType": "uint256[]",
          "name": "values",
          "type": "uint256[]"
        },
        {
          "internalType": "string[]",
          "name": "signatures",
          "type": "string[]"
        },
        {
          "internalType": "bytes[]",
          "name": "calldatas",
          "type": "bytes[]"
        },
        {
          "internalType": "string",
          "name": "description",
          "type": "string"
        }
      ],
      "name": "propose",
      "outputs": [
        {
          "internalType": "uint256",
          "name": "",
          "type": "uint256"
        }
      ],
      "stateMutability": "nonpayable",
      "type": "function"
    },
    {
      "inputs": [
        {
          "internalType": "address[]",
          "name": "targets",
          "type": "address[]"
        },
        {
          "internalType": "uint256[]",
          "name": "values",
          "type": "uint256[]"
        },
        {
          "internalType": "bytes[]",
          "name": "calldatas",
          "type": "bytes[]"
        },
        {
          "internalType": "bytes32",
          "name": "salt",
          "type": "bytes32"
        }
      ],
      "name": "queue",
      "outputs": [
        {
          "internalType": "uint256",
          "name": "",
          "type": "uint256"
        }
      ],
      "stateMutability": "nonpayable",
      "type": "function"
    },
    {
      "inputs": [
        {
          "internalType": "uint256",
          "name": "proposalId",
          "type": "uint256"
        }
      ],
      "name": "queue",
      "outputs": [],
      "stateMutability": "nonpayable",
      "type": "function"
    },
    {
      "inputs": [
        {
          "internalType": "uint256",
          "name": "",
          "type": "uint256"
        }
      ],
      "name": "quorum",
      "outputs": [
        {
          "internalType": "uint256",
          "name": "",
          "type": "uint256"
        }
      ],
      "stateMutability": "pure",
      "type": "function"
    },
    {
      "inputs": [],
      "name": "quorumVotes",
      "outputs": [
        {
          "internalType": "uint256",
          "name": "",
          "type": "uint256"
        }
      ],
      "stateMutability": "view",
      "type": "function"
    },
    {
      "inputs": [
        {
          "internalType": "uint256",
          "name": "newProposalThreshold",
          "type": "uint256"
        }
      ],
      "name": "setProposalThreshold",
      "outputs": [],
      "stateMutability": "nonpayable",
      "type": "function"
    },
    {
      "inputs": [
        {
          "internalType": "uint256",
          "name": "newVotingDelay",
          "type": "uint256"
        }
      ],
      "name": "setVotingDelay",
      "outputs": [],
      "stateMutability": "nonpayable",
      "type": "function"
    },
    {
      "inputs": [
        {
          "internalType": "uint256",
          "name": "newVotingPeriod",
          "type": "uint256"
        }
      ],
      "name": "setVotingPeriod",
      "outputs": [],
      "stateMutability": "nonpayable",
      "type": "function"
    },
    {
      "inputs": [
        {
          "internalType": "uint256",
          "name": "proposalId",
          "type": "uint256"
        }
      ],
      "name": "state",
      "outputs": [
        {
          "internalType": "enum IGovernor.ProposalState",
          "name": "",
          "type": "uint8"
        }
      ],
      "stateMutability": "view",
      "type": "function"
    },
    {
      "inputs": [
        {
          "internalType": "bytes4",
          "name": "interfaceId",
          "type": "bytes4"
        }
      ],
      "name": "supportsInterface",
      "outputs": [
        {
          "internalType": "bool",
          "name": "",
          "type": "bool"
        }
      ],
      "stateMutability": "view",
      "type": "function"
    },
    {
      "inputs": [],
      "name": "timelock",
      "outputs": [
        {
          "internalType": "address",
          "name": "",
          "type": "address"
        }
      ],
      "stateMutability": "view",
      "type": "function"
    },
    {
      "inputs": [],
      "name": "token",
      "outputs": [
        {
          "internalType": "contract ERC20VotesComp",
          "name": "",
          "type": "address"
        }
      ],
      "stateMutability": "view",
      "type": "function"
    },
    {
      "inputs": [
        {
          "internalType": "contract ICompoundTimelock",
          "name": "newTimelock",
          "type": "address"
        }
      ],
      "name": "updateTimelock",
      "outputs": [],
      "stateMutability": "nonpayable",
      "type": "function"
    },
    {
      "inputs": [],
      "name": "version",
      "outputs": [
        {
          "internalType": "string",
          "name": "",
          "type": "string"
        }
      ],
      "stateMutability": "view",
      "type": "function"
    },
    {
      "inputs": [],
      "name": "votingDelay",
      "outputs": [
        {
          "internalType": "uint256",
          "name": "",
          "type": "uint256"
        }
      ],
      "stateMutability": "view",
      "type": "function"
    },
    {
      "inputs": [],
      "name": "votingPeriod",
      "outputs": [
        {
          "internalType": "uint256",
          "name": "",
          "type": "uint256"
        }
      ],
      "stateMutability": "view",
      "type": "function"
    },
    {
      "stateMutability": "payable",
      "type": "receive"
    }
  ],
  "bytecode": "0x6101606040523480156200001257600080fd5b5060405162007fe138038062007fe1833981810160405281019062000038919062000547565b84818585858a806200004f620001ab60201b60201c565b60008280519060200120905060008280519060200120905060007f8b73c3c69bb8fe3d512ecc4cf759cc79239f7b179b0ffacaa9a75d522b39400f90508260e081815250508161010081815250504660a08181525050620000b8818484620001e860201b60201c565b608081815250503073ffffffffffffffffffffffffffffffffffffffff1660c08173ffffffffffffffffffffffffffffffffffffffff1660601b81525050806101208181525050505050505080600090805190602001906200011c929190620003e0565b50506200012f836200022460201b60201c565b62000140826200026b60201b60201c565b6200015181620002f860201b60201c565b50505062000165816200033f60201b60201c565b508073ffffffffffffffffffffffffffffffffffffffff166101408173ffffffffffffffffffffffffffffffffffffffff1660601b8152505050505050505050620009cb565b60606040518060400160405280600181526020017f3100000000000000000000000000000000000000000000000000000000000000815250905090565b60008383834630604051602001620002059594939291906200067d565b6040516020818303038152906040528051906020012090509392505050565b7fc565b045403dc03c2eea82b81a0465edad9e2e7fc4d97e11421c209da93d7a936003548260405162000259929190620006fc565b60405180910390a18060038190555050565b60008111620002b1576040517f08c379a0000000000000000000000000000000000000000000000000000000008152600401620002a890620006da565b60405180910390fd5b7f7e3f7f0708a84de9203036abaa450dccc85ad5ff52f78c170f3edb55cf5e882860045482604051620002e6929190620006fc565b60405180910390a18060048190555050565b7fccb45da8d5717e6c4544694297c4ba5cf151d455c9bb0ed4fc7a38411bc05461600554826040516200032d929190620006fc565b60405180910390a18060058190555050565b7f08f74ea46ef7894f65eabfb5e6e695de773a000b47c529ab559178069b226401600660009054906101000a900473ffffffffffffffffffffffffffffffffffffffff16826040516200039492919062000650565b60405180910390a180600660006101000a81548173ffffffffffffffffffffffffffffffffffffffff021916908373ffffffffffffffffffffffffffffffffffffffff16021790555050565b828054620003ee9062000853565b90600052602060002090601f0160209004810192826200041257600085556200045e565b82601f106200042d57805160ff19168380011785556200045e565b828001600101855582156200045e579182015b828111156200045d57825182559160200191906001019062000440565b5b5090506200046d919062000471565b5090565b5b808211156200048c57600081600090555060010162000472565b5090565b6000620004a7620004a18462000752565b62000729565b905082815260208101848484011115620004c057600080fd5b620004cd8482856200081d565b509392505050565b600081519050620004e6816200097d565b92915050565b600081519050620004fd8162000997565b92915050565b600082601f8301126200051557600080fd5b81516200052784826020860162000490565b91505092915050565b6000815190506200054181620009b1565b92915050565b60008060008060008060c087890312156200056157600080fd5b600087015167ffffffffffffffff8111156200057c57600080fd5b6200058a89828a0162000503565b96505060206200059d89828a01620004d5565b9550506040620005b089828a0162000530565b9450506060620005c389828a0162000530565b9350506080620005d689828a0162000530565b92505060a0620005e989828a01620004ec565b9150509295509295509295565b620006018162000799565b82525050565b6200061281620007c1565b82525050565b60006200062760278362000788565b915062000634826200092e565b604082019050919050565b6200064a8162000813565b82525050565b6000604082019050620006676000830185620005f6565b620006766020830184620005f6565b9392505050565b600060a08201905062000694600083018862000607565b620006a3602083018762000607565b620006b2604083018662000607565b620006c160608301856200063f565b620006d06080830184620005f6565b9695505050505050565b60006020820190508181036000830152620006f58162000618565b9050919050565b60006040820190506200071360008301856200063f565b6200072260208301846200063f565b9392505050565b60006200073562000748565b905062000743828262000889565b919050565b6000604051905090565b600067ffffffffffffffff82111562000770576200076f620008ee565b5b6200077b826200091d565b9050602081019050919050565b600082825260208201905092915050565b6000620007a682620007f3565b9050919050565b6000620007ba82620007f3565b9050919050565b6000819050919050565b6000620007d88262000799565b9050919050565b6000620007ec82620007ad565b9050919050565b600073ffffffffffffffffffffffffffffffffffffffff82169050919050565b6000819050919050565b60005b838110156200083d57808201518184015260208101905062000820565b838111156200084d576000848401525b50505050565b600060028204905060018216806200086c57607f821691505b60208210811415620008835762000882620008bf565b5b50919050565b62000894826200091d565b810181811067ffffffffffffffff82111715620008b657620008b5620008ee565b5b80604052505050565b7f4e487b7100000000000000000000000000000000000000000000000000000000600052602260045260246000fd5b7f4e487b7100000000000000000000000000000000000000000000000000000000600052604160045260246000fd5b6000601f19601f8301169050919050565b7f476f7665726e6f7253657474696e67733a20766f74696e6720706572696f642060008201527f746f6f206c6f7700000000000000000000000000000000000000000000000000602082015250565b6200098881620007cb565b81146200099457600080fd5b50565b620009a281620007df565b8114620009ae57600080fd5b50565b620009bc8162000813565b8114620009c857600080fd5b50565b60805160a05160c05160601c60e05161010051610120516101405160601c6175ae62000a3360003960008181611d68015261319d01526000613463015260006134a501526000613484015260006133b90152600061340f0152600061343801526175ae6000f3fe6080604052600436106102295760003560e01c80637d5e81e211610123578063dd4e2ba5116100ab578063eb9019d41161006f578063eb9019d414610924578063ece40cc114610961578063f8ce560a1461098a578063fc0c546a146109c7578063fe0d94c1146109f25761026f565b8063dd4e2ba51461083f578063ddf0b0091461086a578063deaaa7cc14610893578063e23a9a52146108be578063ea0217cf146108fb5761026f565b8063b9a61961116100f2578063b9a6196114610746578063c01f9e371461075d578063c59057e41461079a578063d33219b4146107d7578063da95691a146108025761026f565b80637d5e81e214610678578063a890c910146106b5578063ab58fb8e146106de578063b58131b01461071b5761026f565b80633932abb1116101b1578063452115d611610175578063452115d61461056d57806354fd4d50146105aa57806356781388146105d557806370b0f660146106125780637b3c71d31461063b5761026f565b80633932abb1146104625780633bccf4fd1461048d5780633e4f49e6146104ca57806340e58ee51461050757806343859632146105305761026f565b8063160cbed7116101f8578063160cbed71461034d57806324bc1a641461038a5780632656227d146103b55780632d63f693146103e5578063328dd982146104225761026f565b8063013cf08b1461027457806301ffc9a7146102ba57806302a251a3146102f757806306fdde03146103225761026f565b3661026f573073ffffffffffffffffffffffffffffffffffffffff1661024d610a0e565b73ffffffffffffffffffffffffffffffffffffffff161461026d57600080fd5b005b600080fd5b34801561028057600080fd5b5061029b60048036038101906102969190615604565b610a1d565b6040516102b19a999897969594939291906166c6565b60405180910390f35b3480156102c657600080fd5b506102e160048036038101906102dc9190615571565b610baa565b6040516102ee9190616181565b60405180910390f35b34801561030357600080fd5b5061030c610bbc565b60405161031991906165fb565b60405180910390f35b34801561032e57600080fd5b50610337610bc6565b60405161034491906162de565b60405180910390f35b34801561035957600080fd5b50610374600480360381019061036f91906152c2565b610c58565b60405161038191906165fb565b60405180910390f35b34801561039657600080fd5b5061039f610c70565b6040516103ac91906165fb565b60405180910390f35b6103cf60048036038101906103ca91906152c2565b610c8c565b6040516103dc91906165fb565b60405180910390f35b3480156103f157600080fd5b5061040c60048036038101906104079190615604565b610ca4565b60405161041991906165fb565b60405180910390f35b34801561042e57600080fd5b5061044960048036038101906104449190615604565b610d12565b6040516104599493929190616120565b60405180910390f35b34801561046e57600080fd5b50610477610fcf565b60405161048491906165fb565b60405180910390f35b34801561049957600080fd5b506104b460048036038101906104af919061573a565b610fd9565b6040516104c191906165fb565b60405180910390f35b3480156104d657600080fd5b506104f160048036038101906104ec9190615604565b611063565b6040516104fe91906162c3565b60405180910390f35b34801561051357600080fd5b5061052e60048036038101906105299190615604565b611075565b005b34801561053c57600080fd5b5061055760048036038101906105529190615656565b61140d565b6040516105649190616181565b60405180910390f35b34801561057957600080fd5b50610594600480360381019061058f91906152c2565b61147b565b6040516105a191906165fb565b60405180910390f35b3480156105b657600080fd5b506105bf611493565b6040516105cc91906162de565b60405180910390f35b3480156105e157600080fd5b506105fc60048036038101906105f79190615692565b6114d0565b60405161060991906165fb565b60405180910390f35b34801561061e57600080fd5b5061063960048036038101906106349190615604565b611501565b005b34801561064757600080fd5b50610662600480360381019061065d91906156ce565b611589565b60405161066f91906165fb565b60405180910390f35b34801561068457600080fd5b5061069f600480360381019061069a919061536d565b6115f1565b6040516106ac91906165fb565b60405180910390f35b3480156106c157600080fd5b506106dc60048036038101906106d791906155db565b611609565b005b3480156106ea57600080fd5b5061070560048036038101906107009190615604565b611691565b60405161071291906165fb565b60405180910390f35b34801561072757600080fd5b506107306116a3565b60405161073d91906165fb565b60405180910390f35b34801561075257600080fd5b5061075b6116b2565b005b34801561076957600080fd5b50610784600480360381019061077f9190615604565b611736565b60405161079191906165fb565b60405180910390f35b3480156107a657600080fd5b506107c160048036038101906107bc91906152c2565b6117a4565b6040516107ce91906165fb565b60405180910390f35b3480156107e357600080fd5b506107ec6117e0565b6040516107f99190615ffa565b60405180910390f35b34801561080e57600080fd5b5061082960048036038101906108249190615430565b61180a565b60405161083691906165fb565b60405180910390f35b34801561084b57600080fd5b50610854611841565b60405161086191906162de565b60405180910390f35b34801561087657600080fd5b50610891600480360381019061088c9190615604565b61187e565b005b34801561089f57600080fd5b506108a8611b33565b6040516108b5919061619c565b60405180910390f35b3480156108ca57600080fd5b506108e560048036038101906108e09190615656565b611b57565b6040516108f291906165e0565b60405180910390f35b34801561090757600080fd5b50610922600480360381019061091d9190615604565b611c3b565b005b34801561093057600080fd5b5061094b60048036038101906109469190615286565b611cc3565b60405161095891906165fb565b60405180910390f35b34801561096d57600080fd5b5061098860048036038101906109839190615604565b611cd7565b005b34801561099657600080fd5b506109b160048036038101906109ac9190615604565b611d5f565b6040516109be91906165fb565b60405180910390f35b3480156109d357600080fd5b506109dc611d66565b6040516109e991906162a8565b60405180910390f35b610a0c6004803603810190610a079190615604565b611d8a565b005b6000610a1861203f565b905090565b6000806000806000806000806000808a9950610a388b611691565b9750610a438b610ca4565b9650610a4e8b611736565b95506000600260008d815260200190815260200160002090508060000160009054906101000a900473ffffffffffffffffffffffffffffffffffffffff1699508060050154955080600601549450806007015493506000610aae8d611063565b905060026007811115610aea577f4e487b7100000000000000000000000000000000000000000000000000000000600052602160045260246000fd5b816007811115610b23577f4e487b7100000000000000000000000000000000000000000000000000000000600052602160045260246000fd5b149350600780811115610b5f577f4e487b7100000000000000000000000000000000000000000000000000000000600052602160045260246000fd5b816007811115610b98577f4e487b7100000000000000000000000000000000000000000000000000000000600052602160045260246000fd5b14925050509193959799509193959799565b6000610bb582612069565b9050919050565b6000600454905090565b606060008054610bd590616ca2565b80601f0160208091040260200160405190810160405280929190818152602001828054610c0190616ca2565b8015610c4e5780601f10610c2357610100808354040283529160200191610c4e565b820191906000526020600020905b815481529060010190602001808311610c3157829003601f168201915b5050505050905090565b6000610c66858585856120e3565b9050949350505050565b6000610c87600143610c829190616af6565b611d5f565b905090565b6000610c9a8585858561263d565b9050949350505050565b6000610d01600160008481526020019081526020016000206000016040518060200160405290816000820160009054906101000a900467ffffffffffffffff1667ffffffffffffffff1667ffffffffffffffff1681525050612808565b67ffffffffffffffff169050919050565b60608060608060006002600087815260200190815260200160002090508060010181600201826003018360040183805480602002602001604051908101604052809291908181526020018280548015610dc057602002820191906000526020600020905b8160009054906101000a900473ffffffffffffffffffffffffffffffffffffffff1673ffffffffffffffffffffffffffffffffffffffff1681526020019060010190808311610d76575b5050505050935082805480602002602001604051908101604052809291908181526020018280548015610e1257602002820191906000526020600020905b815481526020019060010190808311610dfe575b5050505050925081805480602002602001604051908101604052809291908181526020016000905b82821015610ee6578382906000526020600020018054610e5990616ca2565b80601f0160208091040260200160405190810160405280929190818152602001828054610e8590616ca2565b8015610ed25780601f10610ea757610100808354040283529160200191610ed2565b820191906000526020600020905b815481529060010190602001808311610eb557829003601f168201915b505050505081526020019060010190610e3a565b50505050915080805480602002602001604051908101604052809291908181526020016000905b82821015610fb9578382906000526020600020018054610f2c90616ca2565b80601f0160208091040260200160405190810160405280929190818152602001828054610f5890616ca2565b8015610fa55780601f10610f7a57610100808354040283529160200191610fa5565b820191906000526020600020905b815481529060010190602001808311610f8857829003601f168201915b505050505081526020019060010190610f0d565b5050505090509450945094509450509193509193565b6000600354905090565b60008061103a6110327f150214d74d59b7d1e90c73fc22ef3d991dd0a76b046543d4d80ab92d2a50328f89896040516020016110179392919061620a565b60405160208183030381529060405280519060200120612816565b868686612830565b90506110578782886040518060200160405280600081525061285b565b91505095945050505050565b600061106e826129fb565b9050919050565b60006002600083815260200190815260200160002090508060000160009054906101000a900473ffffffffffffffffffffffffffffffffffffffff1673ffffffffffffffffffffffffffffffffffffffff166110cf612b72565b73ffffffffffffffffffffffffffffffffffffffff16148061113057506110f46116a3565b61112e8260000160009054906101000a900473ffffffffffffffffffffffffffffffffffffffff166001436111299190616af6565b611cc3565b105b61116f576040517f08c379a0000000000000000000000000000000000000000000000000000000008152600401611166906165a0565b60405180910390fd5b611408816001018054806020026020016040519081016040528092919081815260200182805480156111f657602002820191906000526020600020905b8160009054906101000a900473ffffffffffffffffffffffffffffffffffffffff1673ffffffffffffffffffffffffffffffffffffffff16815260200190600101908083116111ac575b50505050508260020180548060200260200160405190810160405280929190818152602001828054801561124957602002820191906000526020600020905b815481526020019060010190808311611235575b50505050506113fe84600301805480602002602001604051908101604052809291908181526020016000905b8282101561132157838290600052602060002001805461129490616ca2565b80601f01602080910402602001604051908101604052809291908181526020018280546112c090616ca2565b801561130d5780601f106112e25761010080835404028352916020019161130d565b820191906000526020600020905b8154815290600101906020018083116112f057829003601f168201915b505050505081526020019060010190611275565b5050505085600401805480602002602001604051908101604052809291908181526020016000905b828210156113f557838290600052602060002001805461136890616ca2565b80601f016020809104026020016040519081016040528092919081815260200182805461139490616ca2565b80156113e15780601f106113b6576101008083540402835291602001916113e1565b820191906000526020600020905b8154815290600101906020018083116113c457829003601f168201915b505050505081526020019060010190611349565b50505050612b7a565b8460090154612df5565b505050565b60006002600084815260200190815260200160002060080160008373ffffffffffffffffffffffffffffffffffffffff1673ffffffffffffffffffffffffffffffffffffffff16815260200190815260200160002060000160009054906101000a900460ff16905092915050565b600061148985858585612df5565b9050949350505050565b60606040518060400160405280600181526020017f3100000000000000000000000000000000000000000000000000000000000000815250905090565b6000806114db612b72565b90506114f88482856040518060200160405280600081525061285b565b91505092915050565b611509610a0e565b73ffffffffffffffffffffffffffffffffffffffff16611527612b72565b73ffffffffffffffffffffffffffffffffffffffff161461157d576040517f08c379a000000000000000000000000000000000000000000000000000000000815260040161157490616320565b60405180910390fd5b61158681612e0d565b50565b600080611594612b72565b90506115e686828787878080601f016020809104026020016040519081016040528093929190818152602001838380828437600081840152601f19601f8201169050808301925050505050505061285b565b915050949350505050565b60006115ff85858585612e52565b9050949350505050565b611611610a0e565b73ffffffffffffffffffffffffffffffffffffffff1661162f612b72565b73ffffffffffffffffffffffffffffffffffffffff1614611685576040517f08c379a000000000000000000000000000000000000000000000000000000000815260040161167c90616320565b60405180910390fd5b61168e81612ef3565b50565b600061169c82612f92565b9050919050565b60006116ad613000565b905090565b600660009054906101000a900473ffffffffffffffffffffffffffffffffffffffff1673ffffffffffffffffffffffffffffffffffffffff16630e18b6816040518163ffffffff1660e01b8152600401600060405180830381600087803b15801561171c57600080fd5b505af1158015611730573d6000803e3d6000fd5b50505050565b6000611793600160008481526020019081526020016000206001016040518060200160405290816000820160009054906101000a900467ffffffffffffffff1667ffffffffffffffff1667ffffffffffffffff1681525050612808565b67ffffffffffffffff169050919050565b6000848484846040516020016117bd94939291906160c6565b6040516020818303038152906040528051906020012060001c9050949350505050565b6000600660009054906101000a900473ffffffffffffffffffffffffffffffffffffffff16905090565b6000611821611817612b72565b878787878761300a565b61183686866118308787612b7a565b856115f1565b905095945050505050565b60606040518060400160405280601a81526020017f737570706f72743d627261766f2671756f72756d3d627261766f000000000000815250905090565b6000600260008381526020019081526020016000209050611b2e8160010180548060200260200160405190810160405280929190818152602001828054801561191c57602002820191906000526020600020905b8160009054906101000a900473ffffffffffffffffffffffffffffffffffffffff1673ffffffffffffffffffffffffffffffffffffffff16815260200190600101908083116118d2575b50505050508260020180548060200260200160405190810160405280929190818152602001828054801561196f57602002820191906000526020600020905b81548152602001906001019080831161195b575b5050505050611b2484600301805480602002602001604051908101604052809291908181526020016000905b82821015611a475783829060005260206000200180546119ba90616ca2565b80601f01602080910402602001604051908101604052809291908181526020018280546119e690616ca2565b8015611a335780601f10611a0857610100808354040283529160200191611a33565b820191906000526020600020905b815481529060010190602001808311611a1657829003601f168201915b50505050508152602001906001019061199b565b5050505085600401805480602002602001604051908101604052809291908181526020016000905b82821015611b1b578382906000526020600020018054611a8e90616ca2565b80601f0160208091040260200160405190810160405280929190818152602001828054611aba90616ca2565b8015611b075780601f10611adc57610100808354040283529160200191611b07565b820191906000526020600020905b815481529060010190602001808311611aea57829003601f168201915b505050505081526020019060010190611a6f565b50505050612b7a565b8460090154610c58565b505050565b7f150214d74d59b7d1e90c73fc22ef3d991dd0a76b046543d4d80ab92d2a50328f81565b611b5f614a3c565b6002600084815260200190815260200160002060080160008373ffffffffffffffffffffffffffffffffffffffff1673ffffffffffffffffffffffffffffffffffffffff1681526020019081526020016000206040518060600160405290816000820160009054906101000a900460ff161515151581526020016000820160019054906101000a900460ff1660ff1660ff1681526020016000820160029054906101000a90046bffffffffffffffffffffffff166bffffffffffffffffffffffff166bffffffffffffffffffffffff1681525050905092915050565b611c43610a0e565b73ffffffffffffffffffffffffffffffffffffffff16611c61612b72565b73ffffffffffffffffffffffffffffffffffffffff1614611cb7576040517f08c379a0000000000000000000000000000000000000000000000000000000008152600401611cae90616320565b60405180910390fd5b611cc081613111565b50565b6000611ccf8383613199565b905092915050565b611cdf610a0e565b73ffffffffffffffffffffffffffffffffffffffff16611cfd612b72565b73ffffffffffffffffffffffffffffffffffffffff1614611d53576040517f08c379a0000000000000000000000000000000000000000000000000000000008152600401611d4a90616320565b60405180910390fd5b611d5c8161325c565b50565b6000919050565b7f000000000000000000000000000000000000000000000000000000000000000081565b600060026000838152602001908152602001600020905061203a81600101805480602002602001604051908101604052809291908181526020018280548015611e2857602002820191906000526020600020905b8160009054906101000a900473ffffffffffffffffffffffffffffffffffffffff1673ffffffffffffffffffffffffffffffffffffffff1681526020019060010190808311611dde575b505050505082600201805480602002602001604051908101604052809291908181526020018280548015611e7b57602002820191906000526020600020905b815481526020019060010190808311611e67575b505050505061203084600301805480602002602001604051908101604052809291908181526020016000905b82821015611f53578382906000526020600020018054611ec690616ca2565b80601f0160208091040260200160405190810160405280929190818152602001828054611ef290616ca2565b8015611f3f5780601f10611f1457610100808354040283529160200191611f3f565b820191906000526020600020905b815481529060010190602001808311611f2257829003601f168201915b505050505081526020019060010190611ea7565b5050505085600401805480602002602001604051908101604052809291908181526020016000905b82821015612027578382906000526020600020018054611f9a90616ca2565b80601f0160208091040260200160405190810160405280929190818152602001828054611fc690616ca2565b80156120135780601f10611fe857610100808354040283529160200191612013565b820191906000526020600020905b815481529060010190602001808311611ff657829003601f168201915b505050505081526020019060010190611f7b565b50505050612b7a565b8460090154610c8c565b505050565b6000600660009054906101000a900473ffffffffffffffffffffffffffffffffffffffff16905090565b60007f6e665ced000000000000000000000000000000000000000000000000000000007bffffffffffffffffffffffffffffffffffffffffffffffffffffffff1916827bffffffffffffffffffffffffffffffffffffffffffffffffffffffff191614806120dc57506120db826132a1565b5b9050919050565b6000806120f2868686866117a4565b90506004600781111561212e577f4e487b7100000000000000000000000000000000000000000000000000000000600052602160045260246000fd5b61213782611063565b600781111561216f577f4e487b7100000000000000000000000000000000000000000000000000000000600052602160045260246000fd5b146121af576040517f08c379a00000000000000000000000000000000000000000000000000000000081526004016121a690616500565b60405180910390fd5b6000600660009054906101000a900473ffffffffffffffffffffffffffffffffffffffff1673ffffffffffffffffffffffffffffffffffffffff16636a42b8f86040518163ffffffff1660e01b815260040160206040518083038186803b15801561221957600080fd5b505afa15801561222d573d6000803e3d6000fd5b505050506040513d601f19601f82011682018060405250810190612251919061562d565b4261225c9190616a62565b905061228e61226a8261331b565b6007600085815260200190815260200160002060000161337290919063ffffffff16565b60005b87518110156125f657600660009054906101000a900473ffffffffffffffffffffffffffffffffffffffff1673ffffffffffffffffffffffffffffffffffffffff1663f2b06537898381518110612311577f4e487b7100000000000000000000000000000000000000000000000000000000600052603260045260246000fd5b6020026020010151898481518110612352577f4e487b7100000000000000000000000000000000000000000000000000000000600052603260045260246000fd5b6020026020010151898581518110612393577f4e487b7100000000000000000000000000000000000000000000000000000000600052603260045260246000fd5b6020026020010151866040516020016123af9493929190616067565b604051602081830303815290604052805190602001206040518263ffffffff1660e01b81526004016123e1919061619c565b60206040518083038186803b1580156123f957600080fd5b505afa15801561240d573d6000803e3d6000fd5b505050506040513d601f19601f82011682018060405250810190612431919061551f565b15612471576040517f08c379a0000000000000000000000000000000000000000000000000000000008152600401612468906163e0565b60405180910390fd5b600660009054906101000a900473ffffffffffffffffffffffffffffffffffffffff1673ffffffffffffffffffffffffffffffffffffffff16633a66f9018983815181106124e8577f4e487b7100000000000000000000000000000000000000000000000000000000600052603260045260246000fd5b6020026020010151898481518110612529577f4e487b7100000000000000000000000000000000000000000000000000000000600052603260045260246000fd5b602002602001015189858151811061256a577f4e487b7100000000000000000000000000000000000000000000000000000000600052603260045260246000fd5b6020026020010151866040518563ffffffff1660e01b81526004016125929493929190616067565b602060405180830381600087803b1580156125ac57600080fd5b505af11580156125c0573d6000803e3d6000fd5b505050506040513d601f19601f820116820180604052508101906125e49190615548565b50806125ef90616d05565b9050612291565b507f9a2e42fd6722813d69113e7d0079d3d940171428df7373df9c7f7617cfda28928282604051612628929190616762565b60405180910390a18192505050949350505050565b60008061264c868686866117a4565b9050600061265982611063565b905060046007811115612695577f4e487b7100000000000000000000000000000000000000000000000000000000600052602160045260246000fd5b8160078111156126ce577f4e487b7100000000000000000000000000000000000000000000000000000000600052602160045260246000fd5b148061274a57506005600781111561270f577f4e487b7100000000000000000000000000000000000000000000000000000000600052602160045260246000fd5b816007811115612748577f4e487b7100000000000000000000000000000000000000000000000000000000600052602160045260246000fd5b145b612789576040517f08c379a000000000000000000000000000000000000000000000000000000000815260040161278090616500565b60405180910390fd5b600180600084815260200190815260200160002060020160006101000a81548160ff0219169083151502179055507f712ae1383f79ac853f8d882153778e0260ef8f03b504e2866e0593e04d2b291f826040516127e691906165fb565b60405180910390a16127fb82888888886133a1565b8192505050949350505050565b600081600001519050919050565b60006128296128236133b5565b836134cf565b9050919050565b600080600061284187878787613502565b9150915061284e8161360f565b8192505050949350505050565b600080600160008781526020019081526020016000209050600160078111156128ad577f4e487b7100000000000000000000000000000000000000000000000000000000600052602160045260246000fd5b6128b687611063565b60078111156128ee577f4e487b7100000000000000000000000000000000000000000000000000000000600052602160045260246000fd5b1461292e576040517f08c379a000000000000000000000000000000000000000000000000000000000815260040161292590616460565b60405180910390fd5b600061298c8661297d846000016040518060200160405290816000820160009054906101000a900467ffffffffffffffff1667ffffffffffffffff1667ffffffffffffffff1681525050612808565b67ffffffffffffffff16611cc3565b905061299a87878784613960565b8573ffffffffffffffffffffffffffffffffffffffff167fb8e138887d0aa13bab447e82de9d5c1777041ecd21ca36ba824ff1e6c07ddda4888784886040516129e6949392919061678b565b60405180910390a28092505050949350505050565b600080612a0783613bfc565b905060046007811115612a43577f4e487b7100000000000000000000000000000000000000000000000000000000600052602160045260246000fd5b816007811115612a7c577f4e487b7100000000000000000000000000000000000000000000000000000000600052602160045260246000fd5b14612a8a5780915050612b6d565b6000612a9584611691565b90506000811415612aaa578192505050612b6d565b600660009054906101000a900473ffffffffffffffffffffffffffffffffffffffff1673ffffffffffffffffffffffffffffffffffffffff1663c1a287e26040518163ffffffff1660e01b815260040160206040518083038186803b158015612b1257600080fd5b505afa158015612b26573d6000803e3d6000fd5b505050506040513d601f19601f82011682018060405250810190612b4a919061562d565b81612b559190616a62565b4210612b6657600692505050612b6d565b6005925050505b919050565b600033905090565b60606000825167ffffffffffffffff811115612bbf577f4e487b7100000000000000000000000000000000000000000000000000000000600052604160045260246000fd5b604051908082528060200260200182016040528015612bf257816020015b6060815260200190600190039081612bdd5790505b50905060005b8451811015612dea576000858281518110612c3c577f4e487b7100000000000000000000000000000000000000000000000000000000600052603260045260246000fd5b60200260200101515114612d5357848181518110612c83577f4e487b7100000000000000000000000000000000000000000000000000000000600052603260045260246000fd5b6020026020010151848281518110612cc4577f4e487b7100000000000000000000000000000000000000000000000000000000600052603260045260246000fd5b6020026020010151604051602401612cdc9190616286565b60405160208183030381529060405290604051612cf99190615f97565b60405180910390207bffffffffffffffffffffffffffffffffffffffffffffffffffffffff19166020820180517bffffffffffffffffffffffffffffffffffffffffffffffffffffffff8381831617835250505050612d95565b838181518110612d8c577f4e487b7100000000000000000000000000000000000000000000000000000000600052603260045260246000fd5b60200260200101515b828281518110612dce577f4e487b7100000000000000000000000000000000000000000000000000000000600052603260045260246000fd5b602002602001018190525080612de390616d05565b9050612bf8565b508091505092915050565b6000612e0385858585613dd9565b9050949350505050565b7fc565b045403dc03c2eea82b81a0465edad9e2e7fc4d97e11421c209da93d7a9360035482604051612e40929190616762565b60405180910390a18060038190555050565b6000612edd612e5f612b72565b8686865167ffffffffffffffff811115612ea2577f4e487b7100000000000000000000000000000000000000000000000000000000600052604160045260246000fd5b604051908082528060200260200182016040528015612ed557816020015b6060815260200190600190039081612ec05790505b50878761300a565b612ee985858585613f9d565b9050949350505050565b7f08f74ea46ef7894f65eabfb5e6e695de773a000b47c529ab559178069b226401600660009054906101000a900473ffffffffffffffffffffffffffffffffffffffff1682604051612f46929190616015565b60405180910390a180600660006101000a81548173ffffffffffffffffffffffffffffffffffffffff021916908373ffffffffffffffffffffffffffffffffffffffff16021790555050565b6000612fef600760008481526020019081526020016000206000016040518060200160405290816000820160009054906101000a900467ffffffffffffffff1667ffffffffffffffff1667ffffffffffffffff16815250506142c3565b67ffffffffffffffff169050919050565b6000600554905090565b600081805190602001209050600061302d87876130278888612b7a565b856117a4565b905060006002600083815260200190815260200160002090506000801b8160090154141561310657888160000160006101000a81548173ffffffffffffffffffffffffffffffffffffffff021916908373ffffffffffffffffffffffffffffffffffffffff160217905550878160010190805190602001906130b0929190614a70565b50868160020190805190602001906130c9929190614afa565b50858160030190805190602001906130e2929190614b47565b50848160040190805190602001906130fb929190614ba7565b508281600901819055505b505050505050505050565b60008111613154576040517f08c379a000000000000000000000000000000000000000000000000000000000815260040161314b906163c0565b60405180910390fd5b7f7e3f7f0708a84de9203036abaa450dccc85ad5ff52f78c170f3edb55cf5e882860045482604051613187929190616762565b60405180910390a18060048190555050565b60007f000000000000000000000000000000000000000000000000000000000000000073ffffffffffffffffffffffffffffffffffffffff1663782d6fe184846040518363ffffffff1660e01b81526004016131f692919061603e565b60206040518083038186803b15801561320e57600080fd5b505afa158015613222573d6000803e3d6000fd5b505050506040513d601f19601f8201168201806040525081019061324691906157b1565b6bffffffffffffffffffffffff16905092915050565b7fccb45da8d5717e6c4544694297c4ba5cf151d455c9bb0ed4fc7a38411bc054616005548260405161328f929190616762565b60405180910390a18060058190555050565b60007fbf26d897000000000000000000000000000000000000000000000000000000007bffffffffffffffffffffffffffffffffffffffffffffffffffffffff1916827bffffffffffffffffffffffffffffffffffffffffffffffffffffffff191614806133145750613313826142d1565b5b9050919050565b600067ffffffffffffffff801682111561336a576040517f08c379a0000000000000000000000000000000000000000000000000000000008152600401613361906164c0565b60405180910390fd5b819050919050565b808260000160006101000a81548167ffffffffffffffff021916908367ffffffffffffffff1602179055505050565b6133ae858585858561433b565b5050505050565b60007f000000000000000000000000000000000000000000000000000000000000000073ffffffffffffffffffffffffffffffffffffffff163073ffffffffffffffffffffffffffffffffffffffff1614801561343157507f000000000000000000000000000000000000000000000000000000000000000046145b1561345e577f000000000000000000000000000000000000000000000000000000000000000090506134cc565b6134c97f00000000000000000000000000000000000000000000000000000000000000007f00000000000000000000000000000000000000000000000000000000000000007f0000000000000000000000000000000000000000000000000000000000000000614556565b90505b90565b600082826040516020016134e4929190615fae565b60405160208183030381529060405280519060200120905092915050565b6000807f7fffffffffffffffffffffffffffffff5d576e7357a4501ddfe92f46681b20a08360001c111561353d576000600391509150613606565b601b8560ff16141580156135555750601c8560ff1614155b15613567576000600491509150613606565b60006001878787876040516000815260200160405260405161358c9493929190616241565b6020604051602081039080840390855afa1580156135ae573d6000803e3d6000fd5b505050602060405103519050600073ffffffffffffffffffffffffffffffffffffffff168173ffffffffffffffffffffffffffffffffffffffff1614156135fd57600060019250925050613606565b80600092509250505b94509492505050565b60006004811115613649577f4e487b7100000000000000000000000000000000000000000000000000000000600052602160045260246000fd5b816004811115613682577f4e487b7100000000000000000000000000000000000000000000000000000000600052602160045260246000fd5b141561368d5761395d565b600160048111156136c7577f4e487b7100000000000000000000000000000000000000000000000000000000600052602160045260246000fd5b816004811115613700577f4e487b7100000000000000000000000000000000000000000000000000000000600052602160045260246000fd5b1415613741576040517f08c379a000000000000000000000000000000000000000000000000000000000815260040161373890616300565b60405180910390fd5b6002600481111561377b577f4e487b7100000000000000000000000000000000000000000000000000000000600052602160045260246000fd5b8160048111156137b4577f4e487b7100000000000000000000000000000000000000000000000000000000600052602160045260246000fd5b14156137f5576040517f08c379a00000000000000000000000000000000000000000000000000000000081526004016137ec90616380565b60405180910390fd5b6003600481111561382f577f4e487b7100000000000000000000000000000000000000000000000000000000600052602160045260246000fd5b816004811115613868577f4e487b7100000000000000000000000000000000000000000000000000000000600052602160045260246000fd5b14156138a9576040517f08c379a00000000000000000000000000000000000000000000000000000000081526004016138a090616420565b60405180910390fd5b6004808111156138e2577f4e487b7100000000000000000000000000000000000000000000000000000000600052602160045260246000fd5b81600481111561391b577f4e487b7100000000000000000000000000000000000000000000000000000000600052602160045260246000fd5b141561395c576040517f08c379a0000000000000000000000000000000000000000000000000000000008152600401613953906164a0565b60405180910390fd5b5b50565b600060026000868152602001908152602001600020905060008160080160008673ffffffffffffffffffffffffffffffffffffffff1673ffffffffffffffffffffffffffffffffffffffff16815260200190815260200160002090508060000160009054906101000a900460ff1615613a0e576040517f08c379a0000000000000000000000000000000000000000000000000000000008152600401613a05906165c0565b60405180910390fd5b60018160000160006101000a81548160ff021916908315150217905550838160000160016101000a81548160ff021916908360ff160217905550613a5183614590565b8160000160026101000a8154816bffffffffffffffffffffffff02191690836bffffffffffffffffffffffff16021790555060006002811115613abd577f4e487b7100000000000000000000000000000000000000000000000000000000600052602160045260246000fd5b60ff168460ff161415613aea5782826006016000828254613ade9190616a62565b92505081905550613bf4565b60016002811115613b24577f4e487b7100000000000000000000000000000000000000000000000000000000600052602160045260246000fd5b60ff168460ff161415613b515782826005016000828254613b459190616a62565b92505081905550613bf3565b600280811115613b8a577f4e487b7100000000000000000000000000000000000000000000000000000000600052602160045260246000fd5b60ff168460ff161415613bb75782826007016000828254613bab9190616a62565b92505081905550613bf2565b6040517f08c379a0000000000000000000000000000000000000000000000000000000008152600401613be990616540565b60405180910390fd5b5b5b505050505050565b60008060016000848152602001908152602001600020604051806080016040529081600082016040518060200160405290816000820160009054906101000a900467ffffffffffffffff1667ffffffffffffffff1667ffffffffffffffff16815250508152602001600182016040518060200160405290816000820160009054906101000a900467ffffffffffffffff1667ffffffffffffffff1667ffffffffffffffff168152505081526020016002820160009054906101000a900460ff161515151581526020016002820160019054906101000a900460ff1615151515815250509050806040015115613cf5576007915050613dd4565b806060015115613d09576002915050613dd4565b43613d178260000151612808565b67ffffffffffffffff1610613d30576000915050613dd4565b43613d3e8260200151612808565b67ffffffffffffffff1610613d57576001915050613dd4565b613d6481602001516145eb565b15613d9957613d7283614617565b8015613d835750613d828361464e565b5b613d8e576003613d91565b60045b915050613dd4565b6040517f08c379a0000000000000000000000000000000000000000000000000000000008152600401613dcb90616560565b60405180910390fd5b919050565b600080613de886868686614679565b90506000613df582611691565b90506000811115613f905760005b8751811015613f7057600660009054906101000a900473ffffffffffffffffffffffffffffffffffffffff1673ffffffffffffffffffffffffffffffffffffffff1663591fcdfe898381518110613e83577f4e487b7100000000000000000000000000000000000000000000000000000000600052603260045260246000fd5b6020026020010151898481518110613ec4577f4e487b7100000000000000000000000000000000000000000000000000000000600052603260045260246000fd5b6020026020010151898581518110613f05577f4e487b7100000000000000000000000000000000000000000000000000000000600052603260045260246000fd5b6020026020010151866040518563ffffffff1660e01b8152600401613f2d9493929190616067565b600060405180830381600087803b158015613f4757600080fd5b505af1158015613f5b573d6000803e3d6000fd5b5050505080613f6990616d05565b9050613e03565b50613f8f600760008481526020019081526020016000206000016148b6565b5b8192505050949350505050565b6000613fa76116a3565b613fbd33600143613fb89190616af6565b611cc3565b1015613ffe576040517f08c379a0000000000000000000000000000000000000000000000000000000008152600401613ff590616360565b60405180910390fd5b600061401386868686805190602001206117a4565b90508451865114614059576040517f08c379a0000000000000000000000000000000000000000000000000000000008152600401614050906163a0565b60405180910390fd5b835186511461409d576040517f08c379a0000000000000000000000000000000000000000000000000000000008152600401614094906163a0565b60405180910390fd5b60008651116140e1576040517f08c379a00000000000000000000000000000000000000000000000000000000081526004016140d890616480565b60405180910390fd5b6000600160008381526020019081526020016000209050614141816000016040518060200160405290816000820160009054906101000a900467ffffffffffffffff1667ffffffffffffffff1667ffffffffffffffff16815250506148e5565b614180576040517f08c379a000000000000000000000000000000000000000000000000000000000815260040161417790616580565b60405180910390fd5b600061419261418d610fcf565b61331b565b61419b4361331b565b6141a59190616ab8565b905060006141b96141b4610bbc565b61331b565b826141c49190616ab8565b90506141dc82846000016148ff90919063ffffffff16565b6141f281846001016148ff90919063ffffffff16565b7f7d84a6263ae0d98d3329bd7b46bb4e8d6f98cd35a7adb45c274c8b7fd5ebd5e08461421c612b72565b8b8b8d5167ffffffffffffffff81111561425f577f4e487b7100000000000000000000000000000000000000000000000000000000600052604160045260246000fd5b60405190808252806020026020018201604052801561429257816020015b606081526020019060019003908161427d5790505b508c88888e6040516142ac99989796959493929190616616565b60405180910390a183945050505050949350505050565b600081600001519050919050565b60007f01ffc9a7000000000000000000000000000000000000000000000000000000007bffffffffffffffffffffffffffffffffffffffffffffffffffffffff1916827bffffffffffffffffffffffffffffffffffffffffffffffffffffffff1916149050919050565b600061434686611691565b90506000811161438b576040517f08c379a000000000000000000000000000000000000000000000000000000000815260040161438290616520565b60405180910390fd5b6143b7600660009054906101000a900473ffffffffffffffffffffffffffffffffffffffff163461492e565b60005b855181101561454d57600660009054906101000a900473ffffffffffffffffffffffffffffffffffffffff1673ffffffffffffffffffffffffffffffffffffffff16630825f38f87838151811061443a577f4e487b7100000000000000000000000000000000000000000000000000000000600052603260045260246000fd5b602002602001015187848151811061447b577f4e487b7100000000000000000000000000000000000000000000000000000000600052603260045260246000fd5b60200260200101518785815181106144bc577f4e487b7100000000000000000000000000000000000000000000000000000000600052603260045260246000fd5b6020026020010151866040518563ffffffff1660e01b81526004016144e49493929190616067565b600060405180830381600087803b1580156144fe57600080fd5b505af1158015614512573d6000803e3d6000fd5b505050506040513d6000823e3d601f19601f8201168201806040525081019061453b919061559a565b508061454690616d05565b90506143ba565b50505050505050565b600083838346306040516020016145719594939291906161b7565b6040516020818303038152906040528051906020012090509392505050565b60006bffffffffffffffffffffffff80168211156145e3576040517f08c379a00000000000000000000000000000000000000000000000000000000081526004016145da90616340565b60405180910390fd5b819050919050565b60006145f682614a22565b8015614610575043826000015167ffffffffffffffff1611155b9050919050565b600080600260008481526020019081526020016000209050806005015461464561464085610ca4565b611d5f565b10915050919050565b6000806002600084815260200190815260200160002090508060060154816005015411915050919050565b600080614688868686866117a4565b9050600061469582611063565b9050600260078111156146d1577f4e487b7100000000000000000000000000000000000000000000000000000000600052602160045260246000fd5b81600781111561470a577f4e487b7100000000000000000000000000000000000000000000000000000000600052602160045260246000fd5b1415801561478957506006600781111561474d577f4e487b7100000000000000000000000000000000000000000000000000000000600052602160045260246000fd5b816007811115614786577f4e487b7100000000000000000000000000000000000000000000000000000000600052602160045260246000fd5b14155b801561480557506007808111156147c9577f4e487b7100000000000000000000000000000000000000000000000000000000600052602160045260246000fd5b816007811115614802577f4e487b7100000000000000000000000000000000000000000000000000000000600052602160045260246000fd5b14155b614844576040517f08c379a000000000000000000000000000000000000000000000000000000000815260040161483b906164e0565b60405180910390fd5b600180600084815260200190815260200160002060020160016101000a81548160ff0219169083151502179055507f789cf55be980739dad1d0699b93b58e806b51c9d96619bfa8fe0a28abaa7b30c826040516148a191906165fb565b60405180910390a18192505050949350505050565b60008160000160006101000a81548167ffffffffffffffff021916908367ffffffffffffffff16021790555050565b600080826000015167ffffffffffffffff16149050919050565b808260000160006101000a81548167ffffffffffffffff021916908367ffffffffffffffff1602179055505050565b80471015614971576040517f08c379a000000000000000000000000000000000000000000000000000000000815260040161496890616440565b60405180910390fd5b60008273ffffffffffffffffffffffffffffffffffffffff168260405161499790615fe5565b60006040518083038185875af1925050503d80600081146149d4576040519150601f19603f3d011682016040523d82523d6000602084013e6149d9565b606091505b5050905080614a1d576040517f08c379a0000000000000000000000000000000000000000000000000000000008152600401614a1490616400565b60405180910390fd5b505050565b600080826000015167ffffffffffffffff16119050919050565b6040518060600160405280600015158152602001600060ff16815260200160006bffffffffffffffffffffffff1681525090565b828054828255906000526020600020908101928215614ae9579160200282015b82811115614ae85782518260006101000a81548173ffffffffffffffffffffffffffffffffffffffff021916908373ffffffffffffffffffffffffffffffffffffffff16021790555091602001919060010190614a90565b5b509050614af69190614c07565b5090565b828054828255906000526020600020908101928215614b36579160200282015b82811115614b35578251825591602001919060010190614b1a565b5b509050614b439190614c07565b5090565b828054828255906000526020600020908101928215614b96579160200282015b82811115614b95578251829080519060200190614b85929190614c24565b5091602001919060010190614b67565b5b509050614ba39190614caa565b5090565b828054828255906000526020600020908101928215614bf6579160200282015b82811115614bf5578251829080519060200190614be5929190614cce565b5091602001919060010190614bc7565b5b509050614c039190614d54565b5090565b5b80821115614c20576000816000905550600101614c08565b5090565b828054614c3090616ca2565b90600052602060002090601f016020900481019282614c525760008555614c99565b82601f10614c6b57805160ff1916838001178555614c99565b82800160010185558215614c99579182015b82811115614c98578251825591602001919060010190614c7d565b5b509050614ca69190614c07565b5090565b5b80821115614cca5760008181614cc19190614d78565b50600101614cab565b5090565b828054614cda90616ca2565b90600052602060002090601f016020900481019282614cfc5760008555614d43565b82601f10614d1557805160ff1916838001178555614d43565b82800160010185558215614d43579182015b82811115614d42578251825591602001919060010190614d27565b5b509050614d509190614c07565b5090565b5b80821115614d745760008181614d6b9190614db8565b50600101614d55565b5090565b508054614d8490616ca2565b6000825580601f10614d965750614db5565b601f016020900490600052602060002090810190614db49190614c07565b5b50565b508054614dc490616ca2565b6000825580601f10614dd65750614df5565b601f016020900490600052602060002090810190614df49190614c07565b5b50565b6000614e0b614e06846167fc565b6167d7565b90508083825260208201905082856020860282011115614e2a57600080fd5b60005b85811015614e5a5781614e408882615044565b845260208401935060208301925050600181019050614e2d565b5050509392505050565b6000614e77614e7284616828565b6167d7565b9050808382526020820190508260005b85811015614eb75781358501614e9d8882615155565b845260208401935060208301925050600181019050614e87565b5050509392505050565b6000614ed4614ecf84616854565b6167d7565b9050808382526020820190508260005b85811015614f145781358501614efa8882615208565b845260208401935060208301925050600181019050614ee4565b5050509392505050565b6000614f31614f2c84616880565b6167d7565b90508083825260208201905082856020860282011115614f5057600080fd5b60005b85811015614f805781614f668882615232565b845260208401935060208301925050600181019050614f53565b5050509392505050565b6000614f9d614f98846168ac565b6167d7565b905082815260208101848484011115614fb557600080fd5b614fc0848285616c60565b509392505050565b6000614fdb614fd6846168ac565b6167d7565b905082815260208101848484011115614ff357600080fd5b614ffe848285616c6f565b509392505050565b6000615019615014846168dd565b6167d7565b90508281526020810184848401111561503157600080fd5b61503c848285616c60565b509392505050565b600081359050615053816174c0565b92915050565b600082601f83011261506a57600080fd5b813561507a848260208601614df8565b91505092915050565b600082601f83011261509457600080fd5b81356150a4848260208601614e64565b91505092915050565b600082601f8301126150be57600080fd5b81356150ce848260208601614ec1565b91505092915050565b600082601f8301126150e857600080fd5b81356150f8848260208601614f1e565b91505092915050565b600081519050615110816174d7565b92915050565b600081359050615125816174ee565b92915050565b60008151905061513a816174ee565b92915050565b60008135905061514f81617505565b92915050565b600082601f83011261516657600080fd5b8135615176848260208601614f8a565b91505092915050565b600082601f83011261519057600080fd5b81516151a0848260208601614fc8565b91505092915050565b6000813590506151b88161751c565b92915050565b60008083601f8401126151d057600080fd5b8235905067ffffffffffffffff8111156151e957600080fd5b60208301915083600182028301111561520157600080fd5b9250929050565b600082601f83011261521957600080fd5b8135615229848260208601615006565b91505092915050565b60008135905061524181617533565b92915050565b60008151905061525681617533565b92915050565b60008135905061526b8161754a565b92915050565b60008151905061528081617561565b92915050565b6000806040838503121561529957600080fd5b60006152a785828601615044565b92505060206152b885828601615232565b9150509250929050565b600080600080608085870312156152d857600080fd5b600085013567ffffffffffffffff8111156152f257600080fd5b6152fe87828801615059565b945050602085013567ffffffffffffffff81111561531b57600080fd5b615327878288016150d7565b935050604085013567ffffffffffffffff81111561534457600080fd5b61535087828801615083565b925050606061536187828801615116565b91505092959194509250565b6000806000806080858703121561538357600080fd5b600085013567ffffffffffffffff81111561539d57600080fd5b6153a987828801615059565b945050602085013567ffffffffffffffff8111156153c657600080fd5b6153d2878288016150d7565b935050604085013567ffffffffffffffff8111156153ef57600080fd5b6153fb87828801615083565b925050606085013567ffffffffffffffff81111561541857600080fd5b61542487828801615208565b91505092959194509250565b600080600080600060a0868803121561544857600080fd5b600086013567ffffffffffffffff81111561546257600080fd5b61546e88828901615059565b955050602086013567ffffffffffffffff81111561548b57600080fd5b615497888289016150d7565b945050604086013567ffffffffffffffff8111156154b457600080fd5b6154c0888289016150ad565b935050606086013567ffffffffffffffff8111156154dd57600080fd5b6154e988828901615083565b925050608086013567ffffffffffffffff81111561550657600080fd5b61551288828901615208565b9150509295509295909350565b60006020828403121561553157600080fd5b600061553f84828501615101565b91505092915050565b60006020828403121561555a57600080fd5b60006155688482850161512b565b91505092915050565b60006020828403121561558357600080fd5b600061559184828501615140565b91505092915050565b6000602082840312156155ac57600080fd5b600082015167ffffffffffffffff8111156155c657600080fd5b6155d28482850161517f565b91505092915050565b6000602082840312156155ed57600080fd5b60006155fb848285016151a9565b91505092915050565b60006020828403121561561657600080fd5b600061562484828501615232565b91505092915050565b60006020828403121561563f57600080fd5b600061564d84828501615247565b91505092915050565b6000806040838503121561566957600080fd5b600061567785828601615232565b925050602061568885828601615044565b9150509250929050565b600080604083850312156156a557600080fd5b60006156b385828601615232565b92505060206156c48582860161525c565b9150509250929050565b600080600080606085870312156156e457600080fd5b60006156f287828801615232565b94505060206157038782880161525c565b935050604085013567ffffffffffffffff81111561572057600080fd5b61572c878288016151be565b925092505092959194509250565b600080600080600060a0868803121561575257600080fd5b600061576088828901615232565b95505060206157718882890161525c565b94505060406157828882890161525c565b935050606061579388828901615116565b92505060806157a488828901615116565b9150509295509295909350565b6000602082840312156157c357600080fd5b60006157d184828501615271565b91505092915050565b60006157e68383615832565b60208301905092915050565b60006157fe8383615a3a565b905092915050565b60006158128383615aca565b905092915050565b60006158268383615f3d565b60208301905092915050565b61583b81616b2a565b82525050565b61584a81616b2a565b82525050565b600061585b8261694e565b61586581856169c4565b93506158708361690e565b8060005b838110156158a157815161588888826157da565b975061589383616990565b925050600181019050615874565b5085935050505092915050565b60006158b982616959565b6158c381856169d5565b9350836020820285016158d58561691e565b8060005b8581101561591157848403895281516158f285826157f2565b94506158fd8361699d565b925060208a019950506001810190506158d9565b50829750879550505050505092915050565b600061592e82616964565b61593881856169e6565b93508360208202850161594a8561692e565b8060005b8581101561598657848403895281516159678582615806565b9450615972836169aa565b925060208a0199505060018101905061594e565b50829750879550505050505092915050565b60006159a38261696f565b6159ad81856169f7565b93506159b88361693e565b8060005b838110156159e95781516159d0888261581a565b97506159db836169b7565b9250506001810190506159bc565b5085935050505092915050565b6159ff81616b4e565b82525050565b615a0e81616b4e565b82525050565b615a1d81616b5a565b82525050565b615a34615a2f82616b5a565b616d4e565b82525050565b6000615a458261697a565b615a4f8185616a08565b9350615a5f818560208601616c6f565b615a6881616e14565b840191505092915050565b6000615a7e8261697a565b615a888185616a19565b9350615a98818560208601616c6f565b615aa181616e14565b840191505092915050565b615ab581616c18565b82525050565b615ac481616c3c565b82525050565b6000615ad582616985565b615adf8185616a35565b9350615aef818560208601616c6f565b615af881616e14565b840191505092915050565b6000615b0e82616985565b615b188185616a46565b9350615b28818560208601616c6f565b615b3181616e14565b840191505092915050565b6000615b4782616985565b615b518185616a57565b9350615b61818560208601616c6f565b80840191505092915050565b6000615b7a601883616a46565b9150615b8582616e25565b602082019050919050565b6000615b9d601883616a46565b9150615ba882616e4e565b602082019050919050565b6000615bc0602683616a46565b9150615bcb82616e77565b604082019050919050565b6000615be3604383616a46565b9150615bee82616ec6565b606082019050919050565b6000615c06601f83616a46565b9150615c1182616f3b565b602082019050919050565b6000615c29600283616a57565b9150615c3482616f64565b600282019050919050565b6000615c4c602183616a46565b9150615c5782616f8d565b604082019050919050565b6000615c6f602783616a46565b9150615c7a82616fdc565b604082019050919050565b6000615c92604283616a46565b9150615c9d8261702b565b606082019050919050565b6000615cb5603a83616a46565b9150615cc0826170a0565b604082019050919050565b6000615cd8602283616a46565b9150615ce3826170ef565b604082019050919050565b6000615cfb601d83616a46565b9150615d068261713e565b602082019050919050565b6000615d1e602383616a46565b9150615d2982617167565b604082019050919050565b6000615d41601883616a46565b9150615d4c826171b6565b602082019050919050565b6000615d64602283616a46565b9150615d6f826171df565b604082019050919050565b6000615d87602683616a46565b9150615d928261722e565b604082019050919050565b6000615daa601d83616a46565b9150615db58261727d565b602082019050919050565b6000615dcd602183616a46565b9150615dd8826172a6565b604082019050919050565b6000615df0603183616a46565b9150615dfb826172f5565b604082019050919050565b6000615e13602d83616a46565b9150615e1e82617344565b604082019050919050565b6000615e36601d83616a46565b9150615e4182617393565b602082019050919050565b6000615e59602183616a46565b9150615e64826173bc565b604082019050919050565b6000615e7c600083616a2a565b9150615e878261740b565b600082019050919050565b6000615e9f600083616a46565b9150615eaa8261740b565b600082019050919050565b6000615ec2602783616a46565b9150615ecd8261740e565b604082019050919050565b6000615ee5602d83616a46565b9150615ef08261745d565b604082019050919050565b606082016000820151615f1160008501826159f6565b506020820151615f246020850182615f6a565b506040820151615f376040850182615f88565b50505050565b615f4681616bd5565b82525050565b615f5581616bd5565b82525050565b615f6481616c4e565b82525050565b615f7381616bf3565b82525050565b615f8281616bf3565b82525050565b615f9181616c00565b82525050565b6000615fa38284615b3c565b915081905092915050565b6000615fb982615c1c565b9150615fc58285615a23565b602082019150615fd58284615a23565b6020820191508190509392505050565b6000615ff082615e6f565b9150819050919050565b600060208201905061600f6000830184615841565b92915050565b600060408201905061602a6000830185615841565b6160376020830184615841565b9392505050565b60006040820190506160536000830185615841565b6160606020830184615f4c565b9392505050565b600060a08201905061607c6000830187615841565b6160896020830186615f4c565b818103604083015261609a81615e92565b905081810360608301526160ae8185615a73565b90506160bd6080830184615f4c565b95945050505050565b600060808201905081810360008301526160e08187615850565b905081810360208301526160f48186615998565b9050818103604083015261610881856158ae565b90506161176060830184615a14565b95945050505050565b6000608082019050818103600083015261613a8187615850565b9050818103602083015261614e8186615998565b905081810360408301526161628185615923565b9050818103606083015261617681846158ae565b905095945050505050565b60006020820190506161966000830184615a05565b92915050565b60006020820190506161b16000830184615a14565b92915050565b600060a0820190506161cc6000830188615a14565b6161d96020830187615a14565b6161e66040830186615a14565b6161f36060830185615f4c565b6162006080830184615841565b9695505050505050565b600060608201905061621f6000830186615a14565b61622c6020830185615f4c565b6162396040830184615f79565b949350505050565b60006080820190506162566000830187615a14565b6162636020830186615f79565b6162706040830185615a14565b61627d6060830184615a14565b95945050505050565b600060208201905081810360008301526162a08184615a73565b905092915050565b60006020820190506162bd6000830184615aac565b92915050565b60006020820190506162d86000830184615abb565b92915050565b600060208201905081810360008301526162f88184615b03565b905092915050565b6000602082019050818103600083015261631981615b6d565b9050919050565b6000602082019050818103600083015261633981615b90565b9050919050565b6000602082019050818103600083015261635981615bb3565b9050919050565b6000602082019050818103600083015261637981615bd6565b9050919050565b6000602082019050818103600083015261639981615bf9565b9050919050565b600060208201905081810360008301526163b981615c3f565b9050919050565b600060208201905081810360008301526163d981615c62565b9050919050565b600060208201905081810360008301526163f981615c85565b9050919050565b6000602082019050818103600083015261641981615ca8565b9050919050565b6000602082019050818103600083015261643981615ccb565b9050919050565b6000602082019050818103600083015261645981615cee565b9050919050565b6000602082019050818103600083015261647981615d11565b9050919050565b6000602082019050818103600083015261649981615d34565b9050919050565b600060208201905081810360008301526164b981615d57565b9050919050565b600060208201905081810360008301526164d981615d7a565b9050919050565b600060208201905081810360008301526164f981615d9d565b9050919050565b6000602082019050818103600083015261651981615dc0565b9050919050565b6000602082019050818103600083015261653981615de3565b9050919050565b6000602082019050818103600083015261655981615e06565b9050919050565b6000602082019050818103600083015261657981615e29565b9050919050565b6000602082019050818103600083015261659981615e4c565b9050919050565b600060208201905081810360008301526165b981615eb5565b9050919050565b600060208201905081810360008301526165d981615ed8565b9050919050565b60006060820190506165f56000830184615efb565b92915050565b60006020820190506166106000830184615f4c565b92915050565b60006101208201905061662c600083018c615f4c565b616639602083018b615841565b818103604083015261664b818a615850565b9050818103606083015261665f8189615998565b905081810360808301526166738188615923565b905081810360a083015261668781876158ae565b905061669660c0830186615f5b565b6166a360e0830185615f5b565b8181036101008301526166b68184615b03565b90509a9950505050505050505050565b6000610140820190506166dc600083018d615f4c565b6166e9602083018c615841565b6166f6604083018b615f4c565b616703606083018a615f4c565b6167106080830189615f4c565b61671d60a0830188615f4c565b61672a60c0830187615f4c565b61673760e0830186615f4c565b616745610100830185615a05565b616753610120830184615a05565b9b9a5050505050505050505050565b60006040820190506167776000830185615f4c565b6167846020830184615f4c565b9392505050565b60006080820190506167a06000830187615f4c565b6167ad6020830186615f79565b6167ba6040830185615f4c565b81810360608301526167cc8184615b03565b905095945050505050565b60006167e16167f2565b90506167ed8282616cd4565b919050565b6000604051905090565b600067ffffffffffffffff82111561681757616816616de5565b5b602082029050602081019050919050565b600067ffffffffffffffff82111561684357616842616de5565b5b602082029050602081019050919050565b600067ffffffffffffffff82111561686f5761686e616de5565b5b602082029050602081019050919050565b600067ffffffffffffffff82111561689b5761689a616de5565b5b602082029050602081019050919050565b600067ffffffffffffffff8211156168c7576168c6616de5565b5b6168d082616e14565b9050602081019050919050565b600067ffffffffffffffff8211156168f8576168f7616de5565b5b61690182616e14565b9050602081019050919050565b6000819050602082019050919050565b6000819050602082019050919050565b6000819050602082019050919050565b6000819050602082019050919050565b600081519050919050565b600081519050919050565b600081519050919050565b600081519050919050565b600081519050919050565b600081519050919050565b6000602082019050919050565b6000602082019050919050565b6000602082019050919050565b6000602082019050919050565b600082825260208201905092915050565b600082825260208201905092915050565b600082825260208201905092915050565b600082825260208201905092915050565b600082825260208201905092915050565b600082825260208201905092915050565b600081905092915050565b600082825260208201905092915050565b600082825260208201905092915050565b600081905092915050565b6000616a6d82616bd5565b9150616a7883616bd5565b9250827fffffffffffffffffffffffffffffffffffffffffffffffffffffffffffffffff03821115616aad57616aac616d58565b5b828201905092915050565b6000616ac382616bdf565b9150616ace83616bdf565b92508267ffffffffffffffff03821115616aeb57616aea616d58565b5b828201905092915050565b6000616b0182616bd5565b9150616b0c83616bd5565b925082821015616b1f57616b1e616d58565b5b828203905092915050565b6000616b3582616bb5565b9050919050565b6000616b4782616bb5565b9050919050565b60008115159050919050565b6000819050919050565b60007fffffffff0000000000000000000000000000000000000000000000000000000082169050919050565b6000616b9b82616b3c565b9050919050565b6000819050616bb0826174ac565b919050565b600073ffffffffffffffffffffffffffffffffffffffff82169050919050565b6000819050919050565b600067ffffffffffffffff82169050919050565b600060ff82169050919050565b60006bffffffffffffffffffffffff82169050919050565b6000616c2382616c2a565b9050919050565b6000616c3582616bb5565b9050919050565b6000616c4782616ba2565b9050919050565b6000616c5982616bdf565b9050919050565b82818337600083830152505050565b60005b83811015616c8d578082015181840152602081019050616c72565b83811115616c9c576000848401525b50505050565b60006002820490506001821680616cba57607f821691505b60208210811415616cce57616ccd616db6565b5b50919050565b616cdd82616e14565b810181811067ffffffffffffffff82111715616cfc57616cfb616de5565b5b80604052505050565b6000616d1082616bd5565b91507fffffffffffffffffffffffffffffffffffffffffffffffffffffffffffffffff821415616d4357616d42616d58565b5b600182019050919050565b6000819050919050565b7f4e487b7100000000000000000000000000000000000000000000000000000000600052601160045260246000fd5b7f4e487b7100000000000000000000000000000000000000000000000000000000600052602160045260246000fd5b7f4e487b7100000000000000000000000000000000000000000000000000000000600052602260045260246000fd5b7f4e487b7100000000000000000000000000000000000000000000000000000000600052604160045260246000fd5b6000601f19601f8301169050919050565b7f45434453413a20696e76616c6964207369676e61747572650000000000000000600082015250565b7f476f7665726e6f723a206f6e6c79476f7665726e616e63650000000000000000600082015250565b7f53616665436173743a2076616c756520646f65736e27742066697420696e203960008201527f3620626974730000000000000000000000000000000000000000000000000000602082015250565b7f476f7665726e6f72436f6d7061746962696c697479427261766f3a2070726f7060008201527f6f73657220766f7465732062656c6f772070726f706f73616c2074687265736860208201527f6f6c640000000000000000000000000000000000000000000000000000000000604082015250565b7f45434453413a20696e76616c6964207369676e6174757265206c656e67746800600082015250565b7f1901000000000000000000000000000000000000000000000000000000000000600082015250565b7f476f7665726e6f723a20696e76616c69642070726f706f73616c206c656e677460008201527f6800000000000000000000000000000000000000000000000000000000000000602082015250565b7f476f7665726e6f7253657474696e67733a20766f74696e6720706572696f642060008201527f746f6f206c6f7700000000000000000000000000000000000000000000000000602082015250565b7f476f7665726e6f7254696d656c6f636b436f6d706f756e643a206964656e746960008201527f63616c2070726f706f73616c20616374696f6e20616c7265616479207175657560208201527f6564000000000000000000000000000000000000000000000000000000000000604082015250565b7f416464726573733a20756e61626c6520746f2073656e642076616c75652c207260008201527f6563697069656e74206d61792068617665207265766572746564000000000000602082015250565b7f45434453413a20696e76616c6964207369676e6174757265202773272076616c60008201527f7565000000000000000000000000000000000000000000000000000000000000602082015250565b7f416464726573733a20696e73756666696369656e742062616c616e6365000000600082015250565b7f476f7665726e6f723a20766f7465206e6f742063757272656e746c792061637460008201527f6976650000000000000000000000000000000000000000000000000000000000602082015250565b7f476f7665726e6f723a20656d7074792070726f706f73616c0000000000000000600082015250565b7f45434453413a20696e76616c6964207369676e6174757265202776272076616c60008201527f7565000000000000000000000000000000000000000000000000000000000000602082015250565b7f53616665436173743a2076616c756520646f65736e27742066697420696e203660008201527f3420626974730000000000000000000000000000000000000000000000000000602082015250565b7f476f7665726e6f723a2070726f706f73616c206e6f7420616374697665000000600082015250565b7f476f7665726e6f723a2070726f706f73616c206e6f742073756363657373667560008201527f6c00000000000000000000000000000000000000000000000000000000000000602082015250565b7f476f7665726e6f7254696d656c6f636b436f6d706f756e643a2070726f706f7360008201527f616c206e6f742079657420717565756564000000000000000000000000000000602082015250565b7f476f7665726e6f72436f6d7061746962696c697479427261766f3a20696e766160008201527f6c696420766f7465207479706500000000000000000000000000000000000000602082015250565b7f476f7665726e6f723a20756e6b6e6f776e2070726f706f73616c206964000000600082015250565b7f476f7665726e6f723a2070726f706f73616c20616c726561647920657869737460008201527f7300000000000000000000000000000000000000000000000000000000000000602082015250565b50565b7f476f7665726e6f72427261766f3a2070726f706f7365722061626f766520746860008201527f726573686f6c6400000000000000000000000000000000000000000000000000602082015250565b7f476f7665726e6f72436f6d7061746962696c697479427261766f3a20766f746560008201527f20616c7265616479206361737400000000000000000000000000000000000000602082015250565b600881106174bd576174bc616d87565b5b50565b6174c981616b2a565b81146174d457600080fd5b50565b6174e081616b4e565b81146174eb57600080fd5b50565b6174f781616b5a565b811461750257600080fd5b50565b61750e81616b64565b811461751957600080fd5b50565b61752581616b90565b811461753057600080fd5b50565b61753c81616bd5565b811461754757600080fd5b50565b61755381616bf3565b811461755e57600080fd5b50565b61756a81616c00565b811461757557600080fd5b5056fea26469706673582212204558593e2e40c55b6b86ac7e41495c3d805db7ae8b76d41d6ab267ccc9ab168364736f6c63430008030033",
  "linkReferences": {},
  "deployedLinkReferences": {}
}