{
  "_format": "hh-sol-artifact-1",
  "contractName": "GovernorTimelockCompoundMock",
  "sourceName": "contracts/mocks/GovernorTimelockCompoundMock.sol",
  "abi": [
    {
      "inputs": [
        {
          "internalType": "string",
          "name": "name_",
          "type": "string"
        },
        {
          "internalType": "contract ERC20Votes",
          "name": "token_",
          "type": "address"
        },
        {
          "internalType": "uint256",
          "name": "votingDelay_",
          "type": "uint256"
        },
        {
          "internalType": "uint256",
          "name": "votingPeriod_",
          "type": "uint256"
        },
        {
          "internalType": "contract ICompoundTimelock",
          "name": "timelock_",
          "type": "address"
        },
        {
          "internalType": "uint256",
          "name": "quorumNumerator_",
          "type": "uint256"
        }
      ],
      "stateMutability": "nonpayable",
      "type": "constructor"
    },
    {
      "anonymous": false,
      "inputs": [
        {
          "indexed": false,
          "internalType": "uint256",
          "name": "proposalId",
          "type": "uint256"
        }
      ],
      "name": "ProposalCanceled",
      "type": "event"
    },
    {
      "anonymous": false,
      "inputs": [
        {
          "indexed": false,
          "internalType": "uint256",
          "name": "proposalId",
          "type": "uint256"
        },
        {
          "indexed": false,
          "internalType": "address",
          "name": "proposer",
          "type": "address"
        },
        {
          "indexed": false,
          "internalType": "address[]",
          "name": "targets",
          "type": "address[]"
        },
        {
          "indexed": false,
          "internalType": "uint256[]",
          "name": "values",
          "type": "uint256[]"
        },
        {
          "indexed": false,
          "internalType": "string[]",
          "name": "signatures",
          "type": "string[]"
        },
        {
          "indexed": false,
          "internalType": "bytes[]",
          "name": "calldatas",
          "type": "bytes[]"
        },
        {
          "indexed": false,
          "internalType": "uint256",
          "name": "startBlock",
          "type": "uint256"
        },
        {
          "indexed": false,
          "internalType": "uint256",
          "name": "endBlock",
          "type": "uint256"
        },
        {
          "indexed": false,
          "internalType": "string",
          "name": "description",
          "type": "string"
        }
      ],
      "name": "ProposalCreated",
      "type": "event"
    },
    {
      "anonymous": false,
      "inputs": [
        {
          "indexed": false,
          "internalType": "uint256",
          "name": "proposalId",
          "type": "uint256"
        }
      ],
      "name": "ProposalExecuted",
      "type": "event"
    },
    {
      "anonymous": false,
      "inputs": [
        {
          "indexed": false,
          "internalType": "uint256",
          "name": "proposalId",
          "type": "uint256"
        },
        {
          "indexed": false,
          "internalType": "uint256",
          "name": "eta",
          "type": "uint256"
        }
      ],
      "name": "ProposalQueued",
      "type": "event"
    },
    {
      "anonymous": false,
      "inputs": [
        {
          "indexed": false,
          "internalType": "uint256",
          "name": "oldProposalThreshold",
          "type": "uint256"
        },
        {
          "indexed": false,
          "internalType": "uint256",
          "name": "newProposalThreshold",
          "type": "uint256"
        }
      ],
      "name": "ProposalThresholdSet",
      "type": "event"
    },
    {
      "anonymous": false,
      "inputs": [
        {
          "indexed": false,
          "internalType": "uint256",
          "name": "oldQuorumNumerator",
          "type": "uint256"
        },
        {
          "indexed": false,
          "internalType": "uint256",
          "name": "newQuorumNumerator",
          "type": "uint256"
        }
      ],
      "name": "QuorumNumeratorUpdated",
      "type": "event"
    },
    {
      "anonymous": false,
      "inputs": [
        {
          "indexed": false,
          "internalType": "address",
          "name": "oldTimelock",
          "type": "address"
        },
        {
          "indexed": false,
          "internalType": "address",
          "name": "newTimelock",
          "type": "address"
        }
      ],
      "name": "TimelockChange",
      "type": "event"
    },
    {
      "anonymous": false,
      "inputs": [
        {
          "indexed": true,
          "internalType": "address",
          "name": "voter",
          "type": "address"
        },
        {
          "indexed": false,
          "internalType": "uint256",
          "name": "proposalId",
          "type": "uint256"
        },
        {
          "indexed": false,
          "internalType": "uint8",
          "name": "support",
          "type": "uint8"
        },
        {
          "indexed": false,
          "internalType": "uint256",
          "name": "weight",
          "type": "uint256"
        },
        {
          "indexed": false,
          "internalType": "string",
          "name": "reason",
          "type": "string"
        }
      ],
      "name": "VoteCast",
      "type": "event"
    },
    {
      "anonymous": false,
      "inputs": [
        {
          "indexed": false,
          "internalType": "uint256",
          "name": "oldVotingDelay",
          "type": "uint256"
        },
        {
          "indexed": false,
          "internalType": "uint256",
          "name": "newVotingDelay",
          "type": "uint256"
        }
      ],
      "name": "VotingDelaySet",
      "type": "event"
    },
    {
      "anonymous": false,
      "inputs": [
        {
          "indexed": false,
          "internalType": "uint256",
          "name": "oldVotingPeriod",
          "type": "uint256"
        },
        {
          "indexed": false,
          "internalType": "uint256",
          "name": "newVotingPeriod",
          "type": "uint256"
        }
      ],
      "name": "VotingPeriodSet",
      "type": "event"
    },
    {
      "inputs": [],
      "name": "BALLOT_TYPEHASH",
      "outputs": [
        {
          "internalType": "bytes32",
          "name": "",
          "type": "bytes32"
        }
      ],
      "stateMutability": "view",
      "type": "function"
    },
    {
      "inputs": [],
      "name": "COUNTING_MODE",
      "outputs": [
        {
          "internalType": "string",
          "name": "",
          "type": "string"
        }
      ],
      "stateMutability": "pure",
      "type": "function"
    },
    {
      "inputs": [],
      "name": "__acceptAdmin",
      "outputs": [],
      "stateMutability": "nonpayable",
      "type": "function"
    },
    {
      "inputs": [
        {
          "internalType": "address[]",
          "name": "targets",
          "type": "address[]"
        },
        {
          "internalType": "uint256[]",
          "name": "values",
          "type": "uint256[]"
        },
        {
          "internalType": "bytes[]",
          "name": "calldatas",
          "type": "bytes[]"
        },
        {
          "internalType": "bytes32",
          "name": "salt",
          "type": "bytes32"
        }
      ],
      "name": "cancel",
      "outputs": [
        {
          "internalType": "uint256",
          "name": "proposalId",
          "type": "uint256"
        }
      ],
      "stateMutability": "nonpayable",
      "type": "function"
    },
    {
      "inputs": [
        {
          "internalType": "uint256",
          "name": "proposalId",
          "type": "uint256"
        },
        {
          "internalType": "uint8",
          "name": "support",
          "type": "uint8"
        }
      ],
      "name": "castVote",
      "outputs": [
        {
          "internalType": "uint256",
          "name": "",
          "type": "uint256"
        }
      ],
      "stateMutability": "nonpayable",
      "type": "function"
    },
    {
      "inputs": [
        {
          "internalType": "uint256",
          "name": "proposalId",
          "type": "uint256"
        },
        {
          "internalType": "uint8",
          "name": "support",
          "type": "uint8"
        },
        {
          "internalType": "uint8",
          "name": "v",
          "type": "uint8"
        },
        {
          "internalType": "bytes32",
          "name": "r",
          "type": "bytes32"
        },
        {
          "internalType": "bytes32",
          "name": "s",
          "type": "bytes32"
        }
      ],
      "name": "castVoteBySig",
      "outputs": [
        {
          "internalType": "uint256",
          "name": "",
          "type": "uint256"
        }
      ],
      "stateMutability": "nonpayable",
      "type": "function"
    },
    {
      "inputs": [
        {
          "internalType": "uint256",
          "name": "proposalId",
          "type": "uint256"
        },
        {
          "internalType": "uint8",
          "name": "support",
          "type": "uint8"
        },
        {
          "internalType": "string",
          "name": "reason",
          "type": "string"
        }
      ],
      "name": "castVoteWithReason",
      "outputs": [
        {
          "internalType": "uint256",
          "name": "",
          "type": "uint256"
        }
      ],
      "stateMutability": "nonpayable",
      "type": "function"
    },
    {
      "inputs": [
        {
          "internalType": "address[]",
          "name": "targets",
          "type": "address[]"
        },
        {
          "internalType": "uint256[]",
          "name": "values",
          "type": "uint256[]"
        },
        {
          "internalType": "bytes[]",
          "name": "calldatas",
          "type": "bytes[]"
        },
        {
          "internalType": "bytes32",
          "name": "descriptionHash",
          "type": "bytes32"
        }
      ],
      "name": "execute",
      "outputs": [
        {
          "internalType": "uint256",
          "name": "",
          "type": "uint256"
        }
      ],
      "stateMutability": "payable",
      "type": "function"
    },
    {
      "inputs": [
        {
          "internalType": "address",
          "name": "account",
          "type": "address"
        },
        {
          "internalType": "uint256",
          "name": "blockNumber",
          "type": "uint256"
        }
      ],
      "name": "getVotes",
      "outputs": [
        {
          "internalType": "uint256",
          "name": "",
          "type": "uint256"
        }
      ],
      "stateMutability": "view",
      "type": "function"
    },
    {
      "inputs": [
        {
          "internalType": "uint256",
          "name": "proposalId",
          "type": "uint256"
        },
        {
          "internalType": "address",
          "name": "account",
          "type": "address"
        }
      ],
      "name": "hasVoted",
      "outputs": [
        {
          "internalType": "bool",
          "name": "",
          "type": "bool"
        }
      ],
      "stateMutability": "view",
      "type": "function"
    },
    {
      "inputs": [
        {
          "internalType": "address[]",
          "name": "targets",
          "type": "address[]"
        },
        {
          "internalType": "uint256[]",
          "name": "values",
          "type": "uint256[]"
        },
        {
          "internalType": "bytes[]",
          "name": "calldatas",
          "type": "bytes[]"
        },
        {
          "internalType": "bytes32",
          "name": "descriptionHash",
          "type": "bytes32"
        }
      ],
      "name": "hashProposal",
      "outputs": [
        {
          "internalType": "uint256",
          "name": "",
          "type": "uint256"
        }
      ],
      "stateMutability": "pure",
      "type": "function"
    },
    {
      "inputs": [],
      "name": "name",
      "outputs": [
        {
          "internalType": "string",
          "name": "",
          "type": "string"
        }
      ],
      "stateMutability": "view",
      "type": "function"
    },
    {
      "inputs": [
        {
          "internalType": "uint256",
          "name": "proposalId",
          "type": "uint256"
        }
      ],
      "name": "proposalDeadline",
      "outputs": [
        {
          "internalType": "uint256",
          "name": "",
          "type": "uint256"
        }
      ],
      "stateMutability": "view",
      "type": "function"
    },
    {
      "inputs": [
        {
          "internalType": "uint256",
          "name": "proposalId",
          "type": "uint256"
        }
      ],
      "name": "proposalEta",
      "outputs": [
        {
          "internalType": "uint256",
          "name": "",
          "type": "uint256"
        }
      ],
      "stateMutability": "view",
      "type": "function"
    },
    {
      "inputs": [
        {
          "internalType": "uint256",
          "name": "proposalId",
          "type": "uint256"
        }
      ],
      "name": "proposalSnapshot",
      "outputs": [
        {
          "internalType": "uint256",
          "name": "",
          "type": "uint256"
        }
      ],
      "stateMutability": "view",
      "type": "function"
    },
    {
      "inputs": [],
      "name": "proposalThreshold",
      "outputs": [
        {
          "internalType": "uint256",
          "name": "",
          "type": "uint256"
        }
      ],
      "stateMutability": "view",
      "type": "function"
    },
    {
      "inputs": [
        {
          "internalType": "uint256",
          "name": "proposalId",
          "type": "uint256"
        }
      ],
      "name": "proposalVotes",
      "outputs": [
        {
          "internalType": "uint256",
          "name": "againstVotes",
          "type": "uint256"
        },
        {
          "internalType": "uint256",
          "name": "forVotes",
          "type": "uint256"
        },
        {
          "internalType": "uint256",
          "name": "abstainVotes",
          "type": "uint256"
        }
      ],
      "stateMutability": "view",
      "type": "function"
    },
    {
      "inputs": [
        {
          "internalType": "address[]",
          "name": "targets",
          "type": "address[]"
        },
        {
          "internalType": "uint256[]",
          "name": "values",
          "type": "uint256[]"
        },
        {
          "internalType": "bytes[]",
          "name": "calldatas",
          "type": "bytes[]"
        },
        {
          "internalType": "string",
          "name": "description",
          "type": "string"
        }
      ],
      "name": "propose",
      "outputs": [
        {
          "internalType": "uint256",
          "name": "",
          "type": "uint256"
        }
      ],
      "stateMutability": "nonpayable",
      "type": "function"
    },
    {
      "inputs": [
        {
          "internalType": "address[]",
          "name": "targets",
          "type": "address[]"
        },
        {
          "internalType": "uint256[]",
          "name": "values",
          "type": "uint256[]"
        },
        {
          "internalType": "bytes[]",
          "name": "calldatas",
          "type": "bytes[]"
        },
        {
          "internalType": "bytes32",
          "name": "descriptionHash",
          "type": "bytes32"
        }
      ],
      "name": "queue",
      "outputs": [
        {
          "internalType": "uint256",
          "name": "",
          "type": "uint256"
        }
      ],
      "stateMutability": "nonpayable",
      "type": "function"
    },
    {
      "inputs": [
        {
          "internalType": "uint256",
          "name": "blockNumber",
          "type": "uint256"
        }
      ],
      "name": "quorum",
      "outputs": [
        {
          "internalType": "uint256",
          "name": "",
          "type": "uint256"
        }
      ],
      "stateMutability": "view",
      "type": "function"
    },
    {
      "inputs": [],
      "name": "quorumDenominator",
      "outputs": [
        {
          "internalType": "uint256",
          "name": "",
          "type": "uint256"
        }
      ],
      "stateMutability": "view",
      "type": "function"
    },
    {
      "inputs": [],
      "name": "quorumNumerator",
      "outputs": [
        {
          "internalType": "uint256",
          "name": "",
          "type": "uint256"
        }
      ],
      "stateMutability": "view",
      "type": "function"
    },
    {
      "inputs": [
        {
          "internalType": "uint256",
          "name": "newProposalThreshold",
          "type": "uint256"
        }
      ],
      "name": "setProposalThreshold",
      "outputs": [],
      "stateMutability": "nonpayable",
      "type": "function"
    },
    {
      "inputs": [
        {
          "internalType": "uint256",
          "name": "newVotingDelay",
          "type": "uint256"
        }
      ],
      "name": "setVotingDelay",
      "outputs": [],
      "stateMutability": "nonpayable",
      "type": "function"
    },
    {
      "inputs": [
        {
          "internalType": "uint256",
          "name": "newVotingPeriod",
          "type": "uint256"
        }
      ],
      "name": "setVotingPeriod",
      "outputs": [],
      "stateMutability": "nonpayable",
      "type": "function"
    },
    {
      "inputs": [
        {
          "internalType": "uint256",
          "name": "proposalId",
          "type": "uint256"
        }
      ],
      "name": "state",
      "outputs": [
        {
          "internalType": "enum IGovernor.ProposalState",
          "name": "",
          "type": "uint8"
        }
      ],
      "stateMutability": "view",
      "type": "function"
    },
    {
      "inputs": [
        {
          "internalType": "bytes4",
          "name": "interfaceId",
          "type": "bytes4"
        }
      ],
      "name": "supportsInterface",
      "outputs": [
        {
          "internalType": "bool",
          "name": "",
          "type": "bool"
        }
      ],
      "stateMutability": "view",
      "type": "function"
    },
    {
      "inputs": [],
      "name": "timelock",
      "outputs": [
        {
          "internalType": "address",
          "name": "",
          "type": "address"
        }
      ],
      "stateMutability": "view",
      "type": "function"
    },
    {
      "inputs": [],
      "name": "token",
      "outputs": [
        {
          "internalType": "contract ERC20Votes",
          "name": "",
          "type": "address"
        }
      ],
      "stateMutability": "view",
      "type": "function"
    },
    {
      "inputs": [
        {
          "internalType": "uint256",
          "name": "newQuorumNumerator",
          "type": "uint256"
        }
      ],
      "name": "updateQuorumNumerator",
      "outputs": [],
      "stateMutability": "nonpayable",
      "type": "function"
    },
    {
      "inputs": [
        {
          "internalType": "contract ICompoundTimelock",
          "name": "newTimelock",
          "type": "address"
        }
      ],
      "name": "updateTimelock",
      "outputs": [],
      "stateMutability": "nonpayable",
      "type": "function"
    },
    {
      "inputs": [],
      "name": "version",
      "outputs": [
        {
          "internalType": "string",
          "name": "",
          "type": "string"
        }
      ],
      "stateMutability": "view",
      "type": "function"
    },
    {
      "inputs": [],
      "name": "votingDelay",
      "outputs": [
        {
          "internalType": "uint256",
          "name": "",
          "type": "uint256"
        }
      ],
      "stateMutability": "view",
      "type": "function"
    },
    {
      "inputs": [],
      "name": "votingPeriod",
      "outputs": [
        {
          "internalType": "uint256",
          "name": "",
          "type": "uint256"
        }
      ],
      "stateMutability": "view",
      "type": "function"
    },
    {
      "stateMutability": "payable",
      "type": "receive"
    }
  ],
  "bytecode": "0x6101606040523480156200001257600080fd5b50604051620067f0380380620067f0833981810160405281019062000038919062000606565b808583868660008b8062000051620001bf60201b60201c565b60008280519060200120905060008280519060200120905060007f8b73c3c69bb8fe3d512ecc4cf759cc79239f7b179b0ffacaa9a75d522b39400f90508260e081815250508161010081815250504660a08181525050620000ba818484620001fc60201b60201c565b608081815250503073ffffffffffffffffffffffffffffffffffffffff1660c08173ffffffffffffffffffffffffffffffffffffffff1660601b81525050806101208181525050505050505080600090805190602001906200011e9291906200049f565b505062000131836200023860201b60201c565b62000142826200027f60201b60201c565b62000153816200030c60201b60201c565b50505062000167816200035360201b60201c565b508073ffffffffffffffffffffffffffffffffffffffff166101408173ffffffffffffffffffffffffffffffffffffffff1660601b8152505050620001b281620003f460201b60201c565b5050505050505062000b48565b60606040518060400160405280600181526020017f3100000000000000000000000000000000000000000000000000000000000000815250905090565b600083838346306040516020016200021995949392919062000763565b6040516020818303038152906040528051906020012090509392505050565b7fc565b045403dc03c2eea82b81a0465edad9e2e7fc4d97e11421c209da93d7a93600254826040516200026d92919062000804565b60405180910390a18060028190555050565b60008111620002c5576040517f08c379a0000000000000000000000000000000000000000000000000000000008152600401620002bc90620007e2565b60405180910390fd5b7f7e3f7f0708a84de9203036abaa450dccc85ad5ff52f78c170f3edb55cf5e882860035482604051620002fa92919062000804565b60405180910390a18060038190555050565b7fccb45da8d5717e6c4544694297c4ba5cf151d455c9bb0ed4fc7a38411bc05461600454826040516200034192919062000804565b60405180910390a18060048190555050565b7f08f74ea46ef7894f65eabfb5e6e695de773a000b47c529ab559178069b226401600560009054906101000a900473ffffffffffffffffffffffffffffffffffffffff1682604051620003a892919062000736565b60405180910390a180600560006101000a81548173ffffffffffffffffffffffffffffffffffffffff021916908373ffffffffffffffffffffffffffffffffffffffff16021790555050565b620004046200049660201b60201c565b81111562000449576040517f08c379a00000000000000000000000000000000000000000000000000000000081526004016200044090620007c0565b60405180910390fd5b60006007549050816007819055507f0553476bf02ef2726e8ce5ced78d63e26e602e4a2257b1f559418e24b463399781836040516200048a92919062000804565b60405180910390a15050565b60006064905090565b828054620004ad906200095b565b90600052602060002090601f016020900481019282620004d157600085556200051d565b82601f10620004ec57805160ff19168380011785556200051d565b828001600101855582156200051d579182015b828111156200051c578251825591602001919060010190620004ff565b5b5090506200052c919062000530565b5090565b5b808211156200054b57600081600090555060010162000531565b5090565b60006200056662000560846200085a565b62000831565b9050828152602081018484840111156200057f57600080fd5b6200058c84828562000925565b509392505050565b600081519050620005a58162000afa565b92915050565b600081519050620005bc8162000b14565b92915050565b600082601f830112620005d457600080fd5b8151620005e68482602086016200054f565b91505092915050565b600081519050620006008162000b2e565b92915050565b60008060008060008060c087890312156200062057600080fd5b600087015167ffffffffffffffff8111156200063b57600080fd5b6200064989828a01620005c2565b96505060206200065c89828a0162000594565b95505060406200066f89828a01620005ef565b94505060606200068289828a01620005ef565b93505060806200069589828a01620005ab565b92505060a0620006a889828a01620005ef565b9150509295509295509295565b620006c081620008a1565b82525050565b620006d181620008c9565b82525050565b6000620006e660438362000890565b9150620006f38262000a36565b606082019050919050565b60006200070d60278362000890565b91506200071a8262000aab565b604082019050919050565b62000730816200091b565b82525050565b60006040820190506200074d6000830185620006b5565b6200075c6020830184620006b5565b9392505050565b600060a0820190506200077a6000830188620006c6565b620007896020830187620006c6565b620007986040830186620006c6565b620007a7606083018562000725565b620007b66080830184620006b5565b9695505050505050565b60006020820190508181036000830152620007db81620006d7565b9050919050565b60006020820190508181036000830152620007fd81620006fe565b9050919050565b60006040820190506200081b600083018562000725565b6200082a602083018462000725565b9392505050565b60006200083d62000850565b90506200084b828262000991565b919050565b6000604051905090565b600067ffffffffffffffff821115620008785762000877620009f6565b5b620008838262000a25565b9050602081019050919050565b600082825260208201905092915050565b6000620008ae82620008fb565b9050919050565b6000620008c282620008fb565b9050919050565b6000819050919050565b6000620008e082620008a1565b9050919050565b6000620008f482620008b5565b9050919050565b600073ffffffffffffffffffffffffffffffffffffffff82169050919050565b6000819050919050565b60005b838110156200094557808201518184015260208101905062000928565b8381111562000955576000848401525b50505050565b600060028204905060018216806200097457607f821691505b602082108114156200098b576200098a620009c7565b5b50919050565b6200099c8262000a25565b810181811067ffffffffffffffff82111715620009be57620009bd620009f6565b5b80604052505050565b7f4e487b7100000000000000000000000000000000000000000000000000000000600052602260045260246000fd5b7f4e487b7100000000000000000000000000000000000000000000000000000000600052604160045260246000fd5b6000601f19601f8301169050919050565b7f476f7665726e6f72566f74657351756f72756d4672616374696f6e3a2071756f60008201527f72756d4e756d657261746f72206f7665722071756f72756d44656e6f6d696e6160208201527f746f720000000000000000000000000000000000000000000000000000000000604082015250565b7f476f7665726e6f7253657474696e67733a20766f74696e6720706572696f642060008201527f746f6f206c6f7700000000000000000000000000000000000000000000000000602082015250565b62000b0581620008d3565b811462000b1157600080fd5b50565b62000b1f81620008e7565b811462000b2b57600080fd5b50565b62000b39816200091b565b811462000b4557600080fd5b50565b60805160a05160c05160601c60e05161010051610120516101405160601c615c3962000bb760003960008181611bcd0152818161231d01526124270152600061282c0152600061286e0152600061284d01526000612782015260006127d8015260006128010152615c396000f3fe6080604052600436106101fd5760003560e01c80637d5e81e21161010d578063c59057e4116100a0578063ea0217cf1161006f578063ea0217cf14610810578063eb9019d414610839578063ece40cc114610876578063f8ce560a1461089f578063fc0c546a146108dc57610243565b8063c59057e414610752578063d33219b41461078f578063dd4e2ba5146107ba578063deaaa7cc146107e557610243565b8063ab58fb8e116100dc578063ab58fb8e14610696578063b58131b0146106d3578063b9a61961146106fe578063c01f9e371461071557610243565b80637d5e81e2146105da57806397c3d33414610617578063a7713a7014610642578063a890c9101461066d57610243565b80633bccf4fd11610190578063544ffc9c1161015f578063544ffc9c146104cd57806354fd4d501461050c578063567813881461053757806370b0f660146105745780637b3c71d31461059d57610243565b80633bccf4fd146103d95780633e4f49e6146104165780634385963214610453578063452115d61461049057610243565b8063160cbed7116101cc578063160cbed7146103045780632656227d146103415780632d63f693146103715780633932abb1146103ae57610243565b806301ffc9a71461024857806302a251a31461028557806306f3f9e6146102b057806306fdde03146102d957610243565b36610243573073ffffffffffffffffffffffffffffffffffffffff16610221610907565b73ffffffffffffffffffffffffffffffffffffffff161461024157600080fd5b005b600080fd5b34801561025457600080fd5b5061026f600480360381019061026a9190613dec565b610916565b60405161027c9190614898565b60405180910390f35b34801561029157600080fd5b5061029a610928565b6040516102a79190614cb5565b60405180910390f35b3480156102bc57600080fd5b506102d760048036038101906102d29190613e7f565b610932565b005b3480156102e557600080fd5b506102ee6109ba565b6040516102fb91906149d3565b60405180910390f35b34801561031057600080fd5b5061032b60048036038101906103269190613c2c565b610a4c565b6040516103389190614cb5565b60405180910390f35b61035b60048036038101906103569190613c2c565b610fa6565b6040516103689190614cb5565b60405180910390f35b34801561037d57600080fd5b5061039860048036038101906103939190613e7f565b611171565b6040516103a59190614cb5565b60405180910390f35b3480156103ba57600080fd5b506103c36111df565b6040516103d09190614cb5565b60405180910390f35b3480156103e557600080fd5b5061040060048036038101906103fb9190613fb5565b6111e9565b60405161040d9190614cb5565b60405180910390f35b34801561042257600080fd5b5061043d60048036038101906104389190613e7f565b611273565b60405161044a91906149b8565b60405180910390f35b34801561045f57600080fd5b5061047a60048036038101906104759190613ed1565b611285565b6040516104879190614898565b60405180910390f35b34801561049c57600080fd5b506104b760048036038101906104b29190613c2c565b6112f0565b6040516104c49190614cb5565b60405180910390f35b3480156104d957600080fd5b506104f460048036038101906104ef9190613e7f565b611308565b60405161050393929190614da9565b60405180910390f35b34801561051857600080fd5b50610521611340565b60405161052e91906149d3565b60405180910390f35b34801561054357600080fd5b5061055e60048036038101906105599190613f0d565b61137d565b60405161056b9190614cb5565b60405180910390f35b34801561058057600080fd5b5061059b60048036038101906105969190613e7f565b6113ae565b005b3480156105a957600080fd5b506105c460048036038101906105bf9190613f49565b611436565b6040516105d19190614cb5565b60405180910390f35b3480156105e657600080fd5b5061060160048036038101906105fc9190613cd7565b61149e565b60405161060e9190614cb5565b60405180910390f35b34801561062357600080fd5b5061062c6117c4565b6040516106399190614cb5565b60405180910390f35b34801561064e57600080fd5b506106576117cd565b6040516106649190614cb5565b60405180910390f35b34801561067957600080fd5b50610694600480360381019061068f9190613e56565b6117d7565b005b3480156106a257600080fd5b506106bd60048036038101906106b89190613e7f565b61185f565b6040516106ca9190614cb5565b60405180910390f35b3480156106df57600080fd5b506106e86118cd565b6040516106f59190614cb5565b60405180910390f35b34801561070a57600080fd5b506107136118dc565b005b34801561072157600080fd5b5061073c60048036038101906107379190613e7f565b611960565b6040516107499190614cb5565b60405180910390f35b34801561075e57600080fd5b5061077960048036038101906107749190613c2c565b6119ce565b6040516107869190614cb5565b60405180910390f35b34801561079b57600080fd5b506107a4611a0a565b6040516107b19190614772565b60405180910390f35b3480156107c657600080fd5b506107cf611a34565b6040516107dc91906149d3565b60405180910390f35b3480156107f157600080fd5b506107fa611a71565b60405161080791906148b3565b60405180910390f35b34801561081c57600080fd5b5061083760048036038101906108329190613e7f565b611a95565b005b34801561084557600080fd5b50610860600480360381019061085b9190613bf0565b611b1d565b60405161086d9190614cb5565b60405180910390f35b34801561088257600080fd5b5061089d60048036038101906108989190613e7f565b611b31565b005b3480156108ab57600080fd5b506108c660048036038101906108c19190613e7f565b611bb9565b6040516108d39190614cb5565b60405180910390f35b3480156108e857600080fd5b506108f1611bcb565b6040516108fe919061499d565b60405180910390f35b6000610911611bef565b905090565b600061092182611c19565b9050919050565b6000600354905090565b61093a610907565b73ffffffffffffffffffffffffffffffffffffffff16610958611c93565b73ffffffffffffffffffffffffffffffffffffffff16146109ae576040517f08c379a00000000000000000000000000000000000000000000000000000000081526004016109a590614a15565b60405180910390fd5b6109b781611c9b565b50565b6060600080546109c99061533e565b80601f01602080910402602001604051908101604052809291908181526020018280546109f59061533e565b8015610a425780601f10610a1757610100808354040283529160200191610a42565b820191906000526020600020905b815481529060010190602001808311610a2557829003601f168201915b5050505050905090565b600080610a5b868686866119ce565b905060046007811115610a97577f4e487b7100000000000000000000000000000000000000000000000000000000600052602160045260246000fd5b610aa082611273565b6007811115610ad8577f4e487b7100000000000000000000000000000000000000000000000000000000600052602160045260246000fd5b14610b18576040517f08c379a0000000000000000000000000000000000000000000000000000000008152600401610b0f90614c15565b60405180910390fd5b6000600560009054906101000a900473ffffffffffffffffffffffffffffffffffffffff1673ffffffffffffffffffffffffffffffffffffffff16636a42b8f86040518163ffffffff1660e01b815260040160206040518083038186803b158015610b8257600080fd5b505afa158015610b96573d6000803e3d6000fd5b505050506040513d601f19601f82011682018060405250810190610bba9190613ea8565b42610bc5919061508b565b9050610bf7610bd382611d30565b60066000858152602001908152602001600020600001611d8790919063ffffffff16565b60005b8751811015610f5f57600560009054906101000a900473ffffffffffffffffffffffffffffffffffffffff1673ffffffffffffffffffffffffffffffffffffffff1663f2b06537898381518110610c7a577f4e487b7100000000000000000000000000000000000000000000000000000000600052603260045260246000fd5b6020026020010151898481518110610cbb577f4e487b7100000000000000000000000000000000000000000000000000000000600052603260045260246000fd5b6020026020010151898581518110610cfc577f4e487b7100000000000000000000000000000000000000000000000000000000600052603260045260246000fd5b602002602001015186604051602001610d1894939291906147df565b604051602081830303815290604052805190602001206040518263ffffffff1660e01b8152600401610d4a91906148b3565b60206040518083038186803b158015610d6257600080fd5b505afa158015610d76573d6000803e3d6000fd5b505050506040513d601f19601f82011682018060405250810190610d9a9190613d9a565b15610dda576040517f08c379a0000000000000000000000000000000000000000000000000000000008152600401610dd190614ad5565b60405180910390fd5b600560009054906101000a900473ffffffffffffffffffffffffffffffffffffffff1673ffffffffffffffffffffffffffffffffffffffff16633a66f901898381518110610e51577f4e487b7100000000000000000000000000000000000000000000000000000000600052603260045260246000fd5b6020026020010151898481518110610e92577f4e487b7100000000000000000000000000000000000000000000000000000000600052603260045260246000fd5b6020026020010151898581518110610ed3577f4e487b7100000000000000000000000000000000000000000000000000000000600052603260045260246000fd5b6020026020010151866040518563ffffffff1660e01b8152600401610efb94939291906147df565b602060405180830381600087803b158015610f1557600080fd5b505af1158015610f29573d6000803e3d6000fd5b505050506040513d601f19601f82011682018060405250810190610f4d9190613dc3565b5080610f58906153a1565b9050610bfa565b507f9a2e42fd6722813d69113e7d0079d3d940171428df7373df9c7f7617cfda28928282604051610f91929190614d80565b60405180910390a18192505050949350505050565b600080610fb5868686866119ce565b90506000610fc282611273565b905060046007811115610ffe577f4e487b7100000000000000000000000000000000000000000000000000000000600052602160045260246000fd5b816007811115611037577f4e487b7100000000000000000000000000000000000000000000000000000000600052602160045260246000fd5b14806110b3575060056007811115611078577f4e487b7100000000000000000000000000000000000000000000000000000000600052602160045260246000fd5b8160078111156110b1577f4e487b7100000000000000000000000000000000000000000000000000000000600052602160045260246000fd5b145b6110f2576040517f08c379a00000000000000000000000000000000000000000000000000000000081526004016110e990614c15565b60405180910390fd5b600180600084815260200190815260200160002060020160006101000a81548160ff0219169083151502179055507f712ae1383f79ac853f8d882153778e0260ef8f03b504e2866e0593e04d2b291f8260405161114f9190614cb5565b60405180910390a16111648288888888611db6565b8192505050949350505050565b60006111ce600160008481526020019081526020016000206000016040518060200160405290816000820160009054906101000a900467ffffffffffffffff1667ffffffffffffffff1667ffffffffffffffff1681525050611dca565b67ffffffffffffffff169050919050565b6000600254905090565b60008061124a6112427f150214d74d59b7d1e90c73fc22ef3d991dd0a76b046543d4d80ab92d2a50328f898960405160200161122793929190614921565b60405160208183030381529060405280519060200120611dd8565b868686611df2565b905061126787828860405180602001604052806000815250611e1d565b91505095945050505050565b600061127e82611fbd565b9050919050565b60006008600084815260200190815260200160002060030160008373ffffffffffffffffffffffffffffffffffffffff1673ffffffffffffffffffffffffffffffffffffffff16815260200190815260200160002060009054906101000a900460ff16905092915050565b60006112fe85858585612134565b9050949350505050565b600080600080600860008681526020019081526020016000209050806000015481600101548260020154935093509350509193909250565b60606040518060400160405280600181526020017f3100000000000000000000000000000000000000000000000000000000000000815250905090565b600080611388611c93565b90506113a584828560405180602001604052806000815250611e1d565b91505092915050565b6113b6610907565b73ffffffffffffffffffffffffffffffffffffffff166113d4611c93565b73ffffffffffffffffffffffffffffffffffffffff161461142a576040517f08c379a000000000000000000000000000000000000000000000000000000000815260040161142190614a15565b60405180910390fd5b6114338161214c565b50565b600080611441611c93565b905061149386828787878080601f016020809104026020016040519081016040528093929190818152602001838380828437600081840152601f19601f82011690508083019250505050505050611e1d565b915050949350505050565b60006114a86118cd565b6114be336001436114b991906151aa565b611b1d565b10156114ff576040517f08c379a00000000000000000000000000000000000000000000000000000000081526004016114f690614a55565b60405180910390fd5b600061151486868686805190602001206119ce565b9050845186511461155a576040517f08c379a000000000000000000000000000000000000000000000000000000000815260040161155190614a95565b60405180910390fd5b835186511461159e576040517f08c379a000000000000000000000000000000000000000000000000000000000815260040161159590614a95565b60405180910390fd5b60008651116115e2576040517f08c379a00000000000000000000000000000000000000000000000000000000081526004016115d990614b95565b60405180910390fd5b6000600160008381526020019081526020016000209050611642816000016040518060200160405290816000820160009054906101000a900467ffffffffffffffff1667ffffffffffffffff1667ffffffffffffffff1681525050612191565b611681576040517f08c379a000000000000000000000000000000000000000000000000000000000815260040161167890614c95565b60405180910390fd5b600061169361168e6111df565b611d30565b61169c43611d30565b6116a691906150e1565b905060006116ba6116b5610928565b611d30565b826116c591906150e1565b90506116dd82846000016121ab90919063ffffffff16565b6116f381846001016121ab90919063ffffffff16565b7f7d84a6263ae0d98d3329bd7b46bb4e8d6f98cd35a7adb45c274c8b7fd5ebd5e08461171d611c93565b8b8b8d5167ffffffffffffffff811115611760577f4e487b7100000000000000000000000000000000000000000000000000000000600052604160045260246000fd5b60405190808252806020026020018201604052801561179357816020015b606081526020019060019003908161177e5790505b508c88888e6040516117ad99989796959493929190614cd0565b60405180910390a183945050505050949350505050565b60006064905090565b6000600754905090565b6117df610907565b73ffffffffffffffffffffffffffffffffffffffff166117fd611c93565b73ffffffffffffffffffffffffffffffffffffffff1614611853576040517f08c379a000000000000000000000000000000000000000000000000000000000815260040161184a90614a15565b60405180910390fd5b61185c816121da565b50565b60006118bc600660008481526020019081526020016000206000016040518060200160405290816000820160009054906101000a900467ffffffffffffffff1667ffffffffffffffff1667ffffffffffffffff1681525050612279565b67ffffffffffffffff169050919050565b60006118d7612287565b905090565b600560009054906101000a900473ffffffffffffffffffffffffffffffffffffffff1673ffffffffffffffffffffffffffffffffffffffff16630e18b6816040518163ffffffff1660e01b8152600401600060405180830381600087803b15801561194657600080fd5b505af115801561195a573d6000803e3d6000fd5b50505050565b60006119bd600160008481526020019081526020016000206001016040518060200160405290816000820160009054906101000a900467ffffffffffffffff1667ffffffffffffffff1667ffffffffffffffff1681525050611dca565b67ffffffffffffffff169050919050565b6000848484846040516020016119e7949392919061483e565b6040516020818303038152906040528051906020012060001c9050949350505050565b6000600560009054906101000a900473ffffffffffffffffffffffffffffffffffffffff16905090565b60606040518060400160405280602081526020017f737570706f72743d627261766f2671756f72756d3d666f722c6162737461696e815250905090565b7f150214d74d59b7d1e90c73fc22ef3d991dd0a76b046543d4d80ab92d2a50328f81565b611a9d610907565b73ffffffffffffffffffffffffffffffffffffffff16611abb611c93565b73ffffffffffffffffffffffffffffffffffffffff1614611b11576040517f08c379a0000000000000000000000000000000000000000000000000000000008152600401611b0890614a15565b60405180910390fd5b611b1a81612291565b50565b6000611b298383612319565b905092915050565b611b39610907565b73ffffffffffffffffffffffffffffffffffffffff16611b57611c93565b73ffffffffffffffffffffffffffffffffffffffff1614611bad576040517f08c379a0000000000000000000000000000000000000000000000000000000008152600401611ba490614a15565b60405180910390fd5b611bb6816123ce565b50565b6000611bc482612413565b9050919050565b7f000000000000000000000000000000000000000000000000000000000000000081565b6000600560009054906101000a900473ffffffffffffffffffffffffffffffffffffffff16905090565b60007f6e665ced000000000000000000000000000000000000000000000000000000007bffffffffffffffffffffffffffffffffffffffffffffffffffffffff1916827bffffffffffffffffffffffffffffffffffffffffffffffffffffffff19161480611c8c5750611c8b826124e9565b5b9050919050565b600033905090565b611ca36117c4565b811115611ce5576040517f08c379a0000000000000000000000000000000000000000000000000000000008152600401611cdc90614a35565b60405180910390fd5b60006007549050816007819055507f0553476bf02ef2726e8ce5ced78d63e26e602e4a2257b1f559418e24b46339978183604051611d24929190614d80565b60405180910390a15050565b600067ffffffffffffffff8016821115611d7f576040517f08c379a0000000000000000000000000000000000000000000000000000000008152600401611d7690614bd5565b60405180910390fd5b819050919050565b808260000160006101000a81548167ffffffffffffffff021916908367ffffffffffffffff1602179055505050565b611dc38585858585612563565b5050505050565b600081600001519050919050565b6000611deb611de561277e565b83612898565b9050919050565b6000806000611e03878787876128cb565b91509150611e10816129d8565b8192505050949350505050565b60008060016000878152602001908152602001600020905060016007811115611e6f577f4e487b7100000000000000000000000000000000000000000000000000000000600052602160045260246000fd5b611e7887611273565b6007811115611eb0577f4e487b7100000000000000000000000000000000000000000000000000000000600052602160045260246000fd5b14611ef0576040517f08c379a0000000000000000000000000000000000000000000000000000000008152600401611ee790614b75565b60405180910390fd5b6000611f4e86611f3f846000016040518060200160405290816000820160009054906101000a900467ffffffffffffffff1667ffffffffffffffff1667ffffffffffffffff1681525050611dca565b67ffffffffffffffff16611b1d565b9050611f5c87878784612d29565b8573ffffffffffffffffffffffffffffffffffffffff167fb8e138887d0aa13bab447e82de9d5c1777041ecd21ca36ba824ff1e6c07ddda488878488604051611fa89493929190614de0565b60405180910390a28092505050949350505050565b600080611fc983612fa1565b905060046007811115612005577f4e487b7100000000000000000000000000000000000000000000000000000000600052602160045260246000fd5b81600781111561203e577f4e487b7100000000000000000000000000000000000000000000000000000000600052602160045260246000fd5b1461204c578091505061212f565b60006120578461185f565b9050600081141561206c57819250505061212f565b600560009054906101000a900473ffffffffffffffffffffffffffffffffffffffff1673ffffffffffffffffffffffffffffffffffffffff1663c1a287e26040518163ffffffff1660e01b815260040160206040518083038186803b1580156120d457600080fd5b505afa1580156120e8573d6000803e3d6000fd5b505050506040513d601f19601f8201168201806040525081019061210c9190613ea8565b81612117919061508b565b42106121285760069250505061212f565b6005925050505b919050565b60006121428585858561317e565b9050949350505050565b7fc565b045403dc03c2eea82b81a0465edad9e2e7fc4d97e11421c209da93d7a936002548260405161217f929190614d80565b60405180910390a18060028190555050565b600080826000015167ffffffffffffffff16149050919050565b808260000160006101000a81548167ffffffffffffffff021916908367ffffffffffffffff1602179055505050565b7f08f74ea46ef7894f65eabfb5e6e695de773a000b47c529ab559178069b226401600560009054906101000a900473ffffffffffffffffffffffffffffffffffffffff168260405161222d92919061478d565b60405180910390a180600560006101000a81548173ffffffffffffffffffffffffffffffffffffffff021916908373ffffffffffffffffffffffffffffffffffffffff16021790555050565b600081600001519050919050565b6000600454905090565b600081116122d4576040517f08c379a00000000000000000000000000000000000000000000000000000000081526004016122cb90614ab5565b60405180910390fd5b7f7e3f7f0708a84de9203036abaa450dccc85ad5ff52f78c170f3edb55cf5e882860035482604051612307929190614d80565b60405180910390a18060038190555050565b60007f000000000000000000000000000000000000000000000000000000000000000073ffffffffffffffffffffffffffffffffffffffff16633a46b1a884846040518363ffffffff1660e01b81526004016123769291906147b6565b60206040518083038186803b15801561238e57600080fd5b505afa1580156123a2573d6000803e3d6000fd5b505050506040513d601f19601f820116820180604052508101906123c69190613ea8565b905092915050565b7fccb45da8d5717e6c4544694297c4ba5cf151d455c9bb0ed4fc7a38411bc0546160045482604051612401929190614d80565b60405180910390a18060048190555050565b600061241d6117c4565b6124256117cd565b7f000000000000000000000000000000000000000000000000000000000000000073ffffffffffffffffffffffffffffffffffffffff16638e539e8c856040518263ffffffff1660e01b815260040161247e9190614cb5565b60206040518083038186803b15801561249657600080fd5b505afa1580156124aa573d6000803e3d6000fd5b505050506040513d601f19601f820116820180604052508101906124ce9190613ea8565b6124d89190615150565b6124e2919061511f565b9050919050565b60007fbf26d897000000000000000000000000000000000000000000000000000000007bffffffffffffffffffffffffffffffffffffffffffffffffffffffff1916827bffffffffffffffffffffffffffffffffffffffffffffffffffffffff1916148061255c575061255b82613342565b5b9050919050565b600061256e8661185f565b9050600081116125b3576040517f08c379a00000000000000000000000000000000000000000000000000000000081526004016125aa90614c35565b60405180910390fd5b6125df600560009054906101000a900473ffffffffffffffffffffffffffffffffffffffff16346133ac565b60005b855181101561277557600560009054906101000a900473ffffffffffffffffffffffffffffffffffffffff1673ffffffffffffffffffffffffffffffffffffffff16630825f38f878381518110612662577f4e487b7100000000000000000000000000000000000000000000000000000000600052603260045260246000fd5b60200260200101518784815181106126a3577f4e487b7100000000000000000000000000000000000000000000000000000000600052603260045260246000fd5b60200260200101518785815181106126e4577f4e487b7100000000000000000000000000000000000000000000000000000000600052603260045260246000fd5b6020026020010151866040518563ffffffff1660e01b815260040161270c94939291906147df565b600060405180830381600087803b15801561272657600080fd5b505af115801561273a573d6000803e3d6000fd5b505050506040513d6000823e3d601f19601f820116820180604052508101906127639190613e15565b508061276e906153a1565b90506125e2565b50505050505050565b60007f000000000000000000000000000000000000000000000000000000000000000073ffffffffffffffffffffffffffffffffffffffff163073ffffffffffffffffffffffffffffffffffffffff161480156127fa57507f000000000000000000000000000000000000000000000000000000000000000046145b15612827577f00000000000000000000000000000000000000000000000000000000000000009050612895565b6128927f00000000000000000000000000000000000000000000000000000000000000007f00000000000000000000000000000000000000000000000000000000000000007f00000000000000000000000000000000000000000000000000000000000000006134a0565b90505b90565b600082826040516020016128ad929190614726565b60405160208183030381529060405280519060200120905092915050565b6000807f7fffffffffffffffffffffffffffffff5d576e7357a4501ddfe92f46681b20a08360001c11156129065760006003915091506129cf565b601b8560ff161415801561291e5750601c8560ff1614155b156129305760006004915091506129cf565b6000600187878787604051600081526020016040526040516129559493929190614958565b6020604051602081039080840390855afa158015612977573d6000803e3d6000fd5b505050602060405103519050600073ffffffffffffffffffffffffffffffffffffffff168173ffffffffffffffffffffffffffffffffffffffff1614156129c6576000600192509250506129cf565b80600092509250505b94509492505050565b60006004811115612a12577f4e487b7100000000000000000000000000000000000000000000000000000000600052602160045260246000fd5b816004811115612a4b577f4e487b7100000000000000000000000000000000000000000000000000000000600052602160045260246000fd5b1415612a5657612d26565b60016004811115612a90577f4e487b7100000000000000000000000000000000000000000000000000000000600052602160045260246000fd5b816004811115612ac9577f4e487b7100000000000000000000000000000000000000000000000000000000600052602160045260246000fd5b1415612b0a576040517f08c379a0000000000000000000000000000000000000000000000000000000008152600401612b01906149f5565b60405180910390fd5b60026004811115612b44577f4e487b7100000000000000000000000000000000000000000000000000000000600052602160045260246000fd5b816004811115612b7d577f4e487b7100000000000000000000000000000000000000000000000000000000600052602160045260246000fd5b1415612bbe576040517f08c379a0000000000000000000000000000000000000000000000000000000008152600401612bb590614a75565b60405180910390fd5b60036004811115612bf8577f4e487b7100000000000000000000000000000000000000000000000000000000600052602160045260246000fd5b816004811115612c31577f4e487b7100000000000000000000000000000000000000000000000000000000600052602160045260246000fd5b1415612c72576040517f08c379a0000000000000000000000000000000000000000000000000000000008152600401612c6990614b15565b60405180910390fd5b600480811115612cab577f4e487b7100000000000000000000000000000000000000000000000000000000600052602160045260246000fd5b816004811115612ce4577f4e487b7100000000000000000000000000000000000000000000000000000000600052602160045260246000fd5b1415612d25576040517f08c379a0000000000000000000000000000000000000000000000000000000008152600401612d1c90614bb5565b60405180910390fd5b5b50565b60006008600086815260200190815260200160002090508060030160008573ffffffffffffffffffffffffffffffffffffffff1673ffffffffffffffffffffffffffffffffffffffff16815260200190815260200160002060009054906101000a900460ff1615612dcf576040517f08c379a0000000000000000000000000000000000000000000000000000000008152600401612dc690614b35565b60405180910390fd5b60018160030160008673ffffffffffffffffffffffffffffffffffffffff1673ffffffffffffffffffffffffffffffffffffffff16815260200190815260200160002060006101000a81548160ff02191690831515021790555060006002811115612e63577f4e487b7100000000000000000000000000000000000000000000000000000000600052602160045260246000fd5b60ff168360ff161415612e905781816000016000828254612e84919061508b565b92505081905550612f9a565b60016002811115612eca577f4e487b7100000000000000000000000000000000000000000000000000000000600052602160045260246000fd5b60ff168360ff161415612ef75781816001016000828254612eeb919061508b565b92505081905550612f99565b600280811115612f30577f4e487b7100000000000000000000000000000000000000000000000000000000600052602160045260246000fd5b60ff168360ff161415612f5d5781816002016000828254612f51919061508b565b92505081905550612f98565b6040517f08c379a0000000000000000000000000000000000000000000000000000000008152600401612f8f90614c75565b60405180910390fd5b5b5b5050505050565b60008060016000848152602001908152602001600020604051806080016040529081600082016040518060200160405290816000820160009054906101000a900467ffffffffffffffff1667ffffffffffffffff1667ffffffffffffffff16815250508152602001600182016040518060200160405290816000820160009054906101000a900467ffffffffffffffff1667ffffffffffffffff1667ffffffffffffffff168152505081526020016002820160009054906101000a900460ff161515151581526020016002820160019054906101000a900460ff161515151581525050905080604001511561309a576007915050613179565b8060600151156130ae576002915050613179565b436130bc8260000151611dca565b67ffffffffffffffff16106130d5576000915050613179565b436130e38260200151611dca565b67ffffffffffffffff16106130fc576001915050613179565b61310981602001516134da565b1561313e5761311783613506565b801561312857506131278361354d565b5b613133576003613136565b60045b915050613179565b6040517f08c379a000000000000000000000000000000000000000000000000000000000815260040161317090614c55565b60405180910390fd5b919050565b60008061318d86868686613578565b9050600061319a8261185f565b905060008111156133355760005b875181101561331557600560009054906101000a900473ffffffffffffffffffffffffffffffffffffffff1673ffffffffffffffffffffffffffffffffffffffff1663591fcdfe898381518110613228577f4e487b7100000000000000000000000000000000000000000000000000000000600052603260045260246000fd5b6020026020010151898481518110613269577f4e487b7100000000000000000000000000000000000000000000000000000000600052603260045260246000fd5b60200260200101518985815181106132aa577f4e487b7100000000000000000000000000000000000000000000000000000000600052603260045260246000fd5b6020026020010151866040518563ffffffff1660e01b81526004016132d294939291906147df565b600060405180830381600087803b1580156132ec57600080fd5b505af1158015613300573d6000803e3d6000fd5b505050508061330e906153a1565b90506131a8565b50613334600660008481526020019081526020016000206000016137b5565b5b8192505050949350505050565b60007f01ffc9a7000000000000000000000000000000000000000000000000000000007bffffffffffffffffffffffffffffffffffffffffffffffffffffffff1916827bffffffffffffffffffffffffffffffffffffffffffffffffffffffff1916149050919050565b804710156133ef576040517f08c379a00000000000000000000000000000000000000000000000000000000081526004016133e690614b55565b60405180910390fd5b60008273ffffffffffffffffffffffffffffffffffffffff16826040516134159061475d565b60006040518083038185875af1925050503d8060008114613452576040519150601f19603f3d011682016040523d82523d6000602084013e613457565b606091505b505090508061349b576040517f08c379a000000000000000000000000000000000000000000000000000000000815260040161349290614af5565b60405180910390fd5b505050565b600083838346306040516020016134bb9594939291906148ce565b6040516020818303038152906040528051906020012090509392505050565b60006134e5826137e4565b80156134ff575043826000015167ffffffffffffffff1611155b9050919050565b60008060086000848152602001908152602001600020905080600201548160010154613532919061508b565b61354361353e85611171565b611bb9565b1115915050919050565b6000806008600084815260200190815260200160002090508060000154816001015411915050919050565b600080613587868686866119ce565b9050600061359482611273565b9050600260078111156135d0577f4e487b7100000000000000000000000000000000000000000000000000000000600052602160045260246000fd5b816007811115613609577f4e487b7100000000000000000000000000000000000000000000000000000000600052602160045260246000fd5b1415801561368857506006600781111561364c577f4e487b7100000000000000000000000000000000000000000000000000000000600052602160045260246000fd5b816007811115613685577f4e487b7100000000000000000000000000000000000000000000000000000000600052602160045260246000fd5b14155b801561370457506007808111156136c8577f4e487b7100000000000000000000000000000000000000000000000000000000600052602160045260246000fd5b816007811115613701577f4e487b7100000000000000000000000000000000000000000000000000000000600052602160045260246000fd5b14155b613743576040517f08c379a000000000000000000000000000000000000000000000000000000000815260040161373a90614bf5565b60405180910390fd5b600180600084815260200190815260200160002060020160016101000a81548160ff0219169083151502179055507f789cf55be980739dad1d0699b93b58e806b51c9d96619bfa8fe0a28abaa7b30c826040516137a09190614cb5565b60405180910390a18192505050949350505050565b60008160000160006101000a81548167ffffffffffffffff021916908367ffffffffffffffff16021790555050565b600080826000015167ffffffffffffffff16119050919050565b600061381161380c84614e51565b614e2c565b9050808382526020820190508285602086028201111561383057600080fd5b60005b85811015613860578161384688826139ed565b845260208401935060208301925050600181019050613833565b5050509392505050565b600061387d61387884614e7d565b614e2c565b9050808382526020820190508260005b858110156138bd57813585016138a38882613ad4565b84526020840193506020830192505060018101905061388d565b5050509392505050565b60006138da6138d584614ea9565b614e2c565b905080838252602082019050828560208602820111156138f957600080fd5b60005b85811015613929578161390f8882613bb1565b8452602084019350602083019250506001810190506138fc565b5050509392505050565b600061394661394184614ed5565b614e2c565b90508281526020810184848401111561395e57600080fd5b6139698482856152fc565b509392505050565b600061398461397f84614ed5565b614e2c565b90508281526020810184848401111561399c57600080fd5b6139a784828561530b565b509392505050565b60006139c26139bd84614f06565b614e2c565b9050828152602081018484840111156139da57600080fd5b6139e58482856152fc565b509392505050565b6000813590506139fc81615b62565b92915050565b600082601f830112613a1357600080fd5b8135613a238482602086016137fe565b91505092915050565b600082601f830112613a3d57600080fd5b8135613a4d84826020860161386a565b91505092915050565b600082601f830112613a6757600080fd5b8135613a778482602086016138c7565b91505092915050565b600081519050613a8f81615b79565b92915050565b600081359050613aa481615b90565b92915050565b600081519050613ab981615b90565b92915050565b600081359050613ace81615ba7565b92915050565b600082601f830112613ae557600080fd5b8135613af5848260208601613933565b91505092915050565b600082601f830112613b0f57600080fd5b8151613b1f848260208601613971565b91505092915050565b600081359050613b3781615bbe565b92915050565b60008083601f840112613b4f57600080fd5b8235905067ffffffffffffffff811115613b6857600080fd5b602083019150836001820283011115613b8057600080fd5b9250929050565b600082601f830112613b9857600080fd5b8135613ba88482602086016139af565b91505092915050565b600081359050613bc081615bd5565b92915050565b600081519050613bd581615bd5565b92915050565b600081359050613bea81615bec565b92915050565b60008060408385031215613c0357600080fd5b6000613c11858286016139ed565b9250506020613c2285828601613bb1565b9150509250929050565b60008060008060808587031215613c4257600080fd5b600085013567ffffffffffffffff811115613c5c57600080fd5b613c6887828801613a02565b945050602085013567ffffffffffffffff811115613c8557600080fd5b613c9187828801613a56565b935050604085013567ffffffffffffffff811115613cae57600080fd5b613cba87828801613a2c565b9250506060613ccb87828801613a95565b91505092959194509250565b60008060008060808587031215613ced57600080fd5b600085013567ffffffffffffffff811115613d0757600080fd5b613d1387828801613a02565b945050602085013567ffffffffffffffff811115613d3057600080fd5b613d3c87828801613a56565b935050604085013567ffffffffffffffff811115613d5957600080fd5b613d6587828801613a2c565b925050606085013567ffffffffffffffff811115613d8257600080fd5b613d8e87828801613b87565b91505092959194509250565b600060208284031215613dac57600080fd5b6000613dba84828501613a80565b91505092915050565b600060208284031215613dd557600080fd5b6000613de384828501613aaa565b91505092915050565b600060208284031215613dfe57600080fd5b6000613e0c84828501613abf565b91505092915050565b600060208284031215613e2757600080fd5b600082015167ffffffffffffffff811115613e4157600080fd5b613e4d84828501613afe565b91505092915050565b600060208284031215613e6857600080fd5b6000613e7684828501613b28565b91505092915050565b600060208284031215613e9157600080fd5b6000613e9f84828501613bb1565b91505092915050565b600060208284031215613eba57600080fd5b6000613ec884828501613bc6565b91505092915050565b60008060408385031215613ee457600080fd5b6000613ef285828601613bb1565b9250506020613f03858286016139ed565b9150509250929050565b60008060408385031215613f2057600080fd5b6000613f2e85828601613bb1565b9250506020613f3f85828601613bdb565b9150509250929050565b60008060008060608587031215613f5f57600080fd5b6000613f6d87828801613bb1565b9450506020613f7e87828801613bdb565b935050604085013567ffffffffffffffff811115613f9b57600080fd5b613fa787828801613b3d565b925092505092959194509250565b600080600080600060a08688031215613fcd57600080fd5b6000613fdb88828901613bb1565b9550506020613fec88828901613bdb565b9450506040613ffd88828901613bdb565b935050606061400e88828901613a95565b925050608061401f88828901613a95565b9150509295509295909350565b60006140388383614084565b60208301905092915050565b6000614050838361427d565b905092915050565b6000614064838361430d565b905092915050565b600061407883836146ea565b60208301905092915050565b61408d816151de565b82525050565b61409c816151de565b82525050565b60006140ad82614f77565b6140b78185614fed565b93506140c283614f37565b8060005b838110156140f35781516140da888261402c565b97506140e583614fb9565b9250506001810190506140c6565b5085935050505092915050565b600061410b82614f82565b6141158185614ffe565b93508360208202850161412785614f47565b8060005b8581101561416357848403895281516141448582614044565b945061414f83614fc6565b925060208a0199505060018101905061412b565b50829750879550505050505092915050565b600061418082614f8d565b61418a818561500f565b93508360208202850161419c85614f57565b8060005b858110156141d857848403895281516141b98582614058565b94506141c483614fd3565b925060208a019950506001810190506141a0565b50829750879550505050505092915050565b60006141f582614f98565b6141ff8185615020565b935061420a83614f67565b8060005b8381101561423b578151614222888261406c565b975061422d83614fe0565b92505060018101905061420e565b5085935050505092915050565b61425181615202565b82525050565b6142608161520e565b82525050565b6142776142728261520e565b6153ea565b82525050565b600061428882614fa3565b6142928185615031565b93506142a281856020860161530b565b6142ab816154df565b840191505092915050565b60006142c182614fa3565b6142cb8185615042565b93506142db81856020860161530b565b6142e4816154df565b840191505092915050565b6142f8816152b4565b82525050565b614307816152d8565b82525050565b600061431882614fae565b614322818561505e565b935061433281856020860161530b565b61433b816154df565b840191505092915050565b600061435182614fae565b61435b818561506f565b935061436b81856020860161530b565b614374816154df565b840191505092915050565b600061438c60188361506f565b9150614397826154f0565b602082019050919050565b60006143af60188361506f565b91506143ba82615519565b602082019050919050565b60006143d260438361506f565b91506143dd82615542565b606082019050919050565b60006143f560438361506f565b9150614400826155b7565b606082019050919050565b6000614418601f8361506f565b91506144238261562c565b602082019050919050565b600061443b600283615080565b915061444682615655565b600282019050919050565b600061445e60218361506f565b91506144698261567e565b604082019050919050565b600061448160278361506f565b915061448c826156cd565b604082019050919050565b60006144a460428361506f565b91506144af8261571c565b606082019050919050565b60006144c7603a8361506f565b91506144d282615791565b604082019050919050565b60006144ea60228361506f565b91506144f5826157e0565b604082019050919050565b600061450d60278361506f565b91506145188261582f565b604082019050919050565b6000614530601d8361506f565b915061453b8261587e565b602082019050919050565b600061455360238361506f565b915061455e826158a7565b604082019050919050565b600061457660188361506f565b9150614581826158f6565b602082019050919050565b600061459960228361506f565b91506145a48261591f565b604082019050919050565b60006145bc60268361506f565b91506145c78261596e565b604082019050919050565b60006145df601d8361506f565b91506145ea826159bd565b602082019050919050565b600061460260218361506f565b915061460d826159e6565b604082019050919050565b600061462560318361506f565b915061463082615a35565b604082019050919050565b6000614648601d8361506f565b915061465382615a84565b602082019050919050565b600061466b60358361506f565b915061467682615aad565b604082019050919050565b600061468e60218361506f565b915061469982615afc565b604082019050919050565b60006146b1600083615053565b91506146bc82615b4b565b600082019050919050565b60006146d460008361506f565b91506146df82615b4b565b600082019050919050565b6146f381615289565b82525050565b61470281615289565b82525050565b614711816152ea565b82525050565b614720816152a7565b82525050565b60006147318261442e565b915061473d8285614266565b60208201915061474d8284614266565b6020820191508190509392505050565b6000614768826146a4565b9150819050919050565b60006020820190506147876000830184614093565b92915050565b60006040820190506147a26000830185614093565b6147af6020830184614093565b9392505050565b60006040820190506147cb6000830185614093565b6147d860208301846146f9565b9392505050565b600060a0820190506147f46000830187614093565b61480160208301866146f9565b8181036040830152614812816146c7565b9050818103606083015261482681856142b6565b905061483560808301846146f9565b95945050505050565b6000608082019050818103600083015261485881876140a2565b9050818103602083015261486c81866141ea565b905081810360408301526148808185614100565b905061488f6060830184614257565b95945050505050565b60006020820190506148ad6000830184614248565b92915050565b60006020820190506148c86000830184614257565b92915050565b600060a0820190506148e36000830188614257565b6148f06020830187614257565b6148fd6040830186614257565b61490a60608301856146f9565b6149176080830184614093565b9695505050505050565b60006060820190506149366000830186614257565b61494360208301856146f9565b6149506040830184614717565b949350505050565b600060808201905061496d6000830187614257565b61497a6020830186614717565b6149876040830185614257565b6149946060830184614257565b95945050505050565b60006020820190506149b260008301846142ef565b92915050565b60006020820190506149cd60008301846142fe565b92915050565b600060208201905081810360008301526149ed8184614346565b905092915050565b60006020820190508181036000830152614a0e8161437f565b9050919050565b60006020820190508181036000830152614a2e816143a2565b9050919050565b60006020820190508181036000830152614a4e816143c5565b9050919050565b60006020820190508181036000830152614a6e816143e8565b9050919050565b60006020820190508181036000830152614a8e8161440b565b9050919050565b60006020820190508181036000830152614aae81614451565b9050919050565b60006020820190508181036000830152614ace81614474565b9050919050565b60006020820190508181036000830152614aee81614497565b9050919050565b60006020820190508181036000830152614b0e816144ba565b9050919050565b60006020820190508181036000830152614b2e816144dd565b9050919050565b60006020820190508181036000830152614b4e81614500565b9050919050565b60006020820190508181036000830152614b6e81614523565b9050919050565b60006020820190508181036000830152614b8e81614546565b9050919050565b60006020820190508181036000830152614bae81614569565b9050919050565b60006020820190508181036000830152614bce8161458c565b9050919050565b60006020820190508181036000830152614bee816145af565b9050919050565b60006020820190508181036000830152614c0e816145d2565b9050919050565b60006020820190508181036000830152614c2e816145f5565b9050919050565b60006020820190508181036000830152614c4e81614618565b9050919050565b60006020820190508181036000830152614c6e8161463b565b9050919050565b60006020820190508181036000830152614c8e8161465e565b9050919050565b60006020820190508181036000830152614cae81614681565b9050919050565b6000602082019050614cca60008301846146f9565b92915050565b600061012082019050614ce6600083018c6146f9565b614cf3602083018b614093565b8181036040830152614d05818a6140a2565b90508181036060830152614d1981896141ea565b90508181036080830152614d2d8188614175565b905081810360a0830152614d418187614100565b9050614d5060c0830186614708565b614d5d60e0830185614708565b818103610100830152614d708184614346565b90509a9950505050505050505050565b6000604082019050614d9560008301856146f9565b614da260208301846146f9565b9392505050565b6000606082019050614dbe60008301866146f9565b614dcb60208301856146f9565b614dd860408301846146f9565b949350505050565b6000608082019050614df560008301876146f9565b614e026020830186614717565b614e0f60408301856146f9565b8181036060830152614e218184614346565b905095945050505050565b6000614e36614e47565b9050614e428282615370565b919050565b6000604051905090565b600067ffffffffffffffff821115614e6c57614e6b6154b0565b5b602082029050602081019050919050565b600067ffffffffffffffff821115614e9857614e976154b0565b5b602082029050602081019050919050565b600067ffffffffffffffff821115614ec457614ec36154b0565b5b602082029050602081019050919050565b600067ffffffffffffffff821115614ef057614eef6154b0565b5b614ef9826154df565b9050602081019050919050565b600067ffffffffffffffff821115614f2157614f206154b0565b5b614f2a826154df565b9050602081019050919050565b6000819050602082019050919050565b6000819050602082019050919050565b6000819050602082019050919050565b6000819050602082019050919050565b600081519050919050565b600081519050919050565b600081519050919050565b600081519050919050565b600081519050919050565b600081519050919050565b6000602082019050919050565b6000602082019050919050565b6000602082019050919050565b6000602082019050919050565b600082825260208201905092915050565b600082825260208201905092915050565b600082825260208201905092915050565b600082825260208201905092915050565b600082825260208201905092915050565b600082825260208201905092915050565b600081905092915050565b600082825260208201905092915050565b600082825260208201905092915050565b600081905092915050565b600061509682615289565b91506150a183615289565b9250827fffffffffffffffffffffffffffffffffffffffffffffffffffffffffffffffff038211156150d6576150d56153f4565b5b828201905092915050565b60006150ec82615293565b91506150f783615293565b92508267ffffffffffffffff03821115615114576151136153f4565b5b828201905092915050565b600061512a82615289565b915061513583615289565b92508261514557615144615423565b5b828204905092915050565b600061515b82615289565b915061516683615289565b9250817fffffffffffffffffffffffffffffffffffffffffffffffffffffffffffffffff048311821515161561519f5761519e6153f4565b5b828202905092915050565b60006151b582615289565b91506151c083615289565b9250828210156151d3576151d26153f4565b5b828203905092915050565b60006151e982615269565b9050919050565b60006151fb82615269565b9050919050565b60008115159050919050565b6000819050919050565b60007fffffffff0000000000000000000000000000000000000000000000000000000082169050919050565b600061524f826151f0565b9050919050565b600081905061526482615b4e565b919050565b600073ffffffffffffffffffffffffffffffffffffffff82169050919050565b6000819050919050565b600067ffffffffffffffff82169050919050565b600060ff82169050919050565b60006152bf826152c6565b9050919050565b60006152d182615269565b9050919050565b60006152e382615256565b9050919050565b60006152f582615293565b9050919050565b82818337600083830152505050565b60005b8381101561532957808201518184015260208101905061530e565b83811115615338576000848401525b50505050565b6000600282049050600182168061535657607f821691505b6020821081141561536a57615369615481565b5b50919050565b615379826154df565b810181811067ffffffffffffffff82111715615398576153976154b0565b5b80604052505050565b60006153ac82615289565b91507fffffffffffffffffffffffffffffffffffffffffffffffffffffffffffffffff8214156153df576153de6153f4565b5b600182019050919050565b6000819050919050565b7f4e487b7100000000000000000000000000000000000000000000000000000000600052601160045260246000fd5b7f4e487b7100000000000000000000000000000000000000000000000000000000600052601260045260246000fd5b7f4e487b7100000000000000000000000000000000000000000000000000000000600052602160045260246000fd5b7f4e487b7100000000000000000000000000000000000000000000000000000000600052602260045260246000fd5b7f4e487b7100000000000000000000000000000000000000000000000000000000600052604160045260246000fd5b6000601f19601f8301169050919050565b7f45434453413a20696e76616c6964207369676e61747572650000000000000000600082015250565b7f476f7665726e6f723a206f6e6c79476f7665726e616e63650000000000000000600082015250565b7f476f7665726e6f72566f74657351756f72756d4672616374696f6e3a2071756f60008201527f72756d4e756d657261746f72206f7665722071756f72756d44656e6f6d696e6160208201527f746f720000000000000000000000000000000000000000000000000000000000604082015250565b7f476f7665726e6f72436f6d7061746962696c697479427261766f3a2070726f7060008201527f6f73657220766f7465732062656c6f772070726f706f73616c2074687265736860208201527f6f6c640000000000000000000000000000000000000000000000000000000000604082015250565b7f45434453413a20696e76616c6964207369676e6174757265206c656e67746800600082015250565b7f1901000000000000000000000000000000000000000000000000000000000000600082015250565b7f476f7665726e6f723a20696e76616c69642070726f706f73616c206c656e677460008201527f6800000000000000000000000000000000000000000000000000000000000000602082015250565b7f476f7665726e6f7253657474696e67733a20766f74696e6720706572696f642060008201527f746f6f206c6f7700000000000000000000000000000000000000000000000000602082015250565b7f476f7665726e6f7254696d656c6f636b436f6d706f756e643a206964656e746960008201527f63616c2070726f706f73616c20616374696f6e20616c7265616479207175657560208201527f6564000000000000000000000000000000000000000000000000000000000000604082015250565b7f416464726573733a20756e61626c6520746f2073656e642076616c75652c207260008201527f6563697069656e74206d61792068617665207265766572746564000000000000602082015250565b7f45434453413a20696e76616c6964207369676e6174757265202773272076616c60008201527f7565000000000000000000000000000000000000000000000000000000000000602082015250565b7f476f7665726e6f72566f74696e6753696d706c653a20766f746520616c72656160008201527f6479206361737400000000000000000000000000000000000000000000000000602082015250565b7f416464726573733a20696e73756666696369656e742062616c616e6365000000600082015250565b7f476f7665726e6f723a20766f7465206e6f742063757272656e746c792061637460008201527f6976650000000000000000000000000000000000000000000000000000000000602082015250565b7f476f7665726e6f723a20656d7074792070726f706f73616c0000000000000000600082015250565b7f45434453413a20696e76616c6964207369676e6174757265202776272076616c60008201527f7565000000000000000000000000000000000000000000000000000000000000602082015250565b7f53616665436173743a2076616c756520646f65736e27742066697420696e203660008201527f3420626974730000000000000000000000000000000000000000000000000000602082015250565b7f476f7665726e6f723a2070726f706f73616c206e6f7420616374697665000000600082015250565b7f476f7665726e6f723a2070726f706f73616c206e6f742073756363657373667560008201527f6c00000000000000000000000000000000000000000000000000000000000000602082015250565b7f476f7665726e6f7254696d656c6f636b436f6d706f756e643a2070726f706f7360008201527f616c206e6f742079657420717565756564000000000000000000000000000000602082015250565b7f476f7665726e6f723a20756e6b6e6f776e2070726f706f73616c206964000000600082015250565b7f476f7665726e6f72566f74696e6753696d706c653a20696e76616c696420766160008201527f6c756520666f7220656e756d20566f7465547970650000000000000000000000602082015250565b7f476f7665726e6f723a2070726f706f73616c20616c726561647920657869737460008201527f7300000000000000000000000000000000000000000000000000000000000000602082015250565b50565b60088110615b5f57615b5e615452565b5b50565b615b6b816151de565b8114615b7657600080fd5b50565b615b8281615202565b8114615b8d57600080fd5b50565b615b998161520e565b8114615ba457600080fd5b50565b615bb081615218565b8114615bbb57600080fd5b50565b615bc781615244565b8114615bd257600080fd5b50565b615bde81615289565b8114615be957600080fd5b50565b615bf5816152a7565b8114615c0057600080fd5b5056fea2646970667358221220d840ea890f84fe77dae43424ec9782a3806d91c86a14b46b6551e06dc2ff96c664736f6c63430008030033",
  "linkReferences": {},
  "deployedLinkReferences": {}
}