{
  "_format": "hh-sol-artifact-1",
  "contractName": "EtherReceiverMock",
  "sourceName": "contracts/mocks/EtherReceiverMock.sol",
  "abi": [
    {
      "inputs": [
        {
          "internalType": "bool",
          "name": "acceptEther",
          "type": "bool"
        }
      ],
      "name": "setAcceptEther",
      "outputs": [],
      "stateMutability": "nonpayable",
      "type": "function"
    },
    {
      "stateMutability": "payable",
      "type": "receive"
    }
  ],
  "bytecode": "0x608060405234801561001057600080fd5b5061010f806100206000396000f3fe608060405260043610601f5760003560e01c80634fea120c14604057603b565b36603b5760008054906101000a900460ff16603957600080fd5b005b600080fd5b348015604b57600080fd5b5060626004803603810190605e91906093565b6064565b005b806000806101000a81548160ff02191690831515021790555050565b600081359050608d8160c5565b92915050565b60006020828403121560a457600080fd5b600060b0848285016080565b91505092915050565b60008115159050919050565b60cc8160b9565b811460d657600080fd5b5056fea264697066735822122030952c54456c7be6398867a5514971f1ff8bce785add6edb5d6e3fcd93d0f14064736f6c63430008030033",
  "linkReferences": {},
  "deployedLinkReferences": {}
}