{
  "_format": "hh-sol-artifact-1",
  "contractName": "MyGovernor2",
  "sourceName": "contracts/mocks/wizard/MyGovernor2.sol",
  "abi": [
    {
      "inputs": [
        {
          "internalType": "contract ERC20Votes",
          "name": "_token",
          "type": "address"
        },
        {
          "internalType": "contract TimelockController",
          "name": "_timelock",
          "type": "address"
        }
      ],
      "stateMutability": "nonpayable",
      "type": "constructor"
    },
    {
      "anonymous": false,
      "inputs": [
        {
          "indexed": false,
          "internalType": "uint256",
          "name": "proposalId",
          "type": "uint256"
        }
      ],
      "name": "ProposalCanceled",
      "type": "event"
    },
    {
      "anonymous": false,
      "inputs": [
        {
          "indexed": false,
          "internalType": "uint256",
          "name": "proposalId",
          "type": "uint256"
        },
        {
          "indexed": false,
          "internalType": "address",
          "name": "proposer",
          "type": "address"
        },
        {
          "indexed": false,
          "internalType": "address[]",
          "name": "targets",
          "type": "address[]"
        },
        {
          "indexed": false,
          "internalType": "uint256[]",
          "name": "values",
          "type": "uint256[]"
        },
        {
          "indexed": false,
          "internalType": "string[]",
          "name": "signatures",
          "type": "string[]"
        },
        {
          "indexed": false,
          "internalType": "bytes[]",
          "name": "calldatas",
          "type": "bytes[]"
        },
        {
          "indexed": false,
          "internalType": "uint256",
          "name": "startBlock",
          "type": "uint256"
        },
        {
          "indexed": false,
          "internalType": "uint256",
          "name": "endBlock",
          "type": "uint256"
        },
        {
          "indexed": false,
          "internalType": "string",
          "name": "description",
          "type": "string"
        }
      ],
      "name": "ProposalCreated",
      "type": "event"
    },
    {
      "anonymous": false,
      "inputs": [
        {
          "indexed": false,
          "internalType": "uint256",
          "name": "proposalId",
          "type": "uint256"
        }
      ],
      "name": "ProposalExecuted",
      "type": "event"
    },
    {
      "anonymous": false,
      "inputs": [
        {
          "indexed": false,
          "internalType": "uint256",
          "name": "proposalId",
          "type": "uint256"
        },
        {
          "indexed": false,
          "internalType": "uint256",
          "name": "eta",
          "type": "uint256"
        }
      ],
      "name": "ProposalQueued",
      "type": "event"
    },
    {
      "anonymous": false,
      "inputs": [
        {
          "indexed": false,
          "internalType": "uint256",
          "name": "oldQuorumNumerator",
          "type": "uint256"
        },
        {
          "indexed": false,
          "internalType": "uint256",
          "name": "newQuorumNumerator",
          "type": "uint256"
        }
      ],
      "name": "QuorumNumeratorUpdated",
      "type": "event"
    },
    {
      "anonymous": false,
      "inputs": [
        {
          "indexed": false,
          "internalType": "address",
          "name": "oldTimelock",
          "type": "address"
        },
        {
          "indexed": false,
          "internalType": "address",
          "name": "newTimelock",
          "type": "address"
        }
      ],
      "name": "TimelockChange",
      "type": "event"
    },
    {
      "anonymous": false,
      "inputs": [
        {
          "indexed": true,
          "internalType": "address",
          "name": "voter",
          "type": "address"
        },
        {
          "indexed": false,
          "internalType": "uint256",
          "name": "proposalId",
          "type": "uint256"
        },
        {
          "indexed": false,
          "internalType": "uint8",
          "name": "support",
          "type": "uint8"
        },
        {
          "indexed": false,
          "internalType": "uint256",
          "name": "weight",
          "type": "uint256"
        },
        {
          "indexed": false,
          "internalType": "string",
          "name": "reason",
          "type": "string"
        }
      ],
      "name": "VoteCast",
      "type": "event"
    },
    {
      "inputs": [],
      "name": "BALLOT_TYPEHASH",
      "outputs": [
        {
          "internalType": "bytes32",
          "name": "",
          "type": "bytes32"
        }
      ],
      "stateMutability": "view",
      "type": "function"
    },
    {
      "inputs": [],
      "name": "COUNTING_MODE",
      "outputs": [
        {
          "internalType": "string",
          "name": "",
          "type": "string"
        }
      ],
      "stateMutability": "pure",
      "type": "function"
    },
    {
      "inputs": [
        {
          "internalType": "uint256",
          "name": "proposalId",
          "type": "uint256"
        },
        {
          "internalType": "uint8",
          "name": "support",
          "type": "uint8"
        }
      ],
      "name": "castVote",
      "outputs": [
        {
          "internalType": "uint256",
          "name": "",
          "type": "uint256"
        }
      ],
      "stateMutability": "nonpayable",
      "type": "function"
    },
    {
      "inputs": [
        {
          "internalType": "uint256",
          "name": "proposalId",
          "type": "uint256"
        },
        {
          "internalType": "uint8",
          "name": "support",
          "type": "uint8"
        },
        {
          "internalType": "uint8",
          "name": "v",
          "type": "uint8"
        },
        {
          "internalType": "bytes32",
          "name": "r",
          "type": "bytes32"
        },
        {
          "internalType": "bytes32",
          "name": "s",
          "type": "bytes32"
        }
      ],
      "name": "castVoteBySig",
      "outputs": [
        {
          "internalType": "uint256",
          "name": "",
          "type": "uint256"
        }
      ],
      "stateMutability": "nonpayable",
      "type": "function"
    },
    {
      "inputs": [
        {
          "internalType": "uint256",
          "name": "proposalId",
          "type": "uint256"
        },
        {
          "internalType": "uint8",
          "name": "support",
          "type": "uint8"
        },
        {
          "internalType": "string",
          "name": "reason",
          "type": "string"
        }
      ],
      "name": "castVoteWithReason",
      "outputs": [
        {
          "internalType": "uint256",
          "name": "",
          "type": "uint256"
        }
      ],
      "stateMutability": "nonpayable",
      "type": "function"
    },
    {
      "inputs": [
        {
          "internalType": "address[]",
          "name": "targets",
          "type": "address[]"
        },
        {
          "internalType": "uint256[]",
          "name": "values",
          "type": "uint256[]"
        },
        {
          "internalType": "bytes[]",
          "name": "calldatas",
          "type": "bytes[]"
        },
        {
          "internalType": "bytes32",
          "name": "descriptionHash",
          "type": "bytes32"
        }
      ],
      "name": "execute",
      "outputs": [
        {
          "internalType": "uint256",
          "name": "",
          "type": "uint256"
        }
      ],
      "stateMutability": "payable",
      "type": "function"
    },
    {
      "inputs": [
        {
          "internalType": "address",
          "name": "account",
          "type": "address"
        },
        {
          "internalType": "uint256",
          "name": "blockNumber",
          "type": "uint256"
        }
      ],
      "name": "getVotes",
      "outputs": [
        {
          "internalType": "uint256",
          "name": "",
          "type": "uint256"
        }
      ],
      "stateMutability": "view",
      "type": "function"
    },
    {
      "inputs": [
        {
          "internalType": "uint256",
          "name": "proposalId",
          "type": "uint256"
        },
        {
          "internalType": "address",
          "name": "account",
          "type": "address"
        }
      ],
      "name": "hasVoted",
      "outputs": [
        {
          "internalType": "bool",
          "name": "",
          "type": "bool"
        }
      ],
      "stateMutability": "view",
      "type": "function"
    },
    {
      "inputs": [
        {
          "internalType": "address[]",
          "name": "targets",
          "type": "address[]"
        },
        {
          "internalType": "uint256[]",
          "name": "values",
          "type": "uint256[]"
        },
        {
          "internalType": "bytes[]",
          "name": "calldatas",
          "type": "bytes[]"
        },
        {
          "internalType": "bytes32",
          "name": "descriptionHash",
          "type": "bytes32"
        }
      ],
      "name": "hashProposal",
      "outputs": [
        {
          "internalType": "uint256",
          "name": "",
          "type": "uint256"
        }
      ],
      "stateMutability": "pure",
      "type": "function"
    },
    {
      "inputs": [],
      "name": "name",
      "outputs": [
        {
          "internalType": "string",
          "name": "",
          "type": "string"
        }
      ],
      "stateMutability": "view",
      "type": "function"
    },
    {
      "inputs": [
        {
          "internalType": "uint256",
          "name": "proposalId",
          "type": "uint256"
        }
      ],
      "name": "proposalDeadline",
      "outputs": [
        {
          "internalType": "uint256",
          "name": "",
          "type": "uint256"
        }
      ],
      "stateMutability": "view",
      "type": "function"
    },
    {
      "inputs": [
        {
          "internalType": "uint256",
          "name": "proposalId",
          "type": "uint256"
        }
      ],
      "name": "proposalEta",
      "outputs": [
        {
          "internalType": "uint256",
          "name": "",
          "type": "uint256"
        }
      ],
      "stateMutability": "view",
      "type": "function"
    },
    {
      "inputs": [
        {
          "internalType": "uint256",
          "name": "proposalId",
          "type": "uint256"
        }
      ],
      "name": "proposalSnapshot",
      "outputs": [
        {
          "internalType": "uint256",
          "name": "",
          "type": "uint256"
        }
      ],
      "stateMutability": "view",
      "type": "function"
    },
    {
      "inputs": [],
      "name": "proposalThreshold",
      "outputs": [
        {
          "internalType": "uint256",
          "name": "",
          "type": "uint256"
        }
      ],
      "stateMutability": "pure",
      "type": "function"
    },
    {
      "inputs": [
        {
          "internalType": "uint256",
          "name": "proposalId",
          "type": "uint256"
        }
      ],
      "name": "proposalVotes",
      "outputs": [
        {
          "internalType": "uint256",
          "name": "againstVotes",
          "type": "uint256"
        },
        {
          "internalType": "uint256",
          "name": "forVotes",
          "type": "uint256"
        },
        {
          "internalType": "uint256",
          "name": "abstainVotes",
          "type": "uint256"
        }
      ],
      "stateMutability": "view",
      "type": "function"
    },
    {
      "inputs": [
        {
          "internalType": "address[]",
          "name": "targets",
          "type": "address[]"
        },
        {
          "internalType": "uint256[]",
          "name": "values",
          "type": "uint256[]"
        },
        {
          "internalType": "bytes[]",
          "name": "calldatas",
          "type": "bytes[]"
        },
        {
          "internalType": "string",
          "name": "description",
          "type": "string"
        }
      ],
      "name": "propose",
      "outputs": [
        {
          "internalType": "uint256",
          "name": "",
          "type": "uint256"
        }
      ],
      "stateMutability": "nonpayable",
      "type": "function"
    },
    {
      "inputs": [
        {
          "internalType": "address[]",
          "name": "targets",
          "type": "address[]"
        },
        {
          "internalType": "uint256[]",
          "name": "values",
          "type": "uint256[]"
        },
        {
          "internalType": "bytes[]",
          "name": "calldatas",
          "type": "bytes[]"
        },
        {
          "internalType": "bytes32",
          "name": "descriptionHash",
          "type": "bytes32"
        }
      ],
      "name": "queue",
      "outputs": [
        {
          "internalType": "uint256",
          "name": "",
          "type": "uint256"
        }
      ],
      "stateMutability": "nonpayable",
      "type": "function"
    },
    {
      "inputs": [
        {
          "internalType": "uint256",
          "name": "blockNumber",
          "type": "uint256"
        }
      ],
      "name": "quorum",
      "outputs": [
        {
          "internalType": "uint256",
          "name": "",
          "type": "uint256"
        }
      ],
      "stateMutability": "view",
      "type": "function"
    },
    {
      "inputs": [],
      "name": "quorumDenominator",
      "outputs": [
        {
          "internalType": "uint256",
          "name": "",
          "type": "uint256"
        }
      ],
      "stateMutability": "view",
      "type": "function"
    },
    {
      "inputs": [],
      "name": "quorumNumerator",
      "outputs": [
        {
          "internalType": "uint256",
          "name": "",
          "type": "uint256"
        }
      ],
      "stateMutability": "view",
      "type": "function"
    },
    {
      "inputs": [
        {
          "internalType": "uint256",
          "name": "proposalId",
          "type": "uint256"
        }
      ],
      "name": "state",
      "outputs": [
        {
          "internalType": "enum IGovernor.ProposalState",
          "name": "",
          "type": "uint8"
        }
      ],
      "stateMutability": "view",
      "type": "function"
    },
    {
      "inputs": [
        {
          "internalType": "bytes4",
          "name": "interfaceId",
          "type": "bytes4"
        }
      ],
      "name": "supportsInterface",
      "outputs": [
        {
          "internalType": "bool",
          "name": "",
          "type": "bool"
        }
      ],
      "stateMutability": "view",
      "type": "function"
    },
    {
      "inputs": [],
      "name": "timelock",
      "outputs": [
        {
          "internalType": "address",
          "name": "",
          "type": "address"
        }
      ],
      "stateMutability": "view",
      "type": "function"
    },
    {
      "inputs": [],
      "name": "token",
      "outputs": [
        {
          "internalType": "contract ERC20Votes",
          "name": "",
          "type": "address"
        }
      ],
      "stateMutability": "view",
      "type": "function"
    },
    {
      "inputs": [
        {
          "internalType": "uint256",
          "name": "newQuorumNumerator",
          "type": "uint256"
        }
      ],
      "name": "updateQuorumNumerator",
      "outputs": [],
      "stateMutability": "nonpayable",
      "type": "function"
    },
    {
      "inputs": [
        {
          "internalType": "contract TimelockController",
          "name": "newTimelock",
          "type": "address"
        }
      ],
      "name": "updateTimelock",
      "outputs": [],
      "stateMutability": "nonpayable",
      "type": "function"
    },
    {
      "inputs": [],
      "name": "version",
      "outputs": [
        {
          "internalType": "string",
          "name": "",
          "type": "string"
        }
      ],
      "stateMutability": "view",
      "type": "function"
    },
    {
      "inputs": [],
      "name": "votingDelay",
      "outputs": [
        {
          "internalType": "uint256",
          "name": "",
          "type": "uint256"
        }
      ],
      "stateMutability": "pure",
      "type": "function"
    },
    {
      "inputs": [],
      "name": "votingPeriod",
      "outputs": [
        {
          "internalType": "uint256",
          "name": "",
          "type": "uint256"
        }
      ],
      "stateMutability": "pure",
      "type": "function"
    },
    {
      "stateMutability": "payable",
      "type": "receive"
    }
  ],
  "bytecode": "0x6101606040523480156200001257600080fd5b50604051620053163803806200531683398181016040528101906200003891906200045a565b600482826040518060400160405280600a81526020017f4d79476f7665726e6f72000000000000000000000000000000000000000000008152508062000083620001b760201b60201c565b60008280519060200120905060008280519060200120905060007f8b73c3c69bb8fe3d512ecc4cf759cc79239f7b179b0ffacaa9a75d522b39400f90508260e081815250508161010081815250504660a08181525050620000ec818484620001f460201b60201c565b608081815250503073ffffffffffffffffffffffffffffffffffffffff1660c08173ffffffffffffffffffffffffffffffffffffffff1660601b8152505080610120818152505050505050508060009080519060200190620001509291906200037c565b505062000163816200023060201b60201c565b508073ffffffffffffffffffffffffffffffffffffffff166101408173ffffffffffffffffffffffffffffffffffffffff1660601b8152505050620001ae81620002d160201b60201c565b50505062000771565b60606040518060400160405280600181526020017f3100000000000000000000000000000000000000000000000000000000000000815250905090565b600083838346306040516020016200021195949392919062000522565b6040516020818303038152906040528051906020012090509392505050565b7f08f74ea46ef7894f65eabfb5e6e695de773a000b47c529ab559178069b226401600260009054906101000a900473ffffffffffffffffffffffffffffffffffffffff168260405162000285929190620004f5565b60405180910390a180600260006101000a81548173ffffffffffffffffffffffffffffffffffffffff021916908373ffffffffffffffffffffffffffffffffffffffff16021790555050565b620002e16200037360201b60201c565b81111562000326576040517f08c379a00000000000000000000000000000000000000000000000000000000081526004016200031d906200057f565b60405180910390fd5b60006004549050816004819055507f0553476bf02ef2726e8ce5ced78d63e26e602e4a2257b1f559418e24b4633997818360405162000367929190620005a1565b60405180910390a15050565b60006064905090565b8280546200038a9062000663565b90600052602060002090601f016020900481019282620003ae5760008555620003fa565b82601f10620003c957805160ff1916838001178555620003fa565b82800160010185558215620003fa579182015b82811115620003f9578251825591602001919060010190620003dc565b5b5090506200040991906200040d565b5090565b5b80821115620004285760008160009055506001016200040e565b5090565b6000815190506200043d816200073d565b92915050565b600081519050620004548162000757565b92915050565b600080604083850312156200046e57600080fd5b60006200047e858286016200042c565b9250506020620004918582860162000443565b9150509250929050565b620004a681620005df565b82525050565b620004b78162000607565b82525050565b6000620004cc604383620005ce565b9150620004d982620006c8565b606082019050919050565b620004ef8162000659565b82525050565b60006040820190506200050c60008301856200049b565b6200051b60208301846200049b565b9392505050565b600060a082019050620005396000830188620004ac565b620005486020830187620004ac565b620005576040830186620004ac565b620005666060830185620004e4565b6200057560808301846200049b565b9695505050505050565b600060208201905081810360008301526200059a81620004bd565b9050919050565b6000604082019050620005b86000830185620004e4565b620005c76020830184620004e4565b9392505050565b600082825260208201905092915050565b6000620005ec8262000639565b9050919050565b6000620006008262000639565b9050919050565b6000819050919050565b60006200061e82620005df565b9050919050565b60006200063282620005f3565b9050919050565b600073ffffffffffffffffffffffffffffffffffffffff82169050919050565b6000819050919050565b600060028204905060018216806200067c57607f821691505b6020821081141562000693576200069262000699565b5b50919050565b7f4e487b7100000000000000000000000000000000000000000000000000000000600052602260045260246000fd5b7f476f7665726e6f72566f74657351756f72756d4672616374696f6e3a2071756f60008201527f72756d4e756d657261746f72206f7665722071756f72756d44656e6f6d696e6160208201527f746f720000000000000000000000000000000000000000000000000000000000604082015250565b620007488162000611565b81146200075457600080fd5b50565b620007628162000625565b81146200076e57600080fd5b50565b60805160a05160c05160601c60e05161010051610120516101405160601c614b36620007e0600039600081816113be015281816119660152611a2b01526000611cb301526000611cf501526000611cd401526000611c0901526000611c5f01526000611c880152614b366000f3fe6080604052600436106101c65760003560e01c80637b3c71d3116100f7578063c01f9e3711610095578063deaaa7cc11610064578063deaaa7cc14610731578063eb9019d41461075c578063f8ce560a14610799578063fc0c546a146107d65761020c565b8063c01f9e3714610661578063c59057e41461069e578063d33219b4146106db578063dd4e2ba5146107065761020c565b8063a7713a70116100d1578063a7713a70146105a5578063a890c910146105d0578063ab58fb8e146105f9578063b58131b0146106365761020c565b80637b3c71d3146105005780637d5e81e21461053d57806397c3d3341461057a5761020c565b80633932abb111610164578063438596321161013e578063438596321461041c578063544ffc9c1461045957806354fd4d501461049857806356781388146104c35761020c565b80633932abb1146103775780633bccf4fd146103a25780633e4f49e6146103df5761020c565b806306fdde03116101a057806306fdde03146102a2578063160cbed7146102cd5780632656227d1461030a5780632d63f6931461033a5761020c565b806301ffc9a71461021157806302a251a31461024e57806306f3f9e6146102795761020c565b3661020c573073ffffffffffffffffffffffffffffffffffffffff166101ea610801565b73ffffffffffffffffffffffffffffffffffffffff161461020a57600080fd5b005b600080fd5b34801561021d57600080fd5b50610238600480360381019061023391906130ad565b610810565b6040516102459190613a40565b60405180910390f35b34801561025a57600080fd5b50610263610822565b6040516102709190613d9d565b60405180910390f35b34801561028557600080fd5b506102a0600480360381019061029b91906130ff565b61082c565b005b3480156102ae57600080fd5b506102b76108b4565b6040516102c49190613b7b565b60405180910390f35b3480156102d957600080fd5b506102f460048036038101906102ef9190612eed565b610946565b6040516103019190613d9d565b60405180910390f35b610324600480360381019061031f9190612eed565b610c6a565b6040516103319190613d9d565b60405180910390f35b34801561034657600080fd5b50610361600480360381019061035c91906130ff565b610e35565b60405161036e9190613d9d565b60405180910390f35b34801561038357600080fd5b5061038c610ea3565b6040516103999190613d9d565b60405180910390f35b3480156103ae57600080fd5b506103c960048036038101906103c49190613235565b610eac565b6040516103d69190613d9d565b60405180910390f35b3480156103eb57600080fd5b50610406600480360381019061040191906130ff565b610f36565b6040516104139190613b60565b60405180910390f35b34801561042857600080fd5b50610443600480360381019061043e9190613151565b610f48565b6040516104509190613a40565b60405180910390f35b34801561046557600080fd5b50610480600480360381019061047b91906130ff565b610fb3565b60405161048f93929190613e91565b60405180910390f35b3480156104a457600080fd5b506104ad610feb565b6040516104ba9190613b7b565b60405180910390f35b3480156104cf57600080fd5b506104ea60048036038101906104e5919061318d565b611028565b6040516104f79190613d9d565b60405180910390f35b34801561050c57600080fd5b50610527600480360381019061052291906131c9565b611059565b6040516105349190613d9d565b60405180910390f35b34801561054957600080fd5b50610564600480360381019061055f9190612f98565b6110c1565b6040516105719190613d9d565b60405180910390f35b34801561058657600080fd5b5061058f6110d9565b60405161059c9190613d9d565b60405180910390f35b3480156105b157600080fd5b506105ba6110e2565b6040516105c79190613d9d565b60405180910390f35b3480156105dc57600080fd5b506105f760048036038101906105f291906130d6565b6110ec565b005b34801561060557600080fd5b50610620600480360381019061061b91906130ff565b611174565b60405161062d9190613d9d565b60405180910390f35b34801561064257600080fd5b5061064b611250565b6040516106589190613d9d565b60405180910390f35b34801561066d57600080fd5b50610688600480360381019061068391906130ff565b611261565b6040516106959190613d9d565b60405180910390f35b3480156106aa57600080fd5b506106c560048036038101906106c09190612eed565b6112cf565b6040516106d29190613d9d565b60405180910390f35b3480156106e757600080fd5b506106f061130b565b6040516106fd919061389b565b60405180910390f35b34801561071257600080fd5b5061071b611335565b6040516107289190613b7b565b60405180910390f35b34801561073d57600080fd5b50610746611372565b6040516107539190613a5b565b60405180910390f35b34801561076857600080fd5b50610783600480360381019061077e9190612eb1565b611396565b6040516107909190613d9d565b60405180910390f35b3480156107a557600080fd5b506107c060048036038101906107bb91906130ff565b6113aa565b6040516107cd9190613d9d565b60405180910390f35b3480156107e257600080fd5b506107eb6113bc565b6040516107f89190613b45565b60405180910390f35b600061080b6113e0565b905090565b600061081b8261140a565b9050919050565b600061b2fa905090565b610834610801565b73ffffffffffffffffffffffffffffffffffffffff16610852611484565b73ffffffffffffffffffffffffffffffffffffffff16146108a8576040517f08c379a000000000000000000000000000000000000000000000000000000000815260040161089f90613bbd565b60405180910390fd5b6108b18161148c565b50565b6060600080546108c39061442e565b80601f01602080910402602001604051908101604052809291908181526020018280546108ef9061442e565b801561093c5780601f106109115761010080835404028352916020019161093c565b820191906000526020600020905b81548152906001019060200180831161091f57829003601f168201915b5050505050905090565b600080610955868686866112cf565b905060046007811115610991577f4e487b7100000000000000000000000000000000000000000000000000000000600052602160045260246000fd5b61099a82610f36565b60078111156109d2577f4e487b7100000000000000000000000000000000000000000000000000000000600052602160045260246000fd5b14610a12576040517f08c379a0000000000000000000000000000000000000000000000000000000008152600401610a0990613d1d565b60405180910390fd5b6000600260009054906101000a900473ffffffffffffffffffffffffffffffffffffffff1673ffffffffffffffffffffffffffffffffffffffff1663f27a0c926040518163ffffffff1660e01b815260040160206040518083038186803b158015610a7c57600080fd5b505afa158015610a90573d6000803e3d6000fd5b505050506040513d601f19601f82011682018060405250810190610ab49190613128565b9050600260009054906101000a900473ffffffffffffffffffffffffffffffffffffffff1673ffffffffffffffffffffffffffffffffffffffff1663b1c5f4278888886000896040518663ffffffff1660e01b8152600401610b1a959493929190613962565b60206040518083038186803b158015610b3257600080fd5b505afa158015610b46573d6000803e3d6000fd5b505050506040513d601f19601f82011682018060405250810190610b6a9190613084565b6003600084815260200190815260200160002081905550600260009054906101000a900473ffffffffffffffffffffffffffffffffffffffff1673ffffffffffffffffffffffffffffffffffffffff16638f2a0bb0888888600089876040518763ffffffff1660e01b8152600401610be7969594939291906139ca565b600060405180830381600087803b158015610c0157600080fd5b505af1158015610c15573d6000803e3d6000fd5b505050507f9a2e42fd6722813d69113e7d0079d3d940171428df7373df9c7f7617cfda2892828242610c479190614157565b604051610c55929190613e68565b60405180910390a18192505050949350505050565b600080610c79868686866112cf565b90506000610c8682610f36565b905060046007811115610cc2577f4e487b7100000000000000000000000000000000000000000000000000000000600052602160045260246000fd5b816007811115610cfb577f4e487b7100000000000000000000000000000000000000000000000000000000600052602160045260246000fd5b1480610d77575060056007811115610d3c577f4e487b7100000000000000000000000000000000000000000000000000000000600052602160045260246000fd5b816007811115610d75577f4e487b7100000000000000000000000000000000000000000000000000000000600052602160045260246000fd5b145b610db6576040517f08c379a0000000000000000000000000000000000000000000000000000000008152600401610dad90613d1d565b60405180910390fd5b600180600084815260200190815260200160002060020160006101000a81548160ff0219169083151502179055507f712ae1383f79ac853f8d882153778e0260ef8f03b504e2866e0593e04d2b291f82604051610e139190613d9d565b60405180910390a1610e288288888888611521565b8192505050949350505050565b6000610e92600160008481526020019081526020016000206000016040518060200160405290816000820160009054906101000a900467ffffffffffffffff1667ffffffffffffffff1667ffffffffffffffff1681525050611535565b67ffffffffffffffff169050919050565b60006001905090565b600080610f0d610f057f150214d74d59b7d1e90c73fc22ef3d991dd0a76b046543d4d80ab92d2a50328f8989604051602001610eea93929190613ac9565b60405160208183030381529060405280519060200120611543565b86868661155d565b9050610f2a87828860405180602001604052806000815250611588565b91505095945050505050565b6000610f4182611728565b9050919050565b60006005600084815260200190815260200160002060030160008373ffffffffffffffffffffffffffffffffffffffff1673ffffffffffffffffffffffffffffffffffffffff16815260200190815260200160002060009054906101000a900460ff16905092915050565b600080600080600560008681526020019081526020016000209050806000015481600101548260020154935093509350509193909250565b60606040518060400160405280600181526020017f3100000000000000000000000000000000000000000000000000000000000000815250905090565b600080611033611484565b905061105084828560405180602001604052806000815250611588565b91505092915050565b600080611064611484565b90506110b686828787878080601f016020809104026020016040519081016040528093929190818152602001838380828437600081840152601f19601f82011690508083019250505050505050611588565b915050949350505050565b60006110cf858585856118ab565b9050949350505050565b60006064905090565b6000600454905090565b6110f4610801565b73ffffffffffffffffffffffffffffffffffffffff16611112611484565b73ffffffffffffffffffffffffffffffffffffffff1614611168576040517f08c379a000000000000000000000000000000000000000000000000000000000815260040161115f90613bbd565b60405180910390fd5b611171816118c3565b50565b600080600260009054906101000a900473ffffffffffffffffffffffffffffffffffffffff1673ffffffffffffffffffffffffffffffffffffffff1663d45c443560036000868152602001908152602001600020546040518263ffffffff1660e01b81526004016111e59190613a5b565b60206040518083038186803b1580156111fd57600080fd5b505afa158015611211573d6000803e3d6000fd5b505050506040513d601f19601f820116820180604052508101906112359190613128565b9050600181146112455780611248565b60005b915050919050565b6000683635c9adc5dea00000905090565b60006112be600160008481526020019081526020016000206001016040518060200160405290816000820160009054906101000a900467ffffffffffffffff1667ffffffffffffffff1667ffffffffffffffff1681525050611535565b67ffffffffffffffff169050919050565b6000848484846040516020016112e89493929190613908565b6040516020818303038152906040528051906020012060001c9050949350505050565b6000600260009054906101000a900473ffffffffffffffffffffffffffffffffffffffff16905090565b60606040518060400160405280602081526020017f737570706f72743d627261766f2671756f72756d3d666f722c6162737461696e815250905090565b7f150214d74d59b7d1e90c73fc22ef3d991dd0a76b046543d4d80ab92d2a50328f81565b60006113a28383611962565b905092915050565b60006113b582611a17565b9050919050565b7f000000000000000000000000000000000000000000000000000000000000000081565b6000600260009054906101000a900473ffffffffffffffffffffffffffffffffffffffff16905090565b60007f6e665ced000000000000000000000000000000000000000000000000000000007bffffffffffffffffffffffffffffffffffffffffffffffffffffffff1916827bffffffffffffffffffffffffffffffffffffffffffffffffffffffff1916148061147d575061147c82611aed565b5b9050919050565b600033905090565b6114946110d9565b8111156114d6576040517f08c379a00000000000000000000000000000000000000000000000000000000081526004016114cd90613bdd565b60405180910390fd5b60006004549050816004819055507f0553476bf02ef2726e8ce5ced78d63e26e602e4a2257b1f559418e24b46339978183604051611515929190613e68565b60405180910390a15050565b61152e8585858585611b67565b5050505050565b600081600001519050919050565b6000611556611550611c05565b83611d1f565b9050919050565b600080600061156e87878787611d52565b9150915061157b81611e5f565b8192505050949350505050565b600080600160008781526020019081526020016000209050600160078111156115da577f4e487b7100000000000000000000000000000000000000000000000000000000600052602160045260246000fd5b6115e387610f36565b600781111561161b577f4e487b7100000000000000000000000000000000000000000000000000000000600052602160045260246000fd5b1461165b576040517f08c379a000000000000000000000000000000000000000000000000000000000815260040161165290613c9d565b60405180910390fd5b60006116b9866116aa846000016040518060200160405290816000820160009054906101000a900467ffffffffffffffff1667ffffffffffffffff1667ffffffffffffffff1681525050611535565b67ffffffffffffffff16611396565b90506116c7878787846121b0565b8573ffffffffffffffffffffffffffffffffffffffff167fb8e138887d0aa13bab447e82de9d5c1777041ecd21ca36ba824ff1e6c07ddda4888784886040516117139493929190613ec8565b60405180910390a28092505050949350505050565b60008061173483612428565b905060046007811115611770577f4e487b7100000000000000000000000000000000000000000000000000000000600052602160045260246000fd5b8160078111156117a9577f4e487b7100000000000000000000000000000000000000000000000000000000600052602160045260246000fd5b146117b757809150506118a6565b6000600360008581526020019081526020016000205490506000801b8114156117e45781925050506118a6565b600260009054906101000a900473ffffffffffffffffffffffffffffffffffffffff1673ffffffffffffffffffffffffffffffffffffffff16632ab0f529826040518263ffffffff1660e01b815260040161183f9190613a5b565b60206040518083038186803b15801561185757600080fd5b505afa15801561186b573d6000803e3d6000fd5b505050506040513d601f19601f8201168201806040525081019061188f919061305b565b1561189f576007925050506118a6565b6005925050505b919050565b60006118b985858585612605565b9050949350505050565b7f08f74ea46ef7894f65eabfb5e6e695de773a000b47c529ab559178069b226401600260009054906101000a900473ffffffffffffffffffffffffffffffffffffffff16826040516119169291906138b6565b60405180910390a180600260006101000a81548173ffffffffffffffffffffffffffffffffffffffff021916908373ffffffffffffffffffffffffffffffffffffffff16021790555050565b60007f000000000000000000000000000000000000000000000000000000000000000073ffffffffffffffffffffffffffffffffffffffff16633a46b1a884846040518363ffffffff1660e01b81526004016119bf9291906138df565b60206040518083038186803b1580156119d757600080fd5b505afa1580156119eb573d6000803e3d6000fd5b505050506040513d601f19601f82011682018060405250810190611a0f9190613128565b905092915050565b6000611a216110d9565b611a296110e2565b7f000000000000000000000000000000000000000000000000000000000000000073ffffffffffffffffffffffffffffffffffffffff16638e539e8c856040518263ffffffff1660e01b8152600401611a829190613d9d565b60206040518083038186803b158015611a9a57600080fd5b505afa158015611aae573d6000803e3d6000fd5b505050506040513d601f19601f82011682018060405250810190611ad29190613128565b611adc919061421c565b611ae691906141eb565b9050919050565b60007fbf26d897000000000000000000000000000000000000000000000000000000007bffffffffffffffffffffffffffffffffffffffffffffffffffffffff1916827bffffffffffffffffffffffffffffffffffffffffffffffffffffffff19161480611b605750611b5f8261292b565b5b9050919050565b600260009054906101000a900473ffffffffffffffffffffffffffffffffffffffff1673ffffffffffffffffffffffffffffffffffffffff1663e38335e5348686866000876040518763ffffffff1660e01b8152600401611bcc959493929190613962565b6000604051808303818588803b158015611be557600080fd5b505af1158015611bf9573d6000803e3d6000fd5b50505050505050505050565b60007f000000000000000000000000000000000000000000000000000000000000000073ffffffffffffffffffffffffffffffffffffffff163073ffffffffffffffffffffffffffffffffffffffff16148015611c8157507f000000000000000000000000000000000000000000000000000000000000000046145b15611cae577f00000000000000000000000000000000000000000000000000000000000000009050611d1c565b611d197f00000000000000000000000000000000000000000000000000000000000000007f00000000000000000000000000000000000000000000000000000000000000007f0000000000000000000000000000000000000000000000000000000000000000612995565b90505b90565b60008282604051602001611d34929190613864565b60405160208183030381529060405280519060200120905092915050565b6000807f7fffffffffffffffffffffffffffffff5d576e7357a4501ddfe92f46681b20a08360001c1115611d8d576000600391509150611e56565b601b8560ff1614158015611da55750601c8560ff1614155b15611db7576000600491509150611e56565b600060018787878760405160008152602001604052604051611ddc9493929190613b00565b6020604051602081039080840390855afa158015611dfe573d6000803e3d6000fd5b505050602060405103519050600073ffffffffffffffffffffffffffffffffffffffff168173ffffffffffffffffffffffffffffffffffffffff161415611e4d57600060019250925050611e56565b80600092509250505b94509492505050565b60006004811115611e99577f4e487b7100000000000000000000000000000000000000000000000000000000600052602160045260246000fd5b816004811115611ed2577f4e487b7100000000000000000000000000000000000000000000000000000000600052602160045260246000fd5b1415611edd576121ad565b60016004811115611f17577f4e487b7100000000000000000000000000000000000000000000000000000000600052602160045260246000fd5b816004811115611f50577f4e487b7100000000000000000000000000000000000000000000000000000000600052602160045260246000fd5b1415611f91576040517f08c379a0000000000000000000000000000000000000000000000000000000008152600401611f8890613b9d565b60405180910390fd5b60026004811115611fcb577f4e487b7100000000000000000000000000000000000000000000000000000000600052602160045260246000fd5b816004811115612004577f4e487b7100000000000000000000000000000000000000000000000000000000600052602160045260246000fd5b1415612045576040517f08c379a000000000000000000000000000000000000000000000000000000000815260040161203c90613c1d565b60405180910390fd5b6003600481111561207f577f4e487b7100000000000000000000000000000000000000000000000000000000600052602160045260246000fd5b8160048111156120b8577f4e487b7100000000000000000000000000000000000000000000000000000000600052602160045260246000fd5b14156120f9576040517f08c379a00000000000000000000000000000000000000000000000000000000081526004016120f090613c5d565b60405180910390fd5b600480811115612132577f4e487b7100000000000000000000000000000000000000000000000000000000600052602160045260246000fd5b81600481111561216b577f4e487b7100000000000000000000000000000000000000000000000000000000600052602160045260246000fd5b14156121ac576040517f08c379a00000000000000000000000000000000000000000000000000000000081526004016121a390613cdd565b60405180910390fd5b5b50565b60006005600086815260200190815260200160002090508060030160008573ffffffffffffffffffffffffffffffffffffffff1673ffffffffffffffffffffffffffffffffffffffff16815260200190815260200160002060009054906101000a900460ff1615612256576040517f08c379a000000000000000000000000000000000000000000000000000000000815260040161224d90613c7d565b60405180910390fd5b60018160030160008673ffffffffffffffffffffffffffffffffffffffff1673ffffffffffffffffffffffffffffffffffffffff16815260200190815260200160002060006101000a81548160ff021916908315150217905550600060028111156122ea577f4e487b7100000000000000000000000000000000000000000000000000000000600052602160045260246000fd5b60ff168360ff161415612317578181600001600082825461230b9190614157565b92505081905550612421565b60016002811115612351577f4e487b7100000000000000000000000000000000000000000000000000000000600052602160045260246000fd5b60ff168360ff16141561237e57818160010160008282546123729190614157565b92505081905550612420565b6002808111156123b7577f4e487b7100000000000000000000000000000000000000000000000000000000600052602160045260246000fd5b60ff168360ff1614156123e457818160020160008282546123d89190614157565b9250508190555061241f565b6040517f08c379a000000000000000000000000000000000000000000000000000000000815260040161241690613d5d565b60405180910390fd5b5b5b5050505050565b60008060016000848152602001908152602001600020604051806080016040529081600082016040518060200160405290816000820160009054906101000a900467ffffffffffffffff1667ffffffffffffffff1667ffffffffffffffff16815250508152602001600182016040518060200160405290816000820160009054906101000a900467ffffffffffffffff1667ffffffffffffffff1667ffffffffffffffff168152505081526020016002820160009054906101000a900460ff161515151581526020016002820160019054906101000a900460ff1615151515815250509050806040015115612521576007915050612600565b806060015115612535576002915050612600565b436125438260000151611535565b67ffffffffffffffff161061255c576000915050612600565b4361256a8260200151611535565b67ffffffffffffffff1610612583576001915050612600565b61259081602001516129cf565b156125c55761259e836129fb565b80156125af57506125ae83612a42565b5b6125ba5760036125bd565b60045b915050612600565b6040517f08c379a00000000000000000000000000000000000000000000000000000000081526004016125f790613d3d565b60405180910390fd5b919050565b600061260f611250565b612625336001436126209190614276565b611396565b1015612666576040517f08c379a000000000000000000000000000000000000000000000000000000000815260040161265d90613bfd565b60405180910390fd5b600061267b86868686805190602001206112cf565b905084518651146126c1576040517f08c379a00000000000000000000000000000000000000000000000000000000081526004016126b890613c3d565b60405180910390fd5b8351865114612705576040517f08c379a00000000000000000000000000000000000000000000000000000000081526004016126fc90613c3d565b60405180910390fd5b6000865111612749576040517f08c379a000000000000000000000000000000000000000000000000000000000815260040161274090613cbd565b60405180910390fd5b60006001600083815260200190815260200160002090506127a9816000016040518060200160405290816000820160009054906101000a900467ffffffffffffffff1667ffffffffffffffff1667ffffffffffffffff1681525050612a6d565b6127e8576040517f08c379a00000000000000000000000000000000000000000000000000000000081526004016127df90613d7d565b60405180910390fd5b60006127fa6127f5610ea3565b612a87565b61280343612a87565b61280d91906141ad565b9050600061282161281c610822565b612a87565b8261282c91906141ad565b90506128448284600001612ade90919063ffffffff16565b61285a8184600101612ade90919063ffffffff16565b7f7d84a6263ae0d98d3329bd7b46bb4e8d6f98cd35a7adb45c274c8b7fd5ebd5e084612884611484565b8b8b8d5167ffffffffffffffff8111156128c7577f4e487b7100000000000000000000000000000000000000000000000000000000600052604160045260246000fd5b6040519080825280602002602001820160405280156128fa57816020015b60608152602001906001900390816128e55790505b508c88888e60405161291499989796959493929190613db8565b60405180910390a183945050505050949350505050565b60007f01ffc9a7000000000000000000000000000000000000000000000000000000007bffffffffffffffffffffffffffffffffffffffffffffffffffffffff1916827bffffffffffffffffffffffffffffffffffffffffffffffffffffffff1916149050919050565b600083838346306040516020016129b0959493929190613a76565b6040516020818303038152906040528051906020012090509392505050565b60006129da82612b0d565b80156129f4575043826000015167ffffffffffffffff1611155b9050919050565b60008060056000848152602001908152602001600020905080600201548160010154612a279190614157565b612a38612a3385610e35565b6113aa565b1115915050919050565b6000806005600084815260200190815260200160002090508060000154816001015411915050919050565b600080826000015167ffffffffffffffff16149050919050565b600067ffffffffffffffff8016821115612ad6576040517f08c379a0000000000000000000000000000000000000000000000000000000008152600401612acd90613cfd565b60405180910390fd5b819050919050565b808260000160006101000a81548167ffffffffffffffff021916908367ffffffffffffffff1602179055505050565b600080826000015167ffffffffffffffff16119050919050565b6000612b3a612b3584613f39565b613f14565b90508083825260208201905082856020860282011115612b5957600080fd5b60005b85811015612b895781612b6f8882612cd8565b845260208401935060208301925050600181019050612b5c565b5050509392505050565b6000612ba6612ba184613f65565b613f14565b9050808382526020820190508260005b85811015612be65781358501612bcc8882612dbf565b845260208401935060208301925050600181019050612bb6565b5050509392505050565b6000612c03612bfe84613f91565b613f14565b90508083825260208201905082856020860282011115612c2257600080fd5b60005b85811015612c525781612c388882612e72565b845260208401935060208301925050600181019050612c25565b5050509392505050565b6000612c6f612c6a84613fbd565b613f14565b905082815260208101848484011115612c8757600080fd5b612c928482856143ec565b509392505050565b6000612cad612ca884613fee565b613f14565b905082815260208101848484011115612cc557600080fd5b612cd08482856143ec565b509392505050565b600081359050612ce781614a5f565b92915050565b600082601f830112612cfe57600080fd5b8135612d0e848260208601612b27565b91505092915050565b600082601f830112612d2857600080fd5b8135612d38848260208601612b93565b91505092915050565b600082601f830112612d5257600080fd5b8135612d62848260208601612bf0565b91505092915050565b600081519050612d7a81614a76565b92915050565b600081359050612d8f81614a8d565b92915050565b600081519050612da481614a8d565b92915050565b600081359050612db981614aa4565b92915050565b600082601f830112612dd057600080fd5b8135612de0848260208601612c5c565b91505092915050565b600081359050612df881614abb565b92915050565b60008083601f840112612e1057600080fd5b8235905067ffffffffffffffff811115612e2957600080fd5b602083019150836001820283011115612e4157600080fd5b9250929050565b600082601f830112612e5957600080fd5b8135612e69848260208601612c9a565b91505092915050565b600081359050612e8181614ad2565b92915050565b600081519050612e9681614ad2565b92915050565b600081359050612eab81614ae9565b92915050565b60008060408385031215612ec457600080fd5b6000612ed285828601612cd8565b9250506020612ee385828601612e72565b9150509250929050565b60008060008060808587031215612f0357600080fd5b600085013567ffffffffffffffff811115612f1d57600080fd5b612f2987828801612ced565b945050602085013567ffffffffffffffff811115612f4657600080fd5b612f5287828801612d41565b935050604085013567ffffffffffffffff811115612f6f57600080fd5b612f7b87828801612d17565b9250506060612f8c87828801612d80565b91505092959194509250565b60008060008060808587031215612fae57600080fd5b600085013567ffffffffffffffff811115612fc857600080fd5b612fd487828801612ced565b945050602085013567ffffffffffffffff811115612ff157600080fd5b612ffd87828801612d41565b935050604085013567ffffffffffffffff81111561301a57600080fd5b61302687828801612d17565b925050606085013567ffffffffffffffff81111561304357600080fd5b61304f87828801612e48565b91505092959194509250565b60006020828403121561306d57600080fd5b600061307b84828501612d6b565b91505092915050565b60006020828403121561309657600080fd5b60006130a484828501612d95565b91505092915050565b6000602082840312156130bf57600080fd5b60006130cd84828501612daa565b91505092915050565b6000602082840312156130e857600080fd5b60006130f684828501612de9565b91505092915050565b60006020828403121561311157600080fd5b600061311f84828501612e72565b91505092915050565b60006020828403121561313a57600080fd5b600061314884828501612e87565b91505092915050565b6000806040838503121561316457600080fd5b600061317285828601612e72565b925050602061318385828601612cd8565b9150509250929050565b600080604083850312156131a057600080fd5b60006131ae85828601612e72565b92505060206131bf85828601612e9c565b9150509250929050565b600080600080606085870312156131df57600080fd5b60006131ed87828801612e72565b94505060206131fe87828801612e9c565b935050604085013567ffffffffffffffff81111561321b57600080fd5b61322787828801612dfe565b925092505092959194509250565b600080600080600060a0868803121561324d57600080fd5b600061325b88828901612e72565b955050602061326c88828901612e9c565b945050604061327d88828901612e9c565b935050606061328e88828901612d80565b925050608061329f88828901612d80565b9150509295509295909350565b60006132b88383613304565b60208301905092915050565b60006132d083836134fd565b905092915050565b60006132e48383613563565b905092915050565b60006132f88383613828565b60208301905092915050565b61330d816142aa565b82525050565b61331c816142aa565b82525050565b600061332d8261405f565b61333781856140d5565b93506133428361401f565b8060005b8381101561337357815161335a88826132ac565b9750613365836140a1565b925050600181019050613346565b5085935050505092915050565b600061338b8261406a565b61339581856140e6565b9350836020820285016133a78561402f565b8060005b858110156133e357848403895281516133c485826132c4565b94506133cf836140ae565b925060208a019950506001810190506133ab565b50829750879550505050505092915050565b600061340082614075565b61340a81856140f7565b93508360208202850161341c8561403f565b8060005b85811015613458578484038952815161343985826132d8565b9450613444836140bb565b925060208a01995050600181019050613420565b50829750879550505050505092915050565b600061347582614080565b61347f8185614108565b935061348a8361404f565b8060005b838110156134bb5781516134a288826132ec565b97506134ad836140c8565b92505060018101905061348e565b5085935050505092915050565b6134d1816142ce565b82525050565b6134e0816142da565b82525050565b6134f76134f2826142da565b614491565b82525050565b60006135088261408b565b6135128185614119565b93506135228185602086016143fb565b61352b81614586565b840191505092915050565b61353f8161438a565b82525050565b61354e816143ae565b82525050565b61355d816143c0565b82525050565b600061356e82614096565b613578818561412a565b93506135888185602086016143fb565b61359181614586565b840191505092915050565b60006135a782614096565b6135b1818561413b565b93506135c18185602086016143fb565b6135ca81614586565b840191505092915050565b60006135e260188361413b565b91506135ed826145a4565b602082019050919050565b600061360560188361413b565b9150613610826145cd565b602082019050919050565b600061362860438361413b565b9150613633826145f6565b606082019050919050565b600061364b60438361413b565b91506136568261466b565b606082019050919050565b600061366e601f8361413b565b9150613679826146e0565b602082019050919050565b600061369160028361414c565b915061369c82614709565b600282019050919050565b60006136b460218361413b565b91506136bf82614732565b604082019050919050565b60006136d760228361413b565b91506136e282614781565b604082019050919050565b60006136fa60278361413b565b9150613705826147d0565b604082019050919050565b600061371d60238361413b565b91506137288261481f565b604082019050919050565b600061374060188361413b565b915061374b8261486e565b602082019050919050565b600061376360228361413b565b915061376e82614897565b604082019050919050565b600061378660268361413b565b9150613791826148e6565b604082019050919050565b60006137a960218361413b565b91506137b482614935565b604082019050919050565b60006137cc601d8361413b565b91506137d782614984565b602082019050919050565b60006137ef60358361413b565b91506137fa826149ad565b604082019050919050565b600061381260218361413b565b915061381d826149fc565b604082019050919050565b6138318161435f565b82525050565b6138408161435f565b82525050565b61384f816143da565b82525050565b61385e8161437d565b82525050565b600061386f82613684565b915061387b82856134e6565b60208201915061388b82846134e6565b6020820191508190509392505050565b60006020820190506138b06000830184613313565b92915050565b60006040820190506138cb6000830185613313565b6138d86020830184613313565b9392505050565b60006040820190506138f46000830185613313565b6139016020830184613837565b9392505050565b600060808201905081810360008301526139228187613322565b90508181036020830152613936818661346a565b9050818103604083015261394a8185613380565b905061395960608301846134d7565b95945050505050565b600060a082019050818103600083015261397c8188613322565b90508181036020830152613990818761346a565b905081810360408301526139a48186613380565b90506139b36060830185613554565b6139c060808301846134d7565b9695505050505050565b600060c08201905081810360008301526139e48189613322565b905081810360208301526139f8818861346a565b90508181036040830152613a0c8187613380565b9050613a1b6060830186613554565b613a2860808301856134d7565b613a3560a0830184613837565b979650505050505050565b6000602082019050613a5560008301846134c8565b92915050565b6000602082019050613a7060008301846134d7565b92915050565b600060a082019050613a8b60008301886134d7565b613a9860208301876134d7565b613aa560408301866134d7565b613ab26060830185613837565b613abf6080830184613313565b9695505050505050565b6000606082019050613ade60008301866134d7565b613aeb6020830185613837565b613af86040830184613855565b949350505050565b6000608082019050613b1560008301876134d7565b613b226020830186613855565b613b2f60408301856134d7565b613b3c60608301846134d7565b95945050505050565b6000602082019050613b5a6000830184613536565b92915050565b6000602082019050613b756000830184613545565b92915050565b60006020820190508181036000830152613b95818461359c565b905092915050565b60006020820190508181036000830152613bb6816135d5565b9050919050565b60006020820190508181036000830152613bd6816135f8565b9050919050565b60006020820190508181036000830152613bf68161361b565b9050919050565b60006020820190508181036000830152613c168161363e565b9050919050565b60006020820190508181036000830152613c3681613661565b9050919050565b60006020820190508181036000830152613c56816136a7565b9050919050565b60006020820190508181036000830152613c76816136ca565b9050919050565b60006020820190508181036000830152613c96816136ed565b9050919050565b60006020820190508181036000830152613cb681613710565b9050919050565b60006020820190508181036000830152613cd681613733565b9050919050565b60006020820190508181036000830152613cf681613756565b9050919050565b60006020820190508181036000830152613d1681613779565b9050919050565b60006020820190508181036000830152613d368161379c565b9050919050565b60006020820190508181036000830152613d56816137bf565b9050919050565b60006020820190508181036000830152613d76816137e2565b9050919050565b60006020820190508181036000830152613d9681613805565b9050919050565b6000602082019050613db26000830184613837565b92915050565b600061012082019050613dce600083018c613837565b613ddb602083018b613313565b8181036040830152613ded818a613322565b90508181036060830152613e01818961346a565b90508181036080830152613e1581886133f5565b905081810360a0830152613e298187613380565b9050613e3860c0830186613846565b613e4560e0830185613846565b818103610100830152613e58818461359c565b90509a9950505050505050505050565b6000604082019050613e7d6000830185613837565b613e8a6020830184613837565b9392505050565b6000606082019050613ea66000830186613837565b613eb36020830185613837565b613ec06040830184613837565b949350505050565b6000608082019050613edd6000830187613837565b613eea6020830186613855565b613ef76040830185613837565b8181036060830152613f09818461359c565b905095945050505050565b6000613f1e613f2f565b9050613f2a8282614460565b919050565b6000604051905090565b600067ffffffffffffffff821115613f5457613f53614557565b5b602082029050602081019050919050565b600067ffffffffffffffff821115613f8057613f7f614557565b5b602082029050602081019050919050565b600067ffffffffffffffff821115613fac57613fab614557565b5b602082029050602081019050919050565b600067ffffffffffffffff821115613fd857613fd7614557565b5b613fe182614586565b9050602081019050919050565b600067ffffffffffffffff82111561400957614008614557565b5b61401282614586565b9050602081019050919050565b6000819050602082019050919050565b6000819050602082019050919050565b6000819050602082019050919050565b6000819050602082019050919050565b600081519050919050565b600081519050919050565b600081519050919050565b600081519050919050565b600081519050919050565b600081519050919050565b6000602082019050919050565b6000602082019050919050565b6000602082019050919050565b6000602082019050919050565b600082825260208201905092915050565b600082825260208201905092915050565b600082825260208201905092915050565b600082825260208201905092915050565b600082825260208201905092915050565b600082825260208201905092915050565b600082825260208201905092915050565b600081905092915050565b60006141628261435f565b915061416d8361435f565b9250827fffffffffffffffffffffffffffffffffffffffffffffffffffffffffffffffff038211156141a2576141a161449b565b5b828201905092915050565b60006141b882614369565b91506141c383614369565b92508267ffffffffffffffff038211156141e0576141df61449b565b5b828201905092915050565b60006141f68261435f565b91506142018361435f565b925082614211576142106144ca565b5b828204905092915050565b60006142278261435f565b91506142328361435f565b9250817fffffffffffffffffffffffffffffffffffffffffffffffffffffffffffffffff048311821515161561426b5761426a61449b565b5b828202905092915050565b60006142818261435f565b915061428c8361435f565b92508282101561429f5761429e61449b565b5b828203905092915050565b60006142b58261433f565b9050919050565b60006142c78261433f565b9050919050565b60008115159050919050565b6000819050919050565b60007fffffffff0000000000000000000000000000000000000000000000000000000082169050919050565b600061431b826142bc565b9050919050565b600081905061433082614a4b565b919050565b6000819050919050565b600073ffffffffffffffffffffffffffffffffffffffff82169050919050565b6000819050919050565b600067ffffffffffffffff82169050919050565b600060ff82169050919050565b60006143958261439c565b9050919050565b60006143a78261433f565b9050919050565b60006143b982614322565b9050919050565b60006143d36143ce83614335565b614597565b9050919050565b60006143e582614369565b9050919050565b82818337600083830152505050565b60005b838110156144195780820151818401526020810190506143fe565b83811115614428576000848401525b50505050565b6000600282049050600182168061444657607f821691505b6020821081141561445a57614459614528565b5b50919050565b61446982614586565b810181811067ffffffffffffffff8211171561448857614487614557565b5b80604052505050565b6000819050919050565b7f4e487b7100000000000000000000000000000000000000000000000000000000600052601160045260246000fd5b7f4e487b7100000000000000000000000000000000000000000000000000000000600052601260045260246000fd5b7f4e487b7100000000000000000000000000000000000000000000000000000000600052602160045260246000fd5b7f4e487b7100000000000000000000000000000000000000000000000000000000600052602260045260246000fd5b7f4e487b7100000000000000000000000000000000000000000000000000000000600052604160045260246000fd5b6000601f19601f8301169050919050565b60008160001b9050919050565b7f45434453413a20696e76616c6964207369676e61747572650000000000000000600082015250565b7f476f7665726e6f723a206f6e6c79476f7665726e616e63650000000000000000600082015250565b7f476f7665726e6f72566f74657351756f72756d4672616374696f6e3a2071756f60008201527f72756d4e756d657261746f72206f7665722071756f72756d44656e6f6d696e6160208201527f746f720000000000000000000000000000000000000000000000000000000000604082015250565b7f476f7665726e6f72436f6d7061746962696c697479427261766f3a2070726f7060008201527f6f73657220766f7465732062656c6f772070726f706f73616c2074687265736860208201527f6f6c640000000000000000000000000000000000000000000000000000000000604082015250565b7f45434453413a20696e76616c6964207369676e6174757265206c656e67746800600082015250565b7f1901000000000000000000000000000000000000000000000000000000000000600082015250565b7f476f7665726e6f723a20696e76616c69642070726f706f73616c206c656e677460008201527f6800000000000000000000000000000000000000000000000000000000000000602082015250565b7f45434453413a20696e76616c6964207369676e6174757265202773272076616c60008201527f7565000000000000000000000000000000000000000000000000000000000000602082015250565b7f476f7665726e6f72566f74696e6753696d706c653a20766f746520616c72656160008201527f6479206361737400000000000000000000000000000000000000000000000000602082015250565b7f476f7665726e6f723a20766f7465206e6f742063757272656e746c792061637460008201527f6976650000000000000000000000000000000000000000000000000000000000602082015250565b7f476f7665726e6f723a20656d7074792070726f706f73616c0000000000000000600082015250565b7f45434453413a20696e76616c6964207369676e6174757265202776272076616c60008201527f7565000000000000000000000000000000000000000000000000000000000000602082015250565b7f53616665436173743a2076616c756520646f65736e27742066697420696e203660008201527f3420626974730000000000000000000000000000000000000000000000000000602082015250565b7f476f7665726e6f723a2070726f706f73616c206e6f742073756363657373667560008201527f6c00000000000000000000000000000000000000000000000000000000000000602082015250565b7f476f7665726e6f723a20756e6b6e6f776e2070726f706f73616c206964000000600082015250565b7f476f7665726e6f72566f74696e6753696d706c653a20696e76616c696420766160008201527f6c756520666f7220656e756d20566f7465547970650000000000000000000000602082015250565b7f476f7665726e6f723a2070726f706f73616c20616c726561647920657869737460008201527f7300000000000000000000000000000000000000000000000000000000000000602082015250565b60088110614a5c57614a5b6144f9565b5b50565b614a68816142aa565b8114614a7357600080fd5b50565b614a7f816142ce565b8114614a8a57600080fd5b50565b614a96816142da565b8114614aa157600080fd5b50565b614aad816142e4565b8114614ab857600080fd5b50565b614ac481614310565b8114614acf57600080fd5b50565b614adb8161435f565b8114614ae657600080fd5b50565b614af28161437d565b8114614afd57600080fd5b5056fea2646970667358221220e835d470b56cae7b656ab38fb64adbec27f9c79d11b543a97c6f4caf85517dbf64736f6c63430008030033",
  "linkReferences": {},
  "deployedLinkReferences": {}
}