{
  "_format": "hh-sol-artifact-1",
  "contractName": "MyGovernor",
  "sourceName": "contracts/mocks/wizard/MyGovernor3.sol",
  "abi": [
    {
      "inputs": [
        {
          "internalType": "contract ERC20Votes",
          "name": "_token",
          "type": "address"
        },
        {
          "internalType": "contract TimelockController",
          "name": "_timelock",
          "type": "address"
        }
      ],
      "stateMutability": "nonpayable",
      "type": "constructor"
    },
    {
      "anonymous": false,
      "inputs": [
        {
          "indexed": false,
          "internalType": "uint256",
          "name": "proposalId",
          "type": "uint256"
        }
      ],
      "name": "ProposalCanceled",
      "type": "event"
    },
    {
      "anonymous": false,
      "inputs": [
        {
          "indexed": false,
          "internalType": "uint256",
          "name": "proposalId",
          "type": "uint256"
        },
        {
          "indexed": false,
          "internalType": "address",
          "name": "proposer",
          "type": "address"
        },
        {
          "indexed": false,
          "internalType": "address[]",
          "name": "targets",
          "type": "address[]"
        },
        {
          "indexed": false,
          "internalType": "uint256[]",
          "name": "values",
          "type": "uint256[]"
        },
        {
          "indexed": false,
          "internalType": "string[]",
          "name": "signatures",
          "type": "string[]"
        },
        {
          "indexed": false,
          "internalType": "bytes[]",
          "name": "calldatas",
          "type": "bytes[]"
        },
        {
          "indexed": false,
          "internalType": "uint256",
          "name": "startBlock",
          "type": "uint256"
        },
        {
          "indexed": false,
          "internalType": "uint256",
          "name": "endBlock",
          "type": "uint256"
        },
        {
          "indexed": false,
          "internalType": "string",
          "name": "description",
          "type": "string"
        }
      ],
      "name": "ProposalCreated",
      "type": "event"
    },
    {
      "anonymous": false,
      "inputs": [
        {
          "indexed": false,
          "internalType": "uint256",
          "name": "proposalId",
          "type": "uint256"
        }
      ],
      "name": "ProposalExecuted",
      "type": "event"
    },
    {
      "anonymous": false,
      "inputs": [
        {
          "indexed": false,
          "internalType": "uint256",
          "name": "proposalId",
          "type": "uint256"
        },
        {
          "indexed": false,
          "internalType": "uint256",
          "name": "eta",
          "type": "uint256"
        }
      ],
      "name": "ProposalQueued",
      "type": "event"
    },
    {
      "anonymous": false,
      "inputs": [
        {
          "indexed": false,
          "internalType": "uint256",
          "name": "oldQuorumNumerator",
          "type": "uint256"
        },
        {
          "indexed": false,
          "internalType": "uint256",
          "name": "newQuorumNumerator",
          "type": "uint256"
        }
      ],
      "name": "QuorumNumeratorUpdated",
      "type": "event"
    },
    {
      "anonymous": false,
      "inputs": [
        {
          "indexed": false,
          "internalType": "address",
          "name": "oldTimelock",
          "type": "address"
        },
        {
          "indexed": false,
          "internalType": "address",
          "name": "newTimelock",
          "type": "address"
        }
      ],
      "name": "TimelockChange",
      "type": "event"
    },
    {
      "anonymous": false,
      "inputs": [
        {
          "indexed": true,
          "internalType": "address",
          "name": "voter",
          "type": "address"
        },
        {
          "indexed": false,
          "internalType": "uint256",
          "name": "proposalId",
          "type": "uint256"
        },
        {
          "indexed": false,
          "internalType": "uint8",
          "name": "support",
          "type": "uint8"
        },
        {
          "indexed": false,
          "internalType": "uint256",
          "name": "weight",
          "type": "uint256"
        },
        {
          "indexed": false,
          "internalType": "string",
          "name": "reason",
          "type": "string"
        }
      ],
      "name": "VoteCast",
      "type": "event"
    },
    {
      "inputs": [],
      "name": "BALLOT_TYPEHASH",
      "outputs": [
        {
          "internalType": "bytes32",
          "name": "",
          "type": "bytes32"
        }
      ],
      "stateMutability": "view",
      "type": "function"
    },
    {
      "inputs": [],
      "name": "COUNTING_MODE",
      "outputs": [
        {
          "internalType": "string",
          "name": "",
          "type": "string"
        }
      ],
      "stateMutability": "pure",
      "type": "function"
    },
    {
      "inputs": [
        {
          "internalType": "uint256",
          "name": "proposalId",
          "type": "uint256"
        }
      ],
      "name": "cancel",
      "outputs": [],
      "stateMutability": "nonpayable",
      "type": "function"
    },
    {
      "inputs": [
        {
          "internalType": "uint256",
          "name": "proposalId",
          "type": "uint256"
        },
        {
          "internalType": "uint8",
          "name": "support",
          "type": "uint8"
        }
      ],
      "name": "castVote",
      "outputs": [
        {
          "internalType": "uint256",
          "name": "",
          "type": "uint256"
        }
      ],
      "stateMutability": "nonpayable",
      "type": "function"
    },
    {
      "inputs": [
        {
          "internalType": "uint256",
          "name": "proposalId",
          "type": "uint256"
        },
        {
          "internalType": "uint8",
          "name": "support",
          "type": "uint8"
        },
        {
          "internalType": "uint8",
          "name": "v",
          "type": "uint8"
        },
        {
          "internalType": "bytes32",
          "name": "r",
          "type": "bytes32"
        },
        {
          "internalType": "bytes32",
          "name": "s",
          "type": "bytes32"
        }
      ],
      "name": "castVoteBySig",
      "outputs": [
        {
          "internalType": "uint256",
          "name": "",
          "type": "uint256"
        }
      ],
      "stateMutability": "nonpayable",
      "type": "function"
    },
    {
      "inputs": [
        {
          "internalType": "uint256",
          "name": "proposalId",
          "type": "uint256"
        },
        {
          "internalType": "uint8",
          "name": "support",
          "type": "uint8"
        },
        {
          "internalType": "string",
          "name": "reason",
          "type": "string"
        }
      ],
      "name": "castVoteWithReason",
      "outputs": [
        {
          "internalType": "uint256",
          "name": "",
          "type": "uint256"
        }
      ],
      "stateMutability": "nonpayable",
      "type": "function"
    },
    {
      "inputs": [
        {
          "internalType": "address[]",
          "name": "targets",
          "type": "address[]"
        },
        {
          "internalType": "uint256[]",
          "name": "values",
          "type": "uint256[]"
        },
        {
          "internalType": "bytes[]",
          "name": "calldatas",
          "type": "bytes[]"
        },
        {
          "internalType": "bytes32",
          "name": "descriptionHash",
          "type": "bytes32"
        }
      ],
      "name": "execute",
      "outputs": [
        {
          "internalType": "uint256",
          "name": "",
          "type": "uint256"
        }
      ],
      "stateMutability": "payable",
      "type": "function"
    },
    {
      "inputs": [
        {
          "internalType": "uint256",
          "name": "proposalId",
          "type": "uint256"
        }
      ],
      "name": "execute",
      "outputs": [],
      "stateMutability": "payable",
      "type": "function"
    },
    {
      "inputs": [
        {
          "internalType": "uint256",
          "name": "proposalId",
          "type": "uint256"
        }
      ],
      "name": "getActions",
      "outputs": [
        {
          "internalType": "address[]",
          "name": "targets",
          "type": "address[]"
        },
        {
          "internalType": "uint256[]",
          "name": "values",
          "type": "uint256[]"
        },
        {
          "internalType": "string[]",
          "name": "signatures",
          "type": "string[]"
        },
        {
          "internalType": "bytes[]",
          "name": "calldatas",
          "type": "bytes[]"
        }
      ],
      "stateMutability": "view",
      "type": "function"
    },
    {
      "inputs": [
        {
          "internalType": "uint256",
          "name": "proposalId",
          "type": "uint256"
        },
        {
          "internalType": "address",
          "name": "voter",
          "type": "address"
        }
      ],
      "name": "getReceipt",
      "outputs": [
        {
          "components": [
            {
              "internalType": "bool",
              "name": "hasVoted",
              "type": "bool"
            },
            {
              "internalType": "uint8",
              "name": "support",
              "type": "uint8"
            },
            {
              "internalType": "uint96",
              "name": "votes",
              "type": "uint96"
            }
          ],
          "internalType": "struct IGovernorCompatibilityBravo.Receipt",
          "name": "",
          "type": "tuple"
        }
      ],
      "stateMutability": "view",
      "type": "function"
    },
    {
      "inputs": [
        {
          "internalType": "address",
          "name": "account",
          "type": "address"
        },
        {
          "internalType": "uint256",
          "name": "blockNumber",
          "type": "uint256"
        }
      ],
      "name": "getVotes",
      "outputs": [
        {
          "internalType": "uint256",
          "name": "",
          "type": "uint256"
        }
      ],
      "stateMutability": "view",
      "type": "function"
    },
    {
      "inputs": [
        {
          "internalType": "uint256",
          "name": "proposalId",
          "type": "uint256"
        },
        {
          "internalType": "address",
          "name": "account",
          "type": "address"
        }
      ],
      "name": "hasVoted",
      "outputs": [
        {
          "internalType": "bool",
          "name": "",
          "type": "bool"
        }
      ],
      "stateMutability": "view",
      "type": "function"
    },
    {
      "inputs": [
        {
          "internalType": "address[]",
          "name": "targets",
          "type": "address[]"
        },
        {
          "internalType": "uint256[]",
          "name": "values",
          "type": "uint256[]"
        },
        {
          "internalType": "bytes[]",
          "name": "calldatas",
          "type": "bytes[]"
        },
        {
          "internalType": "bytes32",
          "name": "descriptionHash",
          "type": "bytes32"
        }
      ],
      "name": "hashProposal",
      "outputs": [
        {
          "internalType": "uint256",
          "name": "",
          "type": "uint256"
        }
      ],
      "stateMutability": "pure",
      "type": "function"
    },
    {
      "inputs": [],
      "name": "name",
      "outputs": [
        {
          "internalType": "string",
          "name": "",
          "type": "string"
        }
      ],
      "stateMutability": "view",
      "type": "function"
    },
    {
      "inputs": [
        {
          "internalType": "uint256",
          "name": "proposalId",
          "type": "uint256"
        }
      ],
      "name": "proposalDeadline",
      "outputs": [
        {
          "internalType": "uint256",
          "name": "",
          "type": "uint256"
        }
      ],
      "stateMutability": "view",
      "type": "function"
    },
    {
      "inputs": [
        {
          "internalType": "uint256",
          "name": "proposalId",
          "type": "uint256"
        }
      ],
      "name": "proposalEta",
      "outputs": [
        {
          "internalType": "uint256",
          "name": "",
          "type": "uint256"
        }
      ],
      "stateMutability": "view",
      "type": "function"
    },
    {
      "inputs": [
        {
          "internalType": "uint256",
          "name": "proposalId",
          "type": "uint256"
        }
      ],
      "name": "proposalSnapshot",
      "outputs": [
        {
          "internalType": "uint256",
          "name": "",
          "type": "uint256"
        }
      ],
      "stateMutability": "view",
      "type": "function"
    },
    {
      "inputs": [],
      "name": "proposalThreshold",
      "outputs": [
        {
          "internalType": "uint256",
          "name": "",
          "type": "uint256"
        }
      ],
      "stateMutability": "pure",
      "type": "function"
    },
    {
      "inputs": [
        {
          "internalType": "uint256",
          "name": "proposalId",
          "type": "uint256"
        }
      ],
      "name": "proposals",
      "outputs": [
        {
          "internalType": "uint256",
          "name": "id",
          "type": "uint256"
        },
        {
          "internalType": "address",
          "name": "proposer",
          "type": "address"
        },
        {
          "internalType": "uint256",
          "name": "eta",
          "type": "uint256"
        },
        {
          "internalType": "uint256",
          "name": "startBlock",
          "type": "uint256"
        },
        {
          "internalType": "uint256",
          "name": "endBlock",
          "type": "uint256"
        },
        {
          "internalType": "uint256",
          "name": "forVotes",
          "type": "uint256"
        },
        {
          "internalType": "uint256",
          "name": "againstVotes",
          "type": "uint256"
        },
        {
          "internalType": "uint256",
          "name": "abstainVotes",
          "type": "uint256"
        },
        {
          "internalType": "bool",
          "name": "canceled",
          "type": "bool"
        },
        {
          "internalType": "bool",
          "name": "executed",
          "type": "bool"
        }
      ],
      "stateMutability": "view",
      "type": "function"
    },
    {
      "inputs": [
        {
          "internalType": "address[]",
          "name": "targets",
          "type": "address[]"
        },
        {
          "internalType": "uint256[]",
          "name": "values",
          "type": "uint256[]"
        },
        {
          "internalType": "bytes[]",
          "name": "calldatas",
          "type": "bytes[]"
        },
        {
          "internalType": "string",
          "name": "description",
          "type": "string"
        }
      ],
      "name": "propose",
      "outputs": [
        {
          "internalType": "uint256",
          "name": "",
          "type": "uint256"
        }
      ],
      "stateMutability": "nonpayable",
      "type": "function"
    },
    {
      "inputs": [
        {
          "internalType": "address[]",
          "name": "targets",
          "type": "address[]"
        },
        {
          "internalType": "uint256[]",
          "name": "values",
          "type": "uint256[]"
        },
        {
          "internalType": "string[]",
          "name": "signatures",
          "type": "string[]"
        },
        {
          "internalType": "bytes[]",
          "name": "calldatas",
          "type": "bytes[]"
        },
        {
          "internalType": "string",
          "name": "description",
          "type": "string"
        }
      ],
      "name": "propose",
      "outputs": [
        {
          "internalType": "uint256",
          "name": "",
          "type": "uint256"
        }
      ],
      "stateMutability": "nonpayable",
      "type": "function"
    },
    {
      "inputs": [
        {
          "internalType": "address[]",
          "name": "targets",
          "type": "address[]"
        },
        {
          "internalType": "uint256[]",
          "name": "values",
          "type": "uint256[]"
        },
        {
          "internalType": "bytes[]",
          "name": "calldatas",
          "type": "bytes[]"
        },
        {
          "internalType": "bytes32",
          "name": "descriptionHash",
          "type": "bytes32"
        }
      ],
      "name": "queue",
      "outputs": [
        {
          "internalType": "uint256",
          "name": "",
          "type": "uint256"
        }
      ],
      "stateMutability": "nonpayable",
      "type": "function"
    },
    {
      "inputs": [
        {
          "internalType": "uint256",
          "name": "proposalId",
          "type": "uint256"
        }
      ],
      "name": "queue",
      "outputs": [],
      "stateMutability": "nonpayable",
      "type": "function"
    },
    {
      "inputs": [
        {
          "internalType": "uint256",
          "name": "blockNumber",
          "type": "uint256"
        }
      ],
      "name": "quorum",
      "outputs": [
        {
          "internalType": "uint256",
          "name": "",
          "type": "uint256"
        }
      ],
      "stateMutability": "view",
      "type": "function"
    },
    {
      "inputs": [],
      "name": "quorumDenominator",
      "outputs": [
        {
          "internalType": "uint256",
          "name": "",
          "type": "uint256"
        }
      ],
      "stateMutability": "view",
      "type": "function"
    },
    {
      "inputs": [],
      "name": "quorumNumerator",
      "outputs": [
        {
          "internalType": "uint256",
          "name": "",
          "type": "uint256"
        }
      ],
      "stateMutability": "view",
      "type": "function"
    },
    {
      "inputs": [],
      "name": "quorumVotes",
      "outputs": [
        {
          "internalType": "uint256",
          "name": "",
          "type": "uint256"
        }
      ],
      "stateMutability": "view",
      "type": "function"
    },
    {
      "inputs": [
        {
          "internalType": "uint256",
          "name": "proposalId",
          "type": "uint256"
        }
      ],
      "name": "state",
      "outputs": [
        {
          "internalType": "enum IGovernor.ProposalState",
          "name": "",
          "type": "uint8"
        }
      ],
      "stateMutability": "view",
      "type": "function"
    },
    {
      "inputs": [
        {
          "internalType": "bytes4",
          "name": "interfaceId",
          "type": "bytes4"
        }
      ],
      "name": "supportsInterface",
      "outputs": [
        {
          "internalType": "bool",
          "name": "",
          "type": "bool"
        }
      ],
      "stateMutability": "view",
      "type": "function"
    },
    {
      "inputs": [],
      "name": "timelock",
      "outputs": [
        {
          "internalType": "address",
          "name": "",
          "type": "address"
        }
      ],
      "stateMutability": "view",
      "type": "function"
    },
    {
      "inputs": [],
      "name": "token",
      "outputs": [
        {
          "internalType": "contract ERC20Votes",
          "name": "",
          "type": "address"
        }
      ],
      "stateMutability": "view",
      "type": "function"
    },
    {
      "inputs": [
        {
          "internalType": "uint256",
          "name": "newQuorumNumerator",
          "type": "uint256"
        }
      ],
      "name": "updateQuorumNumerator",
      "outputs": [],
      "stateMutability": "nonpayable",
      "type": "function"
    },
    {
      "inputs": [
        {
          "internalType": "contract TimelockController",
          "name": "newTimelock",
          "type": "address"
        }
      ],
      "name": "updateTimelock",
      "outputs": [],
      "stateMutability": "nonpayable",
      "type": "function"
    },
    {
      "inputs": [],
      "name": "version",
      "outputs": [
        {
          "internalType": "string",
          "name": "",
          "type": "string"
        }
      ],
      "stateMutability": "view",
      "type": "function"
    },
    {
      "inputs": [],
      "name": "votingDelay",
      "outputs": [
        {
          "internalType": "uint256",
          "name": "",
          "type": "uint256"
        }
      ],
      "stateMutability": "pure",
      "type": "function"
    },
    {
      "inputs": [],
      "name": "votingPeriod",
      "outputs": [
        {
          "internalType": "uint256",
          "name": "",
          "type": "uint256"
        }
      ],
      "stateMutability": "pure",
      "type": "function"
    },
    {
      "stateMutability": "payable",
      "type": "receive"
    }
  ],
  "bytecode": "0x6101606040523480156200001257600080fd5b506040516200741f3803806200741f83398181016040528101906200003891906200045a565b600482826040518060400160405280600a81526020017f4d79476f7665726e6f72000000000000000000000000000000000000000000008152508062000083620001b760201b60201c565b60008280519060200120905060008280519060200120905060007f8b73c3c69bb8fe3d512ecc4cf759cc79239f7b179b0ffacaa9a75d522b39400f90508260e081815250508161010081815250504660a08181525050620000ec818484620001f460201b60201c565b608081815250503073ffffffffffffffffffffffffffffffffffffffff1660c08173ffffffffffffffffffffffffffffffffffffffff1660601b8152505080610120818152505050505050508060009080519060200190620001509291906200037c565b505062000163816200023060201b60201c565b508073ffffffffffffffffffffffffffffffffffffffff166101408173ffffffffffffffffffffffffffffffffffffffff1660601b8152505050620001ae81620002d160201b60201c565b50505062000771565b60606040518060400160405280600181526020017f3100000000000000000000000000000000000000000000000000000000000000815250905090565b600083838346306040516020016200021195949392919062000522565b6040516020818303038152906040528051906020012090509392505050565b7f08f74ea46ef7894f65eabfb5e6e695de773a000b47c529ab559178069b226401600260009054906101000a900473ffffffffffffffffffffffffffffffffffffffff168260405162000285929190620004f5565b60405180910390a180600260006101000a81548173ffffffffffffffffffffffffffffffffffffffff021916908373ffffffffffffffffffffffffffffffffffffffff16021790555050565b620002e16200037360201b60201c565b81111562000326576040517f08c379a00000000000000000000000000000000000000000000000000000000081526004016200031d906200057f565b60405180910390fd5b60006005549050816005819055507f0553476bf02ef2726e8ce5ced78d63e26e602e4a2257b1f559418e24b4633997818360405162000367929190620005a1565b60405180910390a15050565b60006064905090565b8280546200038a9062000663565b90600052602060002090601f016020900481019282620003ae5760008555620003fa565b82601f10620003c957805160ff1916838001178555620003fa565b82800160010185558215620003fa579182015b82811115620003f9578251825591602001919060010190620003dc565b5b5090506200040991906200040d565b5090565b5b80821115620004285760008160009055506001016200040e565b5090565b6000815190506200043d816200073d565b92915050565b600081519050620004548162000757565b92915050565b600080604083850312156200046e57600080fd5b60006200047e858286016200042c565b9250506020620004918582860162000443565b9150509250929050565b620004a681620005df565b82525050565b620004b78162000607565b82525050565b6000620004cc604383620005ce565b9150620004d982620006c8565b606082019050919050565b620004ef8162000659565b82525050565b60006040820190506200050c60008301856200049b565b6200051b60208301846200049b565b9392505050565b600060a082019050620005396000830188620004ac565b620005486020830187620004ac565b620005576040830186620004ac565b620005666060830185620004e4565b6200057560808301846200049b565b9695505050505050565b600060208201905081810360008301526200059a81620004bd565b9050919050565b6000604082019050620005b86000830185620004e4565b620005c76020830184620004e4565b9392505050565b600082825260208201905092915050565b6000620005ec8262000639565b9050919050565b6000620006008262000639565b9050919050565b6000819050919050565b60006200061e82620005df565b9050919050565b60006200063282620005f3565b9050919050565b600073ffffffffffffffffffffffffffffffffffffffff82169050919050565b6000819050919050565b600060028204905060018216806200067c57607f821691505b6020821081141562000693576200069262000699565b5b50919050565b7f4e487b7100000000000000000000000000000000000000000000000000000000600052602260045260246000fd5b7f476f7665726e6f72566f74657351756f72756d4672616374696f6e3a2071756f60008201527f72756d4e756d657261746f72206f7665722071756f72756d44656e6f6d696e6160208201527f746f720000000000000000000000000000000000000000000000000000000000604082015250565b620007488162000611565b81146200075457600080fd5b50565b620007628162000625565b81146200076e57600080fd5b50565b60805160a05160c05160601c60e05161010051610120516101405160601c616c3f620007e0600039600081816120fe01528181612d7e0152612e43015260006130cb0152600061310d015260006130ec0152600061302101526000613077015260006130a00152616c3f6000f3fe6080604052600436106102135760003560e01c80637d5e81e211610118578063da95691a116100a0578063e23a9a521161006f578063e23a9a52146108aa578063eb9019d4146108e7578063f8ce560a14610924578063fc0c546a14610961578063fe0d94c11461098c57610259565b8063da95691a146107ee578063dd4e2ba51461082b578063ddf0b00914610856578063deaaa7cc1461087f57610259565b8063ab58fb8e116100e7578063ab58fb8e146106e1578063b58131b01461071e578063c01f9e3714610749578063c59057e414610786578063d33219b4146107c357610259565b80637d5e81e21461062557806397c3d33414610662578063a7713a701461068d578063a890c910146106b857610259565b8063328dd9821161019b57806340e58ee51161016a57806340e58ee51461051a578063438596321461054357806354fd4d501461058057806356781388146105ab5780637b3c71d3146105e857610259565b8063328dd982146104355780633932abb1146104755780633bccf4fd146104a05780633e4f49e6146104dd57610259565b806306fdde03116101e257806306fdde0314610335578063160cbed71461036057806324bc1a641461039d5780632656227d146103c85780632d63f693146103f857610259565b8063013cf08b1461025e57806301ffc9a7146102a457806302a251a3146102e157806306f3f9e61461030c57610259565b36610259573073ffffffffffffffffffffffffffffffffffffffff166102376109a8565b73ffffffffffffffffffffffffffffffffffffffff161461025757600080fd5b005b600080fd5b34801561026a57600080fd5b5061028560048036038101906102809190614de7565b6109b7565b60405161029b9a99989796959493929190615da7565b60405180910390f35b3480156102b057600080fd5b506102cb60048036038101906102c69190614d95565b610b44565b6040516102d891906158e2565b60405180910390f35b3480156102ed57600080fd5b506102f6610b56565b6040516103039190615cdc565b60405180910390f35b34801561031857600080fd5b50610333600480360381019061032e9190614de7565b610b60565b005b34801561034157600080fd5b5061034a610be8565b6040516103579190615a3f565b60405180910390f35b34801561036c57600080fd5b5061038760048036038101906103829190614ae6565b610c7a565b6040516103949190615cdc565b60405180910390f35b3480156103a957600080fd5b506103b2610f9e565b6040516103bf9190615cdc565b60405180910390f35b6103e260048036038101906103dd9190614ae6565b610fba565b6040516103ef9190615cdc565b60405180910390f35b34801561040457600080fd5b5061041f600480360381019061041a9190614de7565b611185565b60405161042c9190615cdc565b60405180910390f35b34801561044157600080fd5b5061045c60048036038101906104579190614de7565b6111f3565b60405161046c9493929190615881565b60405180910390f35b34801561048157600080fd5b5061048a6114b0565b6040516104979190615cdc565b60405180910390f35b3480156104ac57600080fd5b506104c760048036038101906104c29190614f1d565b6114b9565b6040516104d49190615cdc565b60405180910390f35b3480156104e957600080fd5b5061050460048036038101906104ff9190614de7565b611543565b6040516105119190615a24565b60405180910390f35b34801561052657600080fd5b50610541600480360381019061053c9190614de7565b611555565b005b34801561054f57600080fd5b5061056a60048036038101906105659190614e39565b6118ed565b60405161057791906158e2565b60405180910390f35b34801561058c57600080fd5b5061059561195b565b6040516105a29190615a3f565b60405180910390f35b3480156105b757600080fd5b506105d260048036038101906105cd9190614e75565b611998565b6040516105df9190615cdc565b60405180910390f35b3480156105f457600080fd5b5061060f600480360381019061060a9190614eb1565b6119c9565b60405161061c9190615cdc565b60405180910390f35b34801561063157600080fd5b5061064c60048036038101906106479190614b91565b611a31565b6040516106599190615cdc565b60405180910390f35b34801561066e57600080fd5b50610677611a49565b6040516106849190615cdc565b60405180910390f35b34801561069957600080fd5b506106a2611a52565b6040516106af9190615cdc565b60405180910390f35b3480156106c457600080fd5b506106df60048036038101906106da9190614dbe565b611a5c565b005b3480156106ed57600080fd5b5061070860048036038101906107039190614de7565b611ae4565b6040516107159190615cdc565b60405180910390f35b34801561072a57600080fd5b50610733611bc0565b6040516107409190615cdc565b60405180910390f35b34801561075557600080fd5b50610770600480360381019061076b9190614de7565b611bd1565b60405161077d9190615cdc565b60405180910390f35b34801561079257600080fd5b506107ad60048036038101906107a89190614ae6565b611c3f565b6040516107ba9190615cdc565b60405180910390f35b3480156107cf57600080fd5b506107d8611c7b565b6040516107e591906156dc565b60405180910390f35b3480156107fa57600080fd5b5061081560048036038101906108109190614c54565b611ca5565b6040516108229190615cdc565b60405180910390f35b34801561083757600080fd5b50610840611cdc565b60405161084d9190615a3f565b60405180910390f35b34801561086257600080fd5b5061087d60048036038101906108789190614de7565b611d19565b005b34801561088b57600080fd5b50610894611fce565b6040516108a191906158fd565b60405180910390f35b3480156108b657600080fd5b506108d160048036038101906108cc9190614e39565b611ff2565b6040516108de9190615cc1565b60405180910390f35b3480156108f357600080fd5b5061090e60048036038101906109099190614aaa565b6120d6565b60405161091b9190615cdc565b60405180910390f35b34801561093057600080fd5b5061094b60048036038101906109469190614de7565b6120ea565b6040516109589190615cdc565b60405180910390f35b34801561096d57600080fd5b506109766120fc565b6040516109839190615a09565b60405180910390f35b6109a660048036038101906109a19190614de7565b612120565b005b60006109b26123d5565b905090565b6000806000806000806000806000808a99506109d28b611ae4565b97506109dd8b611185565b96506109e88b611bd1565b95506000600460008d815260200190815260200160002090508060000160009054906101000a900473ffffffffffffffffffffffffffffffffffffffff1699508060050154955080600601549450806007015493506000610a488d611543565b905060026007811115610a84577f4e487b7100000000000000000000000000000000000000000000000000000000600052602160045260246000fd5b816007811115610abd577f4e487b7100000000000000000000000000000000000000000000000000000000600052602160045260246000fd5b149350600780811115610af9577f4e487b7100000000000000000000000000000000000000000000000000000000600052602160045260246000fd5b816007811115610b32577f4e487b7100000000000000000000000000000000000000000000000000000000600052602160045260246000fd5b14925050509193959799509193959799565b6000610b4f826123ff565b9050919050565b600061b2fa905090565b610b686109a8565b73ffffffffffffffffffffffffffffffffffffffff16610b86612479565b73ffffffffffffffffffffffffffffffffffffffff1614610bdc576040517f08c379a0000000000000000000000000000000000000000000000000000000008152600401610bd390615a81565b60405180910390fd5b610be581612481565b50565b606060008054610bf790616427565b80601f0160208091040260200160405190810160405280929190818152602001828054610c2390616427565b8015610c705780601f10610c4557610100808354040283529160200191610c70565b820191906000526020600020905b815481529060010190602001808311610c5357829003601f168201915b5050505050905090565b600080610c8986868686611c3f565b905060046007811115610cc5577f4e487b7100000000000000000000000000000000000000000000000000000000600052602160045260246000fd5b610cce82611543565b6007811115610d06577f4e487b7100000000000000000000000000000000000000000000000000000000600052602160045260246000fd5b14610d46576040517f08c379a0000000000000000000000000000000000000000000000000000000008152600401610d3d90615c01565b60405180910390fd5b6000600260009054906101000a900473ffffffffffffffffffffffffffffffffffffffff1673ffffffffffffffffffffffffffffffffffffffff1663f27a0c926040518163ffffffff1660e01b815260040160206040518083038186803b158015610db057600080fd5b505afa158015610dc4573d6000803e3d6000fd5b505050506040513d601f19601f82011682018060405250810190610de89190614e10565b9050600260009054906101000a900473ffffffffffffffffffffffffffffffffffffffff1673ffffffffffffffffffffffffffffffffffffffff1663b1c5f4278888886000896040518663ffffffff1660e01b8152600401610e4e9594939291906157a3565b60206040518083038186803b158015610e6657600080fd5b505afa158015610e7a573d6000803e3d6000fd5b505050506040513d601f19601f82011682018060405250810190610e9e9190614d6c565b6003600084815260200190815260200160002081905550600260009054906101000a900473ffffffffffffffffffffffffffffffffffffffff1673ffffffffffffffffffffffffffffffffffffffff16638f2a0bb0888888600089876040518763ffffffff1660e01b8152600401610f1b9695949392919061580b565b600060405180830381600087803b158015610f3557600080fd5b505af1158015610f49573d6000803e3d6000fd5b505050507f9a2e42fd6722813d69113e7d0079d3d940171428df7373df9c7f7617cfda2892828242610f7b9190616138565b604051610f89929190615e43565b60405180910390a18192505050949350505050565b6000610fb5600143610fb09190616257565b6120ea565b905090565b600080610fc986868686611c3f565b90506000610fd682611543565b905060046007811115611012577f4e487b7100000000000000000000000000000000000000000000000000000000600052602160045260246000fd5b81600781111561104b577f4e487b7100000000000000000000000000000000000000000000000000000000600052602160045260246000fd5b14806110c757506005600781111561108c577f4e487b7100000000000000000000000000000000000000000000000000000000600052602160045260246000fd5b8160078111156110c5577f4e487b7100000000000000000000000000000000000000000000000000000000600052602160045260246000fd5b145b611106576040517f08c379a00000000000000000000000000000000000000000000000000000000081526004016110fd90615c01565b60405180910390fd5b600180600084815260200190815260200160002060020160006101000a81548160ff0219169083151502179055507f712ae1383f79ac853f8d882153778e0260ef8f03b504e2866e0593e04d2b291f826040516111639190615cdc565b60405180910390a16111788288888888612516565b8192505050949350505050565b60006111e2600160008481526020019081526020016000206000016040518060200160405290816000820160009054906101000a900467ffffffffffffffff1667ffffffffffffffff1667ffffffffffffffff168152505061252a565b67ffffffffffffffff169050919050565b606080606080600060046000878152602001908152602001600020905080600101816002018260030183600401838054806020026020016040519081016040528092919081815260200182805480156112a157602002820191906000526020600020905b8160009054906101000a900473ffffffffffffffffffffffffffffffffffffffff1673ffffffffffffffffffffffffffffffffffffffff1681526020019060010190808311611257575b50505050509350828054806020026020016040519081016040528092919081815260200182805480156112f357602002820191906000526020600020905b8154815260200190600101908083116112df575b5050505050925081805480602002602001604051908101604052809291908181526020016000905b828210156113c757838290600052602060002001805461133a90616427565b80601f016020809104026020016040519081016040528092919081815260200182805461136690616427565b80156113b35780601f10611388576101008083540402835291602001916113b3565b820191906000526020600020905b81548152906001019060200180831161139657829003601f168201915b50505050508152602001906001019061131b565b50505050915080805480602002602001604051908101604052809291908181526020016000905b8282101561149a57838290600052602060002001805461140d90616427565b80601f016020809104026020016040519081016040528092919081815260200182805461143990616427565b80156114865780601f1061145b57610100808354040283529160200191611486565b820191906000526020600020905b81548152906001019060200180831161146957829003601f168201915b5050505050815260200190600101906113ee565b5050505090509450945094509450509193509193565b60006001905090565b60008061151a6115127f150214d74d59b7d1e90c73fc22ef3d991dd0a76b046543d4d80ab92d2a50328f89896040516020016114f79392919061596b565b60405160208183030381529060405280519060200120612538565b868686612552565b90506115378782886040518060200160405280600081525061257d565b91505095945050505050565b600061154e8261271d565b9050919050565b60006004600083815260200190815260200160002090508060000160009054906101000a900473ffffffffffffffffffffffffffffffffffffffff1673ffffffffffffffffffffffffffffffffffffffff166115af612479565b73ffffffffffffffffffffffffffffffffffffffff16148061161057506115d4611bc0565b61160e8260000160009054906101000a900473ffffffffffffffffffffffffffffffffffffffff166001436116099190616257565b6120d6565b105b61164f576040517f08c379a000000000000000000000000000000000000000000000000000000000815260040161164690615c81565b60405180910390fd5b6118e8816001018054806020026020016040519081016040528092919081815260200182805480156116d657602002820191906000526020600020905b8160009054906101000a900473ffffffffffffffffffffffffffffffffffffffff1673ffffffffffffffffffffffffffffffffffffffff168152602001906001019080831161168c575b50505050508260020180548060200260200160405190810160405280929190818152602001828054801561172957602002820191906000526020600020905b815481526020019060010190808311611715575b50505050506118de84600301805480602002602001604051908101604052809291908181526020016000905b8282101561180157838290600052602060002001805461177490616427565b80601f01602080910402602001604051908101604052809291908181526020018280546117a090616427565b80156117ed5780601f106117c2576101008083540402835291602001916117ed565b820191906000526020600020905b8154815290600101906020018083116117d057829003601f168201915b505050505081526020019060010190611755565b5050505085600401805480602002602001604051908101604052809291908181526020016000905b828210156118d557838290600052602060002001805461184890616427565b80601f016020809104026020016040519081016040528092919081815260200182805461187490616427565b80156118c15780601f10611896576101008083540402835291602001916118c1565b820191906000526020600020905b8154815290600101906020018083116118a457829003601f168201915b505050505081526020019060010190611829565b505050506128a0565b8460090154612b1b565b505050565b60006004600084815260200190815260200160002060080160008373ffffffffffffffffffffffffffffffffffffffff1673ffffffffffffffffffffffffffffffffffffffff16815260200190815260200160002060000160009054906101000a900460ff16905092915050565b60606040518060400160405280600181526020017f3100000000000000000000000000000000000000000000000000000000000000815250905090565b6000806119a3612479565b90506119c08482856040518060200160405280600081525061257d565b91505092915050565b6000806119d4612479565b9050611a2686828787878080601f016020809104026020016040519081016040528093929190818152602001838380828437600081840152601f19601f8201169050808301925050505050505061257d565b915050949350505050565b6000611a3f85858585612b33565b9050949350505050565b60006064905090565b6000600554905090565b611a646109a8565b73ffffffffffffffffffffffffffffffffffffffff16611a82612479565b73ffffffffffffffffffffffffffffffffffffffff1614611ad8576040517f08c379a0000000000000000000000000000000000000000000000000000000008152600401611acf90615a81565b60405180910390fd5b611ae181612bd4565b50565b600080600260009054906101000a900473ffffffffffffffffffffffffffffffffffffffff1673ffffffffffffffffffffffffffffffffffffffff1663d45c443560036000868152602001908152602001600020546040518263ffffffff1660e01b8152600401611b5591906158fd565b60206040518083038186803b158015611b6d57600080fd5b505afa158015611b81573d6000803e3d6000fd5b505050506040513d601f19601f82011682018060405250810190611ba59190614e10565b905060018114611bb55780611bb8565b60005b915050919050565b6000683635c9adc5dea00000905090565b6000611c2e600160008481526020019081526020016000206001016040518060200160405290816000820160009054906101000a900467ffffffffffffffff1667ffffffffffffffff1667ffffffffffffffff168152505061252a565b67ffffffffffffffff169050919050565b600084848484604051602001611c589493929190615749565b6040516020818303038152906040528051906020012060001c9050949350505050565b6000600260009054906101000a900473ffffffffffffffffffffffffffffffffffffffff16905090565b6000611cbc611cb2612479565b8787878787612c73565b611cd18686611ccb87876128a0565b85611a31565b905095945050505050565b60606040518060400160405280601a81526020017f737570706f72743d627261766f2671756f72756d3d627261766f000000000000815250905090565b6000600460008381526020019081526020016000209050611fc981600101805480602002602001604051908101604052809291908181526020018280548015611db757602002820191906000526020600020905b8160009054906101000a900473ffffffffffffffffffffffffffffffffffffffff1673ffffffffffffffffffffffffffffffffffffffff1681526020019060010190808311611d6d575b505050505082600201805480602002602001604051908101604052809291908181526020018280548015611e0a57602002820191906000526020600020905b815481526020019060010190808311611df6575b5050505050611fbf84600301805480602002602001604051908101604052809291908181526020016000905b82821015611ee2578382906000526020600020018054611e5590616427565b80601f0160208091040260200160405190810160405280929190818152602001828054611e8190616427565b8015611ece5780601f10611ea357610100808354040283529160200191611ece565b820191906000526020600020905b815481529060010190602001808311611eb157829003601f168201915b505050505081526020019060010190611e36565b5050505085600401805480602002602001604051908101604052809291908181526020016000905b82821015611fb6578382906000526020600020018054611f2990616427565b80601f0160208091040260200160405190810160405280929190818152602001828054611f5590616427565b8015611fa25780601f10611f7757610100808354040283529160200191611fa2565b820191906000526020600020905b815481529060010190602001808311611f8557829003601f168201915b505050505081526020019060010190611f0a565b505050506128a0565b8460090154610c7a565b505050565b7f150214d74d59b7d1e90c73fc22ef3d991dd0a76b046543d4d80ab92d2a50328f81565b611ffa6142dd565b6004600084815260200190815260200160002060080160008373ffffffffffffffffffffffffffffffffffffffff1673ffffffffffffffffffffffffffffffffffffffff1681526020019081526020016000206040518060600160405290816000820160009054906101000a900460ff161515151581526020016000820160019054906101000a900460ff1660ff1660ff1681526020016000820160029054906101000a90046bffffffffffffffffffffffff166bffffffffffffffffffffffff166bffffffffffffffffffffffff1681525050905092915050565b60006120e28383612d7a565b905092915050565b60006120f582612e2f565b9050919050565b7f000000000000000000000000000000000000000000000000000000000000000081565b60006004600083815260200190815260200160002090506123d0816001018054806020026020016040519081016040528092919081815260200182805480156121be57602002820191906000526020600020905b8160009054906101000a900473ffffffffffffffffffffffffffffffffffffffff1673ffffffffffffffffffffffffffffffffffffffff1681526020019060010190808311612174575b50505050508260020180548060200260200160405190810160405280929190818152602001828054801561221157602002820191906000526020600020905b8154815260200190600101908083116121fd575b50505050506123c684600301805480602002602001604051908101604052809291908181526020016000905b828210156122e957838290600052602060002001805461225c90616427565b80601f016020809104026020016040519081016040528092919081815260200182805461228890616427565b80156122d55780601f106122aa576101008083540402835291602001916122d5565b820191906000526020600020905b8154815290600101906020018083116122b857829003601f168201915b50505050508152602001906001019061223d565b5050505085600401805480602002602001604051908101604052809291908181526020016000905b828210156123bd57838290600052602060002001805461233090616427565b80601f016020809104026020016040519081016040528092919081815260200182805461235c90616427565b80156123a95780601f1061237e576101008083540402835291602001916123a9565b820191906000526020600020905b81548152906001019060200180831161238c57829003601f168201915b505050505081526020019060010190612311565b505050506128a0565b8460090154610fba565b505050565b6000600260009054906101000a900473ffffffffffffffffffffffffffffffffffffffff16905090565b60007f6e665ced000000000000000000000000000000000000000000000000000000007bffffffffffffffffffffffffffffffffffffffffffffffffffffffff1916827bffffffffffffffffffffffffffffffffffffffffffffffffffffffff19161480612472575061247182612f05565b5b9050919050565b600033905090565b612489611a49565b8111156124cb576040517f08c379a00000000000000000000000000000000000000000000000000000000081526004016124c290615aa1565b60405180910390fd5b60006005549050816005819055507f0553476bf02ef2726e8ce5ced78d63e26e602e4a2257b1f559418e24b4633997818360405161250a929190615e43565b60405180910390a15050565b6125238585858585612f7f565b5050505050565b600081600001519050919050565b600061254b61254561301d565b83613137565b9050919050565b60008060006125638787878761316a565b9150915061257081613277565b8192505050949350505050565b600080600160008781526020019081526020016000209050600160078111156125cf577f4e487b7100000000000000000000000000000000000000000000000000000000600052602160045260246000fd5b6125d887611543565b6007811115612610577f4e487b7100000000000000000000000000000000000000000000000000000000600052602160045260246000fd5b14612650576040517f08c379a000000000000000000000000000000000000000000000000000000000815260040161264790615b61565b60405180910390fd5b60006126ae8661269f846000016040518060200160405290816000820160009054906101000a900467ffffffffffffffff1667ffffffffffffffff1667ffffffffffffffff168152505061252a565b67ffffffffffffffff166120d6565b90506126bc878787846135c8565b8573ffffffffffffffffffffffffffffffffffffffff167fb8e138887d0aa13bab447e82de9d5c1777041ecd21ca36ba824ff1e6c07ddda4888784886040516127089493929190615e6c565b60405180910390a28092505050949350505050565b60008061272983613864565b905060046007811115612765577f4e487b7100000000000000000000000000000000000000000000000000000000600052602160045260246000fd5b81600781111561279e577f4e487b7100000000000000000000000000000000000000000000000000000000600052602160045260246000fd5b146127ac578091505061289b565b6000600360008581526020019081526020016000205490506000801b8114156127d957819250505061289b565b600260009054906101000a900473ffffffffffffffffffffffffffffffffffffffff1673ffffffffffffffffffffffffffffffffffffffff16632ab0f529826040518263ffffffff1660e01b815260040161283491906158fd565b60206040518083038186803b15801561284c57600080fd5b505afa158015612860573d6000803e3d6000fd5b505050506040513d601f19601f820116820180604052508101906128849190614d43565b156128945760079250505061289b565b6005925050505b919050565b60606000825167ffffffffffffffff8111156128e5577f4e487b7100000000000000000000000000000000000000000000000000000000600052604160045260246000fd5b60405190808252806020026020018201604052801561291857816020015b60608152602001906001900390816129035790505b50905060005b8451811015612b10576000858281518110612962577f4e487b7100000000000000000000000000000000000000000000000000000000600052603260045260246000fd5b60200260200101515114612a79578481815181106129a9577f4e487b7100000000000000000000000000000000000000000000000000000000600052603260045260246000fd5b60200260200101518482815181106129ea577f4e487b7100000000000000000000000000000000000000000000000000000000600052603260045260246000fd5b6020026020010151604051602401612a0291906159e7565b60405160208183030381529060405290604051612a1f919061568e565b60405180910390207bffffffffffffffffffffffffffffffffffffffffffffffffffffffff19166020820180517bffffffffffffffffffffffffffffffffffffffffffffffffffffffff8381831617835250505050612abb565b838181518110612ab2577f4e487b7100000000000000000000000000000000000000000000000000000000600052603260045260246000fd5b60200260200101515b828281518110612af4577f4e487b7100000000000000000000000000000000000000000000000000000000600052603260045260246000fd5b602002602001018190525080612b099061648a565b905061291e565b508091505092915050565b6000612b2985858585613a41565b9050949350505050565b6000612bbe612b40612479565b8686865167ffffffffffffffff811115612b83577f4e487b7100000000000000000000000000000000000000000000000000000000600052604160045260246000fd5b604051908082528060200260200182016040528015612bb657816020015b6060815260200190600190039081612ba15790505b508787612c73565b612bca85858585613b33565b9050949350505050565b7f08f74ea46ef7894f65eabfb5e6e695de773a000b47c529ab559178069b226401600260009054906101000a900473ffffffffffffffffffffffffffffffffffffffff1682604051612c279291906156f7565b60405180910390a180600260006101000a81548173ffffffffffffffffffffffffffffffffffffffff021916908373ffffffffffffffffffffffffffffffffffffffff16021790555050565b6000818051906020012090506000612c968787612c9088886128a0565b85611c3f565b905060006004600083815260200190815260200160002090506000801b81600901541415612d6f57888160000160006101000a81548173ffffffffffffffffffffffffffffffffffffffff021916908373ffffffffffffffffffffffffffffffffffffffff16021790555087816001019080519060200190612d19929190614311565b5086816002019080519060200190612d3292919061439b565b5085816003019080519060200190612d4b9291906143e8565b5084816004019080519060200190612d64929190614448565b508281600901819055505b505050505050505050565b60007f000000000000000000000000000000000000000000000000000000000000000073ffffffffffffffffffffffffffffffffffffffff16633a46b1a884846040518363ffffffff1660e01b8152600401612dd7929190615720565b60206040518083038186803b158015612def57600080fd5b505afa158015612e03573d6000803e3d6000fd5b505050506040513d601f19601f82011682018060405250810190612e279190614e10565b905092915050565b6000612e39611a49565b612e41611a52565b7f000000000000000000000000000000000000000000000000000000000000000073ffffffffffffffffffffffffffffffffffffffff16638e539e8c856040518263ffffffff1660e01b8152600401612e9a9190615cdc565b60206040518083038186803b158015612eb257600080fd5b505afa158015612ec6573d6000803e3d6000fd5b505050506040513d601f19601f82011682018060405250810190612eea9190614e10565b612ef491906161fd565b612efe91906161cc565b9050919050565b60007fbf26d897000000000000000000000000000000000000000000000000000000007bffffffffffffffffffffffffffffffffffffffffffffffffffffffff1916827bffffffffffffffffffffffffffffffffffffffffffffffffffffffff19161480612f785750612f7782613e59565b5b9050919050565b600260009054906101000a900473ffffffffffffffffffffffffffffffffffffffff1673ffffffffffffffffffffffffffffffffffffffff1663e38335e5348686866000876040518763ffffffff1660e01b8152600401612fe49594939291906157a3565b6000604051808303818588803b158015612ffd57600080fd5b505af1158015613011573d6000803e3d6000fd5b50505050505050505050565b60007f000000000000000000000000000000000000000000000000000000000000000073ffffffffffffffffffffffffffffffffffffffff163073ffffffffffffffffffffffffffffffffffffffff1614801561309957507f000000000000000000000000000000000000000000000000000000000000000046145b156130c6577f00000000000000000000000000000000000000000000000000000000000000009050613134565b6131317f00000000000000000000000000000000000000000000000000000000000000007f00000000000000000000000000000000000000000000000000000000000000007f0000000000000000000000000000000000000000000000000000000000000000613ec3565b90505b90565b6000828260405160200161314c9291906156a5565b60405160208183030381529060405280519060200120905092915050565b6000807f7fffffffffffffffffffffffffffffff5d576e7357a4501ddfe92f46681b20a08360001c11156131a557600060039150915061326e565b601b8560ff16141580156131bd5750601c8560ff1614155b156131cf57600060049150915061326e565b6000600187878787604051600081526020016040526040516131f494939291906159a2565b6020604051602081039080840390855afa158015613216573d6000803e3d6000fd5b505050602060405103519050600073ffffffffffffffffffffffffffffffffffffffff168173ffffffffffffffffffffffffffffffffffffffff1614156132655760006001925092505061326e565b80600092509250505b94509492505050565b600060048111156132b1577f4e487b7100000000000000000000000000000000000000000000000000000000600052602160045260246000fd5b8160048111156132ea577f4e487b7100000000000000000000000000000000000000000000000000000000600052602160045260246000fd5b14156132f5576135c5565b6001600481111561332f577f4e487b7100000000000000000000000000000000000000000000000000000000600052602160045260246000fd5b816004811115613368577f4e487b7100000000000000000000000000000000000000000000000000000000600052602160045260246000fd5b14156133a9576040517f08c379a00000000000000000000000000000000000000000000000000000000081526004016133a090615a61565b60405180910390fd5b600260048111156133e3577f4e487b7100000000000000000000000000000000000000000000000000000000600052602160045260246000fd5b81600481111561341c577f4e487b7100000000000000000000000000000000000000000000000000000000600052602160045260246000fd5b141561345d576040517f08c379a000000000000000000000000000000000000000000000000000000000815260040161345490615b01565b60405180910390fd5b60036004811115613497577f4e487b7100000000000000000000000000000000000000000000000000000000600052602160045260246000fd5b8160048111156134d0577f4e487b7100000000000000000000000000000000000000000000000000000000600052602160045260246000fd5b1415613511576040517f08c379a000000000000000000000000000000000000000000000000000000000815260040161350890615b41565b60405180910390fd5b60048081111561354a577f4e487b7100000000000000000000000000000000000000000000000000000000600052602160045260246000fd5b816004811115613583577f4e487b7100000000000000000000000000000000000000000000000000000000600052602160045260246000fd5b14156135c4576040517f08c379a00000000000000000000000000000000000000000000000000000000081526004016135bb90615ba1565b60405180910390fd5b5b50565b600060046000868152602001908152602001600020905060008160080160008673ffffffffffffffffffffffffffffffffffffffff1673ffffffffffffffffffffffffffffffffffffffff16815260200190815260200160002090508060000160009054906101000a900460ff1615613676576040517f08c379a000000000000000000000000000000000000000000000000000000000815260040161366d90615ca1565b60405180910390fd5b60018160000160006101000a81548160ff021916908315150217905550838160000160016101000a81548160ff021916908360ff1602179055506136b983613efd565b8160000160026101000a8154816bffffffffffffffffffffffff02191690836bffffffffffffffffffffffff16021790555060006002811115613725577f4e487b7100000000000000000000000000000000000000000000000000000000600052602160045260246000fd5b60ff168460ff16141561375257828260060160008282546137469190616138565b9250508190555061385c565b6001600281111561378c577f4e487b7100000000000000000000000000000000000000000000000000000000600052602160045260246000fd5b60ff168460ff1614156137b957828260050160008282546137ad9190616138565b9250508190555061385b565b6002808111156137f2577f4e487b7100000000000000000000000000000000000000000000000000000000600052602160045260246000fd5b60ff168460ff16141561381f57828260070160008282546138139190616138565b9250508190555061385a565b6040517f08c379a000000000000000000000000000000000000000000000000000000000815260040161385190615c21565b60405180910390fd5b5b5b505050505050565b60008060016000848152602001908152602001600020604051806080016040529081600082016040518060200160405290816000820160009054906101000a900467ffffffffffffffff1667ffffffffffffffff1667ffffffffffffffff16815250508152602001600182016040518060200160405290816000820160009054906101000a900467ffffffffffffffff1667ffffffffffffffff1667ffffffffffffffff168152505081526020016002820160009054906101000a900460ff161515151581526020016002820160019054906101000a900460ff161515151581525050905080604001511561395d576007915050613a3c565b806060015115613971576002915050613a3c565b4361397f826000015161252a565b67ffffffffffffffff1610613998576000915050613a3c565b436139a6826020015161252a565b67ffffffffffffffff16106139bf576001915050613a3c565b6139cc8160200151613f58565b15613a01576139da83613f84565b80156139eb57506139ea83613fbb565b5b6139f65760036139f9565b60045b915050613a3c565b6040517f08c379a0000000000000000000000000000000000000000000000000000000008152600401613a3390615c41565b60405180910390fd5b919050565b600080613a5086868686613fe6565b90506000801b600360008381526020019081526020016000205414613b2757600260009054906101000a900473ffffffffffffffffffffffffffffffffffffffff1673ffffffffffffffffffffffffffffffffffffffff1663c4d252f560036000848152602001908152602001600020546040518263ffffffff1660e01b8152600401613add91906158fd565b600060405180830381600087803b158015613af757600080fd5b505af1158015613b0b573d6000803e3d6000fd5b5050505060036000828152602001908152602001600020600090555b80915050949350505050565b6000613b3d611bc0565b613b5333600143613b4e9190616257565b6120d6565b1015613b94576040517f08c379a0000000000000000000000000000000000000000000000000000000008152600401613b8b90615ae1565b60405180910390fd5b6000613ba98686868680519060200120611c3f565b90508451865114613bef576040517f08c379a0000000000000000000000000000000000000000000000000000000008152600401613be690615b21565b60405180910390fd5b8351865114613c33576040517f08c379a0000000000000000000000000000000000000000000000000000000008152600401613c2a90615b21565b60405180910390fd5b6000865111613c77576040517f08c379a0000000000000000000000000000000000000000000000000000000008152600401613c6e90615b81565b60405180910390fd5b6000600160008381526020019081526020016000209050613cd7816000016040518060200160405290816000820160009054906101000a900467ffffffffffffffff1667ffffffffffffffff1667ffffffffffffffff1681525050614223565b613d16576040517f08c379a0000000000000000000000000000000000000000000000000000000008152600401613d0d90615c61565b60405180910390fd5b6000613d28613d236114b0565b61423d565b613d314361423d565b613d3b919061618e565b90506000613d4f613d4a610b56565b61423d565b82613d5a919061618e565b9050613d72828460000161429490919063ffffffff16565b613d88818460010161429490919063ffffffff16565b7f7d84a6263ae0d98d3329bd7b46bb4e8d6f98cd35a7adb45c274c8b7fd5ebd5e084613db2612479565b8b8b8d5167ffffffffffffffff811115613df5577f4e487b7100000000000000000000000000000000000000000000000000000000600052604160045260246000fd5b604051908082528060200260200182016040528015613e2857816020015b6060815260200190600190039081613e135790505b508c88888e604051613e4299989796959493929190615cf7565b60405180910390a183945050505050949350505050565b60007f01ffc9a7000000000000000000000000000000000000000000000000000000007bffffffffffffffffffffffffffffffffffffffffffffffffffffffff1916827bffffffffffffffffffffffffffffffffffffffffffffffffffffffff1916149050919050565b60008383834630604051602001613ede959493929190615918565b6040516020818303038152906040528051906020012090509392505050565b60006bffffffffffffffffffffffff8016821115613f50576040517f08c379a0000000000000000000000000000000000000000000000000000000008152600401613f4790615ac1565b60405180910390fd5b819050919050565b6000613f63826142c3565b8015613f7d575043826000015167ffffffffffffffff1611155b9050919050565b6000806004600084815260200190815260200160002090508060050154613fb2613fad85611185565b6120ea565b10915050919050565b6000806004600084815260200190815260200160002090508060060154816005015411915050919050565b600080613ff586868686611c3f565b9050600061400282611543565b90506002600781111561403e577f4e487b7100000000000000000000000000000000000000000000000000000000600052602160045260246000fd5b816007811115614077577f4e487b7100000000000000000000000000000000000000000000000000000000600052602160045260246000fd5b141580156140f65750600660078111156140ba577f4e487b7100000000000000000000000000000000000000000000000000000000600052602160045260246000fd5b8160078111156140f3577f4e487b7100000000000000000000000000000000000000000000000000000000600052602160045260246000fd5b14155b80156141725750600780811115614136577f4e487b7100000000000000000000000000000000000000000000000000000000600052602160045260246000fd5b81600781111561416f577f4e487b7100000000000000000000000000000000000000000000000000000000600052602160045260246000fd5b14155b6141b1576040517f08c379a00000000000000000000000000000000000000000000000000000000081526004016141a890615be1565b60405180910390fd5b600180600084815260200190815260200160002060020160016101000a81548160ff0219169083151502179055507f789cf55be980739dad1d0699b93b58e806b51c9d96619bfa8fe0a28abaa7b30c8260405161420e9190615cdc565b60405180910390a18192505050949350505050565b600080826000015167ffffffffffffffff16149050919050565b600067ffffffffffffffff801682111561428c576040517f08c379a000000000000000000000000000000000000000000000000000000000815260040161428390615bc1565b60405180910390fd5b819050919050565b808260000160006101000a81548167ffffffffffffffff021916908367ffffffffffffffff1602179055505050565b600080826000015167ffffffffffffffff16119050919050565b6040518060600160405280600015158152602001600060ff16815260200160006bffffffffffffffffffffffff1681525090565b82805482825590600052602060002090810192821561438a579160200282015b828111156143895782518260006101000a81548173ffffffffffffffffffffffffffffffffffffffff021916908373ffffffffffffffffffffffffffffffffffffffff16021790555091602001919060010190614331565b5b50905061439791906144a8565b5090565b8280548282559060005260206000209081019282156143d7579160200282015b828111156143d65782518255916020019190600101906143bb565b5b5090506143e491906144a8565b5090565b828054828255906000526020600020908101928215614437579160200282015b828111156144365782518290805190602001906144269291906144c5565b5091602001919060010190614408565b5b509050614444919061454b565b5090565b828054828255906000526020600020908101928215614497579160200282015b8281111561449657825182908051906020019061448692919061456f565b5091602001919060010190614468565b5b5090506144a491906145f5565b5090565b5b808211156144c15760008160009055506001016144a9565b5090565b8280546144d190616427565b90600052602060002090601f0160209004810192826144f3576000855561453a565b82601f1061450c57805160ff191683800117855561453a565b8280016001018555821561453a579182015b8281111561453957825182559160200191906001019061451e565b5b50905061454791906144a8565b5090565b5b8082111561456b57600081816145629190614619565b5060010161454c565b5090565b82805461457b90616427565b90600052602060002090601f01602090048101928261459d57600085556145e4565b82601f106145b657805160ff19168380011785556145e4565b828001600101855582156145e4579182015b828111156145e35782518255916020019190600101906145c8565b5b5090506145f191906144a8565b5090565b5b80821115614615576000818161460c9190614659565b506001016145f6565b5090565b50805461462590616427565b6000825580601f106146375750614656565b601f01602090049060005260206000209081019061465591906144a8565b5b50565b50805461466590616427565b6000825580601f106146775750614696565b601f01602090049060005260206000209081019061469591906144a8565b5b50565b60006146ac6146a784615edd565b615eb8565b905080838252602082019050828560208602820111156146cb57600080fd5b60005b858110156146fb57816146e188826148a7565b8452602084019350602083019250506001810190506146ce565b5050509392505050565b600061471861471384615f09565b615eb8565b9050808382526020820190508260005b85811015614758578135850161473e88826149b8565b845260208401935060208301925050600181019050614728565b5050509392505050565b600061477561477084615f35565b615eb8565b9050808382526020820190508260005b858110156147b5578135850161479b8882614a41565b845260208401935060208301925050600181019050614785565b5050509392505050565b60006147d26147cd84615f61565b615eb8565b905080838252602082019050828560208602820111156147f157600080fd5b60005b8581101561482157816148078882614a6b565b8452602084019350602083019250506001810190506147f4565b5050509392505050565b600061483e61483984615f8d565b615eb8565b90508281526020810184848401111561485657600080fd5b6148618482856163e5565b509392505050565b600061487c61487784615fbe565b615eb8565b90508281526020810184848401111561489457600080fd5b61489f8482856163e5565b509392505050565b6000813590506148b681616b68565b92915050565b600082601f8301126148cd57600080fd5b81356148dd848260208601614699565b91505092915050565b600082601f8301126148f757600080fd5b8135614907848260208601614705565b91505092915050565b600082601f83011261492157600080fd5b8135614931848260208601614762565b91505092915050565b600082601f83011261494b57600080fd5b813561495b8482602086016147bf565b91505092915050565b60008151905061497381616b7f565b92915050565b60008135905061498881616b96565b92915050565b60008151905061499d81616b96565b92915050565b6000813590506149b281616bad565b92915050565b600082601f8301126149c957600080fd5b81356149d984826020860161482b565b91505092915050565b6000813590506149f181616bc4565b92915050565b60008083601f840112614a0957600080fd5b8235905067ffffffffffffffff811115614a2257600080fd5b602083019150836001820283011115614a3a57600080fd5b9250929050565b600082601f830112614a5257600080fd5b8135614a62848260208601614869565b91505092915050565b600081359050614a7a81616bdb565b92915050565b600081519050614a8f81616bdb565b92915050565b600081359050614aa481616bf2565b92915050565b60008060408385031215614abd57600080fd5b6000614acb858286016148a7565b9250506020614adc85828601614a6b565b9150509250929050565b60008060008060808587031215614afc57600080fd5b600085013567ffffffffffffffff811115614b1657600080fd5b614b22878288016148bc565b945050602085013567ffffffffffffffff811115614b3f57600080fd5b614b4b8782880161493a565b935050604085013567ffffffffffffffff811115614b6857600080fd5b614b74878288016148e6565b9250506060614b8587828801614979565b91505092959194509250565b60008060008060808587031215614ba757600080fd5b600085013567ffffffffffffffff811115614bc157600080fd5b614bcd878288016148bc565b945050602085013567ffffffffffffffff811115614bea57600080fd5b614bf68782880161493a565b935050604085013567ffffffffffffffff811115614c1357600080fd5b614c1f878288016148e6565b925050606085013567ffffffffffffffff811115614c3c57600080fd5b614c4887828801614a41565b91505092959194509250565b600080600080600060a08688031215614c6c57600080fd5b600086013567ffffffffffffffff811115614c8657600080fd5b614c92888289016148bc565b955050602086013567ffffffffffffffff811115614caf57600080fd5b614cbb8882890161493a565b945050604086013567ffffffffffffffff811115614cd857600080fd5b614ce488828901614910565b935050606086013567ffffffffffffffff811115614d0157600080fd5b614d0d888289016148e6565b925050608086013567ffffffffffffffff811115614d2a57600080fd5b614d3688828901614a41565b9150509295509295909350565b600060208284031215614d5557600080fd5b6000614d6384828501614964565b91505092915050565b600060208284031215614d7e57600080fd5b6000614d8c8482850161498e565b91505092915050565b600060208284031215614da757600080fd5b6000614db5848285016149a3565b91505092915050565b600060208284031215614dd057600080fd5b6000614dde848285016149e2565b91505092915050565b600060208284031215614df957600080fd5b6000614e0784828501614a6b565b91505092915050565b600060208284031215614e2257600080fd5b6000614e3084828501614a80565b91505092915050565b60008060408385031215614e4c57600080fd5b6000614e5a85828601614a6b565b9250506020614e6b858286016148a7565b9150509250929050565b60008060408385031215614e8857600080fd5b6000614e9685828601614a6b565b9250506020614ea785828601614a95565b9150509250929050565b60008060008060608587031215614ec757600080fd5b6000614ed587828801614a6b565b9450506020614ee687828801614a95565b935050604085013567ffffffffffffffff811115614f0357600080fd5b614f0f878288016149f7565b925092505092959194509250565b600080600080600060a08688031215614f3557600080fd5b6000614f4388828901614a6b565b9550506020614f5488828901614a95565b9450506040614f6588828901614a95565b9350506060614f7688828901614979565b9250506080614f8788828901614979565b9150509295509295909350565b6000614fa08383614fec565b60208301905092915050565b6000614fb883836151f4565b905092915050565b6000614fcc8383615293565b905092915050565b6000614fe08383615634565b60208301905092915050565b614ff58161628b565b82525050565b6150048161628b565b82525050565b60006150158261602f565b61501f81856160a5565b935061502a83615fef565b8060005b8381101561505b5781516150428882614f94565b975061504d83616071565b92505060018101905061502e565b5085935050505092915050565b60006150738261603a565b61507d81856160b6565b93508360208202850161508f85615fff565b8060005b858110156150cb57848403895281516150ac8582614fac565b94506150b78361607e565b925060208a01995050600181019050615093565b50829750879550505050505092915050565b60006150e882616045565b6150f281856160c7565b9350836020820285016151048561600f565b8060005b8581101561514057848403895281516151218582614fc0565b945061512c8361608b565b925060208a01995050600181019050615108565b50829750879550505050505092915050565b600061515d82616050565b61516781856160d8565b93506151728361601f565b8060005b838110156151a357815161518a8882614fd4565b975061519583616098565b925050600181019050615176565b5085935050505092915050565b6151b9816162af565b82525050565b6151c8816162af565b82525050565b6151d7816162bb565b82525050565b6151ee6151e9826162bb565b6164d3565b82525050565b60006151ff8261605b565b61520981856160e9565b93506152198185602086016163f4565b615222816165c8565b840191505092915050565b60006152388261605b565b61524281856160fa565b93506152528185602086016163f4565b61525b816165c8565b840191505092915050565b61526f81616383565b82525050565b61527e816163a7565b82525050565b61528d816163b9565b82525050565b600061529e82616066565b6152a8818561610b565b93506152b88185602086016163f4565b6152c1816165c8565b840191505092915050565b60006152d782616066565b6152e1818561611c565b93506152f18185602086016163f4565b6152fa816165c8565b840191505092915050565b600061531082616066565b61531a818561612d565b935061532a8185602086016163f4565b80840191505092915050565b600061534360188361611c565b915061534e826165e6565b602082019050919050565b600061536660188361611c565b91506153718261660f565b602082019050919050565b600061538960438361611c565b915061539482616638565b606082019050919050565b60006153ac60268361611c565b91506153b7826166ad565b604082019050919050565b60006153cf60438361611c565b91506153da826166fc565b606082019050919050565b60006153f2601f8361611c565b91506153fd82616771565b602082019050919050565b600061541560028361612d565b91506154208261679a565b600282019050919050565b600061543860218361611c565b9150615443826167c3565b604082019050919050565b600061545b60228361611c565b915061546682616812565b604082019050919050565b600061547e60238361611c565b915061548982616861565b604082019050919050565b60006154a160188361611c565b91506154ac826168b0565b602082019050919050565b60006154c460228361611c565b91506154cf826168d9565b604082019050919050565b60006154e760268361611c565b91506154f282616928565b604082019050919050565b600061550a601d8361611c565b915061551582616977565b602082019050919050565b600061552d60218361611c565b9150615538826169a0565b604082019050919050565b6000615550602d8361611c565b915061555b826169ef565b604082019050919050565b6000615573601d8361611c565b915061557e82616a3e565b602082019050919050565b600061559660218361611c565b91506155a182616a67565b604082019050919050565b60006155b960278361611c565b91506155c482616ab6565b604082019050919050565b60006155dc602d8361611c565b91506155e782616b05565b604082019050919050565b60608201600082015161560860008501826151b0565b50602082015161561b6020850182615661565b50604082015161562e604085018261567f565b50505050565b61563d81616340565b82525050565b61564c81616340565b82525050565b61565b816163d3565b82525050565b61566a8161635e565b82525050565b6156798161635e565b82525050565b6156888161636b565b82525050565b600061569a8284615305565b915081905092915050565b60006156b082615408565b91506156bc82856151dd565b6020820191506156cc82846151dd565b6020820191508190509392505050565b60006020820190506156f16000830184614ffb565b92915050565b600060408201905061570c6000830185614ffb565b6157196020830184614ffb565b9392505050565b60006040820190506157356000830185614ffb565b6157426020830184615643565b9392505050565b60006080820190508181036000830152615763818761500a565b905081810360208301526157778186615152565b9050818103604083015261578b8185615068565b905061579a60608301846151ce565b95945050505050565b600060a08201905081810360008301526157bd818861500a565b905081810360208301526157d18187615152565b905081810360408301526157e58186615068565b90506157f46060830185615284565b61580160808301846151ce565b9695505050505050565b600060c0820190508181036000830152615825818961500a565b905081810360208301526158398188615152565b9050818103604083015261584d8187615068565b905061585c6060830186615284565b61586960808301856151ce565b61587660a0830184615643565b979650505050505050565b6000608082019050818103600083015261589b818761500a565b905081810360208301526158af8186615152565b905081810360408301526158c381856150dd565b905081810360608301526158d78184615068565b905095945050505050565b60006020820190506158f760008301846151bf565b92915050565b600060208201905061591260008301846151ce565b92915050565b600060a08201905061592d60008301886151ce565b61593a60208301876151ce565b61594760408301866151ce565b6159546060830185615643565b6159616080830184614ffb565b9695505050505050565b600060608201905061598060008301866151ce565b61598d6020830185615643565b61599a6040830184615670565b949350505050565b60006080820190506159b760008301876151ce565b6159c46020830186615670565b6159d160408301856151ce565b6159de60608301846151ce565b95945050505050565b60006020820190508181036000830152615a01818461522d565b905092915050565b6000602082019050615a1e6000830184615266565b92915050565b6000602082019050615a396000830184615275565b92915050565b60006020820190508181036000830152615a5981846152cc565b905092915050565b60006020820190508181036000830152615a7a81615336565b9050919050565b60006020820190508181036000830152615a9a81615359565b9050919050565b60006020820190508181036000830152615aba8161537c565b9050919050565b60006020820190508181036000830152615ada8161539f565b9050919050565b60006020820190508181036000830152615afa816153c2565b9050919050565b60006020820190508181036000830152615b1a816153e5565b9050919050565b60006020820190508181036000830152615b3a8161542b565b9050919050565b60006020820190508181036000830152615b5a8161544e565b9050919050565b60006020820190508181036000830152615b7a81615471565b9050919050565b60006020820190508181036000830152615b9a81615494565b9050919050565b60006020820190508181036000830152615bba816154b7565b9050919050565b60006020820190508181036000830152615bda816154da565b9050919050565b60006020820190508181036000830152615bfa816154fd565b9050919050565b60006020820190508181036000830152615c1a81615520565b9050919050565b60006020820190508181036000830152615c3a81615543565b9050919050565b60006020820190508181036000830152615c5a81615566565b9050919050565b60006020820190508181036000830152615c7a81615589565b9050919050565b60006020820190508181036000830152615c9a816155ac565b9050919050565b60006020820190508181036000830152615cba816155cf565b9050919050565b6000606082019050615cd660008301846155f2565b92915050565b6000602082019050615cf16000830184615643565b92915050565b600061012082019050615d0d600083018c615643565b615d1a602083018b614ffb565b8181036040830152615d2c818a61500a565b90508181036060830152615d408189615152565b90508181036080830152615d5481886150dd565b905081810360a0830152615d688187615068565b9050615d7760c0830186615652565b615d8460e0830185615652565b818103610100830152615d9781846152cc565b90509a9950505050505050505050565b600061014082019050615dbd600083018d615643565b615dca602083018c614ffb565b615dd7604083018b615643565b615de4606083018a615643565b615df16080830189615643565b615dfe60a0830188615643565b615e0b60c0830187615643565b615e1860e0830186615643565b615e266101008301856151bf565b615e346101208301846151bf565b9b9a5050505050505050505050565b6000604082019050615e586000830185615643565b615e656020830184615643565b9392505050565b6000608082019050615e816000830187615643565b615e8e6020830186615670565b615e9b6040830185615643565b8181036060830152615ead81846152cc565b905095945050505050565b6000615ec2615ed3565b9050615ece8282616459565b919050565b6000604051905090565b600067ffffffffffffffff821115615ef857615ef7616599565b5b602082029050602081019050919050565b600067ffffffffffffffff821115615f2457615f23616599565b5b602082029050602081019050919050565b600067ffffffffffffffff821115615f5057615f4f616599565b5b602082029050602081019050919050565b600067ffffffffffffffff821115615f7c57615f7b616599565b5b602082029050602081019050919050565b600067ffffffffffffffff821115615fa857615fa7616599565b5b615fb1826165c8565b9050602081019050919050565b600067ffffffffffffffff821115615fd957615fd8616599565b5b615fe2826165c8565b9050602081019050919050565b6000819050602082019050919050565b6000819050602082019050919050565b6000819050602082019050919050565b6000819050602082019050919050565b600081519050919050565b600081519050919050565b600081519050919050565b600081519050919050565b600081519050919050565b600081519050919050565b6000602082019050919050565b6000602082019050919050565b6000602082019050919050565b6000602082019050919050565b600082825260208201905092915050565b600082825260208201905092915050565b600082825260208201905092915050565b600082825260208201905092915050565b600082825260208201905092915050565b600082825260208201905092915050565b600082825260208201905092915050565b600082825260208201905092915050565b600081905092915050565b600061614382616340565b915061614e83616340565b9250827fffffffffffffffffffffffffffffffffffffffffffffffffffffffffffffffff03821115616183576161826164dd565b5b828201905092915050565b60006161998261634a565b91506161a48361634a565b92508267ffffffffffffffff038211156161c1576161c06164dd565b5b828201905092915050565b60006161d782616340565b91506161e283616340565b9250826161f2576161f161650c565b5b828204905092915050565b600061620882616340565b915061621383616340565b9250817fffffffffffffffffffffffffffffffffffffffffffffffffffffffffffffffff048311821515161561624c5761624b6164dd565b5b828202905092915050565b600061626282616340565b915061626d83616340565b9250828210156162805761627f6164dd565b5b828203905092915050565b600061629682616320565b9050919050565b60006162a882616320565b9050919050565b60008115159050919050565b6000819050919050565b60007fffffffff0000000000000000000000000000000000000000000000000000000082169050919050565b60006162fc8261629d565b9050919050565b600081905061631182616b54565b919050565b6000819050919050565b600073ffffffffffffffffffffffffffffffffffffffff82169050919050565b6000819050919050565b600067ffffffffffffffff82169050919050565b600060ff82169050919050565b60006bffffffffffffffffffffffff82169050919050565b600061638e82616395565b9050919050565b60006163a082616320565b9050919050565b60006163b282616303565b9050919050565b60006163cc6163c783616316565b6165d9565b9050919050565b60006163de8261634a565b9050919050565b82818337600083830152505050565b60005b838110156164125780820151818401526020810190506163f7565b83811115616421576000848401525b50505050565b6000600282049050600182168061643f57607f821691505b602082108114156164535761645261656a565b5b50919050565b616462826165c8565b810181811067ffffffffffffffff8211171561648157616480616599565b5b80604052505050565b600061649582616340565b91507fffffffffffffffffffffffffffffffffffffffffffffffffffffffffffffffff8214156164c8576164c76164dd565b5b600182019050919050565b6000819050919050565b7f4e487b7100000000000000000000000000000000000000000000000000000000600052601160045260246000fd5b7f4e487b7100000000000000000000000000000000000000000000000000000000600052601260045260246000fd5b7f4e487b7100000000000000000000000000000000000000000000000000000000600052602160045260246000fd5b7f4e487b7100000000000000000000000000000000000000000000000000000000600052602260045260246000fd5b7f4e487b7100000000000000000000000000000000000000000000000000000000600052604160045260246000fd5b6000601f19601f8301169050919050565b60008160001b9050919050565b7f45434453413a20696e76616c6964207369676e61747572650000000000000000600082015250565b7f476f7665726e6f723a206f6e6c79476f7665726e616e63650000000000000000600082015250565b7f476f7665726e6f72566f74657351756f72756d4672616374696f6e3a2071756f60008201527f72756d4e756d657261746f72206f7665722071756f72756d44656e6f6d696e6160208201527f746f720000000000000000000000000000000000000000000000000000000000604082015250565b7f53616665436173743a2076616c756520646f65736e27742066697420696e203960008201527f3620626974730000000000000000000000000000000000000000000000000000602082015250565b7f476f7665726e6f72436f6d7061746962696c697479427261766f3a2070726f7060008201527f6f73657220766f7465732062656c6f772070726f706f73616c2074687265736860208201527f6f6c640000000000000000000000000000000000000000000000000000000000604082015250565b7f45434453413a20696e76616c6964207369676e6174757265206c656e67746800600082015250565b7f1901000000000000000000000000000000000000000000000000000000000000600082015250565b7f476f7665726e6f723a20696e76616c69642070726f706f73616c206c656e677460008201527f6800000000000000000000000000000000000000000000000000000000000000602082015250565b7f45434453413a20696e76616c6964207369676e6174757265202773272076616c60008201527f7565000000000000000000000000000000000000000000000000000000000000602082015250565b7f476f7665726e6f723a20766f7465206e6f742063757272656e746c792061637460008201527f6976650000000000000000000000000000000000000000000000000000000000602082015250565b7f476f7665726e6f723a20656d7074792070726f706f73616c0000000000000000600082015250565b7f45434453413a20696e76616c6964207369676e6174757265202776272076616c60008201527f7565000000000000000000000000000000000000000000000000000000000000602082015250565b7f53616665436173743a2076616c756520646f65736e27742066697420696e203660008201527f3420626974730000000000000000000000000000000000000000000000000000602082015250565b7f476f7665726e6f723a2070726f706f73616c206e6f7420616374697665000000600082015250565b7f476f7665726e6f723a2070726f706f73616c206e6f742073756363657373667560008201527f6c00000000000000000000000000000000000000000000000000000000000000602082015250565b7f476f7665726e6f72436f6d7061746962696c697479427261766f3a20696e766160008201527f6c696420766f7465207479706500000000000000000000000000000000000000602082015250565b7f476f7665726e6f723a20756e6b6e6f776e2070726f706f73616c206964000000600082015250565b7f476f7665726e6f723a2070726f706f73616c20616c726561647920657869737460008201527f7300000000000000000000000000000000000000000000000000000000000000602082015250565b7f476f7665726e6f72427261766f3a2070726f706f7365722061626f766520746860008201527f726573686f6c6400000000000000000000000000000000000000000000000000602082015250565b7f476f7665726e6f72436f6d7061746962696c697479427261766f3a20766f746560008201527f20616c7265616479206361737400000000000000000000000000000000000000602082015250565b60088110616b6557616b6461653b565b5b50565b616b718161628b565b8114616b7c57600080fd5b50565b616b88816162af565b8114616b9357600080fd5b50565b616b9f816162bb565b8114616baa57600080fd5b50565b616bb6816162c5565b8114616bc157600080fd5b50565b616bcd816162f1565b8114616bd857600080fd5b50565b616be481616340565b8114616bef57600080fd5b50565b616bfb8161635e565b8114616c0657600080fd5b5056fea2646970667358221220643cb5a63540d7e7e0cdc0650753dbe2a523b38f235ad5f248325cc5096a53c264736f6c63430008030033",
  "linkReferences": {},
  "deployedLinkReferences": {}
}