{
  "contracts/mocks/EtherReceiverMock.sol": {
    "EtherReceiverMock": {
      "abi": [
        {
          "inputs": [
            {
              "internalType": "bool",
              "name": "acceptEther",
              "type": "bool"
            }
          ],
          "name": "setAcceptEther",
          "outputs": [],
          "stateMutability": "nonpayable",
          "type": "function"
        },
        {
          "stateMutability": "payable",
          "type": "receive"
        }
      ],
      "evm": {
        "bytecode": {
          "linkReferences": {},
          "object": "608060405234801561001057600080fd5b5061010f806100206000396000f3fe608060405260043610601f5760003560e01c80634fea120c14604057603b565b36603b5760008054906101000a900460ff16603957600080fd5b005b600080fd5b348015604b57600080fd5b5060626004803603810190605e91906093565b6064565b005b806000806101000a81548160ff02191690831515021790555050565b600081359050608d8160c5565b92915050565b60006020828403121560a457600080fd5b600060b0848285016080565b91505092915050565b60008115159050919050565b60cc8160b9565b811460d657600080fd5b5056fea264697066735822122030952c54456c7be6398867a5514971f1ff8bce785add6edb5d6e3fcd93d0f14064736f6c63430008030033",
          "opcodes": "PUSH1 0x80 PUSH1 0x40 MSTORE CALLVALUE DUP1 ISZERO PUSH2 0x10 JUMPI PUSH1 0x0 DUP1 REVERT JUMPDEST POP PUSH2 0x10F DUP1 PUSH2 0x20 PUSH1 0x0 CODECOPY PUSH1 0x0 RETURN INVALID PUSH1 0x80 PUSH1 0x40 MSTORE PUSH1 0x4 CALLDATASIZE LT PUSH1 0x1F JUMPI PUSH1 0x0 CALLDATALOAD PUSH1 0xE0 SHR DUP1 PUSH4 0x4FEA120C EQ PUSH1 0x40 JUMPI PUSH1 0x3B JUMP JUMPDEST CALLDATASIZE PUSH1 0x3B JUMPI PUSH1 0x0 DUP1 SLOAD SWAP1 PUSH2 0x100 EXP SWAP1 DIV PUSH1 0xFF AND PUSH1 0x39 JUMPI PUSH1 0x0 DUP1 REVERT JUMPDEST STOP JUMPDEST PUSH1 0x0 DUP1 REVERT JUMPDEST CALLVALUE DUP1 ISZERO PUSH1 0x4B JUMPI PUSH1 0x0 DUP1 REVERT JUMPDEST POP PUSH1 0x62 PUSH1 0x4 DUP1 CALLDATASIZE SUB DUP2 ADD SWAP1 PUSH1 0x5E SWAP2 SWAP1 PUSH1 0x93 JUMP JUMPDEST PUSH1 0x64 JUMP JUMPDEST STOP JUMPDEST DUP1 PUSH1 0x0 DUP1 PUSH2 0x100 EXP DUP2 SLOAD DUP2 PUSH1 0xFF MUL NOT AND SWAP1 DUP4 ISZERO ISZERO MUL OR SWAP1 SSTORE POP POP JUMP JUMPDEST PUSH1 0x0 DUP2 CALLDATALOAD SWAP1 POP PUSH1 0x8D DUP2 PUSH1 0xC5 JUMP JUMPDEST SWAP3 SWAP2 POP POP JUMP JUMPDEST PUSH1 0x0 PUSH1 0x20 DUP3 DUP5 SUB SLT ISZERO PUSH1 0xA4 JUMPI PUSH1 0x0 DUP1 REVERT JUMPDEST PUSH1 0x0 PUSH1 0xB0 DUP5 DUP3 DUP6 ADD PUSH1 0x80 JUMP JUMPDEST SWAP2 POP POP SWAP3 SWAP2 POP POP JUMP JUMPDEST PUSH1 0x0 DUP2 ISZERO ISZERO SWAP1 POP SWAP2 SWAP1 POP JUMP JUMPDEST PUSH1 0xCC DUP2 PUSH1 0xB9 JUMP JUMPDEST DUP2 EQ PUSH1 0xD6 JUMPI PUSH1 0x0 DUP1 REVERT JUMPDEST POP JUMP INVALID LOG2 PUSH5 0x6970667358 0x22 SLT KECCAK256 ADDRESS SWAP6 0x2C SLOAD GASLIMIT PUSH13 0x7BE6398867A5514971F1FF8BCE PUSH25 0x5ADD6EDB5D6E3FCD93D0F14064736F6C634300080300330000 "
        },
        "methodIdentifiers": {
          "setAcceptEther(bool)": "4fea120c"
        }
      }
    }
  }
}