{
  "contracts/mocks/ContextMock.sol": {
    "ContextMock": {
      "abi": [
        {
          "anonymous": false,
          "inputs": [
            {
              "indexed": false,
              "internalType": "bytes",
              "name": "data",
              "type": "bytes"
            },
            {
              "indexed": false,
              "internalType": "uint256",
              "name": "integerValue",
              "type": "uint256"
            },
            {
              "indexed": false,
              "internalType": "string",
              "name": "stringValue",
              "type": "string"
            }
          ],
          "name": "Data",
          "type": "event"
        },
        {
          "anonymous": false,
          "inputs": [
            {
              "indexed": false,
              "internalType": "address",
              "name": "sender",
              "type": "address"
            }
          ],
          "name": "Sender",
          "type": "event"
        },
        {
          "inputs": [
            {
              "internalType": "uint256",
              "name": "integerValue",
              "type": "uint256"
            },
            {
              "internalType": "string",
              "name": "stringValue",
              "type": "string"
            }
          ],
          "name": "msgData",
          "outputs": [],
          "stateMutability": "nonpayable",
          "type": "function"
        },
        {
          "inputs": [],
          "name": "msgSender",
          "outputs": [],
          "stateMutability": "nonpayable",
          "type": "function"
        }
      ],
      "evm": {
        "bytecode": {
          "linkReferences": {},
          "object": "608060405234801561001057600080fd5b50610473806100206000396000f3fe608060405234801561001057600080fd5b50600436106100365760003560e01c8063376bf2621461003b578063d737d0c714610057575b600080fd5b6100556004803603810190610050919061017a565b610061565b005b61005f6100a8565b005b7faf235354a0a47c91ee171961326335cb2d1a8e55b8a89859b0e61eb049e50ea061008a6100e8565b848460405161009c949392919061026d565b60405180910390a15050565b7fd6558c3ed910d959271054471fd1c326679d9fece99c5091b00ed89627cf2bfc6100d16100f5565b6040516100de9190610252565b60405180910390a1565b3660008036915091509091565b600033905090565b600061011061010b846102d9565b6102b4565b90508281526020810184848401111561012857600080fd5b610133848285610373565b509392505050565b600082601f83011261014c57600080fd5b813561015c8482602086016100fd565b91505092915050565b60008135905061017481610426565b92915050565b6000806040838503121561018d57600080fd5b600061019b85828601610165565b925050602083013567ffffffffffffffff8111156101b857600080fd5b6101c48582860161013b565b9150509250929050565b6101d781610337565b82525050565b60006101e98385610315565b93506101f6838584610373565b6101ff83610415565b840190509392505050565b60006102158261030a565b61021f8185610326565b935061022f818560208601610382565b61023881610415565b840191505092915050565b61024c81610369565b82525050565b600060208201905061026760008301846101ce565b92915050565b600060608201905081810360008301526102888186886101dd565b90506102976020830185610243565b81810360408301526102a9818461020a565b905095945050505050565b60006102be6102cf565b90506102ca82826103b5565b919050565b6000604051905090565b600067ffffffffffffffff8211156102f4576102f36103e6565b5b6102fd82610415565b9050602081019050919050565b600081519050919050565b600082825260208201905092915050565b600082825260208201905092915050565b600061034282610349565b9050919050565b600073ffffffffffffffffffffffffffffffffffffffff82169050919050565b6000819050919050565b82818337600083830152505050565b60005b838110156103a0578082015181840152602081019050610385565b838111156103af576000848401525b50505050565b6103be82610415565b810181811067ffffffffffffffff821117156103dd576103dc6103e6565b5b80604052505050565b7f4e487b7100000000000000000000000000000000000000000000000000000000600052604160045260246000fd5b6000601f19601f8301169050919050565b61042f81610369565b811461043a57600080fd5b5056fea26469706673582212208dd7b06fa07c4ff2a7370374ec91e737690033db30a3fd99a28e356d1720958e64736f6c63430008030033",
          "opcodes": "PUSH1 0x80 PUSH1 0x40 MSTORE CALLVALUE DUP1 ISZERO PUSH2 0x10 JUMPI PUSH1 0x0 DUP1 REVERT JUMPDEST POP PUSH2 0x473 DUP1 PUSH2 0x20 PUSH1 0x0 CODECOPY PUSH1 0x0 RETURN INVALID PUSH1 0x80 PUSH1 0x40 MSTORE CALLVALUE DUP1 ISZERO PUSH2 0x10 JUMPI PUSH1 0x0 DUP1 REVERT JUMPDEST POP PUSH1 0x4 CALLDATASIZE LT PUSH2 0x36 JUMPI PUSH1 0x0 CALLDATALOAD PUSH1 0xE0 SHR DUP1 PUSH4 0x376BF262 EQ PUSH2 0x3B JUMPI DUP1 PUSH4 0xD737D0C7 EQ PUSH2 0x57 JUMPI JUMPDEST PUSH1 0x0 DUP1 REVERT JUMPDEST PUSH2 0x55 PUSH1 0x4 DUP1 CALLDATASIZE SUB DUP2 ADD SWAP1 PUSH2 0x50 SWAP2 SWAP1 PUSH2 0x17A JUMP JUMPDEST PUSH2 0x61 JUMP JUMPDEST STOP JUMPDEST PUSH2 0x5F PUSH2 0xA8 JUMP JUMPDEST STOP JUMPDEST PUSH32 0xAF235354A0A47C91EE171961326335CB2D1A8E55B8A89859B0E61EB049E50EA0 PUSH2 0x8A PUSH2 0xE8 JUMP JUMPDEST DUP5 DUP5 PUSH1 0x40 MLOAD PUSH2 0x9C SWAP5 SWAP4 SWAP3 SWAP2 SWAP1 PUSH2 0x26D JUMP JUMPDEST PUSH1 0x40 MLOAD DUP1 SWAP2 SUB SWAP1 LOG1 POP POP JUMP JUMPDEST PUSH32 0xD6558C3ED910D959271054471FD1C326679D9FECE99C5091B00ED89627CF2BFC PUSH2 0xD1 PUSH2 0xF5 JUMP JUMPDEST PUSH1 0x40 MLOAD PUSH2 0xDE SWAP2 SWAP1 PUSH2 0x252 JUMP JUMPDEST PUSH1 0x40 MLOAD DUP1 SWAP2 SUB SWAP1 LOG1 JUMP JUMPDEST CALLDATASIZE PUSH1 0x0 DUP1 CALLDATASIZE SWAP2 POP SWAP2 POP SWAP1 SWAP2 JUMP JUMPDEST PUSH1 0x0 CALLER SWAP1 POP SWAP1 JUMP JUMPDEST PUSH1 0x0 PUSH2 0x110 PUSH2 0x10B DUP5 PUSH2 0x2D9 JUMP JUMPDEST PUSH2 0x2B4 JUMP JUMPDEST SWAP1 POP DUP3 DUP2 MSTORE PUSH1 0x20 DUP2 ADD DUP5 DUP5 DUP5 ADD GT ISZERO PUSH2 0x128 JUMPI PUSH1 0x0 DUP1 REVERT JUMPDEST PUSH2 0x133 DUP5 DUP3 DUP6 PUSH2 0x373 JUMP JUMPDEST POP SWAP4 SWAP3 POP POP POP JUMP JUMPDEST PUSH1 0x0 DUP3 PUSH1 0x1F DUP4 ADD SLT PUSH2 0x14C JUMPI PUSH1 0x0 DUP1 REVERT JUMPDEST DUP2 CALLDATALOAD PUSH2 0x15C DUP5 DUP3 PUSH1 0x20 DUP7 ADD PUSH2 0xFD JUMP JUMPDEST SWAP2 POP POP SWAP3 SWAP2 POP POP JUMP JUMPDEST PUSH1 0x0 DUP2 CALLDATALOAD SWAP1 POP PUSH2 0x174 DUP2 PUSH2 0x426 JUMP JUMPDEST SWAP3 SWAP2 POP POP JUMP JUMPDEST PUSH1 0x0 DUP1 PUSH1 0x40 DUP4 DUP6 SUB SLT ISZERO PUSH2 0x18D JUMPI PUSH1 0x0 DUP1 REVERT JUMPDEST PUSH1 0x0 PUSH2 0x19B DUP6 DUP3 DUP7 ADD PUSH2 0x165 JUMP JUMPDEST SWAP3 POP POP PUSH1 0x20 DUP4 ADD CALLDATALOAD PUSH8 0xFFFFFFFFFFFFFFFF DUP2 GT ISZERO PUSH2 0x1B8 JUMPI PUSH1 0x0 DUP1 REVERT JUMPDEST PUSH2 0x1C4 DUP6 DUP3 DUP7 ADD PUSH2 0x13B JUMP JUMPDEST SWAP2 POP POP SWAP3 POP SWAP3 SWAP1 POP JUMP JUMPDEST PUSH2 0x1D7 DUP2 PUSH2 0x337 JUMP JUMPDEST DUP3 MSTORE POP POP JUMP JUMPDEST PUSH1 0x0 PUSH2 0x1E9 DUP4 DUP6 PUSH2 0x315 JUMP JUMPDEST SWAP4 POP PUSH2 0x1F6 DUP4 DUP6 DUP5 PUSH2 0x373 JUMP JUMPDEST PUSH2 0x1FF DUP4 PUSH2 0x415 JUMP JUMPDEST DUP5 ADD SWAP1 POP SWAP4 SWAP3 POP POP POP JUMP JUMPDEST PUSH1 0x0 PUSH2 0x215 DUP3 PUSH2 0x30A JUMP JUMPDEST PUSH2 0x21F DUP2 DUP6 PUSH2 0x326 JUMP JUMPDEST SWAP4 POP PUSH2 0x22F DUP2 DUP6 PUSH1 0x20 DUP7 ADD PUSH2 0x382 JUMP JUMPDEST PUSH2 0x238 DUP2 PUSH2 0x415 JUMP JUMPDEST DUP5 ADD SWAP2 POP POP SWAP3 SWAP2 POP POP JUMP JUMPDEST PUSH2 0x24C DUP2 PUSH2 0x369 JUMP JUMPDEST DUP3 MSTORE POP POP JUMP JUMPDEST PUSH1 0x0 PUSH1 0x20 DUP3 ADD SWAP1 POP PUSH2 0x267 PUSH1 0x0 DUP4 ADD DUP5 PUSH2 0x1CE JUMP JUMPDEST SWAP3 SWAP2 POP POP JUMP JUMPDEST PUSH1 0x0 PUSH1 0x60 DUP3 ADD SWAP1 POP DUP2 DUP2 SUB PUSH1 0x0 DUP4 ADD MSTORE PUSH2 0x288 DUP2 DUP7 DUP9 PUSH2 0x1DD JUMP JUMPDEST SWAP1 POP PUSH2 0x297 PUSH1 0x20 DUP4 ADD DUP6 PUSH2 0x243 JUMP JUMPDEST DUP2 DUP2 SUB PUSH1 0x40 DUP4 ADD MSTORE PUSH2 0x2A9 DUP2 DUP5 PUSH2 0x20A JUMP JUMPDEST SWAP1 POP SWAP6 SWAP5 POP POP POP POP POP JUMP JUMPDEST PUSH1 0x0 PUSH2 0x2BE PUSH2 0x2CF JUMP JUMPDEST SWAP1 POP PUSH2 0x2CA DUP3 DUP3 PUSH2 0x3B5 JUMP JUMPDEST SWAP2 SWAP1 POP JUMP JUMPDEST PUSH1 0x0 PUSH1 0x40 MLOAD SWAP1 POP SWAP1 JUMP JUMPDEST PUSH1 0x0 PUSH8 0xFFFFFFFFFFFFFFFF DUP3 GT ISZERO PUSH2 0x2F4 JUMPI PUSH2 0x2F3 PUSH2 0x3E6 JUMP JUMPDEST JUMPDEST PUSH2 0x2FD DUP3 PUSH2 0x415 JUMP JUMPDEST SWAP1 POP PUSH1 0x20 DUP2 ADD SWAP1 POP SWAP2 SWAP1 POP JUMP JUMPDEST PUSH1 0x0 DUP2 MLOAD SWAP1 POP SWAP2 SWAP1 POP JUMP JUMPDEST PUSH1 0x0 DUP3 DUP3 MSTORE PUSH1 0x20 DUP3 ADD SWAP1 POP SWAP3 SWAP2 POP POP JUMP JUMPDEST PUSH1 0x0 DUP3 DUP3 MSTORE PUSH1 0x20 DUP3 ADD SWAP1 POP SWAP3 SWAP2 POP POP JUMP JUMPDEST PUSH1 0x0 PUSH2 0x342 DUP3 PUSH2 0x349 JUMP JUMPDEST SWAP1 POP SWAP2 SWAP1 POP JUMP JUMPDEST PUSH1 0x0 PUSH20 0xFFFFFFFFFFFFFFFFFFFFFFFFFFFFFFFFFFFFFFFF DUP3 AND SWAP1 POP SWAP2 SWAP1 POP JUMP JUMPDEST PUSH1 0x0 DUP2 SWAP1 POP SWAP2 SWAP1 POP JUMP JUMPDEST DUP3 DUP2 DUP4 CALLDATACOPY PUSH1 0x0 DUP4 DUP4 ADD MSTORE POP POP POP JUMP JUMPDEST PUSH1 0x0 JUMPDEST DUP4 DUP2 LT ISZERO PUSH2 0x3A0 JUMPI DUP1 DUP3 ADD MLOAD DUP2 DUP5 ADD MSTORE PUSH1 0x20 DUP2 ADD SWAP1 POP PUSH2 0x385 JUMP JUMPDEST DUP4 DUP2 GT ISZERO PUSH2 0x3AF JUMPI PUSH1 0x0 DUP5 DUP5 ADD MSTORE JUMPDEST POP POP POP POP JUMP JUMPDEST PUSH2 0x3BE DUP3 PUSH2 0x415 JUMP JUMPDEST DUP2 ADD DUP2 DUP2 LT PUSH8 0xFFFFFFFFFFFFFFFF DUP3 GT OR ISZERO PUSH2 0x3DD JUMPI PUSH2 0x3DC PUSH2 0x3E6 JUMP JUMPDEST JUMPDEST DUP1 PUSH1 0x40 MSTORE POP POP POP JUMP JUMPDEST PUSH32 0x4E487B7100000000000000000000000000000000000000000000000000000000 PUSH1 0x0 MSTORE PUSH1 0x41 PUSH1 0x4 MSTORE PUSH1 0x24 PUSH1 0x0 REVERT JUMPDEST PUSH1 0x0 PUSH1 0x1F NOT PUSH1 0x1F DUP4 ADD AND SWAP1 POP SWAP2 SWAP1 POP JUMP JUMPDEST PUSH2 0x42F DUP2 PUSH2 0x369 JUMP JUMPDEST DUP2 EQ PUSH2 0x43A JUMPI PUSH1 0x0 DUP1 REVERT JUMPDEST POP JUMP INVALID LOG2 PUSH5 0x6970667358 0x22 SLT KECCAK256 DUP14 0xD7 0xB0 PUSH16 0xA07C4FF2A7370374EC91E737690033DB ADDRESS LOG3 REVERT SWAP10 LOG2 DUP15 CALLDATALOAD PUSH14 0x1720958E64736F6C634300080300 CALLER "
        },
        "methodIdentifiers": {
          "msgData(uint256,string)": "376bf262",
          "msgSender()": "d737d0c7"
        }
      }
    }
  }
}