{
  "contracts/mocks/ContextMock.sol": {
    "ContextMockCaller": {
      "abi": [
        {
          "inputs": [
            {
              "internalType": "contract ContextMock",
              "name": "context",
              "type": "address"
            },
            {
              "internalType": "uint256",
              "name": "integerValue",
              "type": "uint256"
            },
            {
              "internalType": "string",
              "name": "stringValue",
              "type": "string"
            }
          ],
          "name": "callData",
          "outputs": [],
          "stateMutability": "nonpayable",
          "type": "function"
        },
        {
          "inputs": [
            {
              "internalType": "contract ContextMock",
              "name": "context",
              "type": "address"
            }
          ],
          "name": "callSender",
          "outputs": [],
          "stateMutability": "nonpayable",
          "type": "function"
        }
      ],
      "evm": {
        "bytecode": {
          "linkReferences": {},
          "object": "608060405234801561001057600080fd5b506104b8806100206000396000f3fe608060405234801561001057600080fd5b50600436106100355760003560e01c80628604591461003a5780633207ad9614610056575b600080fd5b610054600480360381019061004f9190610202565b610072565b005b610070600480360381019061006b91906101d9565b6100e4565b005b8273ffffffffffffffffffffffffffffffffffffffff1663376bf26283836040518363ffffffff1660e01b81526004016100ad9291906102b1565b600060405180830381600087803b1580156100c757600080fd5b505af11580156100db573d6000803e3d6000fd5b50505050505050565b8073ffffffffffffffffffffffffffffffffffffffff1663d737d0c76040518163ffffffff1660e01b8152600401600060405180830381600087803b15801561012c57600080fd5b505af1158015610140573d6000803e3d6000fd5b5050505050565b600061015a61015584610306565b6102e1565b90508281526020810184848401111561017257600080fd5b61017d8482856103a1565b509392505050565b60008135905061019481610454565b92915050565b600082601f8301126101ab57600080fd5b81356101bb848260208601610147565b91505092915050565b6000813590506101d38161046b565b92915050565b6000602082840312156101eb57600080fd5b60006101f984828501610185565b91505092915050565b60008060006060848603121561021757600080fd5b600061022586828701610185565b9350506020610236868287016101c4565b925050604084013567ffffffffffffffff81111561025357600080fd5b61025f8682870161019a565b9150509250925092565b600061027482610337565b61027e8185610342565b935061028e8185602086016103b0565b61029781610443565b840191505092915050565b6102ab81610397565b82525050565b60006040820190506102c660008301856102a2565b81810360208301526102d88184610269565b90509392505050565b60006102eb6102fc565b90506102f782826103e3565b919050565b6000604051905090565b600067ffffffffffffffff82111561032157610320610414565b5b61032a82610443565b9050602081019050919050565b600081519050919050565b600082825260208201905092915050565b600061035e82610377565b9050919050565b600061037082610353565b9050919050565b600073ffffffffffffffffffffffffffffffffffffffff82169050919050565b6000819050919050565b82818337600083830152505050565b60005b838110156103ce5780820151818401526020810190506103b3565b838111156103dd576000848401525b50505050565b6103ec82610443565b810181811067ffffffffffffffff8211171561040b5761040a610414565b5b80604052505050565b7f4e487b7100000000000000000000000000000000000000000000000000000000600052604160045260246000fd5b6000601f19601f8301169050919050565b61045d81610365565b811461046857600080fd5b50565b61047481610397565b811461047f57600080fd5b5056fea26469706673582212204bcd680f5c3a93f0e4d9ae72dbc0cdcca64c99f9de79f38abbcdd0cdc7a4a55864736f6c63430008030033",
          "opcodes": "PUSH1 0x80 PUSH1 0x40 MSTORE CALLVALUE DUP1 ISZERO PUSH2 0x10 JUMPI PUSH1 0x0 DUP1 REVERT JUMPDEST POP PUSH2 0x4B8 DUP1 PUSH2 0x20 PUSH1 0x0 CODECOPY PUSH1 0x0 RETURN INVALID PUSH1 0x80 PUSH1 0x40 MSTORE CALLVALUE DUP1 ISZERO PUSH2 0x10 JUMPI PUSH1 0x0 DUP1 REVERT JUMPDEST POP PUSH1 0x4 CALLDATASIZE LT PUSH2 0x35 JUMPI PUSH1 0x0 CALLDATALOAD PUSH1 0xE0 SHR DUP1 PUSH3 0x860459 EQ PUSH2 0x3A JUMPI DUP1 PUSH4 0x3207AD96 EQ PUSH2 0x56 JUMPI JUMPDEST PUSH1 0x0 DUP1 REVERT JUMPDEST PUSH2 0x54 PUSH1 0x4 DUP1 CALLDATASIZE SUB DUP2 ADD SWAP1 PUSH2 0x4F SWAP2 SWAP1 PUSH2 0x202 JUMP JUMPDEST PUSH2 0x72 JUMP JUMPDEST STOP JUMPDEST PUSH2 0x70 PUSH1 0x4 DUP1 CALLDATASIZE SUB DUP2 ADD SWAP1 PUSH2 0x6B SWAP2 SWAP1 PUSH2 0x1D9 JUMP JUMPDEST PUSH2 0xE4 JUMP JUMPDEST STOP JUMPDEST DUP3 PUSH20 0xFFFFFFFFFFFFFFFFFFFFFFFFFFFFFFFFFFFFFFFF AND PUSH4 0x376BF262 DUP4 DUP4 PUSH1 0x40 MLOAD DUP4 PUSH4 0xFFFFFFFF AND PUSH1 0xE0 SHL DUP2 MSTORE PUSH1 0x4 ADD PUSH2 0xAD SWAP3 SWAP2 SWAP1 PUSH2 0x2B1 JUMP JUMPDEST PUSH1 0x0 PUSH1 0x40 MLOAD DUP1 DUP4 SUB DUP2 PUSH1 0x0 DUP8 DUP1 EXTCODESIZE ISZERO DUP1 ISZERO PUSH2 0xC7 JUMPI PUSH1 0x0 DUP1 REVERT JUMPDEST POP GAS CALL ISZERO DUP1 ISZERO PUSH2 0xDB JUMPI RETURNDATASIZE PUSH1 0x0 DUP1 RETURNDATACOPY RETURNDATASIZE PUSH1 0x0 REVERT JUMPDEST POP POP POP POP POP POP POP JUMP JUMPDEST DUP1 PUSH20 0xFFFFFFFFFFFFFFFFFFFFFFFFFFFFFFFFFFFFFFFF AND PUSH4 0xD737D0C7 PUSH1 0x40 MLOAD DUP2 PUSH4 0xFFFFFFFF AND PUSH1 0xE0 SHL DUP2 MSTORE PUSH1 0x4 ADD PUSH1 0x0 PUSH1 0x40 MLOAD DUP1 DUP4 SUB DUP2 PUSH1 0x0 DUP8 DUP1 EXTCODESIZE ISZERO DUP1 ISZERO PUSH2 0x12C JUMPI PUSH1 0x0 DUP1 REVERT JUMPDEST POP GAS CALL ISZERO DUP1 ISZERO PUSH2 0x140 JUMPI RETURNDATASIZE PUSH1 0x0 DUP1 RETURNDATACOPY RETURNDATASIZE PUSH1 0x0 REVERT JUMPDEST POP POP POP POP POP JUMP JUMPDEST PUSH1 0x0 PUSH2 0x15A PUSH2 0x155 DUP5 PUSH2 0x306 JUMP JUMPDEST PUSH2 0x2E1 JUMP JUMPDEST SWAP1 POP DUP3 DUP2 MSTORE PUSH1 0x20 DUP2 ADD DUP5 DUP5 DUP5 ADD GT ISZERO PUSH2 0x172 JUMPI PUSH1 0x0 DUP1 REVERT JUMPDEST PUSH2 0x17D DUP5 DUP3 DUP6 PUSH2 0x3A1 JUMP JUMPDEST POP SWAP4 SWAP3 POP POP POP JUMP JUMPDEST PUSH1 0x0 DUP2 CALLDATALOAD SWAP1 POP PUSH2 0x194 DUP2 PUSH2 0x454 JUMP JUMPDEST SWAP3 SWAP2 POP POP JUMP JUMPDEST PUSH1 0x0 DUP3 PUSH1 0x1F DUP4 ADD SLT PUSH2 0x1AB JUMPI PUSH1 0x0 DUP1 REVERT JUMPDEST DUP2 CALLDATALOAD PUSH2 0x1BB DUP5 DUP3 PUSH1 0x20 DUP7 ADD PUSH2 0x147 JUMP JUMPDEST SWAP2 POP POP SWAP3 SWAP2 POP POP JUMP JUMPDEST PUSH1 0x0 DUP2 CALLDATALOAD SWAP1 POP PUSH2 0x1D3 DUP2 PUSH2 0x46B JUMP JUMPDEST SWAP3 SWAP2 POP POP JUMP JUMPDEST PUSH1 0x0 PUSH1 0x20 DUP3 DUP5 SUB SLT ISZERO PUSH2 0x1EB JUMPI PUSH1 0x0 DUP1 REVERT JUMPDEST PUSH1 0x0 PUSH2 0x1F9 DUP5 DUP3 DUP6 ADD PUSH2 0x185 JUMP JUMPDEST SWAP2 POP POP SWAP3 SWAP2 POP POP JUMP JUMPDEST PUSH1 0x0 DUP1 PUSH1 0x0 PUSH1 0x60 DUP5 DUP7 SUB SLT ISZERO PUSH2 0x217 JUMPI PUSH1 0x0 DUP1 REVERT JUMPDEST PUSH1 0x0 PUSH2 0x225 DUP7 DUP3 DUP8 ADD PUSH2 0x185 JUMP JUMPDEST SWAP4 POP POP PUSH1 0x20 PUSH2 0x236 DUP7 DUP3 DUP8 ADD PUSH2 0x1C4 JUMP JUMPDEST SWAP3 POP POP PUSH1 0x40 DUP5 ADD CALLDATALOAD PUSH8 0xFFFFFFFFFFFFFFFF DUP2 GT ISZERO PUSH2 0x253 JUMPI PUSH1 0x0 DUP1 REVERT JUMPDEST PUSH2 0x25F DUP7 DUP3 DUP8 ADD PUSH2 0x19A JUMP JUMPDEST SWAP2 POP POP SWAP3 POP SWAP3 POP SWAP3 JUMP JUMPDEST PUSH1 0x0 PUSH2 0x274 DUP3 PUSH2 0x337 JUMP JUMPDEST PUSH2 0x27E DUP2 DUP6 PUSH2 0x342 JUMP JUMPDEST SWAP4 POP PUSH2 0x28E DUP2 DUP6 PUSH1 0x20 DUP7 ADD PUSH2 0x3B0 JUMP JUMPDEST PUSH2 0x297 DUP2 PUSH2 0x443 JUMP JUMPDEST DUP5 ADD SWAP2 POP POP SWAP3 SWAP2 POP POP JUMP JUMPDEST PUSH2 0x2AB DUP2 PUSH2 0x397 JUMP JUMPDEST DUP3 MSTORE POP POP JUMP JUMPDEST PUSH1 0x0 PUSH1 0x40 DUP3 ADD SWAP1 POP PUSH2 0x2C6 PUSH1 0x0 DUP4 ADD DUP6 PUSH2 0x2A2 JUMP JUMPDEST DUP2 DUP2 SUB PUSH1 0x20 DUP4 ADD MSTORE PUSH2 0x2D8 DUP2 DUP5 PUSH2 0x269 JUMP JUMPDEST SWAP1 POP SWAP4 SWAP3 POP POP POP JUMP JUMPDEST PUSH1 0x0 PUSH2 0x2EB PUSH2 0x2FC JUMP JUMPDEST SWAP1 POP PUSH2 0x2F7 DUP3 DUP3 PUSH2 0x3E3 JUMP JUMPDEST SWAP2 SWAP1 POP JUMP JUMPDEST PUSH1 0x0 PUSH1 0x40 MLOAD SWAP1 POP SWAP1 JUMP JUMPDEST PUSH1 0x0 PUSH8 0xFFFFFFFFFFFFFFFF DUP3 GT ISZERO PUSH2 0x321 JUMPI PUSH2 0x320 PUSH2 0x414 JUMP JUMPDEST JUMPDEST PUSH2 0x32A DUP3 PUSH2 0x443 JUMP JUMPDEST SWAP1 POP PUSH1 0x20 DUP2 ADD SWAP1 POP SWAP2 SWAP1 POP JUMP JUMPDEST PUSH1 0x0 DUP2 MLOAD SWAP1 POP SWAP2 SWAP1 POP JUMP JUMPDEST PUSH1 0x0 DUP3 DUP3 MSTORE PUSH1 0x20 DUP3 ADD SWAP1 POP SWAP3 SWAP2 POP POP JUMP JUMPDEST PUSH1 0x0 PUSH2 0x35E DUP3 PUSH2 0x377 JUMP JUMPDEST SWAP1 POP SWAP2 SWAP1 POP JUMP JUMPDEST PUSH1 0x0 PUSH2 0x370 DUP3 PUSH2 0x353 JUMP JUMPDEST SWAP1 POP SWAP2 SWAP1 POP JUMP JUMPDEST PUSH1 0x0 PUSH20 0xFFFFFFFFFFFFFFFFFFFFFFFFFFFFFFFFFFFFFFFF DUP3 AND SWAP1 POP SWAP2 SWAP1 POP JUMP JUMPDEST PUSH1 0x0 DUP2 SWAP1 POP SWAP2 SWAP1 POP JUMP JUMPDEST DUP3 DUP2 DUP4 CALLDATACOPY PUSH1 0x0 DUP4 DUP4 ADD MSTORE POP POP POP JUMP JUMPDEST PUSH1 0x0 JUMPDEST DUP4 DUP2 LT ISZERO PUSH2 0x3CE JUMPI DUP1 DUP3 ADD MLOAD DUP2 DUP5 ADD MSTORE PUSH1 0x20 DUP2 ADD SWAP1 POP PUSH2 0x3B3 JUMP JUMPDEST DUP4 DUP2 GT ISZERO PUSH2 0x3DD JUMPI PUSH1 0x0 DUP5 DUP5 ADD MSTORE JUMPDEST POP POP POP POP JUMP JUMPDEST PUSH2 0x3EC DUP3 PUSH2 0x443 JUMP JUMPDEST DUP2 ADD DUP2 DUP2 LT PUSH8 0xFFFFFFFFFFFFFFFF DUP3 GT OR ISZERO PUSH2 0x40B JUMPI PUSH2 0x40A PUSH2 0x414 JUMP JUMPDEST JUMPDEST DUP1 PUSH1 0x40 MSTORE POP POP POP JUMP JUMPDEST PUSH32 0x4E487B7100000000000000000000000000000000000000000000000000000000 PUSH1 0x0 MSTORE PUSH1 0x41 PUSH1 0x4 MSTORE PUSH1 0x24 PUSH1 0x0 REVERT JUMPDEST PUSH1 0x0 PUSH1 0x1F NOT PUSH1 0x1F DUP4 ADD AND SWAP1 POP SWAP2 SWAP1 POP JUMP JUMPDEST PUSH2 0x45D DUP2 PUSH2 0x365 JUMP JUMPDEST DUP2 EQ PUSH2 0x468 JUMPI PUSH1 0x0 DUP1 REVERT JUMPDEST POP JUMP JUMPDEST PUSH2 0x474 DUP2 PUSH2 0x397 JUMP JUMPDEST DUP2 EQ PUSH2 0x47F JUMPI PUSH1 0x0 DUP1 REVERT JUMPDEST POP JUMP INVALID LOG2 PUSH5 0x6970667358 0x22 SLT KECCAK256 0x4B 0xCD PUSH9 0xF5C3A93F0E4D9AE72 0xDB 0xC0 0xCD 0xCC 0xA6 0x4C SWAP10 0xF9 0xDE PUSH26 0xF38ABBCDD0CDC7A4A55864736F6C634300080300330000000000 "
        },
        "methodIdentifiers": {
          "callData(address,uint256,string)": "00860459",
          "callSender(address)": "3207ad96"
        }
      }
    }
  }
}