{
  "_format": "hh-sol-artifact-1",
  "contractName": "PX",
  "sourceName": "contracts/token/PX/PX.sol",
  "abi": [
    {
      "inputs": [
        {
          "internalType": "string",
          "name": "name_",
          "type": "string"
        },
        {
          "internalType": "string",
          "name": "symbol_",
          "type": "string"
        },
        {
          "internalType": "address",
          "name": "DOG20Address",
          "type": "address"
        }
      ],
      "stateMutability": "nonpayable",
      "type": "constructor"
    },
    {
      "anonymous": false,
      "inputs": [
        {
          "indexed": true,
          "internalType": "address",
          "name": "owner",
          "type": "address"
        },
        {
          "indexed": true,
          "internalType": "address",
          "name": "approved",
          "type": "address"
        },
        {
          "indexed": true,
          "internalType": "uint256",
          "name": "tokenId",
          "type": "uint256"
        }
      ],
      "name": "Approval",
      "type": "event"
    },
    {
      "anonymous": false,
      "inputs": [
        {
          "indexed": true,
          "internalType": "address",
          "name": "owner",
          "type": "address"
        },
        {
          "indexed": true,
          "internalType": "address",
          "name": "operator",
          "type": "address"
        },
        {
          "indexed": false,
          "internalType": "bool",
          "name": "approved",
          "type": "bool"
        }
      ],
      "name": "ApprovalForAll",
      "type": "event"
    },
    {
      "anonymous": false,
      "inputs": [
        {
          "indexed": true,
          "internalType": "address",
          "name": "previousOwner",
          "type": "address"
        },
        {
          "indexed": true,
          "internalType": "address",
          "name": "newOwner",
          "type": "address"
        }
      ],
      "name": "OwnershipTransferred",
      "type": "event"
    },
    {
      "anonymous": false,
      "inputs": [
        {
          "indexed": true,
          "internalType": "address",
          "name": "from",
          "type": "address"
        },
        {
          "indexed": true,
          "internalType": "address",
          "name": "to",
          "type": "address"
        },
        {
          "indexed": true,
          "internalType": "uint256",
          "name": "tokenId",
          "type": "uint256"
        }
      ],
      "name": "Transfer",
      "type": "event"
    },
    {
      "inputs": [],
      "name": "DOG_TO_PIXEL_SATOSHIS",
      "outputs": [
        {
          "internalType": "uint256",
          "name": "",
          "type": "uint256"
        }
      ],
      "stateMutability": "view",
      "type": "function"
    },
    {
      "inputs": [
        {
          "internalType": "address",
          "name": "to",
          "type": "address"
        },
        {
          "internalType": "uint256",
          "name": "tokenId",
          "type": "uint256"
        }
      ],
      "name": "approve",
      "outputs": [],
      "stateMutability": "nonpayable",
      "type": "function"
    },
    {
      "inputs": [
        {
          "internalType": "address",
          "name": "owner",
          "type": "address"
        }
      ],
      "name": "balanceOf",
      "outputs": [
        {
          "internalType": "uint256",
          "name": "",
          "type": "uint256"
        }
      ],
      "stateMutability": "view",
      "type": "function"
    },
    {
      "inputs": [
        {
          "internalType": "uint256",
          "name": "pupper",
          "type": "uint256"
        }
      ],
      "name": "burnPupper",
      "outputs": [],
      "stateMutability": "nonpayable",
      "type": "function"
    },
    {
      "inputs": [
        {
          "internalType": "uint256",
          "name": "amount",
          "type": "uint256"
        }
      ],
      "name": "fuelPuppyDispenser",
      "outputs": [],
      "stateMutability": "nonpayable",
      "type": "function"
    },
    {
      "inputs": [
        {
          "internalType": "uint256",
          "name": "tokenId",
          "type": "uint256"
        }
      ],
      "name": "getApproved",
      "outputs": [
        {
          "internalType": "address",
          "name": "",
          "type": "address"
        }
      ],
      "stateMutability": "view",
      "type": "function"
    },
    {
      "inputs": [
        {
          "internalType": "address",
          "name": "owner",
          "type": "address"
        },
        {
          "internalType": "address",
          "name": "operator",
          "type": "address"
        }
      ],
      "name": "isApprovedForAll",
      "outputs": [
        {
          "internalType": "bool",
          "name": "",
          "type": "bool"
        }
      ],
      "stateMutability": "view",
      "type": "function"
    },
    {
      "inputs": [],
      "name": "mintPupper",
      "outputs": [
        {
          "internalType": "uint256",
          "name": "pupper",
          "type": "uint256"
        }
      ],
      "stateMutability": "nonpayable",
      "type": "function"
    },
    {
      "inputs": [
        {
          "internalType": "address",
          "name": "to",
          "type": "address"
        },
        {
          "internalType": "uint256",
          "name": "qty",
          "type": "uint256"
        }
      ],
      "name": "mintPuppers",
      "outputs": [],
      "stateMutability": "nonpayable",
      "type": "function"
    },
    {
      "inputs": [],
      "name": "name",
      "outputs": [
        {
          "internalType": "string",
          "name": "",
          "type": "string"
        }
      ],
      "stateMutability": "view",
      "type": "function"
    },
    {
      "inputs": [],
      "name": "owner",
      "outputs": [
        {
          "internalType": "address",
          "name": "",
          "type": "address"
        }
      ],
      "stateMutability": "view",
      "type": "function"
    },
    {
      "inputs": [
        {
          "internalType": "uint256",
          "name": "tokenId",
          "type": "uint256"
        }
      ],
      "name": "ownerOf",
      "outputs": [
        {
          "internalType": "address",
          "name": "",
          "type": "address"
        }
      ],
      "stateMutability": "view",
      "type": "function"
    },
    {
      "inputs": [],
      "name": "puppersRemaining",
      "outputs": [
        {
          "internalType": "uint256",
          "name": "",
          "type": "uint256"
        }
      ],
      "stateMutability": "view",
      "type": "function"
    },
    {
      "inputs": [],
      "name": "randYish",
      "outputs": [
        {
          "internalType": "uint256",
          "name": "ret",
          "type": "uint256"
        }
      ],
      "stateMutability": "view",
      "type": "function"
    },
    {
      "inputs": [
        {
          "internalType": "uint256",
          "name": "maxRand",
          "type": "uint256"
        }
      ],
      "name": "randYishInRange",
      "outputs": [
        {
          "internalType": "uint256",
          "name": "ret",
          "type": "uint256"
        }
      ],
      "stateMutability": "view",
      "type": "function"
    },
    {
      "inputs": [],
      "name": "renounceOwnership",
      "outputs": [],
      "stateMutability": "nonpayable",
      "type": "function"
    },
    {
      "inputs": [
        {
          "internalType": "address",
          "name": "from",
          "type": "address"
        },
        {
          "internalType": "address",
          "name": "to",
          "type": "address"
        },
        {
          "internalType": "uint256",
          "name": "tokenId",
          "type": "uint256"
        }
      ],
      "name": "safeTransferFrom",
      "outputs": [],
      "stateMutability": "nonpayable",
      "type": "function"
    },
    {
      "inputs": [
        {
          "internalType": "address",
          "name": "from",
          "type": "address"
        },
        {
          "internalType": "address",
          "name": "to",
          "type": "address"
        },
        {
          "internalType": "uint256",
          "name": "tokenId",
          "type": "uint256"
        },
        {
          "internalType": "bytes",
          "name": "_data",
          "type": "bytes"
        }
      ],
      "name": "safeTransferFrom",
      "outputs": [],
      "stateMutability": "nonpayable",
      "type": "function"
    },
    {
      "inputs": [
        {
          "internalType": "address",
          "name": "operator",
          "type": "address"
        },
        {
          "internalType": "bool",
          "name": "approved",
          "type": "bool"
        }
      ],
      "name": "setApprovalForAll",
      "outputs": [],
      "stateMutability": "nonpayable",
      "type": "function"
    },
    {
      "inputs": [
        {
          "internalType": "bytes4",
          "name": "interfaceId",
          "type": "bytes4"
        }
      ],
      "name": "supportsInterface",
      "outputs": [
        {
          "internalType": "bool",
          "name": "",
          "type": "bool"
        }
      ],
      "stateMutability": "view",
      "type": "function"
    },
    {
      "inputs": [],
      "name": "symbol",
      "outputs": [
        {
          "internalType": "string",
          "name": "",
          "type": "string"
        }
      ],
      "stateMutability": "view",
      "type": "function"
    },
    {
      "inputs": [
        {
          "internalType": "uint256",
          "name": "tokenId",
          "type": "uint256"
        }
      ],
      "name": "tokenURI",
      "outputs": [
        {
          "internalType": "string",
          "name": "",
          "type": "string"
        }
      ],
      "stateMutability": "view",
      "type": "function"
    },
    {
      "inputs": [],
      "name": "totalSupply",
      "outputs": [
        {
          "internalType": "uint256",
          "name": "",
          "type": "uint256"
        }
      ],
      "stateMutability": "view",
      "type": "function"
    },
    {
      "inputs": [
        {
          "internalType": "address",
          "name": "from",
          "type": "address"
        },
        {
          "internalType": "address",
          "name": "to",
          "type": "address"
        },
        {
          "internalType": "uint256",
          "name": "tokenId",
          "type": "uint256"
        }
      ],
      "name": "transferFrom",
      "outputs": [],
      "stateMutability": "nonpayable",
      "type": "function"
    },
    {
      "inputs": [
        {
          "internalType": "address",
          "name": "newOwner",
          "type": "address"
        }
      ],
      "name": "transferOwnership",
      "outputs": [],
      "stateMutability": "nonpayable",
      "type": "function"
    }
  ],
  "bytecode": "0x60a060405264014941658b600b553480156200001a57600080fd5b5060405162003caa38038062003caa83398181016040528101906200004091906200032c565b828281600090805190602001906200005a929190620001f3565b50806001908051906020019062000073929190620001f3565b505050620000966200008a6200012560201b60201c565b6200012d60201b60201c565b600073ffffffffffffffffffffffffffffffffffffffff168173ffffffffffffffffffffffffffffffffffffffff161415620000d157600080fd5b8073ffffffffffffffffffffffffffffffffffffffff1660808173ffffffffffffffffffffffffffffffffffffffff1660601b8152505062030d8060088190555062030d8060078190555050505062000572565b600033905090565b6000600660009054906101000a900473ffffffffffffffffffffffffffffffffffffffff16905081600660006101000a81548173ffffffffffffffffffffffffffffffffffffffff021916908373ffffffffffffffffffffffffffffffffffffffff1602179055508173ffffffffffffffffffffffffffffffffffffffff168173ffffffffffffffffffffffffffffffffffffffff167f8be0079c531659141344cd1fd0a4f28419497f9722a3daafe3b4186f6b6457e060405160405180910390a35050565b82805462000201906200047d565b90600052602060002090601f01602090048101928262000225576000855562000271565b82601f106200024057805160ff191683800117855562000271565b8280016001018555821562000271579182015b828111156200027057825182559160200191906001019062000253565b5b50905062000280919062000284565b5090565b5b808211156200029f57600081600090555060010162000285565b5090565b6000620002ba620002b484620003dd565b620003b4565b905082815260208101848484011115620002d357600080fd5b620002e084828562000447565b509392505050565b600081519050620002f98162000558565b92915050565b600082601f8301126200031157600080fd5b815162000323848260208601620002a3565b91505092915050565b6000806000606084860312156200034257600080fd5b600084015167ffffffffffffffff8111156200035d57600080fd5b6200036b86828701620002ff565b935050602084015167ffffffffffffffff8111156200038957600080fd5b6200039786828701620002ff565b9250506040620003aa86828701620002e8565b9150509250925092565b6000620003c0620003d3565b9050620003ce8282620004b3565b919050565b6000604051905090565b600067ffffffffffffffff821115620003fb57620003fa62000518565b5b620004068262000547565b9050602081019050919050565b6000620004208262000427565b9050919050565b600073ffffffffffffffffffffffffffffffffffffffff82169050919050565b60005b83811015620004675780820151818401526020810190506200044a565b8381111562000477576000848401525b50505050565b600060028204905060018216806200049657607f821691505b60208210811415620004ad57620004ac620004e9565b5b50919050565b620004be8262000547565b810181811067ffffffffffffffff82111715620004e057620004df62000518565b5b80604052505050565b7f4e487b7100000000000000000000000000000000000000000000000000000000600052602260045260246000fd5b7f4e487b7100000000000000000000000000000000000000000000000000000000600052604160045260246000fd5b6000601f19601f8301169050919050565b620005638162000413565b81146200056f57600080fd5b50565b60805160601c61370b6200059f600039600081816109ca015281816110450152611177015261370b6000f3fe608060405234801561001057600080fd5b50600436106101735760003560e01c8063715018a6116100de578063b88d4fde11610097578063d85d95ef11610071578063d85d95ef14610438578063e25aee2f14610456578063e985e9c514610472578063f2fde38b146104a257610173565b8063b88d4fde146103ce578063bcb00f29146103ea578063c87b56dd1461040857610173565b8063715018a6146103325780637e5c067f1461033c5780638da5cb5b1461035857806395d89b4114610376578063a035386d14610394578063a22cb465146103b257610173565b806323b872dd1161013057806323b872dd1461024e5780632d99e94f1461026a57806342842e0e1461029a5780636352211e146102b65780636d677a74146102e657806370a082311461030257610173565b806301ffc9a714610178578063055fa0d5146101a857806306fdde03146101c6578063081812fc146101e4578063095ea7b31461021457806318160ddd14610230575b600080fd5b610192600480360381019061018d91906125f4565b6104be565b60405161019f9190612b13565b60405180910390f35b6101b06105a0565b6040516101bd9190612d70565b60405180910390f35b6101ce6105a6565b6040516101db9190612b2e565b60405180910390f35b6101fe60048036038101906101f99190612646565b610638565b60405161020b9190612a4c565b60405180910390f35b61022e6004803603810190610229919061258f565b6106bd565b005b6102386107d5565b6040516102459190612d70565b60405180910390f35b61026860048036038101906102639190612489565b6107db565b005b610284600480360381019061027f9190612646565b61083b565b6040516102919190612d70565b60405180910390f35b6102b460048036038101906102af9190612489565b610857565b005b6102d060048036038101906102cb9190612646565b610877565b6040516102dd9190612a4c565b60405180910390f35b61030060048036038101906102fb9190612646565b610929565b005b61031c60048036038101906103179190612424565b610a7d565b6040516103299190612d70565b60405180910390f35b61033a610b35565b005b6103566004803603810190610351919061258f565b610bbd565b005b610360610c63565b60405161036d9190612a4c565b60405180910390f35b61037e610c8d565b60405161038b9190612b2e565b60405180910390f35b61039c610d1f565b6040516103a99190612d70565b60405180910390f35b6103cc60048036038101906103c79190612553565b610d25565b005b6103e860048036038101906103e391906124d8565b610d3b565b005b6103f2610d9d565b6040516103ff9190612d70565b60405180910390f35b610422600480360381019061041d9190612646565b610ea2565b60405161042f9190612b2e565b60405180910390f35b610440610f49565b60405161044d9190612d70565b60405180910390f35b610470600480360381019061046b9190612646565b6110f9565b005b61048c6004803603810190610487919061244d565b61122a565b6040516104999190612b13565b60405180910390f35b6104bc60048036038101906104b79190612424565b6112be565b005b60007f80ac58cd000000000000000000000000000000000000000000000000000000007bffffffffffffffffffffffffffffffffffffffffffffffffffffffff1916827bffffffffffffffffffffffffffffffffffffffffffffffffffffffff1916148061058957507f5b5e139f000000000000000000000000000000000000000000000000000000007bffffffffffffffffffffffffffffffffffffffffffffffffffffffff1916827bffffffffffffffffffffffffffffffffffffffffffffffffffffffff1916145b806105995750610598826113b6565b5b9050919050565b60075481565b6060600080546105b590613001565b80601f01602080910402602001604051908101604052809291908181526020018280546105e190613001565b801561062e5780601f106106035761010080835404028352916020019161062e565b820191906000526020600020905b81548152906001019060200180831161061157829003601f168201915b5050505050905090565b600061064382611420565b610682576040517f08c379a000000000000000000000000000000000000000000000000000000000815260040161067990612cb0565b60405180910390fd5b6004600083815260200190815260200160002060009054906101000a900473ffffffffffffffffffffffffffffffffffffffff169050919050565b60006106c882610877565b90508073ffffffffffffffffffffffffffffffffffffffff168373ffffffffffffffffffffffffffffffffffffffff161415610739576040517f08c379a000000000000000000000000000000000000000000000000000000000815260040161073090612d30565b60405180910390fd5b8073ffffffffffffffffffffffffffffffffffffffff1661075861148c565b73ffffffffffffffffffffffffffffffffffffffff16148061078757506107868161078161148c565b61122a565b5b6107c6576040517f08c379a00000000000000000000000000000000000000000000000000000000081526004016107bd90612c30565b60405180910390fd5b6107d08383611494565b505050565b60085481565b6107ec6107e661148c565b8261154d565b61082b576040517f08c379a000000000000000000000000000000000000000000000000000000000815260040161082290612d50565b60405180910390fd5b61083683838361162b565b505050565b600081610846610d9d565b61085091906130ed565b9050919050565b61087283838360405180602001604052806000815250610d3b565b505050565b6000806002600084815260200190815260200160002060009054906101000a900473ffffffffffffffffffffffffffffffffffffffff169050600073ffffffffffffffffffffffffffffffffffffffff168173ffffffffffffffffffffffffffffffffffffffff161415610920576040517f08c379a000000000000000000000000000000000000000000000000000000000815260040161091790612c70565b60405180910390fd5b80915050919050565b6000600a60008381526020019081526020016000205490506000600960006007548152602001908152602001600020549050600754600a60008581526020019081526020016000208190555081600a60008381526020019081526020016000208190555080600960008481526020019081526020016000208190555082600960006007548152602001908152602001600020819055506109c883611887565b7f000000000000000000000000000000000000000000000000000000000000000073ffffffffffffffffffffffffffffffffffffffff1663a9059cbb33600b546040518363ffffffff1660e01b8152600401610a25929190612aea565b602060405180830381600087803b158015610a3f57600080fd5b505af1158015610a53573d6000803e3d6000fd5b505050506040513d601f19601f82011682018060405250810190610a7791906125cb565b50505050565b60008073ffffffffffffffffffffffffffffffffffffffff168273ffffffffffffffffffffffffffffffffffffffff161415610aee576040517f08c379a0000000000000000000000000000000000000000000000000000000008152600401610ae590612c50565b60405180910390fd5b600360008373ffffffffffffffffffffffffffffffffffffffff1673ffffffffffffffffffffffffffffffffffffffff168152602001908152602001600020549050919050565b610b3d61148c565b73ffffffffffffffffffffffffffffffffffffffff16610b5b610c63565b73ffffffffffffffffffffffffffffffffffffffff1614610bb1576040517f08c379a0000000000000000000000000000000000000000000000000000000008152600401610ba890612cd0565b60405180910390fd5b610bbb60006119f9565b565b610bc561148c565b73ffffffffffffffffffffffffffffffffffffffff16610be3610c63565b73ffffffffffffffffffffffffffffffffffffffff1614610c39576040517f08c379a0000000000000000000000000000000000000000000000000000000008152600401610c3090612cd0565b60405180910390fd5b60005b81811015610c5e57610c4c610f49565b5080610c5790613064565b9050610c3c565b505050565b6000600660009054906101000a900473ffffffffffffffffffffffffffffffffffffffff16905090565b606060018054610c9c90613001565b80601f0160208091040260200160405190810160405280929190818152602001828054610cc890613001565b8015610d155780601f10610cea57610100808354040283529160200191610d15565b820191906000526020600020905b815481529060010190602001808311610cf857829003601f168201915b5050505050905090565b600b5481565b610d37610d3061148c565b8383611abf565b5050565b610d4c610d4661148c565b8361154d565b610d8b576040517f08c379a0000000000000000000000000000000000000000000000000000000008152600401610d8290612d50565b60405180910390fd5b610d9784848484611c2c565b50505050565b600080600754434233604051602001610db691906129d7565b6040516020818303038152906040528051906020012060001c610dd99190612e7a565b454241604051602001610dec91906129f2565b6040516020818303038152906040528051906020012060001c610e0f9190612e7a565b4442610e1b9190612e24565b610e259190612e24565b610e2f9190612e24565b610e399190612e24565b610e439190612e24565b610e4d9190612e24565b604051602001610e5d9190612a31565b6040516020818303038152906040528051906020012060001c90506103e88082610e879190612e7a565b610e919190612eab565b81610e9c9190612f05565b91505090565b6060610ead82611420565b610eec576040517f08c379a0000000000000000000000000000000000000000000000000000000008152600401610ee390612d10565b60405180910390fd5b6000610ef6611c88565b90506000815111610f165760405180602001604052806000815250610f41565b80610f2084611c9f565b604051602001610f31929190612a0d565b6040516020818303038152906040525b915050919050565b60008060075411610f8f576040517f08c379a0000000000000000000000000000000000000000000000000000000008152600401610f8690612bf0565b60405180910390fd5b6000610f9c60075461083b565b905060096000828152602001908152602001600020549150600960006001600754610fc79190612f05565b8152602001908152602001600020546009600083815260200190815260200160002081905550816009600060016007546110019190612f05565b81526020019081526020016000208190555060016007546110229190612f05565b600a6000848152602001908152602001600020819055506110433383611e4c565b7f000000000000000000000000000000000000000000000000000000000000000073ffffffffffffffffffffffffffffffffffffffff166323b872dd3330600b546040518463ffffffff1660e01b81526004016110a293929190612a67565b602060405180830381600087803b1580156110bc57600080fd5b505af11580156110d0573d6000803e3d6000fd5b505050506040513d601f19601f820116820180604052508101906110f491906125cb565b505090565b61110161148c565b73ffffffffffffffffffffffffffffffffffffffff1661111f610c63565b73ffffffffffffffffffffffffffffffffffffffff1614611175576040517f08c379a000000000000000000000000000000000000000000000000000000000815260040161116c90612cd0565b60405180910390fd5b7f000000000000000000000000000000000000000000000000000000000000000073ffffffffffffffffffffffffffffffffffffffff166323b872dd3330600b546040518463ffffffff1660e01b81526004016111d493929190612a67565b602060405180830381600087803b1580156111ee57600080fd5b505af1158015611202573d6000803e3d6000fd5b505050506040513d601f19601f8201168201806040525081019061122691906125cb565b5050565b6000600560008473ffffffffffffffffffffffffffffffffffffffff1673ffffffffffffffffffffffffffffffffffffffff16815260200190815260200160002060008373ffffffffffffffffffffffffffffffffffffffff1673ffffffffffffffffffffffffffffffffffffffff16815260200190815260200160002060009054906101000a900460ff16905092915050565b6112c661148c565b73ffffffffffffffffffffffffffffffffffffffff166112e4610c63565b73ffffffffffffffffffffffffffffffffffffffff161461133a576040517f08c379a000000000000000000000000000000000000000000000000000000000815260040161133190612cd0565b60405180910390fd5b600073ffffffffffffffffffffffffffffffffffffffff168173ffffffffffffffffffffffffffffffffffffffff1614156113aa576040517f08c379a00000000000000000000000000000000000000000000000000000000081526004016113a190612b70565b60405180910390fd5b6113b3816119f9565b50565b60007f01ffc9a7000000000000000000000000000000000000000000000000000000007bffffffffffffffffffffffffffffffffffffffffffffffffffffffff1916827bffffffffffffffffffffffffffffffffffffffffffffffffffffffff1916149050919050565b60008073ffffffffffffffffffffffffffffffffffffffff166002600084815260200190815260200160002060009054906101000a900473ffffffffffffffffffffffffffffffffffffffff1673ffffffffffffffffffffffffffffffffffffffff1614159050919050565b600033905090565b816004600083815260200190815260200160002060006101000a81548173ffffffffffffffffffffffffffffffffffffffff021916908373ffffffffffffffffffffffffffffffffffffffff160217905550808273ffffffffffffffffffffffffffffffffffffffff1661150783610877565b73ffffffffffffffffffffffffffffffffffffffff167f8c5be1e5ebec7d5bd14f71427d1e84f3dd0314c0f7b2291e5b200ac8c7c3b92560405160405180910390a45050565b600061155882611420565b611597576040517f08c379a000000000000000000000000000000000000000000000000000000000815260040161158e90612c10565b60405180910390fd5b60006115a283610877565b90508073ffffffffffffffffffffffffffffffffffffffff168473ffffffffffffffffffffffffffffffffffffffff16148061161157508373ffffffffffffffffffffffffffffffffffffffff166115f984610638565b73ffffffffffffffffffffffffffffffffffffffff16145b806116225750611621818561122a565b5b91505092915050565b8273ffffffffffffffffffffffffffffffffffffffff1661164b82610877565b73ffffffffffffffffffffffffffffffffffffffff16146116a1576040517f08c379a000000000000000000000000000000000000000000000000000000000815260040161169890612cf0565b60405180910390fd5b600073ffffffffffffffffffffffffffffffffffffffff168273ffffffffffffffffffffffffffffffffffffffff161415611711576040517f08c379a000000000000000000000000000000000000000000000000000000000815260040161170890612bb0565b60405180910390fd5b61171c838383612034565b611727600082611494565b6001600360008573ffffffffffffffffffffffffffffffffffffffff1673ffffffffffffffffffffffffffffffffffffffff16815260200190815260200160002060008282546117779190612f05565b925050819055506001600360008473ffffffffffffffffffffffffffffffffffffffff1673ffffffffffffffffffffffffffffffffffffffff16815260200190815260200160002060008282546117ce9190612e24565b92505081905550816002600083815260200190815260200160002060006101000a81548173ffffffffffffffffffffffffffffffffffffffff021916908373ffffffffffffffffffffffffffffffffffffffff160217905550808273ffffffffffffffffffffffffffffffffffffffff168473ffffffffffffffffffffffffffffffffffffffff167fddf252ad1be2c89b69c2b068fc378daa952ba7f163c4a11628f55a4df523b3ef60405160405180910390a4505050565b600061189282610877565b90506118a081600084612034565b6118ab600083611494565b6118e96040518060400160405280600e81526020017f6275726e696e6720707570706572000000000000000000000000000000000000815250612039565b6118f2826120d2565b6001600360008373ffffffffffffffffffffffffffffffffffffffff1673ffffffffffffffffffffffffffffffffffffffff16815260200190815260200160002060008282546119429190612f05565b9250508190555060016007600082825461195c9190612e24565b925050819055506002600083815260200190815260200160002060006101000a81549073ffffffffffffffffffffffffffffffffffffffff021916905581600073ffffffffffffffffffffffffffffffffffffffff168273ffffffffffffffffffffffffffffffffffffffff167fddf252ad1be2c89b69c2b068fc378daa952ba7f163c4a11628f55a4df523b3ef60405160405180910390a45050565b6000600660009054906101000a900473ffffffffffffffffffffffffffffffffffffffff16905081600660006101000a81548173ffffffffffffffffffffffffffffffffffffffff021916908373ffffffffffffffffffffffffffffffffffffffff1602179055508173ffffffffffffffffffffffffffffffffffffffff168173ffffffffffffffffffffffffffffffffffffffff167f8be0079c531659141344cd1fd0a4f28419497f9722a3daafe3b4186f6b6457e060405160405180910390a35050565b8173ffffffffffffffffffffffffffffffffffffffff168373ffffffffffffffffffffffffffffffffffffffff161415611b2e576040517f08c379a0000000000000000000000000000000000000000000000000000000008152600401611b2590612bd0565b60405180910390fd5b80600560008573ffffffffffffffffffffffffffffffffffffffff1673ffffffffffffffffffffffffffffffffffffffff16815260200190815260200160002060008473ffffffffffffffffffffffffffffffffffffffff1673ffffffffffffffffffffffffffffffffffffffff16815260200190815260200160002060006101000a81548160ff0219169083151502179055508173ffffffffffffffffffffffffffffffffffffffff168373ffffffffffffffffffffffffffffffffffffffff167f17307eab39ab6107e8899845ad3d59bd9653f200f220920489ca2b5937696c3183604051611c1f9190612b13565b60405180910390a3505050565b611c3784848461162b565b611c438484848461216b565b611c82576040517f08c379a0000000000000000000000000000000000000000000000000000000008152600401611c7990612b50565b60405180910390fd5b50505050565b606060405180602001604052806000815250905090565b60606000821415611ce7576040518060400160405280600181526020017f30000000000000000000000000000000000000000000000000000000000000008152509050611e47565b600082905060005b60008214611d19578080611d0290613064565b915050600a82611d129190612e7a565b9150611cef565b60008167ffffffffffffffff811115611d5b577f4e487b7100000000000000000000000000000000000000000000000000000000600052604160045260246000fd5b6040519080825280601f01601f191660200182016040528015611d8d5781602001600182028036833780820191505090505b5090505b60008514611e4057600182611da69190612f05565b9150600a85611db591906130ed565b6030611dc19190612e24565b60f81b818381518110611dfd577f4e487b7100000000000000000000000000000000000000000000000000000000600052603260045260246000fd5b60200101907effffffffffffffffffffffffffffffffffffffffffffffffffffffffffffff1916908160001a905350600a85611e399190612e7a565b9450611d91565b8093505050505b919050565b600073ffffffffffffffffffffffffffffffffffffffff168273ffffffffffffffffffffffffffffffffffffffff161415611ebc576040517f08c379a0000000000000000000000000000000000000000000000000000000008152600401611eb390612c90565b60405180910390fd5b611ec581611420565b15611f05576040517f08c379a0000000000000000000000000000000000000000000000000000000008152600401611efc90612b90565b60405180910390fd5b611f1160008383612034565b6001600360008473ffffffffffffffffffffffffffffffffffffffff1673ffffffffffffffffffffffffffffffffffffffff1681526020019081526020016000206000828254611f619190612e24565b92505081905550816002600083815260200190815260200160002060006101000a81548173ffffffffffffffffffffffffffffffffffffffff021916908373ffffffffffffffffffffffffffffffffffffffff160217905550600160076000828254611fcd9190612f05565b92505081905550808273ffffffffffffffffffffffffffffffffffffffff16600073ffffffffffffffffffffffffffffffffffffffff167fddf252ad1be2c89b69c2b068fc378daa952ba7f163c4a11628f55a4df523b3ef60405160405180910390a45050565b505050565b6120cf8160405160240161204d9190612b2e565b6040516020818303038152906040527f41304fac000000000000000000000000000000000000000000000000000000007bffffffffffffffffffffffffffffffffffffffffffffffffffffffff19166020820180517bffffffffffffffffffffffffffffffffffffffffffffffffffffffff8381831617835250505050612302565b50565b612168816040516024016120e69190612d70565b6040516020818303038152906040527ff5b1bba9000000000000000000000000000000000000000000000000000000007bffffffffffffffffffffffffffffffffffffffffffffffffffffffff19166020820180517bffffffffffffffffffffffffffffffffffffffffffffffffffffffff8381831617835250505050612302565b50565b600061218c8473ffffffffffffffffffffffffffffffffffffffff1661232b565b156122f5578373ffffffffffffffffffffffffffffffffffffffff1663150b7a026121b561148c565b8786866040518563ffffffff1660e01b81526004016121d79493929190612a9e565b602060405180830381600087803b1580156121f157600080fd5b505af192505050801561222257506040513d601f19601f8201168201806040525081019061221f919061261d565b60015b6122a5573d8060008114612252576040519150601f19603f3d011682016040523d82523d6000602084013e612257565b606091505b5060008151141561229d576040517f08c379a000000000000000000000000000000000000000000000000000000000815260040161229490612b50565b60405180910390fd5b805181602001fd5b63150b7a0260e01b7bffffffffffffffffffffffffffffffffffffffffffffffffffffffff1916817bffffffffffffffffffffffffffffffffffffffffffffffffffffffff1916149150506122fa565b600190505b949350505050565b60008151905060006a636f6e736f6c652e6c6f679050602083016000808483855afa5050505050565b600080823b905060008111915050919050565b600061235161234c84612db0565b612d8b565b90508281526020810184848401111561236957600080fd5b612374848285612fbf565b509392505050565b60008135905061238b81613679565b92915050565b6000813590506123a081613690565b92915050565b6000815190506123b581613690565b92915050565b6000813590506123ca816136a7565b92915050565b6000815190506123df816136a7565b92915050565b600082601f8301126123f657600080fd5b813561240684826020860161233e565b91505092915050565b60008135905061241e816136be565b92915050565b60006020828403121561243657600080fd5b60006124448482850161237c565b91505092915050565b6000806040838503121561246057600080fd5b600061246e8582860161237c565b925050602061247f8582860161237c565b9150509250929050565b60008060006060848603121561249e57600080fd5b60006124ac8682870161237c565b93505060206124bd8682870161237c565b92505060406124ce8682870161240f565b9150509250925092565b600080600080608085870312156124ee57600080fd5b60006124fc8782880161237c565b945050602061250d8782880161237c565b935050604061251e8782880161240f565b925050606085013567ffffffffffffffff81111561253b57600080fd5b612547878288016123e5565b91505092959194509250565b6000806040838503121561256657600080fd5b60006125748582860161237c565b925050602061258585828601612391565b9150509250929050565b600080604083850312156125a257600080fd5b60006125b08582860161237c565b92505060206125c18582860161240f565b9150509250929050565b6000602082840312156125dd57600080fd5b60006125eb848285016123a6565b91505092915050565b60006020828403121561260657600080fd5b6000612614848285016123bb565b91505092915050565b60006020828403121561262f57600080fd5b600061263d848285016123d0565b91505092915050565b60006020828403121561265857600080fd5b60006126668482850161240f565b91505092915050565b61268061267b82612f4b565b6130bf565b82525050565b61268f81612f39565b82525050565b6126a66126a182612f39565b6130ad565b82525050565b6126b581612f5d565b82525050565b60006126c682612de1565b6126d08185612df7565b93506126e0818560208601612fce565b6126e9816131da565b840191505092915050565b60006126ff82612dec565b6127098185612e08565b9350612719818560208601612fce565b612722816131da565b840191505092915050565b600061273882612dec565b6127428185612e19565b9350612752818560208601612fce565b80840191505092915050565b600061276b603283612e08565b9150612776826131f8565b604082019050919050565b600061278e602683612e08565b915061279982613247565b604082019050919050565b60006127b1601c83612e08565b91506127bc82613296565b602082019050919050565b60006127d4602483612e08565b91506127df826132bf565b604082019050919050565b60006127f7601983612e08565b91506128028261330e565b602082019050919050565b600061281a601483612e08565b915061282582613337565b602082019050919050565b600061283d602c83612e08565b915061284882613360565b604082019050919050565b6000612860603883612e08565b915061286b826133af565b604082019050919050565b6000612883602a83612e08565b915061288e826133fe565b604082019050919050565b60006128a6602983612e08565b91506128b18261344d565b604082019050919050565b60006128c9602083612e08565b91506128d48261349c565b602082019050919050565b60006128ec602c83612e08565b91506128f7826134c5565b604082019050919050565b600061290f602083612e08565b915061291a82613514565b602082019050919050565b6000612932602983612e08565b915061293d8261353d565b604082019050919050565b6000612955602f83612e08565b91506129608261358c565b604082019050919050565b6000612978602183612e08565b9150612983826135db565b604082019050919050565b600061299b603183612e08565b91506129a68261362a565b604082019050919050565b6129ba81612fb5565b82525050565b6129d16129cc82612fb5565b6130e3565b82525050565b60006129e38284612695565b60148201915081905092915050565b60006129fe828461266f565b60148201915081905092915050565b6000612a19828561272d565b9150612a25828461272d565b91508190509392505050565b6000612a3d82846129c0565b60208201915081905092915050565b6000602082019050612a616000830184612686565b92915050565b6000606082019050612a7c6000830186612686565b612a896020830185612686565b612a9660408301846129b1565b949350505050565b6000608082019050612ab36000830187612686565b612ac06020830186612686565b612acd60408301856129b1565b8181036060830152612adf81846126bb565b905095945050505050565b6000604082019050612aff6000830185612686565b612b0c60208301846129b1565b9392505050565b6000602082019050612b2860008301846126ac565b92915050565b60006020820190508181036000830152612b4881846126f4565b905092915050565b60006020820190508181036000830152612b698161275e565b9050919050565b60006020820190508181036000830152612b8981612781565b9050919050565b60006020820190508181036000830152612ba9816127a4565b9050919050565b60006020820190508181036000830152612bc9816127c7565b9050919050565b60006020820190508181036000830152612be9816127ea565b9050919050565b60006020820190508181036000830152612c098161280d565b9050919050565b60006020820190508181036000830152612c2981612830565b9050919050565b60006020820190508181036000830152612c4981612853565b9050919050565b60006020820190508181036000830152612c6981612876565b9050919050565b60006020820190508181036000830152612c8981612899565b9050919050565b60006020820190508181036000830152612ca9816128bc565b9050919050565b60006020820190508181036000830152612cc9816128df565b9050919050565b60006020820190508181036000830152612ce981612902565b9050919050565b60006020820190508181036000830152612d0981612925565b9050919050565b60006020820190508181036000830152612d2981612948565b9050919050565b60006020820190508181036000830152612d498161296b565b9050919050565b60006020820190508181036000830152612d698161298e565b9050919050565b6000602082019050612d8560008301846129b1565b92915050565b6000612d95612da6565b9050612da18282613033565b919050565b6000604051905090565b600067ffffffffffffffff821115612dcb57612dca6131ab565b5b612dd4826131da565b9050602081019050919050565b600081519050919050565b600081519050919050565b600082825260208201905092915050565b600082825260208201905092915050565b600081905092915050565b6000612e2f82612fb5565b9150612e3a83612fb5565b9250827fffffffffffffffffffffffffffffffffffffffffffffffffffffffffffffffff03821115612e6f57612e6e61311e565b5b828201905092915050565b6000612e8582612fb5565b9150612e9083612fb5565b925082612ea057612e9f61314d565b5b828204905092915050565b6000612eb682612fb5565b9150612ec183612fb5565b9250817fffffffffffffffffffffffffffffffffffffffffffffffffffffffffffffffff0483118215151615612efa57612ef961311e565b5b828202905092915050565b6000612f1082612fb5565b9150612f1b83612fb5565b925082821015612f2e57612f2d61311e565b5b828203905092915050565b6000612f4482612f95565b9050919050565b6000612f5682612f95565b9050919050565b60008115159050919050565b60007fffffffff0000000000000000000000000000000000000000000000000000000082169050919050565b600073ffffffffffffffffffffffffffffffffffffffff82169050919050565b6000819050919050565b82818337600083830152505050565b60005b83811015612fec578082015181840152602081019050612fd1565b83811115612ffb576000848401525b50505050565b6000600282049050600182168061301957607f821691505b6020821081141561302d5761302c61317c565b5b50919050565b61303c826131da565b810181811067ffffffffffffffff8211171561305b5761305a6131ab565b5b80604052505050565b600061306f82612fb5565b91507fffffffffffffffffffffffffffffffffffffffffffffffffffffffffffffffff8214156130a2576130a161311e565b5b600182019050919050565b60006130b8826130d1565b9050919050565b60006130ca826130d1565b9050919050565b60006130dc826131eb565b9050919050565b6000819050919050565b60006130f882612fb5565b915061310383612fb5565b9250826131135761311261314d565b5b828206905092915050565b7f4e487b7100000000000000000000000000000000000000000000000000000000600052601160045260246000fd5b7f4e487b7100000000000000000000000000000000000000000000000000000000600052601260045260246000fd5b7f4e487b7100000000000000000000000000000000000000000000000000000000600052602260045260246000fd5b7f4e487b7100000000000000000000000000000000000000000000000000000000600052604160045260246000fd5b6000601f19601f8301169050919050565b60008160601b9050919050565b7f4552433732313a207472616e7366657220746f206e6f6e20455243373231526560008201527f63656976657220696d706c656d656e7465720000000000000000000000000000602082015250565b7f4f776e61626c653a206e6577206f776e657220697320746865207a65726f206160008201527f6464726573730000000000000000000000000000000000000000000000000000602082015250565b7f4552433732313a20746f6b656e20616c7265616479206d696e74656400000000600082015250565b7f4552433732313a207472616e7366657220746f20746865207a65726f2061646460008201527f7265737300000000000000000000000000000000000000000000000000000000602082015250565b7f4552433732313a20617070726f766520746f2063616c6c657200000000000000600082015250565b7f4e6f20707570706572732072656d61696e696e67000000000000000000000000600082015250565b7f4552433732313a206f70657261746f7220717565727920666f72206e6f6e657860008201527f697374656e7420746f6b656e0000000000000000000000000000000000000000602082015250565b7f4552433732313a20617070726f76652063616c6c6572206973206e6f74206f7760008201527f6e6572206e6f7220617070726f76656420666f7220616c6c0000000000000000602082015250565b7f4552433732313a2062616c616e636520717565727920666f7220746865207a6560008201527f726f206164647265737300000000000000000000000000000000000000000000602082015250565b7f4552433732313a206f776e657220717565727920666f72206e6f6e657869737460008201527f656e7420746f6b656e0000000000000000000000000000000000000000000000602082015250565b7f4552433732313a206d696e7420746f20746865207a65726f2061646472657373600082015250565b7f4552433732313a20617070726f76656420717565727920666f72206e6f6e657860008201527f697374656e7420746f6b656e0000000000000000000000000000000000000000602082015250565b7f4f776e61626c653a2063616c6c6572206973206e6f7420746865206f776e6572600082015250565b7f4552433732313a207472616e73666572206f6620746f6b656e2074686174206960008201527f73206e6f74206f776e0000000000000000000000000000000000000000000000602082015250565b7f4552433732314d657461646174613a2055524920717565727920666f72206e6f60008201527f6e6578697374656e7420746f6b656e0000000000000000000000000000000000602082015250565b7f4552433732313a20617070726f76616c20746f2063757272656e74206f776e6560008201527f7200000000000000000000000000000000000000000000000000000000000000602082015250565b7f4552433732313a207472616e736665722063616c6c6572206973206e6f74206f60008201527f776e6572206e6f7220617070726f766564000000000000000000000000000000602082015250565b61368281612f39565b811461368d57600080fd5b50565b61369981612f5d565b81146136a457600080fd5b50565b6136b081612f69565b81146136bb57600080fd5b50565b6136c781612fb5565b81146136d257600080fd5b5056fea264697066735822122045b8534f2a791f9ea2158378d8dcd1a69b1621ba597d14479929b0f47047e3ea64736f6c63430008030033",
  "linkReferences": {},
  "deployedLinkReferences": {}
}