{
  "_format": "hh-sol-artifact-1",
  "contractName": "MyGovernor1",
  "sourceName": "contracts/mocks/wizard/MyGovernor1.sol",
  "abi": [
    {
      "inputs": [
        {
          "internalType": "contract ERC20Votes",
          "name": "_token",
          "type": "address"
        },
        {
          "internalType": "contract TimelockController",
          "name": "_timelock",
          "type": "address"
        }
      ],
      "stateMutability": "nonpayable",
      "type": "constructor"
    },
    {
      "anonymous": false,
      "inputs": [
        {
          "indexed": false,
          "internalType": "uint256",
          "name": "proposalId",
          "type": "uint256"
        }
      ],
      "name": "ProposalCanceled",
      "type": "event"
    },
    {
      "anonymous": false,
      "inputs": [
        {
          "indexed": false,
          "internalType": "uint256",
          "name": "proposalId",
          "type": "uint256"
        },
        {
          "indexed": false,
          "internalType": "address",
          "name": "proposer",
          "type": "address"
        },
        {
          "indexed": false,
          "internalType": "address[]",
          "name": "targets",
          "type": "address[]"
        },
        {
          "indexed": false,
          "internalType": "uint256[]",
          "name": "values",
          "type": "uint256[]"
        },
        {
          "indexed": false,
          "internalType": "string[]",
          "name": "signatures",
          "type": "string[]"
        },
        {
          "indexed": false,
          "internalType": "bytes[]",
          "name": "calldatas",
          "type": "bytes[]"
        },
        {
          "indexed": false,
          "internalType": "uint256",
          "name": "startBlock",
          "type": "uint256"
        },
        {
          "indexed": false,
          "internalType": "uint256",
          "name": "endBlock",
          "type": "uint256"
        },
        {
          "indexed": false,
          "internalType": "string",
          "name": "description",
          "type": "string"
        }
      ],
      "name": "ProposalCreated",
      "type": "event"
    },
    {
      "anonymous": false,
      "inputs": [
        {
          "indexed": false,
          "internalType": "uint256",
          "name": "proposalId",
          "type": "uint256"
        }
      ],
      "name": "ProposalExecuted",
      "type": "event"
    },
    {
      "anonymous": false,
      "inputs": [
        {
          "indexed": false,
          "internalType": "uint256",
          "name": "proposalId",
          "type": "uint256"
        },
        {
          "indexed": false,
          "internalType": "uint256",
          "name": "eta",
          "type": "uint256"
        }
      ],
      "name": "ProposalQueued",
      "type": "event"
    },
    {
      "anonymous": false,
      "inputs": [
        {
          "indexed": false,
          "internalType": "uint256",
          "name": "oldQuorumNumerator",
          "type": "uint256"
        },
        {
          "indexed": false,
          "internalType": "uint256",
          "name": "newQuorumNumerator",
          "type": "uint256"
        }
      ],
      "name": "QuorumNumeratorUpdated",
      "type": "event"
    },
    {
      "anonymous": false,
      "inputs": [
        {
          "indexed": false,
          "internalType": "address",
          "name": "oldTimelock",
          "type": "address"
        },
        {
          "indexed": false,
          "internalType": "address",
          "name": "newTimelock",
          "type": "address"
        }
      ],
      "name": "TimelockChange",
      "type": "event"
    },
    {
      "anonymous": false,
      "inputs": [
        {
          "indexed": true,
          "internalType": "address",
          "name": "voter",
          "type": "address"
        },
        {
          "indexed": false,
          "internalType": "uint256",
          "name": "proposalId",
          "type": "uint256"
        },
        {
          "indexed": false,
          "internalType": "uint8",
          "name": "support",
          "type": "uint8"
        },
        {
          "indexed": false,
          "internalType": "uint256",
          "name": "weight",
          "type": "uint256"
        },
        {
          "indexed": false,
          "internalType": "string",
          "name": "reason",
          "type": "string"
        }
      ],
      "name": "VoteCast",
      "type": "event"
    },
    {
      "inputs": [],
      "name": "BALLOT_TYPEHASH",
      "outputs": [
        {
          "internalType": "bytes32",
          "name": "",
          "type": "bytes32"
        }
      ],
      "stateMutability": "view",
      "type": "function"
    },
    {
      "inputs": [],
      "name": "COUNTING_MODE",
      "outputs": [
        {
          "internalType": "string",
          "name": "",
          "type": "string"
        }
      ],
      "stateMutability": "pure",
      "type": "function"
    },
    {
      "inputs": [
        {
          "internalType": "uint256",
          "name": "proposalId",
          "type": "uint256"
        },
        {
          "internalType": "uint8",
          "name": "support",
          "type": "uint8"
        }
      ],
      "name": "castVote",
      "outputs": [
        {
          "internalType": "uint256",
          "name": "",
          "type": "uint256"
        }
      ],
      "stateMutability": "nonpayable",
      "type": "function"
    },
    {
      "inputs": [
        {
          "internalType": "uint256",
          "name": "proposalId",
          "type": "uint256"
        },
        {
          "internalType": "uint8",
          "name": "support",
          "type": "uint8"
        },
        {
          "internalType": "uint8",
          "name": "v",
          "type": "uint8"
        },
        {
          "internalType": "bytes32",
          "name": "r",
          "type": "bytes32"
        },
        {
          "internalType": "bytes32",
          "name": "s",
          "type": "bytes32"
        }
      ],
      "name": "castVoteBySig",
      "outputs": [
        {
          "internalType": "uint256",
          "name": "",
          "type": "uint256"
        }
      ],
      "stateMutability": "nonpayable",
      "type": "function"
    },
    {
      "inputs": [
        {
          "internalType": "uint256",
          "name": "proposalId",
          "type": "uint256"
        },
        {
          "internalType": "uint8",
          "name": "support",
          "type": "uint8"
        },
        {
          "internalType": "string",
          "name": "reason",
          "type": "string"
        }
      ],
      "name": "castVoteWithReason",
      "outputs": [
        {
          "internalType": "uint256",
          "name": "",
          "type": "uint256"
        }
      ],
      "stateMutability": "nonpayable",
      "type": "function"
    },
    {
      "inputs": [
        {
          "internalType": "address[]",
          "name": "targets",
          "type": "address[]"
        },
        {
          "internalType": "uint256[]",
          "name": "values",
          "type": "uint256[]"
        },
        {
          "internalType": "bytes[]",
          "name": "calldatas",
          "type": "bytes[]"
        },
        {
          "internalType": "bytes32",
          "name": "descriptionHash",
          "type": "bytes32"
        }
      ],
      "name": "execute",
      "outputs": [
        {
          "internalType": "uint256",
          "name": "",
          "type": "uint256"
        }
      ],
      "stateMutability": "payable",
      "type": "function"
    },
    {
      "inputs": [
        {
          "internalType": "address",
          "name": "account",
          "type": "address"
        },
        {
          "internalType": "uint256",
          "name": "blockNumber",
          "type": "uint256"
        }
      ],
      "name": "getVotes",
      "outputs": [
        {
          "internalType": "uint256",
          "name": "",
          "type": "uint256"
        }
      ],
      "stateMutability": "view",
      "type": "function"
    },
    {
      "inputs": [
        {
          "internalType": "uint256",
          "name": "proposalId",
          "type": "uint256"
        },
        {
          "internalType": "address",
          "name": "account",
          "type": "address"
        }
      ],
      "name": "hasVoted",
      "outputs": [
        {
          "internalType": "bool",
          "name": "",
          "type": "bool"
        }
      ],
      "stateMutability": "view",
      "type": "function"
    },
    {
      "inputs": [
        {
          "internalType": "address[]",
          "name": "targets",
          "type": "address[]"
        },
        {
          "internalType": "uint256[]",
          "name": "values",
          "type": "uint256[]"
        },
        {
          "internalType": "bytes[]",
          "name": "calldatas",
          "type": "bytes[]"
        },
        {
          "internalType": "bytes32",
          "name": "descriptionHash",
          "type": "bytes32"
        }
      ],
      "name": "hashProposal",
      "outputs": [
        {
          "internalType": "uint256",
          "name": "",
          "type": "uint256"
        }
      ],
      "stateMutability": "pure",
      "type": "function"
    },
    {
      "inputs": [],
      "name": "name",
      "outputs": [
        {
          "internalType": "string",
          "name": "",
          "type": "string"
        }
      ],
      "stateMutability": "view",
      "type": "function"
    },
    {
      "inputs": [
        {
          "internalType": "uint256",
          "name": "proposalId",
          "type": "uint256"
        }
      ],
      "name": "proposalDeadline",
      "outputs": [
        {
          "internalType": "uint256",
          "name": "",
          "type": "uint256"
        }
      ],
      "stateMutability": "view",
      "type": "function"
    },
    {
      "inputs": [
        {
          "internalType": "uint256",
          "name": "proposalId",
          "type": "uint256"
        }
      ],
      "name": "proposalEta",
      "outputs": [
        {
          "internalType": "uint256",
          "name": "",
          "type": "uint256"
        }
      ],
      "stateMutability": "view",
      "type": "function"
    },
    {
      "inputs": [
        {
          "internalType": "uint256",
          "name": "proposalId",
          "type": "uint256"
        }
      ],
      "name": "proposalSnapshot",
      "outputs": [
        {
          "internalType": "uint256",
          "name": "",
          "type": "uint256"
        }
      ],
      "stateMutability": "view",
      "type": "function"
    },
    {
      "inputs": [],
      "name": "proposalThreshold",
      "outputs": [
        {
          "internalType": "uint256",
          "name": "",
          "type": "uint256"
        }
      ],
      "stateMutability": "view",
      "type": "function"
    },
    {
      "inputs": [
        {
          "internalType": "uint256",
          "name": "proposalId",
          "type": "uint256"
        }
      ],
      "name": "proposalVotes",
      "outputs": [
        {
          "internalType": "uint256",
          "name": "againstVotes",
          "type": "uint256"
        },
        {
          "internalType": "uint256",
          "name": "forVotes",
          "type": "uint256"
        },
        {
          "internalType": "uint256",
          "name": "abstainVotes",
          "type": "uint256"
        }
      ],
      "stateMutability": "view",
      "type": "function"
    },
    {
      "inputs": [
        {
          "internalType": "address[]",
          "name": "targets",
          "type": "address[]"
        },
        {
          "internalType": "uint256[]",
          "name": "values",
          "type": "uint256[]"
        },
        {
          "internalType": "bytes[]",
          "name": "calldatas",
          "type": "bytes[]"
        },
        {
          "internalType": "string",
          "name": "description",
          "type": "string"
        }
      ],
      "name": "propose",
      "outputs": [
        {
          "internalType": "uint256",
          "name": "",
          "type": "uint256"
        }
      ],
      "stateMutability": "nonpayable",
      "type": "function"
    },
    {
      "inputs": [
        {
          "internalType": "address[]",
          "name": "targets",
          "type": "address[]"
        },
        {
          "internalType": "uint256[]",
          "name": "values",
          "type": "uint256[]"
        },
        {
          "internalType": "bytes[]",
          "name": "calldatas",
          "type": "bytes[]"
        },
        {
          "internalType": "bytes32",
          "name": "descriptionHash",
          "type": "bytes32"
        }
      ],
      "name": "queue",
      "outputs": [
        {
          "internalType": "uint256",
          "name": "",
          "type": "uint256"
        }
      ],
      "stateMutability": "nonpayable",
      "type": "function"
    },
    {
      "inputs": [
        {
          "internalType": "uint256",
          "name": "blockNumber",
          "type": "uint256"
        }
      ],
      "name": "quorum",
      "outputs": [
        {
          "internalType": "uint256",
          "name": "",
          "type": "uint256"
        }
      ],
      "stateMutability": "view",
      "type": "function"
    },
    {
      "inputs": [],
      "name": "quorumDenominator",
      "outputs": [
        {
          "internalType": "uint256",
          "name": "",
          "type": "uint256"
        }
      ],
      "stateMutability": "view",
      "type": "function"
    },
    {
      "inputs": [],
      "name": "quorumNumerator",
      "outputs": [
        {
          "internalType": "uint256",
          "name": "",
          "type": "uint256"
        }
      ],
      "stateMutability": "view",
      "type": "function"
    },
    {
      "inputs": [
        {
          "internalType": "uint256",
          "name": "proposalId",
          "type": "uint256"
        }
      ],
      "name": "state",
      "outputs": [
        {
          "internalType": "enum IGovernor.ProposalState",
          "name": "",
          "type": "uint8"
        }
      ],
      "stateMutability": "view",
      "type": "function"
    },
    {
      "inputs": [
        {
          "internalType": "bytes4",
          "name": "interfaceId",
          "type": "bytes4"
        }
      ],
      "name": "supportsInterface",
      "outputs": [
        {
          "internalType": "bool",
          "name": "",
          "type": "bool"
        }
      ],
      "stateMutability": "view",
      "type": "function"
    },
    {
      "inputs": [],
      "name": "timelock",
      "outputs": [
        {
          "internalType": "address",
          "name": "",
          "type": "address"
        }
      ],
      "stateMutability": "view",
      "type": "function"
    },
    {
      "inputs": [],
      "name": "token",
      "outputs": [
        {
          "internalType": "contract ERC20Votes",
          "name": "",
          "type": "address"
        }
      ],
      "stateMutability": "view",
      "type": "function"
    },
    {
      "inputs": [
        {
          "internalType": "uint256",
          "name": "newQuorumNumerator",
          "type": "uint256"
        }
      ],
      "name": "updateQuorumNumerator",
      "outputs": [],
      "stateMutability": "nonpayable",
      "type": "function"
    },
    {
      "inputs": [
        {
          "internalType": "contract TimelockController",
          "name": "newTimelock",
          "type": "address"
        }
      ],
      "name": "updateTimelock",
      "outputs": [],
      "stateMutability": "nonpayable",
      "type": "function"
    },
    {
      "inputs": [],
      "name": "version",
      "outputs": [
        {
          "internalType": "string",
          "name": "",
          "type": "string"
        }
      ],
      "stateMutability": "view",
      "type": "function"
    },
    {
      "inputs": [],
      "name": "votingDelay",
      "outputs": [
        {
          "internalType": "uint256",
          "name": "",
          "type": "uint256"
        }
      ],
      "stateMutability": "pure",
      "type": "function"
    },
    {
      "inputs": [],
      "name": "votingPeriod",
      "outputs": [
        {
          "internalType": "uint256",
          "name": "",
          "type": "uint256"
        }
      ],
      "stateMutability": "pure",
      "type": "function"
    },
    {
      "stateMutability": "payable",
      "type": "receive"
    }
  ],
  "bytecode": "0x6101606040523480156200001257600080fd5b50604051620052f2380380620052f283398181016040528101906200003891906200045a565b600482826040518060400160405280600a81526020017f4d79476f7665726e6f72000000000000000000000000000000000000000000008152508062000083620001b760201b60201c565b60008280519060200120905060008280519060200120905060007f8b73c3c69bb8fe3d512ecc4cf759cc79239f7b179b0ffacaa9a75d522b39400f90508260e081815250508161010081815250504660a08181525050620000ec818484620001f460201b60201c565b608081815250503073ffffffffffffffffffffffffffffffffffffffff1660c08173ffffffffffffffffffffffffffffffffffffffff1660601b8152505080610120818152505050505050508060009080519060200190620001509291906200037c565b505062000163816200023060201b60201c565b508073ffffffffffffffffffffffffffffffffffffffff166101408173ffffffffffffffffffffffffffffffffffffffff1660601b8152505050620001ae81620002d160201b60201c565b50505062000771565b60606040518060400160405280600181526020017f3100000000000000000000000000000000000000000000000000000000000000815250905090565b600083838346306040516020016200021195949392919062000522565b6040516020818303038152906040528051906020012090509392505050565b7f08f74ea46ef7894f65eabfb5e6e695de773a000b47c529ab559178069b226401600260009054906101000a900473ffffffffffffffffffffffffffffffffffffffff168260405162000285929190620004f5565b60405180910390a180600260006101000a81548173ffffffffffffffffffffffffffffffffffffffff021916908373ffffffffffffffffffffffffffffffffffffffff16021790555050565b620002e16200037360201b60201c565b81111562000326576040517f08c379a00000000000000000000000000000000000000000000000000000000081526004016200031d906200057f565b60405180910390fd5b60006004549050816004819055507f0553476bf02ef2726e8ce5ced78d63e26e602e4a2257b1f559418e24b4633997818360405162000367929190620005a1565b60405180910390a15050565b60006064905090565b8280546200038a9062000663565b90600052602060002090601f016020900481019282620003ae5760008555620003fa565b82601f10620003c957805160ff1916838001178555620003fa565b82800160010185558215620003fa579182015b82811115620003f9578251825591602001919060010190620003dc565b5b5090506200040991906200040d565b5090565b5b80821115620004285760008160009055506001016200040e565b5090565b6000815190506200043d816200073d565b92915050565b600081519050620004548162000757565b92915050565b600080604083850312156200046e57600080fd5b60006200047e858286016200042c565b9250506020620004918582860162000443565b9150509250929050565b620004a681620005df565b82525050565b620004b78162000607565b82525050565b6000620004cc604383620005ce565b9150620004d982620006c8565b606082019050919050565b620004ef8162000659565b82525050565b60006040820190506200050c60008301856200049b565b6200051b60208301846200049b565b9392505050565b600060a082019050620005396000830188620004ac565b620005486020830187620004ac565b620005576040830186620004ac565b620005666060830185620004e4565b6200057560808301846200049b565b9695505050505050565b600060208201905081810360008301526200059a81620004bd565b9050919050565b6000604082019050620005b86000830185620004e4565b620005c76020830184620004e4565b9392505050565b600082825260208201905092915050565b6000620005ec8262000639565b9050919050565b6000620006008262000639565b9050919050565b6000819050919050565b60006200061e82620005df565b9050919050565b60006200063282620005f3565b9050919050565b600073ffffffffffffffffffffffffffffffffffffffff82169050919050565b6000819050919050565b600060028204905060018216806200067c57607f821691505b6020821081141562000693576200069262000699565b5b50919050565b7f4e487b7100000000000000000000000000000000000000000000000000000000600052602260045260246000fd5b7f476f7665726e6f72566f74657351756f72756d4672616374696f6e3a2071756f60008201527f72756d4e756d657261746f72206f7665722071756f72756d44656e6f6d696e6160208201527f746f720000000000000000000000000000000000000000000000000000000000604082015250565b620007488162000611565b81146200075457600080fd5b50565b620007628162000625565b81146200076e57600080fd5b50565b60805160a05160c05160601c60e05161010051610120516101405160601c614b12620007e0600039600081816113b201528181611c680152611d2d01526000611fb501526000611ff701526000611fd601526000611f0b01526000611f6101526000611f8a0152614b126000f3fe6080604052600436106101c65760003560e01c80637b3c71d3116100f7578063c01f9e3711610095578063deaaa7cc11610064578063deaaa7cc14610731578063eb9019d41461075c578063f8ce560a14610799578063fc0c546a146107d65761020c565b8063c01f9e3714610661578063c59057e41461069e578063d33219b4146106db578063dd4e2ba5146107065761020c565b8063a7713a70116100d1578063a7713a70146105a5578063a890c910146105d0578063ab58fb8e146105f9578063b58131b0146106365761020c565b80637b3c71d3146105005780637d5e81e21461053d57806397c3d3341461057a5761020c565b80633932abb111610164578063438596321161013e578063438596321461041c578063544ffc9c1461045957806354fd4d501461049857806356781388146104c35761020c565b80633932abb1146103775780633bccf4fd146103a25780633e4f49e6146103df5761020c565b806306fdde03116101a057806306fdde03146102a2578063160cbed7146102cd5780632656227d1461030a5780632d63f6931461033a5761020c565b806301ffc9a71461021157806302a251a31461024e57806306f3f9e6146102795761020c565b3661020c573073ffffffffffffffffffffffffffffffffffffffff166101ea610801565b73ffffffffffffffffffffffffffffffffffffffff161461020a57600080fd5b005b600080fd5b34801561021d57600080fd5b5061023860048036038101906102339190613089565b610810565b6040516102459190613a1c565b60405180910390f35b34801561025a57600080fd5b50610263610822565b6040516102709190613d79565b60405180910390f35b34801561028557600080fd5b506102a0600480360381019061029b91906130db565b61082c565b005b3480156102ae57600080fd5b506102b76108b4565b6040516102c49190613b57565b60405180910390f35b3480156102d957600080fd5b506102f460048036038101906102ef9190612ec9565b610946565b6040516103019190613d79565b60405180910390f35b610324600480360381019061031f9190612ec9565b610c6a565b6040516103319190613d79565b60405180910390f35b34801561034657600080fd5b50610361600480360381019061035c91906130db565b610e35565b60405161036e9190613d79565b60405180910390f35b34801561038357600080fd5b5061038c610ea3565b6040516103999190613d79565b60405180910390f35b3480156103ae57600080fd5b506103c960048036038101906103c49190613211565b610eac565b6040516103d69190613d79565b60405180910390f35b3480156103eb57600080fd5b50610406600480360381019061040191906130db565b610f36565b6040516104139190613b3c565b60405180910390f35b34801561042857600080fd5b50610443600480360381019061043e919061312d565b610f48565b6040516104509190613a1c565b60405180910390f35b34801561046557600080fd5b50610480600480360381019061047b91906130db565b610fb3565b60405161048f93929190613e6d565b60405180910390f35b3480156104a457600080fd5b506104ad610feb565b6040516104ba9190613b57565b60405180910390f35b3480156104cf57600080fd5b506104ea60048036038101906104e59190613169565b611028565b6040516104f79190613d79565b60405180910390f35b34801561050c57600080fd5b50610527600480360381019061052291906131a5565b611059565b6040516105349190613d79565b60405180910390f35b34801561054957600080fd5b50610564600480360381019061055f9190612f74565b6110c1565b6040516105719190613d79565b60405180910390f35b34801561058657600080fd5b5061058f6110d9565b60405161059c9190613d79565b60405180910390f35b3480156105b157600080fd5b506105ba6110e2565b6040516105c79190613d79565b60405180910390f35b3480156105dc57600080fd5b506105f760048036038101906105f291906130b2565b6110ec565b005b34801561060557600080fd5b50610620600480360381019061061b91906130db565b611174565b60405161062d9190613d79565b60405180910390f35b34801561064257600080fd5b5061064b611250565b6040516106589190613d79565b60405180910390f35b34801561066d57600080fd5b50610688600480360381019061068391906130db565b611255565b6040516106959190613d79565b60405180910390f35b3480156106aa57600080fd5b506106c560048036038101906106c09190612ec9565b6112c3565b6040516106d29190613d79565b60405180910390f35b3480156106e757600080fd5b506106f06112ff565b6040516106fd9190613877565b60405180910390f35b34801561071257600080fd5b5061071b611329565b6040516107289190613b57565b60405180910390f35b34801561073d57600080fd5b50610746611366565b6040516107539190613a37565b60405180910390f35b34801561076857600080fd5b50610783600480360381019061077e9190612e8d565b61138a565b6040516107909190613d79565b60405180910390f35b3480156107a557600080fd5b506107c060048036038101906107bb91906130db565b61139e565b6040516107cd9190613d79565b60405180910390f35b3480156107e257600080fd5b506107eb6113b0565b6040516107f89190613b21565b60405180910390f35b600061080b6113d4565b905090565b600061081b826113fe565b9050919050565b600061b2fa905090565b610834610801565b73ffffffffffffffffffffffffffffffffffffffff16610852611478565b73ffffffffffffffffffffffffffffffffffffffff16146108a8576040517f08c379a000000000000000000000000000000000000000000000000000000000815260040161089f90613b99565b60405180910390fd5b6108b181611480565b50565b6060600080546108c39061440a565b80601f01602080910402602001604051908101604052809291908181526020018280546108ef9061440a565b801561093c5780601f106109115761010080835404028352916020019161093c565b820191906000526020600020905b81548152906001019060200180831161091f57829003601f168201915b5050505050905090565b600080610955868686866112c3565b905060046007811115610991577f4e487b7100000000000000000000000000000000000000000000000000000000600052602160045260246000fd5b61099a82610f36565b60078111156109d2577f4e487b7100000000000000000000000000000000000000000000000000000000600052602160045260246000fd5b14610a12576040517f08c379a0000000000000000000000000000000000000000000000000000000008152600401610a0990613cf9565b60405180910390fd5b6000600260009054906101000a900473ffffffffffffffffffffffffffffffffffffffff1673ffffffffffffffffffffffffffffffffffffffff1663f27a0c926040518163ffffffff1660e01b815260040160206040518083038186803b158015610a7c57600080fd5b505afa158015610a90573d6000803e3d6000fd5b505050506040513d601f19601f82011682018060405250810190610ab49190613104565b9050600260009054906101000a900473ffffffffffffffffffffffffffffffffffffffff1673ffffffffffffffffffffffffffffffffffffffff1663b1c5f4278888886000896040518663ffffffff1660e01b8152600401610b1a95949392919061393e565b60206040518083038186803b158015610b3257600080fd5b505afa158015610b46573d6000803e3d6000fd5b505050506040513d601f19601f82011682018060405250810190610b6a9190613060565b6003600084815260200190815260200160002081905550600260009054906101000a900473ffffffffffffffffffffffffffffffffffffffff1673ffffffffffffffffffffffffffffffffffffffff16638f2a0bb0888888600089876040518763ffffffff1660e01b8152600401610be7969594939291906139a6565b600060405180830381600087803b158015610c0157600080fd5b505af1158015610c15573d6000803e3d6000fd5b505050507f9a2e42fd6722813d69113e7d0079d3d940171428df7373df9c7f7617cfda2892828242610c479190614133565b604051610c55929190613e44565b60405180910390a18192505050949350505050565b600080610c79868686866112c3565b90506000610c8682610f36565b905060046007811115610cc2577f4e487b7100000000000000000000000000000000000000000000000000000000600052602160045260246000fd5b816007811115610cfb577f4e487b7100000000000000000000000000000000000000000000000000000000600052602160045260246000fd5b1480610d77575060056007811115610d3c577f4e487b7100000000000000000000000000000000000000000000000000000000600052602160045260246000fd5b816007811115610d75577f4e487b7100000000000000000000000000000000000000000000000000000000600052602160045260246000fd5b145b610db6576040517f08c379a0000000000000000000000000000000000000000000000000000000008152600401610dad90613cf9565b60405180910390fd5b600180600084815260200190815260200160002060020160006101000a81548160ff0219169083151502179055507f712ae1383f79ac853f8d882153778e0260ef8f03b504e2866e0593e04d2b291f82604051610e139190613d79565b60405180910390a1610e288288888888611515565b8192505050949350505050565b6000610e92600160008481526020019081526020016000206000016040518060200160405290816000820160009054906101000a900467ffffffffffffffff1667ffffffffffffffff1667ffffffffffffffff1681525050611529565b67ffffffffffffffff169050919050565b60006001905090565b600080610f0d610f057f150214d74d59b7d1e90c73fc22ef3d991dd0a76b046543d4d80ab92d2a50328f8989604051602001610eea93929190613aa5565b60405160208183030381529060405280519060200120611537565b868686611551565b9050610f2a8782886040518060200160405280600081525061157c565b91505095945050505050565b6000610f418261171c565b9050919050565b60006005600084815260200190815260200160002060030160008373ffffffffffffffffffffffffffffffffffffffff1673ffffffffffffffffffffffffffffffffffffffff16815260200190815260200160002060009054906101000a900460ff16905092915050565b600080600080600560008681526020019081526020016000209050806000015481600101548260020154935093509350509193909250565b60606040518060400160405280600181526020017f3100000000000000000000000000000000000000000000000000000000000000815250905090565b600080611033611478565b90506110508482856040518060200160405280600081525061157c565b91505092915050565b600080611064611478565b90506110b686828787878080601f016020809104026020016040519081016040528093929190818152602001838380828437600081840152601f19601f8201169050808301925050505050505061157c565b915050949350505050565b60006110cf8585858561189f565b9050949350505050565b60006064905090565b6000600454905090565b6110f4610801565b73ffffffffffffffffffffffffffffffffffffffff16611112611478565b73ffffffffffffffffffffffffffffffffffffffff1614611168576040517f08c379a000000000000000000000000000000000000000000000000000000000815260040161115f90613b99565b60405180910390fd5b61117181611bc5565b50565b600080600260009054906101000a900473ffffffffffffffffffffffffffffffffffffffff1673ffffffffffffffffffffffffffffffffffffffff1663d45c443560036000868152602001908152602001600020546040518263ffffffff1660e01b81526004016111e59190613a37565b60206040518083038186803b1580156111fd57600080fd5b505afa158015611211573d6000803e3d6000fd5b505050506040513d601f19601f820116820180604052508101906112359190613104565b9050600181146112455780611248565b60005b915050919050565b600090565b60006112b2600160008481526020019081526020016000206001016040518060200160405290816000820160009054906101000a900467ffffffffffffffff1667ffffffffffffffff1667ffffffffffffffff1681525050611529565b67ffffffffffffffff169050919050565b6000848484846040516020016112dc94939291906138e4565b6040516020818303038152906040528051906020012060001c9050949350505050565b6000600260009054906101000a900473ffffffffffffffffffffffffffffffffffffffff16905090565b60606040518060400160405280602081526020017f737570706f72743d627261766f2671756f72756d3d666f722c6162737461696e815250905090565b7f150214d74d59b7d1e90c73fc22ef3d991dd0a76b046543d4d80ab92d2a50328f81565b60006113968383611c64565b905092915050565b60006113a982611d19565b9050919050565b7f000000000000000000000000000000000000000000000000000000000000000081565b6000600260009054906101000a900473ffffffffffffffffffffffffffffffffffffffff16905090565b60007f6e665ced000000000000000000000000000000000000000000000000000000007bffffffffffffffffffffffffffffffffffffffffffffffffffffffff1916827bffffffffffffffffffffffffffffffffffffffffffffffffffffffff19161480611471575061147082611def565b5b9050919050565b600033905090565b6114886110d9565b8111156114ca576040517f08c379a00000000000000000000000000000000000000000000000000000000081526004016114c190613bb9565b60405180910390fd5b60006004549050816004819055507f0553476bf02ef2726e8ce5ced78d63e26e602e4a2257b1f559418e24b46339978183604051611509929190613e44565b60405180910390a15050565b6115228585858585611e69565b5050505050565b600081600001519050919050565b600061154a611544611f07565b83612021565b9050919050565b600080600061156287878787612054565b9150915061156f81612161565b8192505050949350505050565b600080600160008781526020019081526020016000209050600160078111156115ce577f4e487b7100000000000000000000000000000000000000000000000000000000600052602160045260246000fd5b6115d787610f36565b600781111561160f577f4e487b7100000000000000000000000000000000000000000000000000000000600052602160045260246000fd5b1461164f576040517f08c379a000000000000000000000000000000000000000000000000000000000815260040161164690613c79565b60405180910390fd5b60006116ad8661169e846000016040518060200160405290816000820160009054906101000a900467ffffffffffffffff1667ffffffffffffffff1667ffffffffffffffff1681525050611529565b67ffffffffffffffff1661138a565b90506116bb878787846124b2565b8573ffffffffffffffffffffffffffffffffffffffff167fb8e138887d0aa13bab447e82de9d5c1777041ecd21ca36ba824ff1e6c07ddda4888784886040516117079493929190613ea4565b60405180910390a28092505050949350505050565b6000806117288361272a565b905060046007811115611764577f4e487b7100000000000000000000000000000000000000000000000000000000600052602160045260246000fd5b81600781111561179d577f4e487b7100000000000000000000000000000000000000000000000000000000600052602160045260246000fd5b146117ab578091505061189a565b6000600360008581526020019081526020016000205490506000801b8114156117d857819250505061189a565b600260009054906101000a900473ffffffffffffffffffffffffffffffffffffffff1673ffffffffffffffffffffffffffffffffffffffff16632ab0f529826040518263ffffffff1660e01b81526004016118339190613a37565b60206040518083038186803b15801561184b57600080fd5b505afa15801561185f573d6000803e3d6000fd5b505050506040513d601f19601f820116820180604052508101906118839190613037565b156118935760079250505061189a565b6005925050505b919050565b60006118a9611250565b6118bf336001436118ba9190614252565b61138a565b1015611900576040517f08c379a00000000000000000000000000000000000000000000000000000000081526004016118f790613bd9565b60405180910390fd5b600061191586868686805190602001206112c3565b9050845186511461195b576040517f08c379a000000000000000000000000000000000000000000000000000000000815260040161195290613c19565b60405180910390fd5b835186511461199f576040517f08c379a000000000000000000000000000000000000000000000000000000000815260040161199690613c19565b60405180910390fd5b60008651116119e3576040517f08c379a00000000000000000000000000000000000000000000000000000000081526004016119da90613c99565b60405180910390fd5b6000600160008381526020019081526020016000209050611a43816000016040518060200160405290816000820160009054906101000a900467ffffffffffffffff1667ffffffffffffffff1667ffffffffffffffff1681525050612907565b611a82576040517f08c379a0000000000000000000000000000000000000000000000000000000008152600401611a7990613d59565b60405180910390fd5b6000611a94611a8f610ea3565b612921565b611a9d43612921565b611aa79190614189565b90506000611abb611ab6610822565b612921565b82611ac69190614189565b9050611ade828460000161297890919063ffffffff16565b611af4818460010161297890919063ffffffff16565b7f7d84a6263ae0d98d3329bd7b46bb4e8d6f98cd35a7adb45c274c8b7fd5ebd5e084611b1e611478565b8b8b8d5167ffffffffffffffff811115611b61577f4e487b7100000000000000000000000000000000000000000000000000000000600052604160045260246000fd5b604051908082528060200260200182016040528015611b9457816020015b6060815260200190600190039081611b7f5790505b508c88888e604051611bae99989796959493929190613d94565b60405180910390a183945050505050949350505050565b7f08f74ea46ef7894f65eabfb5e6e695de773a000b47c529ab559178069b226401600260009054906101000a900473ffffffffffffffffffffffffffffffffffffffff1682604051611c18929190613892565b60405180910390a180600260006101000a81548173ffffffffffffffffffffffffffffffffffffffff021916908373ffffffffffffffffffffffffffffffffffffffff16021790555050565b60007f000000000000000000000000000000000000000000000000000000000000000073ffffffffffffffffffffffffffffffffffffffff16633a46b1a884846040518363ffffffff1660e01b8152600401611cc19291906138bb565b60206040518083038186803b158015611cd957600080fd5b505afa158015611ced573d6000803e3d6000fd5b505050506040513d601f19601f82011682018060405250810190611d119190613104565b905092915050565b6000611d236110d9565b611d2b6110e2565b7f000000000000000000000000000000000000000000000000000000000000000073ffffffffffffffffffffffffffffffffffffffff16638e539e8c856040518263ffffffff1660e01b8152600401611d849190613d79565b60206040518083038186803b158015611d9c57600080fd5b505afa158015611db0573d6000803e3d6000fd5b505050506040513d601f19601f82011682018060405250810190611dd49190613104565b611dde91906141f8565b611de891906141c7565b9050919050565b60007fbf26d897000000000000000000000000000000000000000000000000000000007bffffffffffffffffffffffffffffffffffffffffffffffffffffffff1916827bffffffffffffffffffffffffffffffffffffffffffffffffffffffff19161480611e625750611e61826129a7565b5b9050919050565b600260009054906101000a900473ffffffffffffffffffffffffffffffffffffffff1673ffffffffffffffffffffffffffffffffffffffff1663e38335e5348686866000876040518763ffffffff1660e01b8152600401611ece95949392919061393e565b6000604051808303818588803b158015611ee757600080fd5b505af1158015611efb573d6000803e3d6000fd5b50505050505050505050565b60007f000000000000000000000000000000000000000000000000000000000000000073ffffffffffffffffffffffffffffffffffffffff163073ffffffffffffffffffffffffffffffffffffffff16148015611f8357507f000000000000000000000000000000000000000000000000000000000000000046145b15611fb0577f0000000000000000000000000000000000000000000000000000000000000000905061201e565b61201b7f00000000000000000000000000000000000000000000000000000000000000007f00000000000000000000000000000000000000000000000000000000000000007f0000000000000000000000000000000000000000000000000000000000000000612a11565b90505b90565b60008282604051602001612036929190613840565b60405160208183030381529060405280519060200120905092915050565b6000807f7fffffffffffffffffffffffffffffff5d576e7357a4501ddfe92f46681b20a08360001c111561208f576000600391509150612158565b601b8560ff16141580156120a75750601c8560ff1614155b156120b9576000600491509150612158565b6000600187878787604051600081526020016040526040516120de9493929190613adc565b6020604051602081039080840390855afa158015612100573d6000803e3d6000fd5b505050602060405103519050600073ffffffffffffffffffffffffffffffffffffffff168173ffffffffffffffffffffffffffffffffffffffff16141561214f57600060019250925050612158565b80600092509250505b94509492505050565b6000600481111561219b577f4e487b7100000000000000000000000000000000000000000000000000000000600052602160045260246000fd5b8160048111156121d4577f4e487b7100000000000000000000000000000000000000000000000000000000600052602160045260246000fd5b14156121df576124af565b60016004811115612219577f4e487b7100000000000000000000000000000000000000000000000000000000600052602160045260246000fd5b816004811115612252577f4e487b7100000000000000000000000000000000000000000000000000000000600052602160045260246000fd5b1415612293576040517f08c379a000000000000000000000000000000000000000000000000000000000815260040161228a90613b79565b60405180910390fd5b600260048111156122cd577f4e487b7100000000000000000000000000000000000000000000000000000000600052602160045260246000fd5b816004811115612306577f4e487b7100000000000000000000000000000000000000000000000000000000600052602160045260246000fd5b1415612347576040517f08c379a000000000000000000000000000000000000000000000000000000000815260040161233e90613bf9565b60405180910390fd5b60036004811115612381577f4e487b7100000000000000000000000000000000000000000000000000000000600052602160045260246000fd5b8160048111156123ba577f4e487b7100000000000000000000000000000000000000000000000000000000600052602160045260246000fd5b14156123fb576040517f08c379a00000000000000000000000000000000000000000000000000000000081526004016123f290613c39565b60405180910390fd5b600480811115612434577f4e487b7100000000000000000000000000000000000000000000000000000000600052602160045260246000fd5b81600481111561246d577f4e487b7100000000000000000000000000000000000000000000000000000000600052602160045260246000fd5b14156124ae576040517f08c379a00000000000000000000000000000000000000000000000000000000081526004016124a590613cb9565b60405180910390fd5b5b50565b60006005600086815260200190815260200160002090508060030160008573ffffffffffffffffffffffffffffffffffffffff1673ffffffffffffffffffffffffffffffffffffffff16815260200190815260200160002060009054906101000a900460ff1615612558576040517f08c379a000000000000000000000000000000000000000000000000000000000815260040161254f90613c59565b60405180910390fd5b60018160030160008673ffffffffffffffffffffffffffffffffffffffff1673ffffffffffffffffffffffffffffffffffffffff16815260200190815260200160002060006101000a81548160ff021916908315150217905550600060028111156125ec577f4e487b7100000000000000000000000000000000000000000000000000000000600052602160045260246000fd5b60ff168360ff161415612619578181600001600082825461260d9190614133565b92505081905550612723565b60016002811115612653577f4e487b7100000000000000000000000000000000000000000000000000000000600052602160045260246000fd5b60ff168360ff16141561268057818160010160008282546126749190614133565b92505081905550612722565b6002808111156126b9577f4e487b7100000000000000000000000000000000000000000000000000000000600052602160045260246000fd5b60ff168360ff1614156126e657818160020160008282546126da9190614133565b92505081905550612721565b6040517f08c379a000000000000000000000000000000000000000000000000000000000815260040161271890613d39565b60405180910390fd5b5b5b5050505050565b60008060016000848152602001908152602001600020604051806080016040529081600082016040518060200160405290816000820160009054906101000a900467ffffffffffffffff1667ffffffffffffffff1667ffffffffffffffff16815250508152602001600182016040518060200160405290816000820160009054906101000a900467ffffffffffffffff1667ffffffffffffffff1667ffffffffffffffff168152505081526020016002820160009054906101000a900460ff161515151581526020016002820160019054906101000a900460ff1615151515815250509050806040015115612823576007915050612902565b806060015115612837576002915050612902565b436128458260000151611529565b67ffffffffffffffff161061285e576000915050612902565b4361286c8260200151611529565b67ffffffffffffffff1610612885576001915050612902565b6128928160200151612a4b565b156128c7576128a083612a77565b80156128b157506128b083612abe565b5b6128bc5760036128bf565b60045b915050612902565b6040517f08c379a00000000000000000000000000000000000000000000000000000000081526004016128f990613d19565b60405180910390fd5b919050565b600080826000015167ffffffffffffffff16149050919050565b600067ffffffffffffffff8016821115612970576040517f08c379a000000000000000000000000000000000000000000000000000000000815260040161296790613cd9565b60405180910390fd5b819050919050565b808260000160006101000a81548167ffffffffffffffff021916908367ffffffffffffffff1602179055505050565b60007f01ffc9a7000000000000000000000000000000000000000000000000000000007bffffffffffffffffffffffffffffffffffffffffffffffffffffffff1916827bffffffffffffffffffffffffffffffffffffffffffffffffffffffff1916149050919050565b60008383834630604051602001612a2c959493929190613a52565b6040516020818303038152906040528051906020012090509392505050565b6000612a5682612ae9565b8015612a70575043826000015167ffffffffffffffff1611155b9050919050565b60008060056000848152602001908152602001600020905080600201548160010154612aa39190614133565b612ab4612aaf85610e35565b61139e565b1115915050919050565b6000806005600084815260200190815260200160002090508060000154816001015411915050919050565b600080826000015167ffffffffffffffff16119050919050565b6000612b16612b1184613f15565b613ef0565b90508083825260208201905082856020860282011115612b3557600080fd5b60005b85811015612b655781612b4b8882612cb4565b845260208401935060208301925050600181019050612b38565b5050509392505050565b6000612b82612b7d84613f41565b613ef0565b9050808382526020820190508260005b85811015612bc25781358501612ba88882612d9b565b845260208401935060208301925050600181019050612b92565b5050509392505050565b6000612bdf612bda84613f6d565b613ef0565b90508083825260208201905082856020860282011115612bfe57600080fd5b60005b85811015612c2e5781612c148882612e4e565b845260208401935060208301925050600181019050612c01565b5050509392505050565b6000612c4b612c4684613f99565b613ef0565b905082815260208101848484011115612c6357600080fd5b612c6e8482856143c8565b509392505050565b6000612c89612c8484613fca565b613ef0565b905082815260208101848484011115612ca157600080fd5b612cac8482856143c8565b509392505050565b600081359050612cc381614a3b565b92915050565b600082601f830112612cda57600080fd5b8135612cea848260208601612b03565b91505092915050565b600082601f830112612d0457600080fd5b8135612d14848260208601612b6f565b91505092915050565b600082601f830112612d2e57600080fd5b8135612d3e848260208601612bcc565b91505092915050565b600081519050612d5681614a52565b92915050565b600081359050612d6b81614a69565b92915050565b600081519050612d8081614a69565b92915050565b600081359050612d9581614a80565b92915050565b600082601f830112612dac57600080fd5b8135612dbc848260208601612c38565b91505092915050565b600081359050612dd481614a97565b92915050565b60008083601f840112612dec57600080fd5b8235905067ffffffffffffffff811115612e0557600080fd5b602083019150836001820283011115612e1d57600080fd5b9250929050565b600082601f830112612e3557600080fd5b8135612e45848260208601612c76565b91505092915050565b600081359050612e5d81614aae565b92915050565b600081519050612e7281614aae565b92915050565b600081359050612e8781614ac5565b92915050565b60008060408385031215612ea057600080fd5b6000612eae85828601612cb4565b9250506020612ebf85828601612e4e565b9150509250929050565b60008060008060808587031215612edf57600080fd5b600085013567ffffffffffffffff811115612ef957600080fd5b612f0587828801612cc9565b945050602085013567ffffffffffffffff811115612f2257600080fd5b612f2e87828801612d1d565b935050604085013567ffffffffffffffff811115612f4b57600080fd5b612f5787828801612cf3565b9250506060612f6887828801612d5c565b91505092959194509250565b60008060008060808587031215612f8a57600080fd5b600085013567ffffffffffffffff811115612fa457600080fd5b612fb087828801612cc9565b945050602085013567ffffffffffffffff811115612fcd57600080fd5b612fd987828801612d1d565b935050604085013567ffffffffffffffff811115612ff657600080fd5b61300287828801612cf3565b925050606085013567ffffffffffffffff81111561301f57600080fd5b61302b87828801612e24565b91505092959194509250565b60006020828403121561304957600080fd5b600061305784828501612d47565b91505092915050565b60006020828403121561307257600080fd5b600061308084828501612d71565b91505092915050565b60006020828403121561309b57600080fd5b60006130a984828501612d86565b91505092915050565b6000602082840312156130c457600080fd5b60006130d284828501612dc5565b91505092915050565b6000602082840312156130ed57600080fd5b60006130fb84828501612e4e565b91505092915050565b60006020828403121561311657600080fd5b600061312484828501612e63565b91505092915050565b6000806040838503121561314057600080fd5b600061314e85828601612e4e565b925050602061315f85828601612cb4565b9150509250929050565b6000806040838503121561317c57600080fd5b600061318a85828601612e4e565b925050602061319b85828601612e78565b9150509250929050565b600080600080606085870312156131bb57600080fd5b60006131c987828801612e4e565b94505060206131da87828801612e78565b935050604085013567ffffffffffffffff8111156131f757600080fd5b61320387828801612dda565b925092505092959194509250565b600080600080600060a0868803121561322957600080fd5b600061323788828901612e4e565b955050602061324888828901612e78565b945050604061325988828901612e78565b935050606061326a88828901612d5c565b925050608061327b88828901612d5c565b9150509295509295909350565b600061329483836132e0565b60208301905092915050565b60006132ac83836134d9565b905092915050565b60006132c0838361353f565b905092915050565b60006132d48383613804565b60208301905092915050565b6132e981614286565b82525050565b6132f881614286565b82525050565b60006133098261403b565b61331381856140b1565b935061331e83613ffb565b8060005b8381101561334f5781516133368882613288565b97506133418361407d565b925050600181019050613322565b5085935050505092915050565b600061336782614046565b61337181856140c2565b9350836020820285016133838561400b565b8060005b858110156133bf57848403895281516133a085826132a0565b94506133ab8361408a565b925060208a01995050600181019050613387565b50829750879550505050505092915050565b60006133dc82614051565b6133e681856140d3565b9350836020820285016133f88561401b565b8060005b85811015613434578484038952815161341585826132b4565b945061342083614097565b925060208a019950506001810190506133fc565b50829750879550505050505092915050565b60006134518261405c565b61345b81856140e4565b93506134668361402b565b8060005b8381101561349757815161347e88826132c8565b9750613489836140a4565b92505060018101905061346a565b5085935050505092915050565b6134ad816142aa565b82525050565b6134bc816142b6565b82525050565b6134d36134ce826142b6565b61446d565b82525050565b60006134e482614067565b6134ee81856140f5565b93506134fe8185602086016143d7565b61350781614562565b840191505092915050565b61351b81614366565b82525050565b61352a8161438a565b82525050565b6135398161439c565b82525050565b600061354a82614072565b6135548185614106565b93506135648185602086016143d7565b61356d81614562565b840191505092915050565b600061358382614072565b61358d8185614117565b935061359d8185602086016143d7565b6135a681614562565b840191505092915050565b60006135be601883614117565b91506135c982614580565b602082019050919050565b60006135e1601883614117565b91506135ec826145a9565b602082019050919050565b6000613604604383614117565b915061360f826145d2565b606082019050919050565b6000613627604383614117565b915061363282614647565b606082019050919050565b600061364a601f83614117565b9150613655826146bc565b602082019050919050565b600061366d600283614128565b9150613678826146e5565b600282019050919050565b6000613690602183614117565b915061369b8261470e565b604082019050919050565b60006136b3602283614117565b91506136be8261475d565b604082019050919050565b60006136d6602783614117565b91506136e1826147ac565b604082019050919050565b60006136f9602383614117565b9150613704826147fb565b604082019050919050565b600061371c601883614117565b91506137278261484a565b602082019050919050565b600061373f602283614117565b915061374a82614873565b604082019050919050565b6000613762602683614117565b915061376d826148c2565b604082019050919050565b6000613785602183614117565b915061379082614911565b604082019050919050565b60006137a8601d83614117565b91506137b382614960565b602082019050919050565b60006137cb603583614117565b91506137d682614989565b604082019050919050565b60006137ee602183614117565b91506137f9826149d8565b604082019050919050565b61380d8161433b565b82525050565b61381c8161433b565b82525050565b61382b816143b6565b82525050565b61383a81614359565b82525050565b600061384b82613660565b915061385782856134c2565b60208201915061386782846134c2565b6020820191508190509392505050565b600060208201905061388c60008301846132ef565b92915050565b60006040820190506138a760008301856132ef565b6138b460208301846132ef565b9392505050565b60006040820190506138d060008301856132ef565b6138dd6020830184613813565b9392505050565b600060808201905081810360008301526138fe81876132fe565b905081810360208301526139128186613446565b90508181036040830152613926818561335c565b905061393560608301846134b3565b95945050505050565b600060a082019050818103600083015261395881886132fe565b9050818103602083015261396c8187613446565b90508181036040830152613980818661335c565b905061398f6060830185613530565b61399c60808301846134b3565b9695505050505050565b600060c08201905081810360008301526139c081896132fe565b905081810360208301526139d48188613446565b905081810360408301526139e8818761335c565b90506139f76060830186613530565b613a0460808301856134b3565b613a1160a0830184613813565b979650505050505050565b6000602082019050613a3160008301846134a4565b92915050565b6000602082019050613a4c60008301846134b3565b92915050565b600060a082019050613a6760008301886134b3565b613a7460208301876134b3565b613a8160408301866134b3565b613a8e6060830185613813565b613a9b60808301846132ef565b9695505050505050565b6000606082019050613aba60008301866134b3565b613ac76020830185613813565b613ad46040830184613831565b949350505050565b6000608082019050613af160008301876134b3565b613afe6020830186613831565b613b0b60408301856134b3565b613b1860608301846134b3565b95945050505050565b6000602082019050613b366000830184613512565b92915050565b6000602082019050613b516000830184613521565b92915050565b60006020820190508181036000830152613b718184613578565b905092915050565b60006020820190508181036000830152613b92816135b1565b9050919050565b60006020820190508181036000830152613bb2816135d4565b9050919050565b60006020820190508181036000830152613bd2816135f7565b9050919050565b60006020820190508181036000830152613bf28161361a565b9050919050565b60006020820190508181036000830152613c128161363d565b9050919050565b60006020820190508181036000830152613c3281613683565b9050919050565b60006020820190508181036000830152613c52816136a6565b9050919050565b60006020820190508181036000830152613c72816136c9565b9050919050565b60006020820190508181036000830152613c92816136ec565b9050919050565b60006020820190508181036000830152613cb28161370f565b9050919050565b60006020820190508181036000830152613cd281613732565b9050919050565b60006020820190508181036000830152613cf281613755565b9050919050565b60006020820190508181036000830152613d1281613778565b9050919050565b60006020820190508181036000830152613d328161379b565b9050919050565b60006020820190508181036000830152613d52816137be565b9050919050565b60006020820190508181036000830152613d72816137e1565b9050919050565b6000602082019050613d8e6000830184613813565b92915050565b600061012082019050613daa600083018c613813565b613db7602083018b6132ef565b8181036040830152613dc9818a6132fe565b90508181036060830152613ddd8189613446565b90508181036080830152613df181886133d1565b905081810360a0830152613e05818761335c565b9050613e1460c0830186613822565b613e2160e0830185613822565b818103610100830152613e348184613578565b90509a9950505050505050505050565b6000604082019050613e596000830185613813565b613e666020830184613813565b9392505050565b6000606082019050613e826000830186613813565b613e8f6020830185613813565b613e9c6040830184613813565b949350505050565b6000608082019050613eb96000830187613813565b613ec66020830186613831565b613ed36040830185613813565b8181036060830152613ee58184613578565b905095945050505050565b6000613efa613f0b565b9050613f06828261443c565b919050565b6000604051905090565b600067ffffffffffffffff821115613f3057613f2f614533565b5b602082029050602081019050919050565b600067ffffffffffffffff821115613f5c57613f5b614533565b5b602082029050602081019050919050565b600067ffffffffffffffff821115613f8857613f87614533565b5b602082029050602081019050919050565b600067ffffffffffffffff821115613fb457613fb3614533565b5b613fbd82614562565b9050602081019050919050565b600067ffffffffffffffff821115613fe557613fe4614533565b5b613fee82614562565b9050602081019050919050565b6000819050602082019050919050565b6000819050602082019050919050565b6000819050602082019050919050565b6000819050602082019050919050565b600081519050919050565b600081519050919050565b600081519050919050565b600081519050919050565b600081519050919050565b600081519050919050565b6000602082019050919050565b6000602082019050919050565b6000602082019050919050565b6000602082019050919050565b600082825260208201905092915050565b600082825260208201905092915050565b600082825260208201905092915050565b600082825260208201905092915050565b600082825260208201905092915050565b600082825260208201905092915050565b600082825260208201905092915050565b600081905092915050565b600061413e8261433b565b91506141498361433b565b9250827fffffffffffffffffffffffffffffffffffffffffffffffffffffffffffffffff0382111561417e5761417d614477565b5b828201905092915050565b600061419482614345565b915061419f83614345565b92508267ffffffffffffffff038211156141bc576141bb614477565b5b828201905092915050565b60006141d28261433b565b91506141dd8361433b565b9250826141ed576141ec6144a6565b5b828204905092915050565b60006142038261433b565b915061420e8361433b565b9250817fffffffffffffffffffffffffffffffffffffffffffffffffffffffffffffffff048311821515161561424757614246614477565b5b828202905092915050565b600061425d8261433b565b91506142688361433b565b92508282101561427b5761427a614477565b5b828203905092915050565b60006142918261431b565b9050919050565b60006142a38261431b565b9050919050565b60008115159050919050565b6000819050919050565b60007fffffffff0000000000000000000000000000000000000000000000000000000082169050919050565b60006142f782614298565b9050919050565b600081905061430c82614a27565b919050565b6000819050919050565b600073ffffffffffffffffffffffffffffffffffffffff82169050919050565b6000819050919050565b600067ffffffffffffffff82169050919050565b600060ff82169050919050565b600061437182614378565b9050919050565b60006143838261431b565b9050919050565b6000614395826142fe565b9050919050565b60006143af6143aa83614311565b614573565b9050919050565b60006143c182614345565b9050919050565b82818337600083830152505050565b60005b838110156143f55780820151818401526020810190506143da565b83811115614404576000848401525b50505050565b6000600282049050600182168061442257607f821691505b6020821081141561443657614435614504565b5b50919050565b61444582614562565b810181811067ffffffffffffffff8211171561446457614463614533565b5b80604052505050565b6000819050919050565b7f4e487b7100000000000000000000000000000000000000000000000000000000600052601160045260246000fd5b7f4e487b7100000000000000000000000000000000000000000000000000000000600052601260045260246000fd5b7f4e487b7100000000000000000000000000000000000000000000000000000000600052602160045260246000fd5b7f4e487b7100000000000000000000000000000000000000000000000000000000600052602260045260246000fd5b7f4e487b7100000000000000000000000000000000000000000000000000000000600052604160045260246000fd5b6000601f19601f8301169050919050565b60008160001b9050919050565b7f45434453413a20696e76616c6964207369676e61747572650000000000000000600082015250565b7f476f7665726e6f723a206f6e6c79476f7665726e616e63650000000000000000600082015250565b7f476f7665726e6f72566f74657351756f72756d4672616374696f6e3a2071756f60008201527f72756d4e756d657261746f72206f7665722071756f72756d44656e6f6d696e6160208201527f746f720000000000000000000000000000000000000000000000000000000000604082015250565b7f476f7665726e6f72436f6d7061746962696c697479427261766f3a2070726f7060008201527f6f73657220766f7465732062656c6f772070726f706f73616c2074687265736860208201527f6f6c640000000000000000000000000000000000000000000000000000000000604082015250565b7f45434453413a20696e76616c6964207369676e6174757265206c656e67746800600082015250565b7f1901000000000000000000000000000000000000000000000000000000000000600082015250565b7f476f7665726e6f723a20696e76616c69642070726f706f73616c206c656e677460008201527f6800000000000000000000000000000000000000000000000000000000000000602082015250565b7f45434453413a20696e76616c6964207369676e6174757265202773272076616c60008201527f7565000000000000000000000000000000000000000000000000000000000000602082015250565b7f476f7665726e6f72566f74696e6753696d706c653a20766f746520616c72656160008201527f6479206361737400000000000000000000000000000000000000000000000000602082015250565b7f476f7665726e6f723a20766f7465206e6f742063757272656e746c792061637460008201527f6976650000000000000000000000000000000000000000000000000000000000602082015250565b7f476f7665726e6f723a20656d7074792070726f706f73616c0000000000000000600082015250565b7f45434453413a20696e76616c6964207369676e6174757265202776272076616c60008201527f7565000000000000000000000000000000000000000000000000000000000000602082015250565b7f53616665436173743a2076616c756520646f65736e27742066697420696e203660008201527f3420626974730000000000000000000000000000000000000000000000000000602082015250565b7f476f7665726e6f723a2070726f706f73616c206e6f742073756363657373667560008201527f6c00000000000000000000000000000000000000000000000000000000000000602082015250565b7f476f7665726e6f723a20756e6b6e6f776e2070726f706f73616c206964000000600082015250565b7f476f7665726e6f72566f74696e6753696d706c653a20696e76616c696420766160008201527f6c756520666f7220656e756d20566f7465547970650000000000000000000000602082015250565b7f476f7665726e6f723a2070726f706f73616c20616c726561647920657869737460008201527f7300000000000000000000000000000000000000000000000000000000000000602082015250565b60088110614a3857614a376144d5565b5b50565b614a4481614286565b8114614a4f57600080fd5b50565b614a5b816142aa565b8114614a6657600080fd5b50565b614a72816142b6565b8114614a7d57600080fd5b50565b614a89816142c0565b8114614a9457600080fd5b50565b614aa0816142ec565b8114614aab57600080fd5b50565b614ab78161433b565b8114614ac257600080fd5b50565b614ace81614359565b8114614ad957600080fd5b5056fea26469706673582212200f29184e22f9b2f568768b9b27c5e373503f589e8115ff2015c31b0098fe97cc64736f6c63430008030033",
  "linkReferences": {},
  "deployedLinkReferences": {}
}