{
  "_format": "hh-sol-artifact-1",
  "contractName": "PXMock",
  "sourceName": "contracts/token/PX/PXMock.sol",
  "abi": [
    {
      "inputs": [
        {
          "internalType": "string",
          "name": "name_",
          "type": "string"
        },
        {
          "internalType": "string",
          "name": "symbol_",
          "type": "string"
        },
        {
          "internalType": "address",
          "name": "DOG20Address",
          "type": "address"
        }
      ],
      "stateMutability": "nonpayable",
      "type": "constructor"
    },
    {
      "anonymous": false,
      "inputs": [
        {
          "indexed": true,
          "internalType": "address",
          "name": "owner",
          "type": "address"
        },
        {
          "indexed": true,
          "internalType": "address",
          "name": "approved",
          "type": "address"
        },
        {
          "indexed": true,
          "internalType": "uint256",
          "name": "tokenId",
          "type": "uint256"
        }
      ],
      "name": "Approval",
      "type": "event"
    },
    {
      "anonymous": false,
      "inputs": [
        {
          "indexed": true,
          "internalType": "address",
          "name": "owner",
          "type": "address"
        },
        {
          "indexed": true,
          "internalType": "address",
          "name": "operator",
          "type": "address"
        },
        {
          "indexed": false,
          "internalType": "bool",
          "name": "approved",
          "type": "bool"
        }
      ],
      "name": "ApprovalForAll",
      "type": "event"
    },
    {
      "anonymous": false,
      "inputs": [
        {
          "indexed": true,
          "internalType": "address",
          "name": "previousOwner",
          "type": "address"
        },
        {
          "indexed": true,
          "internalType": "address",
          "name": "newOwner",
          "type": "address"
        }
      ],
      "name": "OwnershipTransferred",
      "type": "event"
    },
    {
      "anonymous": false,
      "inputs": [
        {
          "indexed": true,
          "internalType": "address",
          "name": "from",
          "type": "address"
        },
        {
          "indexed": true,
          "internalType": "address",
          "name": "to",
          "type": "address"
        },
        {
          "indexed": true,
          "internalType": "uint256",
          "name": "tokenId",
          "type": "uint256"
        }
      ],
      "name": "Transfer",
      "type": "event"
    },
    {
      "inputs": [],
      "name": "DOG_TO_PIXEL_SATOSHIS",
      "outputs": [
        {
          "internalType": "uint256",
          "name": "",
          "type": "uint256"
        }
      ],
      "stateMutability": "view",
      "type": "function"
    },
    {
      "inputs": [
        {
          "internalType": "address",
          "name": "to",
          "type": "address"
        },
        {
          "internalType": "uint256",
          "name": "tokenId",
          "type": "uint256"
        }
      ],
      "name": "approve",
      "outputs": [],
      "stateMutability": "nonpayable",
      "type": "function"
    },
    {
      "inputs": [
        {
          "internalType": "address",
          "name": "owner",
          "type": "address"
        }
      ],
      "name": "balanceOf",
      "outputs": [
        {
          "internalType": "uint256",
          "name": "",
          "type": "uint256"
        }
      ],
      "stateMutability": "view",
      "type": "function"
    },
    {
      "inputs": [],
      "name": "baseURI",
      "outputs": [
        {
          "internalType": "string",
          "name": "",
          "type": "string"
        }
      ],
      "stateMutability": "view",
      "type": "function"
    },
    {
      "inputs": [
        {
          "internalType": "uint256",
          "name": "tokenId",
          "type": "uint256"
        }
      ],
      "name": "burn",
      "outputs": [],
      "stateMutability": "nonpayable",
      "type": "function"
    },
    {
      "inputs": [
        {
          "internalType": "uint256",
          "name": "pupper",
          "type": "uint256"
        }
      ],
      "name": "burnPupper",
      "outputs": [],
      "stateMutability": "nonpayable",
      "type": "function"
    },
    {
      "inputs": [
        {
          "internalType": "uint256",
          "name": "tokenId",
          "type": "uint256"
        }
      ],
      "name": "exists",
      "outputs": [
        {
          "internalType": "bool",
          "name": "",
          "type": "bool"
        }
      ],
      "stateMutability": "view",
      "type": "function"
    },
    {
      "inputs": [
        {
          "internalType": "uint256",
          "name": "amount",
          "type": "uint256"
        }
      ],
      "name": "fuelPuppyDispenser",
      "outputs": [],
      "stateMutability": "nonpayable",
      "type": "function"
    },
    {
      "inputs": [
        {
          "internalType": "uint256",
          "name": "tokenId",
          "type": "uint256"
        }
      ],
      "name": "getApproved",
      "outputs": [
        {
          "internalType": "address",
          "name": "",
          "type": "address"
        }
      ],
      "stateMutability": "view",
      "type": "function"
    },
    {
      "inputs": [
        {
          "internalType": "address",
          "name": "owner",
          "type": "address"
        },
        {
          "internalType": "address",
          "name": "operator",
          "type": "address"
        }
      ],
      "name": "isApprovedForAll",
      "outputs": [
        {
          "internalType": "bool",
          "name": "",
          "type": "bool"
        }
      ],
      "stateMutability": "view",
      "type": "function"
    },
    {
      "inputs": [
        {
          "internalType": "address",
          "name": "to",
          "type": "address"
        },
        {
          "internalType": "uint256",
          "name": "tokenId",
          "type": "uint256"
        }
      ],
      "name": "mint",
      "outputs": [],
      "stateMutability": "nonpayable",
      "type": "function"
    },
    {
      "inputs": [],
      "name": "mintPupper",
      "outputs": [
        {
          "internalType": "uint256",
          "name": "pupper",
          "type": "uint256"
        }
      ],
      "stateMutability": "nonpayable",
      "type": "function"
    },
    {
      "inputs": [
        {
          "internalType": "address",
          "name": "to",
          "type": "address"
        },
        {
          "internalType": "uint256",
          "name": "qty",
          "type": "uint256"
        }
      ],
      "name": "mintPuppers",
      "outputs": [],
      "stateMutability": "nonpayable",
      "type": "function"
    },
    {
      "inputs": [],
      "name": "name",
      "outputs": [
        {
          "internalType": "string",
          "name": "",
          "type": "string"
        }
      ],
      "stateMutability": "view",
      "type": "function"
    },
    {
      "inputs": [],
      "name": "owner",
      "outputs": [
        {
          "internalType": "address",
          "name": "",
          "type": "address"
        }
      ],
      "stateMutability": "view",
      "type": "function"
    },
    {
      "inputs": [
        {
          "internalType": "uint256",
          "name": "tokenId",
          "type": "uint256"
        }
      ],
      "name": "ownerOf",
      "outputs": [
        {
          "internalType": "address",
          "name": "",
          "type": "address"
        }
      ],
      "stateMutability": "view",
      "type": "function"
    },
    {
      "inputs": [],
      "name": "puppersRemaining",
      "outputs": [
        {
          "internalType": "uint256",
          "name": "",
          "type": "uint256"
        }
      ],
      "stateMutability": "view",
      "type": "function"
    },
    {
      "inputs": [],
      "name": "randYish",
      "outputs": [
        {
          "internalType": "uint256",
          "name": "ret",
          "type": "uint256"
        }
      ],
      "stateMutability": "view",
      "type": "function"
    },
    {
      "inputs": [
        {
          "internalType": "uint256",
          "name": "maxRand",
          "type": "uint256"
        }
      ],
      "name": "randYishInRange",
      "outputs": [
        {
          "internalType": "uint256",
          "name": "ret",
          "type": "uint256"
        }
      ],
      "stateMutability": "view",
      "type": "function"
    },
    {
      "inputs": [],
      "name": "renounceOwnership",
      "outputs": [],
      "stateMutability": "nonpayable",
      "type": "function"
    },
    {
      "inputs": [
        {
          "internalType": "address",
          "name": "to",
          "type": "address"
        },
        {
          "internalType": "uint256",
          "name": "tokenId",
          "type": "uint256"
        },
        {
          "internalType": "bytes",
          "name": "_data",
          "type": "bytes"
        }
      ],
      "name": "safeMint",
      "outputs": [],
      "stateMutability": "nonpayable",
      "type": "function"
    },
    {
      "inputs": [
        {
          "internalType": "address",
          "name": "to",
          "type": "address"
        },
        {
          "internalType": "uint256",
          "name": "tokenId",
          "type": "uint256"
        }
      ],
      "name": "safeMint",
      "outputs": [],
      "stateMutability": "nonpayable",
      "type": "function"
    },
    {
      "inputs": [
        {
          "internalType": "address",
          "name": "from",
          "type": "address"
        },
        {
          "internalType": "address",
          "name": "to",
          "type": "address"
        },
        {
          "internalType": "uint256",
          "name": "tokenId",
          "type": "uint256"
        }
      ],
      "name": "safeTransferFrom",
      "outputs": [],
      "stateMutability": "nonpayable",
      "type": "function"
    },
    {
      "inputs": [
        {
          "internalType": "address",
          "name": "from",
          "type": "address"
        },
        {
          "internalType": "address",
          "name": "to",
          "type": "address"
        },
        {
          "internalType": "uint256",
          "name": "tokenId",
          "type": "uint256"
        },
        {
          "internalType": "bytes",
          "name": "_data",
          "type": "bytes"
        }
      ],
      "name": "safeTransferFrom",
      "outputs": [],
      "stateMutability": "nonpayable",
      "type": "function"
    },
    {
      "inputs": [
        {
          "internalType": "address",
          "name": "operator",
          "type": "address"
        },
        {
          "internalType": "bool",
          "name": "approved",
          "type": "bool"
        }
      ],
      "name": "setApprovalForAll",
      "outputs": [],
      "stateMutability": "nonpayable",
      "type": "function"
    },
    {
      "inputs": [
        {
          "internalType": "uint256",
          "name": "amount",
          "type": "uint256"
        }
      ],
      "name": "setDOG_TO_PIXEL_SATOSHIS",
      "outputs": [],
      "stateMutability": "nonpayable",
      "type": "function"
    },
    {
      "inputs": [
        {
          "internalType": "uint256",
          "name": "amount",
          "type": "uint256"
        }
      ],
      "name": "setSupply",
      "outputs": [],
      "stateMutability": "nonpayable",
      "type": "function"
    },
    {
      "inputs": [
        {
          "internalType": "bytes4",
          "name": "interfaceId",
          "type": "bytes4"
        }
      ],
      "name": "supportsInterface",
      "outputs": [
        {
          "internalType": "bool",
          "name": "",
          "type": "bool"
        }
      ],
      "stateMutability": "view",
      "type": "function"
    },
    {
      "inputs": [],
      "name": "symbol",
      "outputs": [
        {
          "internalType": "string",
          "name": "",
          "type": "string"
        }
      ],
      "stateMutability": "view",
      "type": "function"
    },
    {
      "inputs": [
        {
          "internalType": "uint256",
          "name": "tokenId",
          "type": "uint256"
        }
      ],
      "name": "tokenURI",
      "outputs": [
        {
          "internalType": "string",
          "name": "",
          "type": "string"
        }
      ],
      "stateMutability": "view",
      "type": "function"
    },
    {
      "inputs": [],
      "name": "totalSupply",
      "outputs": [
        {
          "internalType": "uint256",
          "name": "",
          "type": "uint256"
        }
      ],
      "stateMutability": "view",
      "type": "function"
    },
    {
      "inputs": [
        {
          "internalType": "address",
          "name": "from",
          "type": "address"
        },
        {
          "internalType": "address",
          "name": "to",
          "type": "address"
        },
        {
          "internalType": "uint256",
          "name": "tokenId",
          "type": "uint256"
        }
      ],
      "name": "transferFrom",
      "outputs": [],
      "stateMutability": "nonpayable",
      "type": "function"
    },
    {
      "inputs": [
        {
          "internalType": "address",
          "name": "newOwner",
          "type": "address"
        }
      ],
      "name": "transferOwnership",
      "outputs": [],
      "stateMutability": "nonpayable",
      "type": "function"
    }
  ],
  "bytecode": "0x60a060405264014941658b600b553480156200001a57600080fd5b5060405162003fb938038062003fb9833981810160405281019062000040919062000332565b828282828281600090805190602001906200005d929190620001f9565b50806001908051906020019062000076929190620001f9565b505050620000996200008d6200012b60201b60201c565b6200013360201b60201c565b600073ffffffffffffffffffffffffffffffffffffffff168173ffffffffffffffffffffffffffffffffffffffff161415620000d457600080fd5b8073ffffffffffffffffffffffffffffffffffffffff1660808173ffffffffffffffffffffffffffffffffffffffff1660601b8152505062030d8060088190555062030d8060078190555050505050505062000578565b600033905090565b6000600660009054906101000a900473ffffffffffffffffffffffffffffffffffffffff16905081600660006101000a81548173ffffffffffffffffffffffffffffffffffffffff021916908373ffffffffffffffffffffffffffffffffffffffff1602179055508173ffffffffffffffffffffffffffffffffffffffff168173ffffffffffffffffffffffffffffffffffffffff167f8be0079c531659141344cd1fd0a4f28419497f9722a3daafe3b4186f6b6457e060405160405180910390a35050565b828054620002079062000483565b90600052602060002090601f0160209004810192826200022b576000855562000277565b82601f106200024657805160ff191683800117855562000277565b8280016001018555821562000277579182015b828111156200027657825182559160200191906001019062000259565b5b5090506200028691906200028a565b5090565b5b80821115620002a55760008160009055506001016200028b565b5090565b6000620002c0620002ba84620003e3565b620003ba565b905082815260208101848484011115620002d957600080fd5b620002e68482856200044d565b509392505050565b600081519050620002ff816200055e565b92915050565b600082601f8301126200031757600080fd5b815162000329848260208601620002a9565b91505092915050565b6000806000606084860312156200034857600080fd5b600084015167ffffffffffffffff8111156200036357600080fd5b620003718682870162000305565b935050602084015167ffffffffffffffff8111156200038f57600080fd5b6200039d8682870162000305565b9250506040620003b086828701620002ee565b9150509250925092565b6000620003c6620003d9565b9050620003d48282620004b9565b919050565b6000604051905090565b600067ffffffffffffffff8211156200040157620004006200051e565b5b6200040c826200054d565b9050602081019050919050565b600062000426826200042d565b9050919050565b600073ffffffffffffffffffffffffffffffffffffffff82169050919050565b60005b838110156200046d57808201518184015260208101905062000450565b838111156200047d576000848401525b50505050565b600060028204905060018216806200049c57607f821691505b60208210811415620004b357620004b2620004ef565b5b50919050565b620004c4826200054d565b810181811067ffffffffffffffff82111715620004e657620004e56200051e565b5b80604052505050565b7f4e487b7100000000000000000000000000000000000000000000000000000000600052602260045260246000fd5b7f4e487b7100000000000000000000000000000000000000000000000000000000600052604160045260246000fd5b6000601f19601f8301169050919050565b620005698162000419565b81146200057557600080fd5b50565b60805160601c613a14620005a560003960008181610bcb0152818161126e01526113a00152613a146000f3fe608060405234801561001057600080fd5b50600436106101fb5760003560e01c806370a082311161011a578063a22cb465116100ad578063c87b56dd1161007c578063c87b56dd14610586578063d85d95ef146105b6578063e25aee2f146105d4578063e985e9c5146105f0578063f2fde38b14610620576101fb565b8063a22cb46514610514578063b807f85714610530578063b88d4fde1461054c578063bcb00f2914610568576101fb565b80638da5cb5b116100e95780638da5cb5b1461049e57806395d89b41146104bc578063a035386d146104da578063a1448194146104f8576101fb565b806370a082311461042c578063715018a61461045c5780637e5c067f146104665780638832e6e314610482576101fb565b80633b4c4b25116101925780634f558e79116101615780634f558e79146103925780636352211e146103c25780636c0360eb146103f25780636d677a7414610410576101fb565b80633b4c4b251461032257806340c10f191461033e57806342842e0e1461035a57806342966c6814610376576101fb565b8063095ea7b3116101ce578063095ea7b31461029c57806318160ddd146102b857806323b872dd146102d65780632d99e94f146102f2576101fb565b806301ffc9a714610200578063055fa0d51461023057806306fdde031461024e578063081812fc1461026c575b600080fd5b61021a600480360381019061021591906128fd565b61063c565b6040516102279190612e1c565b60405180910390f35b61023861071e565b6040516102459190613079565b60405180910390f35b610256610724565b6040516102639190612e37565b60405180910390f35b6102866004803603810190610281919061294f565b6107b6565b6040516102939190612d55565b60405180910390f35b6102b660048036038101906102b19190612831565b61083b565b005b6102c0610953565b6040516102cd9190613079565b60405180910390f35b6102f060048036038101906102eb919061272b565b610959565b005b61030c6004803603810190610307919061294f565b6109b9565b6040516103199190613079565b60405180910390f35b61033c6004803603810190610337919061294f565b6109d5565b005b61035860048036038101906103539190612831565b610a1d565b005b610374600480360381019061036f919061272b565b610a2b565b005b610390600480360381019061038b919061294f565b610a4b565b005b6103ac60048036038101906103a7919061294f565b610a57565b6040516103b99190612e1c565b60405180910390f35b6103dc60048036038101906103d7919061294f565b610a69565b6040516103e99190612d55565b60405180910390f35b6103fa610b1b565b6040516104079190612e37565b60405180910390f35b61042a6004803603810190610425919061294f565b610b2a565b005b610446600480360381019061044191906126c6565b610c7e565b6040516104539190613079565b60405180910390f35b610464610d36565b005b610480600480360381019061047b9190612831565b610dbe565b005b61049c6004803603810190610497919061286d565b610e64565b005b6104a6610e74565b6040516104b39190612d55565b60405180910390f35b6104c4610e9e565b6040516104d19190612e37565b60405180910390f35b6104e2610f30565b6040516104ef9190613079565b60405180910390f35b610512600480360381019061050d9190612831565b610f36565b005b61052e600480360381019061052991906127f5565b610f44565b005b61054a6004803603810190610545919061294f565b610f5a565b005b6105666004803603810190610561919061277a565b610f64565b005b610570610fc6565b60405161057d9190613079565b60405180910390f35b6105a0600480360381019061059b919061294f565b6110cb565b6040516105ad9190612e37565b60405180910390f35b6105be611172565b6040516105cb9190613079565b60405180910390f35b6105ee60048036038101906105e9919061294f565b611322565b005b61060a600480360381019061060591906126ef565b611453565b6040516106179190612e1c565b60405180910390f35b61063a600480360381019061063591906126c6565b6114e7565b005b60007f80ac58cd000000000000000000000000000000000000000000000000000000007bffffffffffffffffffffffffffffffffffffffffffffffffffffffff1916827bffffffffffffffffffffffffffffffffffffffffffffffffffffffff1916148061070757507f5b5e139f000000000000000000000000000000000000000000000000000000007bffffffffffffffffffffffffffffffffffffffffffffffffffffffff1916827bffffffffffffffffffffffffffffffffffffffffffffffffffffffff1916145b806107175750610716826115df565b5b9050919050565b60075481565b6060600080546107339061330a565b80601f016020809104026020016040519081016040528092919081815260200182805461075f9061330a565b80156107ac5780601f10610781576101008083540402835291602001916107ac565b820191906000526020600020905b81548152906001019060200180831161078f57829003601f168201915b5050505050905090565b60006107c182611649565b610800576040517f08c379a00000000000000000000000000000000000000000000000000000000081526004016107f790612fb9565b60405180910390fd5b6004600083815260200190815260200160002060009054906101000a900473ffffffffffffffffffffffffffffffffffffffff169050919050565b600061084682610a69565b90508073ffffffffffffffffffffffffffffffffffffffff168373ffffffffffffffffffffffffffffffffffffffff1614156108b7576040517f08c379a00000000000000000000000000000000000000000000000000000000081526004016108ae90613039565b60405180910390fd5b8073ffffffffffffffffffffffffffffffffffffffff166108d66116b5565b73ffffffffffffffffffffffffffffffffffffffff1614806109055750610904816108ff6116b5565b611453565b5b610944576040517f08c379a000000000000000000000000000000000000000000000000000000000815260040161093b90612f39565b60405180910390fd5b61094e83836116bd565b505050565b60085481565b61096a6109646116b5565b82611776565b6109a9576040517f08c379a00000000000000000000000000000000000000000000000000000000081526004016109a090613059565b60405180910390fd5b6109b4838383611854565b505050565b6000816109c4610fc6565b6109ce91906133f6565b9050919050565b806007819055508060088190555060005b600854811015610a195780600960008381526020019081526020016000208190555080610a129061336d565b90506109e6565b5050565b610a278282611ab0565b5050565b610a4683838360405180602001604052806000815250610f64565b505050565b610a5481611c98565b50565b6000610a6282611649565b9050919050565b6000806002600084815260200190815260200160002060009054906101000a900473ffffffffffffffffffffffffffffffffffffffff169050600073ffffffffffffffffffffffffffffffffffffffff168173ffffffffffffffffffffffffffffffffffffffff161415610b12576040517f08c379a0000000000000000000000000000000000000000000000000000000008152600401610b0990612f79565b60405180910390fd5b80915050919050565b6060610b25611e0a565b905090565b6000600a60008381526020019081526020016000205490506000600960006007548152602001908152602001600020549050600754600a60008581526020019081526020016000208190555081600a6000838152602001908152602001600020819055508060096000848152602001908152602001600020819055508260096000600754815260200190815260200160002081905550610bc983611c98565b7f000000000000000000000000000000000000000000000000000000000000000073ffffffffffffffffffffffffffffffffffffffff1663a9059cbb33600b546040518363ffffffff1660e01b8152600401610c26929190612df3565b602060405180830381600087803b158015610c4057600080fd5b505af1158015610c54573d6000803e3d6000fd5b505050506040513d601f19601f82011682018060405250810190610c7891906128d4565b50505050565b60008073ffffffffffffffffffffffffffffffffffffffff168273ffffffffffffffffffffffffffffffffffffffff161415610cef576040517f08c379a0000000000000000000000000000000000000000000000000000000008152600401610ce690612f59565b60405180910390fd5b600360008373ffffffffffffffffffffffffffffffffffffffff1673ffffffffffffffffffffffffffffffffffffffff168152602001908152602001600020549050919050565b610d3e6116b5565b73ffffffffffffffffffffffffffffffffffffffff16610d5c610e74565b73ffffffffffffffffffffffffffffffffffffffff1614610db2576040517f08c379a0000000000000000000000000000000000000000000000000000000008152600401610da990612fd9565b60405180910390fd5b610dbc6000611e21565b565b610dc66116b5565b73ffffffffffffffffffffffffffffffffffffffff16610de4610e74565b73ffffffffffffffffffffffffffffffffffffffff1614610e3a576040517f08c379a0000000000000000000000000000000000000000000000000000000008152600401610e3190612fd9565b60405180910390fd5b60005b81811015610e5f57610e4d611172565b5080610e589061336d565b9050610e3d565b505050565b610e6f838383611ee7565b505050565b6000600660009054906101000a900473ffffffffffffffffffffffffffffffffffffffff16905090565b606060018054610ead9061330a565b80601f0160208091040260200160405190810160405280929190818152602001828054610ed99061330a565b8015610f265780601f10610efb57610100808354040283529160200191610f26565b820191906000526020600020905b815481529060010190602001808311610f0957829003601f168201915b5050505050905090565b600b5481565b610f408282611f42565b5050565b610f56610f4f6116b5565b8383611f60565b5050565b80600b8190555050565b610f75610f6f6116b5565b83611776565b610fb4576040517f08c379a0000000000000000000000000000000000000000000000000000000008152600401610fab90613059565b60405180910390fd5b610fc0848484846120cd565b50505050565b600080600754434233604051602001610fdf9190612ce0565b6040516020818303038152906040528051906020012060001c6110029190613183565b4542416040516020016110159190612cfb565b6040516020818303038152906040528051906020012060001c6110389190613183565b4442611044919061312d565b61104e919061312d565b611058919061312d565b611062919061312d565b61106c919061312d565b611076919061312d565b6040516020016110869190612d3a565b6040516020818303038152906040528051906020012060001c90506103e880826110b09190613183565b6110ba91906131b4565b816110c5919061320e565b91505090565b60606110d682611649565b611115576040517f08c379a000000000000000000000000000000000000000000000000000000000815260040161110c90613019565b60405180910390fd5b600061111f611e0a565b9050600081511161113f576040518060200160405280600081525061116a565b8061114984612129565b60405160200161115a929190612d16565b6040516020818303038152906040525b915050919050565b600080600754116111b8576040517f08c379a00000000000000000000000000000000000000000000000000000000081526004016111af90612ef9565b60405180910390fd5b60006111c56007546109b9565b9050600960008281526020019081526020016000205491506009600060016007546111f0919061320e565b81526020019081526020016000205460096000838152602001908152602001600020819055508160096000600160075461122a919061320e565b815260200190815260200160002081905550600160075461124b919061320e565b600a60008481526020019081526020016000208190555061126c3383611ab0565b7f000000000000000000000000000000000000000000000000000000000000000073ffffffffffffffffffffffffffffffffffffffff166323b872dd3330600b546040518463ffffffff1660e01b81526004016112cb93929190612d70565b602060405180830381600087803b1580156112e557600080fd5b505af11580156112f9573d6000803e3d6000fd5b505050506040513d601f19601f8201168201806040525081019061131d91906128d4565b505090565b61132a6116b5565b73ffffffffffffffffffffffffffffffffffffffff16611348610e74565b73ffffffffffffffffffffffffffffffffffffffff161461139e576040517f08c379a000000000000000000000000000000000000000000000000000000000815260040161139590612fd9565b60405180910390fd5b7f000000000000000000000000000000000000000000000000000000000000000073ffffffffffffffffffffffffffffffffffffffff166323b872dd3330600b546040518463ffffffff1660e01b81526004016113fd93929190612d70565b602060405180830381600087803b15801561141757600080fd5b505af115801561142b573d6000803e3d6000fd5b505050506040513d601f19601f8201168201806040525081019061144f91906128d4565b5050565b6000600560008473ffffffffffffffffffffffffffffffffffffffff1673ffffffffffffffffffffffffffffffffffffffff16815260200190815260200160002060008373ffffffffffffffffffffffffffffffffffffffff1673ffffffffffffffffffffffffffffffffffffffff16815260200190815260200160002060009054906101000a900460ff16905092915050565b6114ef6116b5565b73ffffffffffffffffffffffffffffffffffffffff1661150d610e74565b73ffffffffffffffffffffffffffffffffffffffff1614611563576040517f08c379a000000000000000000000000000000000000000000000000000000000815260040161155a90612fd9565b60405180910390fd5b600073ffffffffffffffffffffffffffffffffffffffff168173ffffffffffffffffffffffffffffffffffffffff1614156115d3576040517f08c379a00000000000000000000000000000000000000000000000000000000081526004016115ca90612e79565b60405180910390fd5b6115dc81611e21565b50565b60007f01ffc9a7000000000000000000000000000000000000000000000000000000007bffffffffffffffffffffffffffffffffffffffffffffffffffffffff1916827bffffffffffffffffffffffffffffffffffffffffffffffffffffffff1916149050919050565b60008073ffffffffffffffffffffffffffffffffffffffff166002600084815260200190815260200160002060009054906101000a900473ffffffffffffffffffffffffffffffffffffffff1673ffffffffffffffffffffffffffffffffffffffff1614159050919050565b600033905090565b816004600083815260200190815260200160002060006101000a81548173ffffffffffffffffffffffffffffffffffffffff021916908373ffffffffffffffffffffffffffffffffffffffff160217905550808273ffffffffffffffffffffffffffffffffffffffff1661173083610a69565b73ffffffffffffffffffffffffffffffffffffffff167f8c5be1e5ebec7d5bd14f71427d1e84f3dd0314c0f7b2291e5b200ac8c7c3b92560405160405180910390a45050565b600061178182611649565b6117c0576040517f08c379a00000000000000000000000000000000000000000000000000000000081526004016117b790612f19565b60405180910390fd5b60006117cb83610a69565b90508073ffffffffffffffffffffffffffffffffffffffff168473ffffffffffffffffffffffffffffffffffffffff16148061183a57508373ffffffffffffffffffffffffffffffffffffffff16611822846107b6565b73ffffffffffffffffffffffffffffffffffffffff16145b8061184b575061184a8185611453565b5b91505092915050565b8273ffffffffffffffffffffffffffffffffffffffff1661187482610a69565b73ffffffffffffffffffffffffffffffffffffffff16146118ca576040517f08c379a00000000000000000000000000000000000000000000000000000000081526004016118c190612ff9565b60405180910390fd5b600073ffffffffffffffffffffffffffffffffffffffff168273ffffffffffffffffffffffffffffffffffffffff16141561193a576040517f08c379a000000000000000000000000000000000000000000000000000000000815260040161193190612eb9565b60405180910390fd5b6119458383836122d6565b6119506000826116bd565b6001600360008573ffffffffffffffffffffffffffffffffffffffff1673ffffffffffffffffffffffffffffffffffffffff16815260200190815260200160002060008282546119a0919061320e565b925050819055506001600360008473ffffffffffffffffffffffffffffffffffffffff1673ffffffffffffffffffffffffffffffffffffffff16815260200190815260200160002060008282546119f7919061312d565b92505081905550816002600083815260200190815260200160002060006101000a81548173ffffffffffffffffffffffffffffffffffffffff021916908373ffffffffffffffffffffffffffffffffffffffff160217905550808273ffffffffffffffffffffffffffffffffffffffff168473ffffffffffffffffffffffffffffffffffffffff167fddf252ad1be2c89b69c2b068fc378daa952ba7f163c4a11628f55a4df523b3ef60405160405180910390a4505050565b600073ffffffffffffffffffffffffffffffffffffffff168273ffffffffffffffffffffffffffffffffffffffff161415611b20576040517f08c379a0000000000000000000000000000000000000000000000000000000008152600401611b1790612f99565b60405180910390fd5b611b2981611649565b15611b69576040517f08c379a0000000000000000000000000000000000000000000000000000000008152600401611b6090612e99565b60405180910390fd5b611b75600083836122d6565b6001600360008473ffffffffffffffffffffffffffffffffffffffff1673ffffffffffffffffffffffffffffffffffffffff1681526020019081526020016000206000828254611bc5919061312d565b92505081905550816002600083815260200190815260200160002060006101000a81548173ffffffffffffffffffffffffffffffffffffffff021916908373ffffffffffffffffffffffffffffffffffffffff160217905550600160076000828254611c31919061320e565b92505081905550808273ffffffffffffffffffffffffffffffffffffffff16600073ffffffffffffffffffffffffffffffffffffffff167fddf252ad1be2c89b69c2b068fc378daa952ba7f163c4a11628f55a4df523b3ef60405160405180910390a45050565b6000611ca382610a69565b9050611cb1816000846122d6565b611cbc6000836116bd565b611cfa6040518060400160405280600e81526020017f6275726e696e67207075707065720000000000000000000000000000000000008152506122db565b611d0382612374565b6001600360008373ffffffffffffffffffffffffffffffffffffffff1673ffffffffffffffffffffffffffffffffffffffff1681526020019081526020016000206000828254611d53919061320e565b92505081905550600160076000828254611d6d919061312d565b925050819055506002600083815260200190815260200160002060006101000a81549073ffffffffffffffffffffffffffffffffffffffff021916905581600073ffffffffffffffffffffffffffffffffffffffff168273ffffffffffffffffffffffffffffffffffffffff167fddf252ad1be2c89b69c2b068fc378daa952ba7f163c4a11628f55a4df523b3ef60405160405180910390a45050565b606060405180602001604052806000815250905090565b6000600660009054906101000a900473ffffffffffffffffffffffffffffffffffffffff16905081600660006101000a81548173ffffffffffffffffffffffffffffffffffffffff021916908373ffffffffffffffffffffffffffffffffffffffff1602179055508173ffffffffffffffffffffffffffffffffffffffff168173ffffffffffffffffffffffffffffffffffffffff167f8be0079c531659141344cd1fd0a4f28419497f9722a3daafe3b4186f6b6457e060405160405180910390a35050565b611ef18383611ab0565b611efe600084848461240d565b611f3d576040517f08c379a0000000000000000000000000000000000000000000000000000000008152600401611f3490612e59565b60405180910390fd5b505050565b611f5c828260405180602001604052806000815250611ee7565b5050565b8173ffffffffffffffffffffffffffffffffffffffff168373ffffffffffffffffffffffffffffffffffffffff161415611fcf576040517f08c379a0000000000000000000000000000000000000000000000000000000008152600401611fc690612ed9565b60405180910390fd5b80600560008573ffffffffffffffffffffffffffffffffffffffff1673ffffffffffffffffffffffffffffffffffffffff16815260200190815260200160002060008473ffffffffffffffffffffffffffffffffffffffff1673ffffffffffffffffffffffffffffffffffffffff16815260200190815260200160002060006101000a81548160ff0219169083151502179055508173ffffffffffffffffffffffffffffffffffffffff168373ffffffffffffffffffffffffffffffffffffffff167f17307eab39ab6107e8899845ad3d59bd9653f200f220920489ca2b5937696c31836040516120c09190612e1c565b60405180910390a3505050565b6120d8848484611854565b6120e48484848461240d565b612123576040517f08c379a000000000000000000000000000000000000000000000000000000000815260040161211a90612e59565b60405180910390fd5b50505050565b60606000821415612171576040518060400160405280600181526020017f300000000000000000000000000000000000000000000000000000000000000081525090506122d1565b600082905060005b600082146121a357808061218c9061336d565b915050600a8261219c9190613183565b9150612179565b60008167ffffffffffffffff8111156121e5577f4e487b7100000000000000000000000000000000000000000000000000000000600052604160045260246000fd5b6040519080825280601f01601f1916602001820160405280156122175781602001600182028036833780820191505090505b5090505b600085146122ca57600182612230919061320e565b9150600a8561223f91906133f6565b603061224b919061312d565b60f81b818381518110612287577f4e487b7100000000000000000000000000000000000000000000000000000000600052603260045260246000fd5b60200101907effffffffffffffffffffffffffffffffffffffffffffffffffffffffffffff1916908160001a905350600a856122c39190613183565b945061221b565b8093505050505b919050565b505050565b612371816040516024016122ef9190612e37565b6040516020818303038152906040527f41304fac000000000000000000000000000000000000000000000000000000007bffffffffffffffffffffffffffffffffffffffffffffffffffffffff19166020820180517bffffffffffffffffffffffffffffffffffffffffffffffffffffffff83818316178352505050506125a4565b50565b61240a816040516024016123889190613079565b6040516020818303038152906040527ff5b1bba9000000000000000000000000000000000000000000000000000000007bffffffffffffffffffffffffffffffffffffffffffffffffffffffff19166020820180517bffffffffffffffffffffffffffffffffffffffffffffffffffffffff83818316178352505050506125a4565b50565b600061242e8473ffffffffffffffffffffffffffffffffffffffff166125cd565b15612597578373ffffffffffffffffffffffffffffffffffffffff1663150b7a026124576116b5565b8786866040518563ffffffff1660e01b81526004016124799493929190612da7565b602060405180830381600087803b15801561249357600080fd5b505af19250505080156124c457506040513d601f19601f820116820180604052508101906124c19190612926565b60015b612547573d80600081146124f4576040519150601f19603f3d011682016040523d82523d6000602084013e6124f9565b606091505b5060008151141561253f576040517f08c379a000000000000000000000000000000000000000000000000000000000815260040161253690612e59565b60405180910390fd5b805181602001fd5b63150b7a0260e01b7bffffffffffffffffffffffffffffffffffffffffffffffffffffffff1916817bffffffffffffffffffffffffffffffffffffffffffffffffffffffff19161491505061259c565b600190505b949350505050565b60008151905060006a636f6e736f6c652e6c6f679050602083016000808483855afa5050505050565b600080823b905060008111915050919050565b60006125f36125ee846130b9565b613094565b90508281526020810184848401111561260b57600080fd5b6126168482856132c8565b509392505050565b60008135905061262d81613982565b92915050565b60008135905061264281613999565b92915050565b60008151905061265781613999565b92915050565b60008135905061266c816139b0565b92915050565b600081519050612681816139b0565b92915050565b600082601f83011261269857600080fd5b81356126a88482602086016125e0565b91505092915050565b6000813590506126c0816139c7565b92915050565b6000602082840312156126d857600080fd5b60006126e68482850161261e565b91505092915050565b6000806040838503121561270257600080fd5b60006127108582860161261e565b92505060206127218582860161261e565b9150509250929050565b60008060006060848603121561274057600080fd5b600061274e8682870161261e565b935050602061275f8682870161261e565b9250506040612770868287016126b1565b9150509250925092565b6000806000806080858703121561279057600080fd5b600061279e8782880161261e565b94505060206127af8782880161261e565b93505060406127c0878288016126b1565b925050606085013567ffffffffffffffff8111156127dd57600080fd5b6127e987828801612687565b91505092959194509250565b6000806040838503121561280857600080fd5b60006128168582860161261e565b925050602061282785828601612633565b9150509250929050565b6000806040838503121561284457600080fd5b60006128528582860161261e565b9250506020612863858286016126b1565b9150509250929050565b60008060006060848603121561288257600080fd5b60006128908682870161261e565b93505060206128a1868287016126b1565b925050604084013567ffffffffffffffff8111156128be57600080fd5b6128ca86828701612687565b9150509250925092565b6000602082840312156128e657600080fd5b60006128f484828501612648565b91505092915050565b60006020828403121561290f57600080fd5b600061291d8482850161265d565b91505092915050565b60006020828403121561293857600080fd5b600061294684828501612672565b91505092915050565b60006020828403121561296157600080fd5b600061296f848285016126b1565b91505092915050565b61298961298482613254565b6133c8565b82525050565b61299881613242565b82525050565b6129af6129aa82613242565b6133b6565b82525050565b6129be81613266565b82525050565b60006129cf826130ea565b6129d98185613100565b93506129e98185602086016132d7565b6129f2816134e3565b840191505092915050565b6000612a08826130f5565b612a128185613111565b9350612a228185602086016132d7565b612a2b816134e3565b840191505092915050565b6000612a41826130f5565b612a4b8185613122565b9350612a5b8185602086016132d7565b80840191505092915050565b6000612a74603283613111565b9150612a7f82613501565b604082019050919050565b6000612a97602683613111565b9150612aa282613550565b604082019050919050565b6000612aba601c83613111565b9150612ac58261359f565b602082019050919050565b6000612add602483613111565b9150612ae8826135c8565b604082019050919050565b6000612b00601983613111565b9150612b0b82613617565b602082019050919050565b6000612b23601483613111565b9150612b2e82613640565b602082019050919050565b6000612b46602c83613111565b9150612b5182613669565b604082019050919050565b6000612b69603883613111565b9150612b74826136b8565b604082019050919050565b6000612b8c602a83613111565b9150612b9782613707565b604082019050919050565b6000612baf602983613111565b9150612bba82613756565b604082019050919050565b6000612bd2602083613111565b9150612bdd826137a5565b602082019050919050565b6000612bf5602c83613111565b9150612c00826137ce565b604082019050919050565b6000612c18602083613111565b9150612c238261381d565b602082019050919050565b6000612c3b602983613111565b9150612c4682613846565b604082019050919050565b6000612c5e602f83613111565b9150612c6982613895565b604082019050919050565b6000612c81602183613111565b9150612c8c826138e4565b604082019050919050565b6000612ca4603183613111565b9150612caf82613933565b604082019050919050565b612cc3816132be565b82525050565b612cda612cd5826132be565b6133ec565b82525050565b6000612cec828461299e565b60148201915081905092915050565b6000612d078284612978565b60148201915081905092915050565b6000612d228285612a36565b9150612d2e8284612a36565b91508190509392505050565b6000612d468284612cc9565b60208201915081905092915050565b6000602082019050612d6a600083018461298f565b92915050565b6000606082019050612d85600083018661298f565b612d92602083018561298f565b612d9f6040830184612cba565b949350505050565b6000608082019050612dbc600083018761298f565b612dc9602083018661298f565b612dd66040830185612cba565b8181036060830152612de881846129c4565b905095945050505050565b6000604082019050612e08600083018561298f565b612e156020830184612cba565b9392505050565b6000602082019050612e3160008301846129b5565b92915050565b60006020820190508181036000830152612e5181846129fd565b905092915050565b60006020820190508181036000830152612e7281612a67565b9050919050565b60006020820190508181036000830152612e9281612a8a565b9050919050565b60006020820190508181036000830152612eb281612aad565b9050919050565b60006020820190508181036000830152612ed281612ad0565b9050919050565b60006020820190508181036000830152612ef281612af3565b9050919050565b60006020820190508181036000830152612f1281612b16565b9050919050565b60006020820190508181036000830152612f3281612b39565b9050919050565b60006020820190508181036000830152612f5281612b5c565b9050919050565b60006020820190508181036000830152612f7281612b7f565b9050919050565b60006020820190508181036000830152612f9281612ba2565b9050919050565b60006020820190508181036000830152612fb281612bc5565b9050919050565b60006020820190508181036000830152612fd281612be8565b9050919050565b60006020820190508181036000830152612ff281612c0b565b9050919050565b6000602082019050818103600083015261301281612c2e565b9050919050565b6000602082019050818103600083015261303281612c51565b9050919050565b6000602082019050818103600083015261305281612c74565b9050919050565b6000602082019050818103600083015261307281612c97565b9050919050565b600060208201905061308e6000830184612cba565b92915050565b600061309e6130af565b90506130aa828261333c565b919050565b6000604051905090565b600067ffffffffffffffff8211156130d4576130d36134b4565b5b6130dd826134e3565b9050602081019050919050565b600081519050919050565b600081519050919050565b600082825260208201905092915050565b600082825260208201905092915050565b600081905092915050565b6000613138826132be565b9150613143836132be565b9250827fffffffffffffffffffffffffffffffffffffffffffffffffffffffffffffffff0382111561317857613177613427565b5b828201905092915050565b600061318e826132be565b9150613199836132be565b9250826131a9576131a8613456565b5b828204905092915050565b60006131bf826132be565b91506131ca836132be565b9250817fffffffffffffffffffffffffffffffffffffffffffffffffffffffffffffffff048311821515161561320357613202613427565b5b828202905092915050565b6000613219826132be565b9150613224836132be565b92508282101561323757613236613427565b5b828203905092915050565b600061324d8261329e565b9050919050565b600061325f8261329e565b9050919050565b60008115159050919050565b60007fffffffff0000000000000000000000000000000000000000000000000000000082169050919050565b600073ffffffffffffffffffffffffffffffffffffffff82169050919050565b6000819050919050565b82818337600083830152505050565b60005b838110156132f55780820151818401526020810190506132da565b83811115613304576000848401525b50505050565b6000600282049050600182168061332257607f821691505b6020821081141561333657613335613485565b5b50919050565b613345826134e3565b810181811067ffffffffffffffff82111715613364576133636134b4565b5b80604052505050565b6000613378826132be565b91507fffffffffffffffffffffffffffffffffffffffffffffffffffffffffffffffff8214156133ab576133aa613427565b5b600182019050919050565b60006133c1826133da565b9050919050565b60006133d3826133da565b9050919050565b60006133e5826134f4565b9050919050565b6000819050919050565b6000613401826132be565b915061340c836132be565b92508261341c5761341b613456565b5b828206905092915050565b7f4e487b7100000000000000000000000000000000000000000000000000000000600052601160045260246000fd5b7f4e487b7100000000000000000000000000000000000000000000000000000000600052601260045260246000fd5b7f4e487b7100000000000000000000000000000000000000000000000000000000600052602260045260246000fd5b7f4e487b7100000000000000000000000000000000000000000000000000000000600052604160045260246000fd5b6000601f19601f8301169050919050565b60008160601b9050919050565b7f4552433732313a207472616e7366657220746f206e6f6e20455243373231526560008201527f63656976657220696d706c656d656e7465720000000000000000000000000000602082015250565b7f4f776e61626c653a206e6577206f776e657220697320746865207a65726f206160008201527f6464726573730000000000000000000000000000000000000000000000000000602082015250565b7f4552433732313a20746f6b656e20616c7265616479206d696e74656400000000600082015250565b7f4552433732313a207472616e7366657220746f20746865207a65726f2061646460008201527f7265737300000000000000000000000000000000000000000000000000000000602082015250565b7f4552433732313a20617070726f766520746f2063616c6c657200000000000000600082015250565b7f4e6f20707570706572732072656d61696e696e67000000000000000000000000600082015250565b7f4552433732313a206f70657261746f7220717565727920666f72206e6f6e657860008201527f697374656e7420746f6b656e0000000000000000000000000000000000000000602082015250565b7f4552433732313a20617070726f76652063616c6c6572206973206e6f74206f7760008201527f6e6572206e6f7220617070726f76656420666f7220616c6c0000000000000000602082015250565b7f4552433732313a2062616c616e636520717565727920666f7220746865207a6560008201527f726f206164647265737300000000000000000000000000000000000000000000602082015250565b7f4552433732313a206f776e657220717565727920666f72206e6f6e657869737460008201527f656e7420746f6b656e0000000000000000000000000000000000000000000000602082015250565b7f4552433732313a206d696e7420746f20746865207a65726f2061646472657373600082015250565b7f4552433732313a20617070726f76656420717565727920666f72206e6f6e657860008201527f697374656e7420746f6b656e0000000000000000000000000000000000000000602082015250565b7f4f776e61626c653a2063616c6c6572206973206e6f7420746865206f776e6572600082015250565b7f4552433732313a207472616e73666572206f6620746f6b656e2074686174206960008201527f73206e6f74206f776e0000000000000000000000000000000000000000000000602082015250565b7f4552433732314d657461646174613a2055524920717565727920666f72206e6f60008201527f6e6578697374656e7420746f6b656e0000000000000000000000000000000000602082015250565b7f4552433732313a20617070726f76616c20746f2063757272656e74206f776e6560008201527f7200000000000000000000000000000000000000000000000000000000000000602082015250565b7f4552433732313a207472616e736665722063616c6c6572206973206e6f74206f60008201527f776e6572206e6f7220617070726f766564000000000000000000000000000000602082015250565b61398b81613242565b811461399657600080fd5b50565b6139a281613266565b81146139ad57600080fd5b50565b6139b981613272565b81146139c457600080fd5b50565b6139d0816132be565b81146139db57600080fd5b5056fea26469706673582212206816303e0408e4948372e54a63ac119ff954bf131c0ff5cc60df5447282c730064736f6c63430008030033",
  "linkReferences": {},
  "deployedLinkReferences": {}
}